:100000000C9462000C948A000C948A000C948A0070
:100010000C948A000C948A000C948A000C948A0038
:100020000C948A000C948A000C948A000C948A0028
:100030000C948A000C948A000C948A000C948A0018
:100040000C9403050C948A000C94D1040C94AB041A
:100050000C948A000C948A000C948A000C948A00F8
:100060000C948A000C948A00000000080002010031
:100070000003040700000000000000000000000072
:10008000250028002B0000000000240027002A0083
:10009000010204081020408001020408102001021F
:1000A000040810200000000023002600290004049A
:1000B0000404040404040202020202020303030310
:1000C0000303870511241FBECFEFD8E0DEBFCDBFED
:1000D00011E0A0E0B1E0E6E6FEE102C005900D927D
:1000E000A631B107D9F722E0A6E1B1E001C01D9227
:1000F000AD37B207E1F710E0C2E6D0E004C02197C7
:10010000FE010E942B0FC136D107C9F70E94F306EA
:100110000C94310F0C9400009C01FC01E60FF71FBA
:10012000E35BFF4F9081660F771F260F371FD901C2
:10013000DD96ED91FC912081892F8095822380832B
:100140000895CF92DF92EF92FF920F931F938091C9
:10015000C50182FD18C085FD16C0E091D801F0915F
:10016000D90120813091DA0181FB992790F983FB35
:10017000882780F98927922F932321E009F020E036
:1001800082278093D6018FB7F89440912301509134
:10019000240160912501709126018FBF9091D601B5
:1001A0002091D7018091C401992309F491C02111B4
:1001B0008FC080FD6BC081608093C4014093D201E9
:1001C0005093D3016093D4017093D5018091D701EE
:1001D000882389F1992379F18091C9019091CA010D
:1001E000B0E0A0E00091D2011091D3012091D401A0
:1001F0003091D5016A017B01C01AD10AE20AF30AE3
:1002000097018601081719072A073B07A0F080917C
:10021000C40181FD10C09091CF019093D1018A64F7
:100220008F778093C4014093D2015093D3016093A0
:10023000D4017093D5018091D2019091D301A09106
:10024000D401B091D501481B590B6A0B7B0B8091EF
:10025000CB019091CC01B0E0A0E0481759076A07A4
:100260007B0768F08091CF01882349F08093D0010B
:100270001092CF018091C40184608093C4011F91CA
:100280000F91FF90EF90DF90CF9008950091D201F1
:100290001091D3012091D4013091D5016A017B01E5
:1002A000C01AD10AE20AF30A0091C7011091C801ED
:1002B00030E020E0C016D106E206F30608F4BBCF1A
:1002C00021E02093D701806280688093C4017ECFB3
:1002D0008E7F8093C401911179CF222309F4ABCF93
:1002E0001092D70181FD05C08091CF018F5F80936F
:1002F000CF018091C4018D7F80618093C4014093C0
:10030000D2015093D3016093D4017093D50186FF3D
:1003100007C01092D0011092CF018F7B8093C4014F
:100320008091C40187FF87CF8F778093C40180912C
:10033000C50181608093C50149CFAF92BF92CF9232
:10034000DF92EF92FF920F931F93CF93DF936C0195
:100350007B018B01040F151FEB015E01AE18BF0876
:10036000C017D10759F06991D601ED91FC91019028
:10037000F081E02DC6010995892B79F7C501DF9140
:10038000CF911F910F91FF90EF90DF90CF90BF9092
:10039000AF900895FC01538D448D252F30E0842FBC
:1003A00090E0821B930B541710F0CF96089501979D
:1003B0000895FC01918D828D981761F0A28DAE0F8A
:1003C000BF2FB11D5D968C91928D9F5F9F73928F11
:1003D00090E008958FEF9FEF0895FC01918D828D3D
:1003E000981731F0828DE80FF11D858D90E008950A
:1003F0008FEF9FEF0895FC01918D228D892F90E062
:10040000805C9F4F821B91098F739927089587E223
:1004100091E00E94FB0121E0892B09F420E0822F6A
:10042000089580E090E0892B29F00E940702811155
:100430000C9400000895FC01A48DA80FB92FB11DE4
:10044000A35ABF4F2C91848D90E001968F7399270A
:10045000848FA689B7892C93A089B1898C918370E8
:1004600080648C93938D848D981306C00288F389E1
:10047000E02D80818F7D80830895EF92FF920F930E
:100480001F93CF93DF93EC0181E0888F9B8D8C8D40
:1004900098131AC0E889F989808185FF15C09FB734
:1004A000F894EE89FF896083E889F98980818370F7
:1004B000806480839FBF81E090E0DF91CF911F91A6
:1004C0000F91FF90EF900895F62E0B8D10E00F5FC7
:1004D0001F4F0F731127E02E8C8D8E110CC00FB69D
:1004E00007FCFACFE889F989808185FFF5CFCE0135
:1004F0000E941B02F1CFEB8DEC0FFD2FF11DE35A93
:10050000FF4FF0829FB7F8940B8FEA89FB898081B7
:100510008062CFCFCF93DF93EC01888D8823B9F031
:10052000AA89BB89E889F9898C9185FD03C08081FE
:1005300086FD0DC00FB607FCF7CF8C9185FFF2CF7B
:10054000808185FFEDCFCE010E941B02E9CFDF91B4
:10055000CF91089590E0FC01E859FF4F2491FC01F0
:10056000E057FF4F3491FC01E255FF4FE491EE2339
:10057000C9F0222339F0233001F1A8F4213019F118
:10058000223029F1F0E0EE0FFF1FE458FF4FA59154
:10059000B4918FB7F894EC91611126C030953E2349
:1005A0003C938FBF08952730A9F02830C9F024303C
:1005B00049F7809180008F7D03C0809180008F7704
:1005C00080938000DFCF84B58F7784BDDBCF84B587
:1005D0008F7DFBCF8091B0008F778093B000D2CF1A
:1005E0008091B0008F7DF9CF3E2BDACF81E08093F0
:1005F0005902809144028F3F21F0609158020C947F
:10060000AA02089580915A02882331F110925A0269
:1006100080915B02882361F010925902809144021C
:100620008F3F31F06091580291E069270E94AA0241
:100630001092490210924A0210924B0210924C0200
:1006400080E593ECA0E0B0E080932C0290932D0223
:10065000A0932E02B0932F0208953FB7F894809193
:10066000170190911801A0911901B0911A0126B5B6
:10067000A89B05C02F3F19F00196A11DB11D3FBFDA
:10068000BA2FA92F982F8827BC01CD01620F711DA9
:10069000811D911D42E0660F771F881F991F4A95A3
:1006A000D1F70895CF93DF93EC01FC01E35BFF4F9B
:1006B0008081EDADFEAD9081892B808361E070E09B
:1006C000CE010E948C00FE01E15BFF4F80813E97CE
:1006D0000190F081E02D9081892B808363E070E0B0
:1006E000CE01DF91CF910C948C0081E080930802C1
:1006F000809104028370823089F1833009F44DC007
:10070000813069F08BED91E00E9452038091F301FA
:100710008F3F09F452C0609107020C94AA0270E066
:1007200060E08BED91E00E948C0080912902E091C5
:100730001A02F0911B029081892B808380912A02FA
:10074000E0911C02F0911D029081892B808363E06F
:1007500070E08BED91E00E948C00D8CF70E060E0FB
:100760008BED91E00E948C0080912902E0911A02A9
:10077000F0911B029081892B808362E070E08BED09
:1007800091E00E948C0080912B02E0911E02F0917A
:100790001F029081892B8083B9CF80912802E0913C
:1007A0001802F09119029081892B808361E070E03A
:1007B0008BED91E00E948C00E0CF0895CF93DF9302
:1007C000EC018BAD9CAD892B19F58DA99EA9892BC8
:1007D000F9F429A93AA9032E000C440B550B60E447
:1007E00072E48FE090E00E94B30C288339834A833F
:1007F0005B834DA15EA16FA178A589A19AA1ABA150
:10080000BCA184179507A607B7072CF08FEF8AA71E
:10081000DF91CF91089581E0FACFCF93DF93EC0180
:100820007AAB69AB0E94DE0388EE93E099878887F4
:10083000DF91CF910895CF93DF938091C60190E02F
:10084000FC01E057FF4F249182559F4FFC0184919A
:100850008823C1F090E0880F991FFC01EA57FF4FF1
:10086000C591D491FC01E458FF4FA591B4919FB775
:10087000F8948881E22FE0958E2388838C91E82379
:10088000EC939FBF8091C60190E0FC01E255FF4FC1
:10089000E491F0E0EE0FFF1FEC55FF4F25913491EE
:1008A0003093D9012093D801FC01E057FF4FE49128
:1008B000E093DA01DF91CF9108958F929F92AF92EA
:1008C000BF920F931F93CF93DF93CDB7DEB7A1975E
:1008D0000FB6F894DEBF0FBECDBF19A2423008F4A8
:1008E0004AE08E010F5D1F4F842E912CB12CA12C5C
:1008F000A50194010E94D20CE62FB901CA01EA3089
:1009000044F5E05DD801EE938D01232B242B252B9C
:1009100079F790E080E0109769F0FD0101900020E8
:10092000E9F73197AF014A1B5B0BBD0187E291E00C
:100930000E949D01A1960FB6F894DEBF0FBECDBFF9
:10094000DF91CF911F910F91BF90AF909F908F90AB
:100950000895E95CD7CF1F920F920FB60F92112422
:100960002F933F934F935F936F937F938F939F93B7
:10097000AF93BF93EF93FF9387E291E00E941B0236
:10098000FF91EF91BF91AF919F918F917F916F9167
:100990005F914F913F912F910F900FBE0F901F903D
:1009A00018951F920F920FB60F9211242F938F93C9
:1009B0009F93EF93FF93E0913701F091380180818D
:1009C000E0913D01F0913E0182FD1BC0908180913C
:1009D00040018F5F8F7320914101821741F0E091B8
:1009E0004001F0E0E95DFE4F958F80934001FF915B
:1009F000EF919F918F912F910F900FBE0F901F90AD
:100A000018958081F4CF1F920F920FB60F92112488
:100A10002F933F938F939F93AF93BF938091230125
:100A200090912401A0912501B091260130911601E9
:100A300023E0230F2D3758F50196A11DB11D2093FA
:100A400016018093230190932401A0932501B09374
:100A500026018091170190911801A0911901B09180
:100A60001A010196A11DB11D8093170190931801E1
:100A7000A0931901B0931A01BF91AF919F918F91EB
:100A80003F912F910F900FBE0F901F90189526E861
:100A9000230F0296A11DB11DD2CFCF93DF93042E59
:100AA000000C550B9A0122553F4FF901A491EA2FF2
:100AB000F0E0EE0FFF1FE458FF4FC591D491DB012A
:100AC000AA0FBB1FA80FB91FDE96DC93CE93DD974C
:100AD000F9012491E22FF0E0EE0FFF1FEA57FF4FDC
:100AE000C591D491AB5BBF4FCD93DC9340575F4F23
:100AF000FA014491860F971FDC01A35BBF4F4C9313
:100B00009C918881892B8883DF91CF9108952F92C2
:100B10003F924F925F926F927F928F929F92AF928D
:100B2000BF92CF92DF92EF92FF920F931F93CF93DA
:100B3000DF93E7E2F1E01382128288EE93E0A0E017
:100B4000B0E084839583A683B78384E091E09183AA
:100B5000808385EC90E09587848784EC90E097878C
:100B6000868780EC90E0918B808B81EC90E0938B7A
:100B7000828B82EC90E0958B848B86EC90E0978B57
:100B8000868B118E128E138E148ECCE2D2E080E111
:100B9000482E87E2582E612C712C488259826A8235
:100BA0007B821C821D821E821F8208E91AE319873C
:100BB00008871A861B861C861D861F870E87188A43
:100BC000198A1A8A1B8A91E6892E9BE0992E96E350
:100BD000A92E9BE3B92E8C8A9D8AAE8ABF8A8FEF9D
:100BE000888F198E1A8E1B8E1C8E1D8E1E8E1F8E48
:100BF00018A219A21AA21BA21CA21DA21EA21FA209
:100C000018A619A691E09AA71BA61CA61DA61EA6AB
:100C10001FA618AA2CE2222E332433943AAA29AA1A
:100C20001CAA1BAA1EAA1DAA1FAA18AE19AE1AAE8C
:100C30001CAE1BAE4BE070E060E0CE010E944D05A3
:100C400049E061E070E0CE010E944D054AE062E0BB
:100C500070E0CE010E944D0548E063E070E0CE01F7
:100C60000E944D056CE271E0CE010E940D043EAA87
:100C70002DAA3EE0C32E34E7D32E3AEDE32E3AE31D
:100C8000F32ECFAAD8AEE9AEFAAE82E599E4ADE98B
:100C9000B9E38A879B87AC87BD87CBEDD1E04882DB
:100CA00059826A827B821C821D821E821F82198762
:100CB00008871A861B861C861D861F870E87188A42
:100CC000198A1A8A1B8A8C8A9D8AAE8ABF8A9FEFEC
:100CD000988F198E1A8E1B8E1C8E1D8E1E8E1F8E47
:100CE00018A219A21AA21BA21CA21DA21EA21FA218
:100CF00018A619A6A1E0AAA71BA61CA61DA61EA69B
:100D00001FA618AA3AAA29AA1CAA1BAA1EAA1DAA8B
:100D10001FAA18AE19AE1AAE1CAE1BAE45E070E0AD
:100D200060E0CE010E944D0543E061E070E0CE013D
:100D30000E944D0544E062E070E0CE010E944D0546
:100D400042E063E070E0CE010E944D056CE271E08C
:100D5000CE010E940D043EAA2DAACFAAD8AEE9AEBC
:100D6000FAAE82E599E4ADE9B9E38A879B87AC875F
:100D7000BD87E4ECF1E08CE390E09483838384EF1F
:100D800091E0968385839087878380E991E09287BD
:100D9000818713861486158616861786108A118A0F
:100DA000128A138A8CE08283C5ECD1E088818F7D22
:100DB000886088830E941B0488818B7E8D7F888356
:100DC000DF91CF911F910F91FF90EF90DF90CF9027
:100DD000BF90AF909F908F907F906F905F904F905B
:100DE0003F902F900895CF93DF9300D000D01F92B3
:100DF000CDB7DEB7789484B5826084BD84B5816058
:100E000084BD85B5826085BD85B5816085BD8091D5
:100E10006E00816080936E0010928100809181004D
:100E20008260809381008091810081608093810045
:100E3000809180008160809380008091B100846007
:100E40008093B1008091B00081608093B000809168
:100E50007A00846080937A0080917A008260809327
:100E60007A0080917A00816080937A0080917A0084
:100E7000806880937A001092C10064E170E08CE297
:100E800092E00E940D041092680210926702109284
:100E90005C0284E190E090936202809361024DECE9
:100EA0005CEC6CEC7CE340936302509364026093CF
:100EB0006502709366024CEA55EC67EA77E340936B
:100EC0003602509337026093380270933902909340
:100ED000600280935F0280E090E0A0EAB1E480933A
:100EE000490290934A02A0934B02B0934C0280E5D2
:100EF00093ECA0E0B0E080932C0290932D02A0939D
:100F00002E02B0932F0281E08093560280935A0202
:100F100080915902811102C00E94F60288E290E09D
:100F2000A0E0B0E08093510290935202A09353024C
:100F3000B093540280914D0290914E02A0914F02C5
:100F4000B09150028897A105B10569F08CE292E05A
:100F50000E94DE0381E080935A0280915902811140
:100F600002C00E94F60221E020935B0260E273E07F
:100F70008BED91E00E940D04109217021092160260
:100F800010920B0280E991E090931102809310027D
:100F90008AE097EDA3EABAE38093120290931302DA
:100FA000A0931402B093150287E197EBA1EDB9E38A
:100FB0008093E5019093E601A093E701B093E801E7
:100FC00080E293E090930F0280930E0280E090E025
:100FD000A8E4B4E48093F8019093F901A093FA0196
:100FE000B093FB0182EE94E0A0E0B0E08093DB01DF
:100FF0009093DC01A093DD01B093DE0131E03093EA
:1010000005023093090280910802811102C00E94FA
:10101000750388E290E0A0E0B0E080930002909336
:101020000102A0930202B09303028091FC0190910F
:10103000FD01A091FE01B091FF018897A105B105C6
:1010400069F08BED91E00E94DE0381E0809309025C
:1010500080910802811102C00E94750381E0809393
:101060000A0284EF91E09093CA018093C9018091B4
:10107000C50188608093C50185FF0E941B04809193
:10108000C5018D7F80618093C501E0913701F091AA
:10109000380182E08083E0913301F09134011082C5
:1010A000E0913501F09136018FEC808310923F0181
:1010B000E0913B01F0913C0186E08083E0913901B1
:1010C000F0913A01808180618083E0913901F09153
:1010D0003A01808188608083E0913901F0913A0182
:1010E000808180688083E0913901F0913A018081AC
:1010F0008F7D808311E080E0282E80E0382E809163
:10110000C50184FD0E94A1008091C50180FF0FC030
:10111000909122018E7F8093C50181E08927809381
:1011200022018091210191E0892780932101809102
:10113000C50184FD0E94A1008091C40183FF0EC0FF
:10114000877F8093C40180912001A1E08A2780934A
:10115000200180911F018A2780931F018091220125
:10116000882309F4B9C280914D0290914E02A0915A
:101170004F02B09150028897A105B105D1F488EDD6
:101180009FEFAFEFBFEF8093510290935202A09375
:101190005302B09354028CE292E00E94DE0310935B
:1011A0005A0280915902811102C00E94F6021092E7
:1011B000220180915A02882309F454C18091670268
:1011C00090916802892B09F04DC180916102909144
:1011D0006202892B09F446C10E942D03C09030029F
:1011E000D0903102E0903202F0903302AB01BC01AA
:1011F0004C195D096E097F09809134029091350286
:10120000092E000CAA0BBB0B481759076A077B076E
:1012100008F428C10E942D036093300270933102BC
:101220008093320290933302809051029090520248
:10123000A0905302B090540280914D0290914E02C2
:10124000A0914F02B0915002881A990AAA0ABB0ACB
:10125000C0904902D0904A02E0904B02F0904C02BC
:101260006091340270913502072E000C880B990BA7
:101270000E94090E209136023091370240913802C7
:10128000509139020E94BE0E69837A838B839C83BE
:10129000A7019601C701B6010E94BE0E209163020C
:1012A0003091640240916502509166020E94BE0E28
:1012B0002B013C01C501B401B7FE07C066277727A3
:1012C000CB01681979098A099B090E94090E9B01C3
:1012D000AC01C301B2010E94B90E87FD0EC020E02F
:1012E00030E0A901C701B6010E94B90E87FD07C011
:1012F00020E030E040E85FEB06C0B7FCF9CF20E02B
:1013000030E040E85FE369817A818B819C810E94B3
:10131000BE0EA70196010E94F50C762E872E982E00
:10132000A92EC0905D02D0905E02662777276C19C7
:101330007D09072E000C880B990B0E94090EB62E12
:10134000E72EF82E9983262F372F482F592F672DF8
:10135000782D892D9A2D0E94610D87FD19C0B60147
:10136000DD0C880B990B0E94090EB62EE72EF82E85
:101370009983262F372F482F592F672D782D892DA8
:101380009A2D0E94B90E18161CF0B72C7401A98270
:101390008B2D9E2DAF2DB9818093490290934A02E7
:1013A000A0934B02B0934C0220E030E0A9016B2DDA
:1013B0007E2D8F2D9B2F0E94B90E1816CCF420E0A5
:1013C00030E040EA51E46B2D7E2D8F2D99810E94F3
:1013D000B90E1816CCF080E593ECA0E0B0E0809355
:1013E0002C0290932D02A0932E02B0932F022CC0BA
:1013F00020E030E040EA51EC6B2D7E2D8F2D99815D
:101400000E94610D87FFE7CF2B2D3E2D4F2D598177
:1014100060E074E284E799E40E94660D2B013C01D0
:1014200020E030E0A9010E94B90E18160CF0E4C0CB
:10143000C301B2010E94D80D60932C0270932D025B
:1014400080932E0290932F0220E030E0A9016B2DB3
:101450007E2D8F2D99810E94B90E87FDD1C081E02C
:101460008093560280915C02882309F4ECC080913D
:10147000670290916802892B09F4E5C00E942D0350
:10148000C0903C02D0903D02E0903E02F0903F02BE
:10149000AB01BC014C195D096E097F0980913A02CC
:1014A00090913B02092E000CAA0BBB0B4817590761
:1014B0006A077B0708F4C7C00E942D0360933C02B3
:1014C00070933D0280933E0290933F02A0915F0291
:1014D000B0916002BA83A983BD01BB0F880B990B41
:1014E0000E94090E6B017C014090490250904A0213
:1014F00060904B0270904C02A30192010E94F40C88
:1015000020E030E0A9010E94B90E87FD7BC0B1E068
:10151000BD8360913A0270913B02072E000C880B4C
:10152000990B0E94090E20913602309137024091AA
:101530003802509139020E94BE0E4B015C013D8180
:10154000632F330F770B880B990B0E94090E9B01B9
:10155000AC01C501B4010E94BE0EA30192010E941C
:10156000F50C2B013C014092490250924A026092D4
:101570004B0270924C0220E030E0A9010E94B90EAB
:1015800087FD43C081E0809356028D81813009F050
:101590003EC0A3019201C701B6010E94610D181659
:1015A0000CF040C0C0904902D0904A02E0904B023B
:1015B000F0904C0220E030E0A901C701B6010E9482
:1015C000B90E18160CF0E6C020E030E040EA51E415
:1015D000C701B6010E94B90E18160CF4E5C080E5EB
:1015E00093ECA0E0B0E080932C0290932D02A093A6
:1015F0002E02B0932F0227C0C301B20190581ACF18
:101600008FEF2ECF2FEF2D8384CF8FEFBCCF9D8117
:101610009F3F41F6A3019201C701B6010E94B90E96
:1016200087FDC0CFC0924902D0924A02E0924B029D
:10163000F0924C0210925C02A981BA81AB2B09F0A6
:10164000B1CF0E94020380915A02882309F444C05A
:101650000E942D03C0904502D0904602E0904702C0
:10166000F09048026C197D098E099F09C0902C02E8
:10167000D0902D02E0902E02F0902F026C157D0587
:101680008E059F0548F10E942D03609345027093DB
:10169000460280934702909348028091670290919E
:1016A000680240914D0250914E0260914F0270913C
:1016B0005002892B09F09AC08091510290915202F8
:1016C000A0915302B091540284179507A607B7075B
:1016D00009F08CC00E9402032FB7F8948091230177
:1016E00090912401A0912501B09126012FBF409136
:1016F0001B0150911C0160911D0170911E01841B02
:10170000950BA60BB70B4597A105B105B8F12FB7FF
:10171000F8948091230190912401A0912501B0912A
:1017200026012FBF80931B0190931C01A0931D01E4
:10173000B0931E01C0904D02D0904E02E0904F0237
:10174000F09050024AE0C701B601F7FE0DC06DE20D
:1017500087E291E00E943D0266277727CB016C1952
:101760007D098E099F094AE00E945D0442E050E035
:1017700062E171E087E291E00E949D012114310451
:1017800009F4BDCC0E940702882309F4B8CC0E945A
:101790000000B1CC20E030E040EA51ECC701B601D6
:1017A0000E94610D87FF1BCFA701960160E074E2E4
:1017B00084E799E40E94660D6B017C0120E030E033
:1017C000A9010E94B90E18166CF4C701B6010E9457
:1017D000D80D60932C0270932D0280932E0290936B
:1017E0002F0231CFC701B6019058F1CF8091560238
:1017F000C82E082E000CDD08EE08FF084C0D5D1DFC
:101800006E1D7F1D40934D0250934E0260934F0218
:1018100070935002E091550290915702911101C0CE
:101820008195E80FE0935502E770E150E73070F4DE
:101830000E2E000CFF0BE15EF34F0C942B0F3C0CB3
:10184000410C5D0C6D0C7D0C9C0CA90C80917902F7
:10185000E0916902F0916A029081892B808361E0B6
:1018600070E08CE292E00E948C0062E070E08CE21A
:1018700092E00E948C001AC08CE292E00E94520317
:101880002BCF70E060E08CE292E00E948C0061E07F
:1018900070E08CE292E00E948C0080917B02E091EB
:1018A0006D02F0916E029081892B808363E070E07D
:1018B0008CE292E00E948C000FCF70E060E08CE23E
:1018C00092E00E948C0080917A02E0916B02F0918C
:1018D0006C029081892B8083E0CF70E060E08CE225
:1018E00092E00E948C0080917A02E0916B02F0916C
:1018F0006C029081892B8083B8CF70E060E08CE22D
:1019000092E00E948C0080917A02E0916B02F0914B
:101910006C029081892B808362E070E08CE292E01F
:101920000E948C0080917C02E0916F02F091700225
:101930009081892B8083D0CE70E060E08CE292E0D1
:101940000E948C0061E070E08CE292E00E948C00CA
:10195000E3CF80917902E0916902F0916A0290816F
:10196000892B8083EFCF052E97FB1EF400940E94F5
:10197000CA0C57FD07D00E94D20C07FC03D04EF4CE
:101980000C94CA0C50954095309521953F4F4F4F80
:101990005F4F089590958095709561957F4F8F4F1B
:1019A0009F4F0895A1E21A2EAA1BBB1BFD010DC07B
:1019B000AA1FBB1FEE1FFF1FA217B307E407F507FF
:1019C00020F0A21BB30BE40BF50B661F771F881FDB
:1019D000991F1A9469F760957095809590959B0171
:1019E000AC01BD01CF0108955058BB27AA270E9422
:1019F0000C0D0C947F0E0E94710E38F00E94780E30
:101A000020F039F49F3F19F426F40C946E0E0EF476
:101A1000E095E7FB0C94680EE92F0E94900E58F3B6
:101A2000BA17620773078407950720F079F4A6F5C3
:101A30000C94B20E0EF4E0950B2EBA2FA02D0B01D4
:101A4000B90190010C01CA01A0011124FF27591B03
:101A500099F0593F50F4503E68F11A16F040A22F09
:101A6000232F342F4427585FF3CF4695379527957A
:101A7000A795F0405395C9F77EF41F16BA0B620B79
:101A8000730B840BBAF09150A1F0FF0FBB1F661FC0
:101A9000771F881FC2F70EC0BA0F621F731F841F03
:101AA00048F4879577956795B795F7959E3F08F029
:101AB000B0CF9395880F08F09927EE0F97958795EB
:101AC00008950E94440E08F481E008950E947A0D62
:101AD0000C947F0E0E94780E58F00E94710E40F018
:101AE00029F45F3F29F00C94680E51110C94B30E49
:101AF0000C946E0E0E94900E68F39923B1F3552357
:101B000091F3951B550BBB27AA2762177307840710
:101B100038F09F5F5F4F220F331F441FAA1FA9F3A6
:101B200035D00E2E3AF0E0E832D091505040E69594
:101B3000001CCAF72BD0FE2F29D0660F771F881FF5
:101B4000BB1F261737074807AB07B0E809F0BB0BE8
:101B5000802DBF01FF2793585F4F3AF09E3F5105FC
:101B600078F00C94680E0C94B30E5F3FE4F3983E4B
:101B7000D4F3869577956795B795F7959F5FC9F7E5
:101B8000880F911D9695879597F90895E1E0660F66
:101B9000771F881FBB1F621773078407BA0720F0DF
:101BA000621B730B840BBA0BEE1F88F7E095089548
:101BB0000E94980E88F09F5798F0B92F9927B75137
:101BC000B0F0E1F0660F771F881F991F1AF0BA95E1
:101BD000C9F714C0B13091F00E94B20EB1E008957F
:101BE0000C94B20E672F782F8827B85F39F0B93F71
:101BF000CCF3869577956795B395D9F73EF4909594
:101C00008095709561957F4F8F4F9F4F0895E89411
:101C100009C097FB3EF490958095709561957F4F34
:101C20008F4F9F4F9923A9F0F92F96E9BB279395E2
:101C3000F695879577956795B795F111F8CFFAF4F2
:101C4000BB0F11F460FF1BC06F5F7F4F8F4F9F4F23
:101C500016C0882311F096E911C0772321F09EE881
:101C6000872F762F05C0662371F096E8862F70E0E7
:101C700060E02AF09A95660F771F881FDAF7880FC1
:101C80009695879597F90895990F0008550FAA0B17
:101C9000E0E8FEEF16161706E807F907C0F012167F
:101CA0001306E407F50798F0621B730B840B950B82
:101CB00039F40A2661F0232B242B252B21F40895D7
:101CC0000A2609F4A140A6958FEF811D811D089574
:101CD00097F99F6780E870E060E008959FEF80ECDF
:101CE000089500240A941616170618060906089582
:101CF00000240A9412161306140605060895092EE8
:101D00000394000C11F4882352F0BB0F40F4BF2B56
:101D100011F460FF04C06F5F7F4F8F4F9F4F089596
:101D200057FD9058440F551F59F05F3F71F047958C
:101D3000880F97FB991F61F09F3F79F08795089571
:101D4000121613061406551FF2CF4695F1DF08C090
:101D5000161617061806991FF1CF869571056105AD
:101D600008940895E894BB2766277727CB0197F955
:101D700008950E94440E08F48FEF08950E94D10E3A
:101D80000C947F0E0E94710E38F00E94780E20F0A5
:101D9000952311F00C94680E0C946E0E11240C9483
:101DA000B30E0E94900E70F3959FC1F3950F50E013
:101DB000551F629FF001729FBB27F00DB11D639FFD
:101DC000AA27F00DB11DAA1F649F6627B00DA11DA3
:101DD000661F829F2227B00DA11D621F739FB00D49
:101DE000A11D621F839FA00D611D221F749F3327B9
:101DF000A00D611D231F849F600D211D822F762F52
:101E00006A2F11249F5750409AF0F1F088234AF02E
:101E1000EE0FFF1FBB1F661F771F881F915050409A
:101E2000A9F79E3F510580F00C94680E0C94B30EF8
:101E30005F3FE4F3983ED4F3869577956795B79521
:101E4000F795E7959F5FC1F7FE2B880F911D96953B
:101E5000879597F90895EE0FFF1F0590F491E02DF7
:061E60000994F894FFCF85
:101E6600000000003D029D01CA018A02FB01D90162
:061E7600ED010D0A000061
:00000001FF
