:100000000C9462000C948A000C948A000C948A0070
:100010000C948A000C948A000C948A000C948A0038
:100020000C948A000C948A000C948A000C948A0028
:100030000C948A000C948A000C948A000C948A0018
:100040000C941E090C948A000C94EC080C94C608BD
:100050000C948A000C948A000C948A000C948A00F8
:100060000C948A000C948A000000000024002700F1
:100070002A0000000000250028002B0000000008D6
:10008000000201000003040700000000000000005F
:10009000010204081020408001020408102001021F
:1000A000040810200000000023002600290004049A
:1000B0000404040404040202020202020303030310
:1000C0000303680911241FBECFEFD8E0DEBFCDBF08
:1000D00011E0A0E0B1E0EAE9F0E202C005900D9283
:1000E000A436B107D9F722E0A4E6B1E001C01D9221
:1000F000AD3AB207E1F710E0C2E6D0E004C02197C4
:10010000FE010E944510C136D107C9F70E94820A3C
:100110000C944B100C940000CF92DF92EF92FF9260
:100120000F931F938091970282FD18C085FD16C022
:10013000E091AA02F091AB0220813091AC0281FBE8
:10014000992790F983FB882780F98927922F932399
:1001500021E009F020E082278093A8028FB7F8946D
:100160004091690150916A0160916B0170916C013D
:100170008FBF9091A8022091A902809196029923A5
:1001800009F491C021118FC080FD6BC08160809304
:1001900096024093A4025093A5026093A602709326
:1001A000A7028091A902882389F1992379F180918E
:1001B0009B0290919C02B0E0A0E00091A4021091FB
:1001C000A5022091A6023091A7026A017B01C01A04
:1001D000D10AE20AF30A97018601081719072A07CC
:1001E0003B07A0F08091960281FD10C09091A10282
:1001F0009093A3028A648F77809396024093A4021F
:100200005093A5026093A6027093A7028091A40266
:100210009091A502A091A602B091A702481B590B8C
:100220006A0B7B0B80919D0290919E02B0E0A0E052
:10023000481759076A077B0768F08091A102882355
:1002400049F08093A2021092A102809196028460EC
:10025000809396021F910F91FF90EF90DF90CF90C7
:1002600008950091A4021091A5022091A602309158
:10027000A7026A017B01C01AD10AE20AF30A0091BF
:10028000990210919A0230E020E0C016D106E206F1
:10029000F30608F4BBCF21E02093A90280628068B6
:1002A000809396027ECF8E7F80939602911179CFB4
:1002B000222309F4ABCF1092A90281FD05C08091E1
:1002C000A1028F5F8093A102809196028D7F806151
:1002D000809396024093A4025093A5026093A602D5
:1002E0007093A70286FF07C01092A2021092A1028B
:1002F0008F7B809396028091960287FF87CF8F77BE
:10030000809396028091970281608093970249CFF3
:10031000AF92BF92CF92DF92EF92FF920F931F9313
:10032000CF93DF936C017B018B01040F151FEB0151
:100330005E01AE18BF08C017D10759F06991D60108
:10034000ED91FC910190F081E02DC6010995892B7A
:1003500079F7C501DF91CF911F910F91FF90EF9039
:10036000DF90CF90BF90AF900895FC01538D448DE6
:10037000252F30E0842F90E0821B930B541710F050
:10038000CF96089501970895FC01918D828D98175D
:1003900061F0A28DAE0FBF2FB11D5D968C91928D35
:1003A0009F5F9F73928F90E008958FEF9FEF089566
:1003B000FC01918D828D981731F0828DE80FF11D2F
:1003C000858D90E008958FEF9FEF0895FC01918D4A
:1003D000228D892F90E0805C9F4F821B91098F7343
:1003E0009927089581E791E00E94E60121E0892B99
:1003F00009F420E0822F089580E090E0892B29F015
:100400000E94F20181110C9400000895FC01A48D5A
:10041000A80FB92FB11DA35ABF4F2C91848D90E026
:1004200001968F739927848FA689B7892C93A08909
:10043000B1898C91837080648C93938D848D981393
:1004400006C00288F389E02D80818F7D8083089526
:10045000EF92FF920F931F93CF93DF93EC0181E014
:10046000888F9B8D8C8D98131AC0E889F9898081BB
:1004700085FF15C09FB7F894EE89FF896083E889EE
:10048000F98980818370806480839FBF81E090E0E0
:10049000DF91CF911F910F91FF90EF900895F62E6D
:1004A0000B8D10E00F5F1F4F0F731127E02E8C8D07
:1004B0008E110CC00FB607FCFACFE889F98980814C
:1004C00085FFF5CFCE010E940602F1CFEB8DEC0F38
:1004D000FD2FF11DE35AFF4FF0829FB7F8940B8F69
:1004E000EA89FB8980818062CFCFCF93DF93EC01D3
:1004F000888D8823B9F0AA89BB89E889F9898C910C
:1005000085FD03C0808186FD0DC00FB607FCF7CFC7
:100510008C9185FFF2CF808185FFEDCFCE010E94C7
:100520000602E9CFDF91CF91089590E0FC01E458F5
:10053000FF4F2491FC01E057FF4F3491FC01E2553D
:10054000FF4FE491EE23C9F0222339F0233001F16B
:10055000A8F4213019F1223029F1F0E0EE0FFF1F4D
:10056000EE58FF4FA591B4918FB7F894EC916111BB
:1005700026C030953E233C938FBF08952730A9F0C5
:100580002830C9F0243049F7809180008F7D03C066
:10059000809180008F7780938000DFCF84B58F7744
:1005A00084BDDBCF84B58F7DFBCF8091B0008F778A
:1005B0008093B000D2CF8091B0008F7DF9CF3E2BD9
:1005C000DACFCF93DF9390E0FC01E057FF4F249107
:1005D00082559F4FFC0184918823C9F090E0880FD9
:1005E000991FFC01E859FF4FA591B491FC01EE5809
:1005F000FF4FC591D49161110DC09FB7F8948C91B4
:10060000209582238C938881282328839FBFDF91A4
:10061000CF910895623051F49FB7F8943C91822FA6
:10062000809583238C93E8812E2BEFCF8FB7F8949E
:10063000EC912E2B2C938FBFEACF4F925F926F924B
:100640007F92AF92BF92CF92DF92EF92FF920F9381
:100650001F93CF93DF93EC015A018B01488C598C87
:100660006A8C7B8C73016201F7FAF094F7F8F094CE
:100670009A01AB01C701B6010E94370F181664F04A
:100680009501A801C301B2010E94D80D7301620156
:1006900087FD02C06501780120E030E0A901C701B3
:1006A000B6010E94D80D811117C01CA21DA21EA266
:1006B0001FA2CC8ADD8AEE8AFF8ADF91CF911F913B
:1006C0000F91FF90EF90DF90CF90BF90AF907F9011
:1006D0006F905F904F900895A701960160E074E2DB
:1006E00084E799E40E94DD0D9F770E94560E6CA36B
:1006F0007DA38EA39FA311E020E030E0A901C701F4
:10070000B6010E94370F18160CF010E01A83D1CFF3
:10071000CF93DF93FC012381222359F1EC0161E0A7
:1007200084810E94E10261E08D810E94E1028B815F
:10073000843011F08830B1F461E08E810E94E102D2
:1007400061E08F810E94E1028FA58F3F91F061E00F
:100750000E94E1026EA581E068278FA5DF91CF910D
:100760000C949502833011F0863071F761E08E8130
:10077000E9CFDF91CF910895CF93DF93FC012381DF
:100780002223A9F0EC010190F081E02D0480F58195
:10079000E02D60E009958FA58F3F49F061E00E9450
:1007A000E1026EA58FA5DF91CF910C949502DF91A8
:1007B000CF910895DC01ED91FC9124813581477042
:1007C000552766277727415051096109710947303C
:1007D00051056105710560F4FA01EF50FC4F0C946E
:1007E0004510FB03FD03FF03010403040504070494
:1007F00061E0F901099465E0FCCF64E0FACF66E0BE
:10080000F8CF62E0F6CF6AE0F4CF68E0F2CF69E0BB
:10081000F0CFCF93DF93EC01CB01BA0126E030E0BB
:1008200040E050E00E94261062307105810591057C
:1008300089F16CF46115710581059105D1F0613084
:10084000710581059105F9F0DF91CF91089564302C
:1008500071058105910561F124F16530710581050E
:10086000910591F7E881F9810480F581E02D66E03A
:1008700006C0E881F9810480F581E02D64E0CE01B5
:10088000DF91CF910994E881F9810480F581E02D11
:1008900065E0F5CFE881F9810480F581E02D61E024
:1008A000EECFE881F9810480F581E02D63E0E7CFA8
:1008B000E881F9810480F581E02D62E0E0CFDC0180
:1008C000ED91FC910480F581E02D4370552766275A
:1008D0007727423051056105710571F043305105AC
:1008E0006105710559F0413051056105710511F03F
:1008F00065E0099466E0FDCF6AE0FBCF69E0F9CFDF
:10090000CF93DF93EC01CB01BA0123E030E040E06C
:1009100050E00E942610613071058105910599F023
:100920006230710581059105A9F0672B682B692B51
:10093000C1F4E881F9810480F581E02D64E0CE0105
:10094000DF91CF910994E881F9810480F581E02D50
:1009500061E0F5CFE881F9810480F581E02D62E066
:10096000EECFDF91CF910895DC01ED91FC910480F1
:10097000F581E02D437055276627772742305105D2
:100980006105710571F0433051056105710559F03C
:10099000413051056105710511F062E0099463E091
:1009A000FDCF61E0FBCF60E0F9CFCF93DF93EC01A7
:1009B000E881F9810480F581E02D8A8160E0811170
:1009C00062E0CE010995E881F9810480F581E02D8E
:1009D0008A8161E0811163E0CE0109958CA59DA516
:1009E0008230910538F0880F991F880F991F05975D
:1009F0000197F1F7E881F9810480F581E02D8A8182
:100A000060E0811162E0CE01DF91CF910994CF9334
:100A1000DF93EC0120E030E0A9016C897D898E89AB
:100A20009F890E94370F18162CF4E8A9F9A9DF91C5
:100A3000CF910994EAA9FBA9FACFCF92DF92EF9266
:100A4000FF920F931F93CF93DF93DC011396CC910A
:100A5000C43039F0C83059F1C33019F0C63049F10B
:100A6000C2E08C010C5F1F4FF12CE12CC62ED12C63
:100A7000D1E0F8016481C6010E2C02C095958795DE
:100A80000A94E2F780FD6D270F5F1F4F80810E945F
:100A90009502BFEFEB1AFB0AEC1658F3DF91CF91EA
:100AA0001F910F91FF90EF90DF90CF900895C4E0D9
:100AB000D8CFC3E0D6CFDC011396EC911397E93081
:100AC00008F038C0F0E0E959FA4F0C944510700571
:100AD00076057C05820588059A058E059A0594059C
:100AE000ED91FC910084F185E02D0994ED91FC914C
:100AF0000284F385E02DF9CFED91FC910484F58516
:100B0000E02DF3CFED91FC910684F785E02DEDCF3C
:100B1000ED91FC910088F189E02DE7CFED91FC91FA
:100B20000288F389E02DE1CFED91FC910488F589ED
:100B3000E02DDBCF08954F925F926F927F928F925C
:100B40009F92AF92BF92CF92DF92EF92FF920F935C
:100B50001F93CF93DF93EC01C888D988EA88FB887C
:100B60008C859D85AE85BF85C81AD90AEA0AFB0A1D
:100B70006C897D898E899F899B01AC010E943C0F05
:100B80004B015C016C8D7D8D8E8D9F8D9B01AC0129
:100B90000E946C0D9B01AC01C501B4010E94DD0DEA
:100BA0000E944F0EC114D104E104F10409F0B1C058
:100BB00062307105810591050CF0CBC01CA21DA20D
:100BC0001EA21FA21C8A1D8A1E8A1F8A1CAA1DAA79
:100BD0001EAA1FAADF91CF911F910F91FF90EF9056
:100BE000DF90CF90BF90AF909F908F907F906F904D
:100BF0005F904F9008951016110612061306B4F474
:100C00006C157D058E059F051CF42A812111A1C05C
:100C10009B01AC0188279927DC01821B930BA40B55
:100C2000B50B8CAB9DABAEABBFAB93C00115110543
:100C30002105310509F48DC06C157D058E059F05D4
:100C40000CF087C08A81882309F483C030952095F1
:100C5000109501951F4F2F4F3F4F0CAB1DAB2EAB87
:100C60003FAB77C0011511052105310509F471C0AD
:100C70008824992454018C189D08AE08BF08681573
:100C800079058A059B050CF064C08A81811161C0D9
:100C9000DDCFCCACDDACEEACFFACA7019601C7015B
:100CA000B6010E946C0D2B013C01C501B4010E94EC
:100CB000870E20E030E040E850E40E943C0F20E046
:100CC00030E040E85FE30E946C0D9B01AC01C30182
:100CD000B2010E94DD0D9B01AC01C701B6010E946B
:100CE0006B0D3B016C01FE01E05CFF4FE080F18089
:100CF000028113819701A8010E94370F181614F47E
:100D000073018601C701D8018CAF9DAFAEAFBFAFF5
:100D10003AC00CA91DA92EA93FA91C141D041E042C
:100D20001F040CF468CF10161106120613060CF0FF
:100D300099CF0027112798010C191D092E093F0989
:100D400060177107820793070CF062CF2A81211187
:100D50005FCF8CA89DA8AEA8BFA881149104A10460
:100D6000B10409F096CF88AD99ADAAADBBAD8CAFFB
:100D70009DAFAEAFBFAF81E01C141D041E041F0465
:100D80000CF080E08A833FEF831A930AA30AB30A28
:100D90008CAA9DAAAEAABFAACCACDDACEEACFFACCF
:100DA000C701B6010E94560E6CA37DA38EA39FA31C
:100DB000A701960160E074E284E799E40E94DD0DEA
:100DC0006C8B7D8B8E8B9F8B2A81211103CF90584A
:100DD0006C8B7D8B8E8B9F8BFDCECF92DF92EF92B3
:100DE000FF928091760290917702A0917802B09163
:100DF0007902892B8A2B8B2B09F46FC03FB7F894AB
:100E000080916D0190916E01A0916F01B091700180
:100E100026B5A89B05C02F3F19F00196A11DB11D55
:100E20003FBFBA2FA92F982F88276C017D01C20ED2
:100E3000D11CE11CF11C42E0CC0CDD1CEE1CFF1CA3
:100E40004A95D1F780917A0290917B02A0917C0221
:100E5000B0917D02B701A601481B590B6A0B7B0BB1
:100E60008091760290917702A0917802B0917902F8
:100E7000481759076A077B0780F180915E029091BD
:100E80005F02A0916002B09161022091540222237E
:100E900009F44EC00196A11DB11D80935E0290938E
:100EA0005F02A0936002B093610240915E02509194
:100EB0005F02609160027091610282E592E00E949F
:100EC0005B05C0927A02D0927B02E0927C02F092A3
:100ED0007D0282E592E00E949B0520E030E0A901BE
:100EE0006091660270916702809168029091690238
:100EF0000E94D80D811120C081E0C0906202D09084
:100F00006302E0906402F090650240915E025091AD
:100F10005F026091600270916102C416D506E60618
:100F2000F70609F480E0FF90EF90DF90CF900895EE
:100F30000197A109B109B1CF81E0F5CFCF93DF933C
:100F4000C6E9D2E060E08A810E94E1028A8190E0F5
:100F5000FC01E255FF4FE491F0E0EE0FFF1FEC556E
:100F6000FF4F259134913D8B2C8BFC01E057FF4FB7
:100F7000E491EE8BDF91CF910895FC010190002068
:100F8000E9F73197AF01481B590BBC0181E791E0AC
:100F90000C9488018F929F92AF92BF920F931F93F0
:100FA000CF93DF93CDB7DEB7A1970FB6F894DEBF2E
:100FB0000FBECDBF19A2423008F44AE08E010F5D8A
:100FC0001F4F842E912CB12CA12CA50194010E94BD
:100FD0000410E62FB901CA01EA30F4F4E05DD8014B
:100FE000EE938D01232B242B252B79F790E080E0C5
:100FF000109719F0CD010E94BD07A1960FB6F89485
:10100000DEBF0FBECDBFDF91CF911F910F91BF907B
:10101000AF909F908F900895E95CE1CFCF92DF92DF
:10102000EF92FF92CF93DF936B017C016DE281E73A
:1010300091E00E942802EC0166277727CB016C190A
:101040007D098E099F094AE00E94CA078C0F9D1FE7
:10105000DF91CF91FF90EF90DF90CF900895CF93E5
:10106000DF9397FF0CC00E940E08EC018DE291E027
:101070000E94BD078C0F9D1FDF91CF9108954AE01C
:101080000E94CA07F2CF4F925F926F927F928F9227
:101090009F92AF92BF92CF92DF92EF92FF92CF9347
:1010A000DF93EC016A017B0120E030E0A901CB0174
:1010B000B6010E94D80D87FF04C0F7FAF094F7F844
:1010C000F0948C8C9D8CAE8CBF8CA7019601C501D1
:1010D000B4010E94D80D882309F449C06CA97DA9E8
:1010E0008EA99FA90E94870E2B013C01A7019601A2
:1010F000C501B4010E94DD0D9B01AC01C301B20129
:101100000E943C0F0E944F0E6CAB7DAB8EAB9FAB31
:10111000A701960160E070E080E090E40E94DD0DA0
:101120000E94AF0F26E53EE04DE25FE30E943C0FD8
:1011300020E034E244E759E40E943C0F68AF79AF05
:101140008AAF9BAFCC8EDD8EEE8EFF8ECE01DF910F
:10115000CF91FF90EF90DF90CF90BF90AF909F9096
:101160008F907F906F905F904F900C949B05DF91D4
:10117000CF91FF90EF90DF90CF90BF90AF909F9076
:101180008F907F906F905F904F9008951F920F9275
:101190000FB60F9211242F933F934F935F936F934A
:1011A0007F938F939F93AF93BF93EF93FF9381E7C9
:1011B00091E00E940602FF91EF91BF91AF919F9144
:1011C0008F917F916F915F914F913F912F910F90F0
:1011D0000FBE0F901F9018951F920F920FB60F928F
:1011E00011242F938F939F93EF93FF93E0918101AD
:1011F000F09182018081E0918701F091880182FD68
:101200001BC0908180918A018F5F8F7320918B0129
:10121000821741F0E0918A01F0E0EF58FE4F958F80
:1012200080938A01FF91EF919F918F912F910F9061
:101230000FBE0F901F9018958081F4CF1F920F92D0
:101240000FB60F9211242F933F938F939F93AF93D9
:10125000BF938091690190916A01A0916B01B09157
:101260006C013091640123E0230F2D3758F501966E
:10127000A11DB11D209364018093690190936A01BF
:10128000A0936B01B0936C0180916D0190916E0100
:10129000A0916F01B09170010196A11DB11D8093C5
:1012A0006D0190936E01A0936F01B0937001BF9197
:1012B000AF919F918F913F912F910F900FBE0F9003
:1012C0001F90189526E8230F0296A11DB11DD2CFBD
:1012D000AF92BF92CF92DF92EF92FF920F931F9344
:1012E000CF93DF93E1E7F1E01382128288EE93E07F
:1012F000A0E0B0E084839583A683B78385E091E086
:101300009183808385EC90E09587848784EC90E0DE
:101310009787868780EC90E0918B808B81EC90E0C2
:10132000938B828B82EC90E0958B848B86EC90E0A3
:10133000978B868B118E128E138E148EE6E9F2E057
:101340008CE390E09483838384EF91E0968385839C
:101350009087878380E991E092878187138614863E
:10136000158616861786108A118A128A138A8CE0CF
:101370008283C7E9D2E088818F7D886088830E945C
:101380009E0788818B7E8D7F8883E2E5F2E007E10E
:1013900011E01183008388E0B82EB382148615868D
:1013A00016861786108A118A128A138A148A158A59
:1013B000168A178AC12CD12C90E8E92E9FE3F92ECA
:1013C000C08ED18EE28EF38E148E158E168E178EF1
:1013D000C0A2D1A2E2A2F3A214A215A216A217A241
:1013E000C1E0D0E0D5A7C4A7AA24AA94A7A610A6B6
:1013F00011A612A613A6B4828AE0858389E08683AB
:101400008BE0878316A614AA15AA16AA17AA10AEEF
:1014100011AE12AE13AE14AE15AE16AE17AEC0922C
:101420009202D0929302E0929402F092950212827C
:101430001086118612861386CF010E948803B70199
:10144000A60182E592E00E944308EEE0F2E01183FB
:101450000083B3821486158616861786108A118A31
:10146000128A138A148A158A168A178AC08ED18E18
:10147000E28EF38E148E158E168E178EC0A2D1A218
:10148000E2A2F3A214A215A216A217A2D5A7C4A77E
:10149000A7A610A611A612A613A685E0848383E052
:1014A000858384E0868382E0878316A614AA15AA22
:1014B00016AA17AA10AE11AE12AE13AE14AE15AE28
:1014C00016AE17AEC0924E02D0924F02E09250027A
:1014D000F092510212821086118612861386CF0175
:1014E0000E948803B701A6018EE092E0DF91CF91C0
:1014F0001F910F91FF90EF90DF90CF90BF90AF9032
:101500000C944308789484B5826084BD84B581606E
:1015100084BD85B5826085BD85B5816085BD8091BE
:101520006E00816080936E00109281008091810036
:10153000826080938100809181008160809381002E
:10154000809180008160809380008091B1008460F0
:101550008093B1008091B00081608093B000809151
:101560007A00846080937A0080917A008260809310
:101570007A0080917A00816080937A0080917A006D
:10158000806880937A001092C10020E030E040EA49
:1015900051E460916A0270916B0280916C029091AB
:1015A0006D020E94D80D882309F453C080E090E0BA
:1015B000A0EAB1E480936A0290936B02A0936C025C
:1015C000B0936D0280E090E5A3E4B7E480939202CB
:1015D00090939302A0939402B09395028091860217
:1015E00090918702A0918802B0918902181619067D
:1015F0001A061B0674F5609166027091670280916D
:101600006802909169029B01AC010E943C0F6B0142
:101610007C0160916E0270916F02809170029091D6
:1016200071029B01AC010E946C0D9B01AC01C701D2
:10163000B6010E94DD0D0E944F0E609386027093EA
:101640008702809388029093890282E592E00E944B
:101650009B0540E050E060EA71E482E592E00E9480
:10166000430820E030E040EA51E460916602709166
:10167000670280916802909169020E94D80D8823C8
:1016800041F040E050E060EA71E482E592E00E94BF
:101690001D0320E030E048E454E46091260270919C
:1016A000270280912802909129020E94D80D882358
:1016B00009F453C080E090E0A8E4B4E480932602EB
:1016C00090932702A0932802B093290280E090E42F
:1016D000ACE9B4E480934E0290934F02A093500281
:1016E000B09351028091420290914302A091440232
:1016F000B0914502181619061A061B0674F560917A
:1017000022027091230280912402909125029B0174
:10171000AC010E943C0F6B017C0160912A02709128
:101720002B0280912C0290912D029B01AC010E9412
:101730006C0D9B01AC01C701B6010E94DD0D0E943A
:101740004F0E609342027093430280934402909341
:1017500045028EE092E00E949B0540E050E068EC7C
:1017600073E48EE092E00E94430820E030E048E419
:1017700054E460912202709123028091240290919E
:1017800025020E94D80D882341F040E050E068E433
:1017900074E48EE092E00E941D0380911E029091FD
:1017A0001F02A0912002B09121028897A105B105E6
:1017B00081F088E290E0A0E0B0E080931E02909378
:1017C0001F02A0932002B09321028EE092E00E94BB
:1017D0009B0584EF91E090939C0280939B02809103
:1017E000970288608093970285FF0E949E078091F0
:1017F00097028D7F806180939702E0918101F09143
:10180000820182E08083E0917D01F0917E0110826F
:10181000E0917F01F09180018FEC8083109289012B
:10182000E0918501F091860186E08083E09183015B
:10183000F0918401808180618083E0918301F09147
:101840008401808188608083E0918301F09184012C
:10185000808180688083E0918301F09184018081A0
:101860008F7D8083C1E088E2C82ED12CE12CF12C41
:1018700000E010E098E2892E912CA12CB12C8091EF
:10188000970284FD0E948C008091970280FF0EC019
:10189000909168018E7F80939702892F8C27809387
:1018A0006801809167018C2780936701809197027E
:1018B00084FD0E948C008091960283FF0DC0877F7B
:1018C00080939602809166018C27809366018091B7
:1018D00065018C278093650180916801882309F454
:1018E00061C08091620290916302A0916402B09104
:1018F000650240915E0250915F02609160027091BA
:10190000610284179507A607B70771F5B701A6010D
:10191000481B590B6A0B7B0B481759076A077B0753
:1019200061F040936202509363026093640270938B
:10193000650282E592E00E949B0510926801809109
:1019400000018C278093000180E391E00E94BD0795
:101950006091000170E090E080E04AE00E94CA07D8
:101960008DE291E00E94BD070E94ED068CE391E0BC
:101970000E94BD07609162027091630280916402CF
:10198000909165020E942F0884E491E00E94BD07B7
:1019900060915E0270915F0280916002909161029D
:1019A0000E942F0880916601882309F452C080911B
:1019B000620290916302A0916402B091650220914D
:1019C0000001222309F479C0892B8A2B8B2B61F02B
:1019D00010926202109263021092640210926502E9
:1019E00082E592E00E949B05409162025091630261
:1019F000609164027091650280915E0290915F0235
:101A0000A0916002B0916102481759076A077B07ED
:101A100011F4109266010E94ED068AE491E00E94A2
:101A2000BD0760916202709163028091640290919F
:101A300065020E942F0886E591E00E94BD07609133
:101A40005E0270915F0280916002909161020E943B
:101A50002F0820E030E0A9016091660270916702D2
:101A600080916802909169020E94D80D811119C07D
:101A7000409162025091630260916402709165022C
:101A800080915E0290915F02A0916002B09161022C
:101A9000481759076A077B0721F482E592E00E9404
:101AA000BC030115110509F4EACE0E94F201882356
:101AB00009F4E5CE0E940000E2CE8897A105B105A9
:101AC00009F492CF8092620290926302A092640223
:101AD000B092650285CF5058BB27AA270E94830D7C
:101AE0000C94FD0E0E94EF0E38F00E94F60E20F0CE
:101AF00039F49F3F19F426F40C94EC0E0EF4E095A3
:101B0000E7FB0C94E60EE92F0E940E0F58F3BA176C
:101B1000620773078407950720F079F4A6F50C9403
:101B2000300F0EF4E0950B2EBA2FA02D0B01B9014A
:101B300090010C01CA01A0011124FF27591B99F043
:101B4000593F50F4503E68F11A16F040A22F232F4F
:101B5000342F4427585FF3CF469537952795A7959F
:101B6000F0405395C9F77EF41F16BA0B620B730B46
:101B7000840BBAF09150A1F0FF0FBB1F661F771FB7
:101B8000881FC2F70EC0BA0F621F731F841F48F46C
:101B9000879577956795B795F7959E3F08F0B0CFF5
:101BA0009395880F08F09927EE0F979587950895DC
:101BB0000E94C20E08F481E008950E94F10D0C9479
:101BC000FD0E0E94F60E58F00E94EF0E40F029F430
:101BD0005F3F29F00C94E60E51110C94310F0C94D8
:101BE000EC0E0E940E0F68F39923B1F3552391F385
:101BF000951B550BBB27AA2762177307840738F07C
:101C00009F5F5F4F220F331F441FAA1FA9F335D0D8
:101C10000E2E3AF0E0E832D091505040E695001C8C
:101C2000CAF72BD0FE2F29D0660F771F881FBB1F46
:101C3000261737074807AB07B0E809F0BB0B802D24
:101C4000BF01FF2793585F4F3AF09E3F510578F050
:101C50000C94E60E0C94310F5F3FE4F3983ED4F3FE
:101C6000869577956795B795F7959F5FC9F7880F24
:101C7000911D9695879597F90895E1E0660F771F76
:101C8000881FBB1F621773078407BA0720F0621B07
:101C9000730B840BBA0BEE1F88F7E09508950E9432
:101CA000560E6894B1110C94310F08950E94160FCE
:101CB00088F09F5798F0B92F9927B751B0F0E1F00D
:101CC000660F771F881F991F1AF0BA95C9F714C0BD
:101CD000B13091F00E94300FB1E008950C94300FB4
:101CE000672F782F8827B85F39F0B93FCCF38695F6
:101CF00077956795B395D9F73EF490958095709553
:101D000061957F4F8F4F9F4F0895E89409C097FBCF
:101D10003EF490958095709561957F4F8F4F9F4FC2
:101D20009923A9F0F92F96E9BB279395F695879506
:101D300077956795B795F111F8CFFAF4BB0F11F4C9
:101D400060FF1BC06F5F7F4F8F4F9F4F16C0882370
:101D500011F096E911C0772321F09EE8872F762FA6
:101D600005C0662371F096E8862F70E060E02AF0E7
:101D70009A95660F771F881FDAF7880F96958795D3
:101D800097F90895990F0008550FAA0BE0E8FEEFA8
:101D900016161706E807F907C0F012161306E4072F
:101DA000F50798F0621B730B840B950B39F40A2628
:101DB00061F0232B242B252B21F408950A2609F406
:101DC000A140A6958FEF811D811D089597F99F670A
:101DD00080E870E060E008959FEF80EC08950024B3
:101DE0000A941616170618060906089500240A9480
:101DF00012161306140605060895092E0394000C06
:101E000011F4882352F0BB0F40F4BF2B11F460FF94
:101E100004C06F5F7F4F8F4F9F4F089557FD9058BD
:101E2000440F551F59F05F3F71F04795880F97FB9E
:101E3000991F61F09F3F79F0879508951216130658
:101E40001406551FF2CF4695F1DF08C01616170687
:101E50001806991FF1CF86957105610508940895BC
:101E6000E894BB2766277727CB0197F908950E944E
:101E7000C20E08F48FEF08950E944F0F0C94FD0ED0
:101E80000E94EF0E38F00E94F60E20F0952311F01C
:101E90000C94E60E0C94EC0E11240C94310F0E945D
:101EA0000E0F70F3959FC1F3950F50E0551F629F81
:101EB000F001729FBB27F00DB11D639FAA27F00DA3
:101EC000B11DAA1F649F6627B00DA11D661F829FCA
:101ED0002227B00DA11D621F739FB00DA11D621FAF
:101EE000839FA00D611D221F749F3327A00D611DCC
:101EF000231F849F600D211D822F762F6A2F1124AE
:101F00009F5750409AF0F1F088234AF0EE0FFF1FE0
:101F1000BB1F661F771F881F91505040A9F79E3F37
:101F2000510580F00C94E60E0C94310F5F3FE4F302
:101F3000983ED4F3869577956795B795F795E7958D
:101F40009F5FC1F7FE2B880F911D9695879597F996
:101F5000089519F416F40C94EC0E0C94EF0F0E94F3
:101F6000160FB8F39923C9F3B6F39F57550B87FFA4
:101F70000E94FD0F0024A0E640EA9001805856958B
:101F8000979528F4805C660F771F881F20F026172E
:101F90003707480730F4621B730B840B2029312963
:101FA0004A2BA69517940794202531254A2758F7E0
:101FB000660F771F881F20F026173707480730F471
:101FC000620B730B840B200D311D411DA09581F711
:101FD000B901842F9158880F9695879508959F3F52
:101FE00031F0915020F4879577956795B795880FD4
:101FF000911D9695879597F9089591505040660FD9
:10200000771F881FD2F70895A1E21A2EAA1BBB1BC7
:10201000FD010DC0AA1FBB1FEE1FFF1FA217B307B4
:10202000E407F50720F0A21BB30BE40BF50B661FCA
:10203000771F881F991F1A9469F76095709580958E
:1020400090959B01AC01BD01CF010895052E97FB32
:102050001EF400940E943D1057FD07D00E9404100A
:1020600007FC03D04EF40C943D10509540953095EC
:1020700021953F4F4F4F5F4F0895909580957095F4
:1020800061957F4F8F4F9F4F0895EE0FFF1F059073
:0A209000F491E02D0994F894FFCFBD
:10209A00010000000028028801B5017502E601C4AA
:1020AA0001D80100000000BC0388031D055B050779
:1020BA0005D504B40480045F040904DA030D0A0098
:1020CA007365745374617475733120006D6F76652E
:1020DA00546F2000437572722000726576657273C0
:1020EA006520546F2000726576657273652063758A
:0420FA0072722000DE
:107800000C94343C0C94513C0C94513C0C94513CE1
:107810000C94513C0C94513C0C94513C0C94513CB4
:107820000C94513C0C94513C0C94513C0C94513CA4
:107830000C94513C0C94513C0C94513C0C94513C94
:107840000C94513C0C94513C0C94513C0C94513C84
:107850000C94513C0C94513C0C94513C0C94513C74
:107860000C94513C0C94513C11241FBECFEFD8E036
:10787000DEBFCDBF11E0A0E0B1E0ECE9FFE702C060
:1078800005900D92A230B107D9F712E0A2E0B1E065
:1078900001C01D92AD30B107E1F70E942D3D0C945F
:1078A000CC3F0C94003C982F959595959595959582
:1078B000905D8F708A307CF0282F295A8091C0000B
:1078C00085FFFCCF9093C6008091C00085FFFCCF60
:1078D0002093C6000895282F205DF0CF982F809127
:1078E000C00085FFFCCF9093C6000895EF92FF92F1
:1078F0000F931F93EE24FF2487018091C00087FD22
:1079000017C00894E11CF11C011D111D81E4E8164B
:1079100082E4F8068FE0080780E0180770F3E09132
:107920000401F091050109958091C00087FFE9CF1E
:107930008091C6001F910F91FF90EF9008950E94D3
:10794000763C982F8091C00085FFFCCF9093C600B5
:1079500091362CF490330CF09053892F089597555D
:10796000892F08951F930E949F3C182F0E949F3CCF
:107970001295107F810F1F9108951F93182F882350
:1079800021F00E94763C1150E1F71F9108951F935A
:10799000182F0E94763C803249F0809103018F5F5E
:1079A000809303018530C1F01F9108958091C0003C
:1079B00085FFFCCF84E18093C6008091C00085FFE5
:1079C000FCCF1093C6008091C00085FFFCCF80E102
:1079D0008093C6001F910895E0910401F091050184
:1079E00009951F9108950E94763C803241F0809164
:1079F00003018F5F80930301853081F008958091AA
:107A0000C00085FFFCCF84E18093C6008091C00058
:107A100085FFFCCF80E18093C6000895E0910401CA
:107A2000F09105010995089540E951E08823A1F0FE
:107A30002D9A28EE33E0FA013197F1F721503040CA
:107A4000D1F72D9828EE33E0FA013197F1F7215064
:107A50003040D1F7815061F708953F924F925F9285
:107A60006F927F928F929F92AF92BF92CF92DF924E
:107A7000EF92FF920F931F93CF93DF93000080E16B
:107A80008093C4001092C50088E18093C10086E015
:107A90008093C2005098589A259A81E00E94143D24
:107AA00024E1F22E9EE1E92E85E9D82E0FE0C02ECA
:107AB00010E1B12EAA24A394B1E49B2EA6E58A2E50
:107AC000F2E57F2EE0E26E2E79E4572E63E5462E36
:107AD00050E5352E0E94763C8033B1F18133B9F107
:107AE000803409F46FC0813409F476C0823409F41B
:107AF00085C0853409F488C0803531F1823521F1A3
:107B0000813511F1853509F485C0863509F48DC0BC
:107B1000843609F496C0843709F403C1853709F423
:107B200072C1863709F466C0809103018F5F80932C
:107B30000301853079F6E0910401F0910501099582
:107B40000E94763C803351F60E94F33CC3CF0E94E2
:107B5000763C803249F78091C00085FFFCCFF092DF
:107B6000C6008091C00085FFFCCF9092C600809136
:107B7000C00085FFFCCF8092C6008091C00085FFC9
:107B8000FCCF7092C6008091C00085FFFCCF609250
:107B9000C6008091C00085FFFCCF5092C600809146
:107BA000C00085FFFCCF4092C6008091C00085FFD9
:107BB000FCCF3092C6008091C00085FFFCCFB09210
:107BC000C60088CF0E94763C863808F4BDCF0E945C
:107BD000763C0E94F33C7ECF0E94763C803809F4CC
:107BE0009CC0813809F40BC1823809F43CC1883942
:107BF00009F48FC080E00E94C73C6CCF84E10E94F2
:107C0000BD3C0E94F33C66CF85E00E94BD3C0E94D3
:107C1000F33C60CF0E94763C809306010E94763C44
:107C2000809307010E94F33C55CF0E94763C80333D
:107C300009F41DC183E00E94BD3C80E00E94C73C66
:107C400049CF0E94763C809309020E94763C809343
:107C5000080280910C028E7F80930C020E94763C79
:107C6000853409F415C18091080290910902892B8D
:107C700089F000E010E00E94763CF801E85FFE4FDA
:107C800080830F5F1F4F80910802909109020817AF
:107C9000190788F30E94763C803209F045CF809125
:107CA0000C0280FF01C16091060170910701660F0F
:107CB000771F7093070160930601A0910802B091AD
:107CC00009021097C9F0E8E0F1E09B01AD014E0F09
:107CD0005F1FF999FECF32BD21BD819180BDFA9A17
:107CE000F99A2F5F3F4FE417F50799F76A0F7B1F4B
:107CF00070930701609306018091C00085FFFCCF5F
:107D0000F092C6008091C00085FFFCCFB092C60003
:107D1000E1CE83E00E94C73CDDCE82E00E94C73CFA
:107D2000D9CE0E94763C809309020E94763C8093D3
:107D300008028091060190910701880F991F909386
:107D40000701809306010E94763C853409F4A6C0A1
:107D500080910C028E7F80930C020E94763C8032D0
:107D600009F0B8CE8091C00085FFFCCFF092C6002C
:107D7000609108027091090261157105B9F140E046
:107D800050E080910C02A82FA170B82FB27011C0E2
:107D9000BB2309F45CC0E0910601F0910701319624
:107DA000F0930701E09306014F5F5F4F46175707B7
:107DB000E8F4AA2369F3F999FECF209106013091E6
:107DC000070132BD21BDF89A90B58091C00085FFB2
:107DD000FCCF9093C6002F5F3F4F30930701209355
:107DE00006014F5F5F4F4617570718F38091C00099
:107DF00085FDE5CE8091C00085FFF8CFE0CE81E023
:107E00000E94C73C67CE0E94763C803209F08CCE3F
:107E10008091C00085FFFCCFF092C6008091C00029
:107E200085FFFCCFE092C6008091C00085FFFCCFAB
:107E3000D092C6008091C00085FFFCCFC092C600E2
:107E40008091C00085FFFCCFB092C60043CEE09188
:107E50000601F091070194918091C00085FFFCCF4D
:107E60009093C6009CCF80E10E94C73C33CE0E9415
:107E7000763C0E94763C182F0E94763C112309F430
:107E800083C0113009F484C08FE00E94C73C22CE29
:107E900080910C02816080930C02E5CE80910C02EF
:107EA000816080930C0259CF809107018823880F4D
:107EB000880B8A2180930B02809106019091070123
:107EC000880F991F90930701809306018091080203
:107ED00080FF09C080910802909109020196909359
:107EE000090280930802F894F999FECF1127E091D6
:107EF0000601F0910701C8E0D1E08091080290915D
:107F00000902103091F40091570001700130D9F34B
:107F100003E000935700E89500915700017001308D
:107F2000D9F301E100935700E89509901990009169
:107F3000570001700130D9F301E000935700E89534
:107F40001395103498F011270091570001700130FB
:107F5000D9F305E000935700E895009157000170B0
:107F60000130D9F301E100935700E895329602976A
:107F700009F0C7CF103011F00296E5CF112480919F
:107F8000C00085FFB9CEBCCE8EE10E94C73CA2CD19
:0C7F900085E90E94C73C9ECDF894FFCF0D
:027F9C00800063
:040000030000780081
:00000001FF
