:020000040000FA
:100000000C9462000C948A000C948A000C948A0070
:100010000C948A000C948A000C948A000C948A0038
:100020000C948A000C948A000C948A000C948A0028
:100030000C948A000C948A000C948A000C948A0018
:100040000C9410050C948A000C94DE040C94B804F3
:100050000C948A000C948A000C948A000C948A00F8
:100060000C948A000C948A00000000080002010031
:100070000003040700000000000000000000000072
:10008000250028002B0000000000240027002A0083
:10009000010204081020408001020408102001021F
:1000A000040810200000000023002600290004049A
:1000B0000404040404040202020202020303030310
:1000C0000303940511241FBECFEFD8E0DEBFCDBFE0
:1000D00011E0A0E0B1E0E8E4FEE102C005900D927D
:1000E000AA33B107D9F722E0AAE3B1E001C01D921B
:1000F000AD39B207E1F710E0C2E6D0E004C02197C5
:10010000FE010E941C0FC136D107C9F70E940007EB
:100110000C94220F0C9400009C01FC01E60FF71FC9
:10012000E35BFF4F9081660F771F260F371FD901C2
:10013000DD96ED91FC912081892F8095822380832B
:100140000895CF92DF92EF92FF920F931F938091C9
:10015000E50182FD18C085FD16C0E091F801F0911F
:10016000F90120813091FA0181FB992790F983FBF5
:10017000882780F98927922F932321E009F020E036
:1001800082278093F6018FB7F894409143015091F4
:10019000440160914501709146018FBF9091F60135
:1001A0002091F7018091E401992309F491C0211174
:1001B0008FC080FD6BC081608093E4014093F201A9
:1001C0005093F3016093F4017093F5018091F7016E
:1001D000882389F1992379F18091E9019091EA01CD
:1001E000B0E0A0E00091F2011091F3012091F40140
:1001F0003091F5016A017B01C01AD10AE20AF30AC3
:1002000097018601081719072A073B07A0F080917C
:10021000E40181FD10C09091EF019093F1018A6497
:100220008F778093E4014093F2015093F301609340
:10023000F4017093F5018091F2019091F301A09186
:10024000F401B091F501481B590B6A0B7B0B8091AF
:10025000EB019091EC01B0E0A0E0481759076A0764
:100260007B0768F08091EF01882349F08093F001CB
:100270001092EF018091E40184608093E4011F916A
:100280000F91FF90EF90DF90CF9008950091F201D1
:100290001091F3012091F4013091F5016A017B0185
:1002A000C01AD10AE20AF30A0091E7011091E801AD
:1002B00030E020E0C016D106E206F30608F4BBCF1A
:1002C00021E02093F701806280688093E4017ECF73
:1002D0008E7F8093E401911179CF222309F4ABCF73
:1002E0001092F70181FD05C08091EF018F5F80932F
:1002F000EF018091E4018D7F80618093E401409360
:10030000F2015093F3016093F4017093F50186FFBD
:1003100007C01092F0011092EF018F7B8093E401EF
:100320008091E40187FF87CF8F778093E4018091EC
:10033000E50181608093E50149CFAF92BF92CF92F2
:10034000DF92EF92FF920F931F93CF93DF936C0195
:100350007B018B01040F151FEB015E01AE18BF0876
:10036000C017D10759F06991D601ED91FC91019028
:10037000F081E02DC6010995892B79F7C501DF9140
:10038000CF911F910F91FF90EF90DF90CF90BF9092
:10039000AF900895FC01538D448D252F30E0842FBC
:1003A00090E0821B930B541710F0CF96089501979D
:1003B0000895FC01918D828D981761F0A28DAE0F8A
:1003C000BF2FB11D5D968C91928D9F5F9F73928F11
:1003D00090E008958FEF9FEF0895FC01918D828D3D
:1003E000981731F0828DE80FF11D858D90E008950A
:1003F0008FEF9FEF0895FC01918D228D892F90E062
:10040000805C9F4F821B91098F739927089587E421
:1004100091E00E94FB0121E0892B09F420E0822F6A
:10042000089580E090E0892B29F00E940702811155
:100430000C9400000895FC01A48DA80FB92FB11DE4
:10044000A35ABF4F2C91848D90E001968F7399270A
:10045000848FA689B7892C93A089B1898C918370E8
:1004600080648C93938D848D981306C00288F389E1
:10047000E02D80818F7D80830895EF92FF920F930E
:100480001F93CF93DF93EC0181E0888F9B8D8C8D40
:1004900098131AC0E889F989808185FF15C09FB734
:1004A000F894EE89FF896083E889F98980818370F7
:1004B000806480839FBF81E090E0DF91CF911F91A6
:1004C0000F91FF90EF900895F62E0B8D10E00F5FC7
:1004D0001F4F0F731127E02E8C8D8E110CC00FB69D
:1004E00007FCFACFE889F989808185FFF5CFCE0135
:1004F0000E941B02F1CFEB8DEC0FFD2FF11DE35A93
:10050000FF4FF0829FB7F8940B8FEA89FB898081B7
:100510008062CFCFCF93DF93EC01888D8823B9F031
:10052000AA89BB89E889F9898C9185FD03C08081FE
:1005300086FD0DC00FB607FCF7CF8C9185FFF2CF7B
:10054000808185FFEDCFCE010E941B02E9CFDF91B4
:10055000CF91089590E0FC01E859FF4F2491FC01F0
:10056000E057FF4F3491FC01E255FF4FE491EE2339
:10057000C9F0222339F0233001F1A8F4213019F118
:10058000223029F1F0E0EE0FFF1FE458FF4FA59154
:10059000B4918FB7F894EC91611126C030953E2349
:1005A0003C938FBF08952730A9F02830C9F024303C
:1005B00049F7809180008F7D03C0809180008F7704
:1005C00080938000DFCF84B58F7784BDDBCF84B587
:1005D0008F7DFBCF8091B0008F778093B000D2CF1A
:1005E0008091B0008F7DF9CF3E2BDACF80917A02D7
:1005F000882331F110927A0280917B02882361F086
:1006000010927902809164028F3F31F060917802FC
:1006100091E069270E94AA021092690210926A0270
:1006200010926B0210926C0280E593ECA0E0B0E0B7
:1006300080934C0290934D02A0934E02B0934F02D0
:1006400008953FB7F89480913B0190913C01A091AF
:100650003D01B0913E0126B5A89B05C02F3F19F082
:100660000196A11DB11D3FBFBA2FA92F982F882732
:10067000BC01CD01620F711D811D911D42E0660F0D
:10068000771F881F991F4A95D1F70895CF93DF935D
:10069000EC01FC01E35BFF4F8081EDADFEAD90818D
:1006A000892B808361E070E0CE010E948C00FE0106
:1006B000E15BFF4F80813E970190F081E02D9081BA
:1006C000892B808363E070E0CE01DF91CF910C94A1
:1006D0008C0081E080932802809124028370823014
:1006E00089F1833009F44DC0813069F08BEF91E0DE
:1006F0000E944603809113028F3F09F452C060911B
:1007000027020C94AA0270E060E08BEF91E00E9457
:100710008C0080914902E0913A02F0913B02908175
:10072000892B808380914A02E0913C02F0913D0246
:100730009081892B808363E070E08BEF91E00E94D1
:100740008C00D8CF70E060E08BEF91E00E948C00CD
:1007500080914902E0913A02F0913B029081892B0D
:10076000808362E070E08BEF91E00E948C008091CA
:100770004B02E0913E02F0913F029081892B8083F1
:10078000B9CF80914802E0913802F091390290810E
:10079000892B808361E070E08BEF91E00E948C00F8
:1007A000E0CF0895CF93DF93EC018BAD9CAD892B07
:1007B00019F58DA99EA9892BF9F429A93AA9032E27
:1007C000000C440B550B60E472E48FE090E00E9453
:1007D000A40C288339834A835B834DA15EA16FA15A
:1007E00078A589A19AA1ABA1BCA184179507A607FA
:1007F000B7072CF08FEF8AA7DF91CF91089581E0A2
:10080000FACF8CE492E00E94D20381E080937A02D6
:100810009091790291110AC08093790280916402CB
:100820008F3F21F0609178020C94AA020895CF9333
:10083000DF93EC017AAB69AB0E94D20388EE93E0C0
:1008400099878887DF91CF910895CF93DF93809127
:10085000E60190E0FC01E057FF4F249182559F4F45
:10086000FC0184918823C1F090E0880F991FFC015E
:10087000EA57FF4FC591D491FC01E458FF4FA59171
:10088000B4919FB7F8948881E22FE0958E238883F6
:100890008C91E823EC939FBF8091E60190E0FC01EE
:1008A000E255FF4FE491F0E0EE0FFF1FEC55FF4FD4
:1008B000259134913093F9012093F801FC01E05720
:1008C000FF4FE491E093FA01DF91CF910895FC018D
:1008D00001900020E9F73197AF01481B590BBC018B
:1008E00087E491E00C949D018F929F92AF92BF920A
:1008F0000F931F93CF93DF93CDB7DEB7A1970FB6BA
:10090000F894DEBF0FBECDBF19A2423008F44AE012
:100910008E010F5D1F4F842E912CB12CA12CA501AF
:1009200094010E94C30CE62FB901CA01EA30F4F425
:10093000E05DD801EE938D01232B242B252B79F735
:1009400090E080E0109719F0CD010E946704A19615
:100950000FB6F894DEBF0FBECDBFDF91CF911F91D0
:100960000F91BF90AF909F908F900895E95CE1CF79
:100970001F920F920FB60F9211242F933F934F9314
:100980005F936F937F938F939F93AF93BF93EF93F7
:10099000FF9387E491E00E941B02FF91EF91BF91CA
:1009A000AF919F918F917F916F915F914F913F9107
:1009B0002F910F900FBE0F901F9018951F920F92BE
:1009C0000FB60F9211242F938F939F93EF93FF9362
:1009D000E0915701F09158018081E0915D01F09123
:1009E0005E0182FD1BC09081809160018F5F8F73DB
:1009F00020916101821741F0E0916001F0E0E95B34
:100A0000FE4F958F80936001FF91EF919F918F91A1
:100A10002F910F900FBE0F901F9018958081F4CFEB
:100A20001F920F920FB60F9211242F933F938F9323
:100A30009F93AF93BF938091430190914401A09104
:100A40004501B091460130913A0123E0230F2D3743
:100A500058F50196A11DB11D20933A0180934301E1
:100A600090934401A0934501B093460180913B01CE
:100A700090913C01A0913D01B0913E010196A11DD4
:100A8000B11D80933B0190933C01A0933D01B09335
:100A90003E01BF91AF919F918F913F912F910F9008
:100AA0000FBE0F901F90189526E8230F0296A11DE8
:100AB000B11DD2CFCF93DF93042E000C550B9A01BA
:100AC00022553F4FF901A491EA2FF0E0EE0FFF1FEE
:100AD000E458FF4FC591D491DB01AA0FBB1FA80FAB
:100AE000B91FDE96DC93CE93DD97F9012491E22FB6
:100AF000F0E0EE0FFF1FEA57FF4FC591D491AB5BBB
:100B0000BF4FCD93DC9340575F4FFA014491860F5E
:100B1000971FDC01A35BBF4F4C939C918881892B6D
:100B20008883DF91CF9108952F923F924F925F92E9
:100B30006F927F928F929F92AF92BF92CF92DF92ED
:100B4000EF92FF920F931F93CF93DF93E7E4F1E0CF
:100B50001382128288EE93E0A0E0B0E08483958354
:100B6000A683B78384E091E09183808385EC90E055
:100B70009587848784EC90E09787868780EC90E067
:100B8000918B808B81EC90E0938B828B82EC90E058
:100B9000958B848B86EC90E0978B868B118E128ED2
:100BA000138E148ECCE4D2E080E1482E87E2582EDA
:100BB000612C712C488259826A827B821C821D8240
:100BC0001E821F8208E91AE3198708871A861B8686
:100BD0001C861D861F870E87188A198A1A8A1B8A07
:100BE00091E6892E9BE0992E96E3A92E9BE3B92EE0
:100BF0008C8A9D8AAE8ABF8A8FEF888F198E1A8E53
:100C00001B8E1C8E1D8E1E8E1F8E18A219A21AA25C
:100C10001BA21CA21DA21EA21FA218A619A691E02B
:100C20009AA71BA61CA61DA61EA61FA618AA2CE2E4
:100C3000222E332433943AAA29AA1CAA1BAA1EAA3C
:100C40001DAA1FAA18AE19AE1AAE1CAE1BAE4BE001
:100C500070E060E0CE010E945A0549E061E070E07A
:100C6000CE010E945A054AE062E070E0CE010E9487
:100C70005A0548E063E070E0CE010E945A056CE23C
:100C800071E0CE010E9417043EAA2DAA3EE0C32EB9
:100C900034E7D32E3AEDE32E3AE3F32ECFAAD8AEC3
:100CA000E9AEFAAE82E599E4ADE9B9E38A879B87BC
:100CB000AC87BD87CBEFD1E0488259826A827B82C4
:100CC0001C821D821E821F82198708871A861B8636
:100CD0001C861D861F870E87188A198A1A8A1B8A06
:100CE0008C8A9D8AAE8ABF8A9FEF988F198E1A8E42
:100CF0001B8E1C8E1D8E1E8E1F8E18A219A21AA26C
:100D00001BA21CA21DA21EA21FA218A619A6A1E02A
:100D1000AAA71BA61CA61DA61EA61FA618AA3AAA0D
:100D200029AA1CAA1BAA1EAA1DAA1FAA18AE19AE80
:100D30001AAE1CAE1BAE45E070E060E0CE010E9432
:100D40005A0543E061E070E0CE010E945A0544E09C
:100D500062E070E0CE010E945A0542E063E070E07C
:100D6000CE010E945A056CE271E0CE010E94170488
:100D70003EAA2DAACFAAD8AEE9AEFAAE82E599E492
:100D8000ADE9B9E38A879B87AC87BD87E4EEF1E0E4
:100D90008CE390E09483838384EF91E09683858352
:100DA0009087878380E991E09287818713861486F4
:100DB000158616861786108A118A128A138A8CE085
:100DC0008283C5EED1E088818F7D886088830E9410
:100DD000250488818B7E8D7F8883DF91CF911F9141
:100DE0000F91FF90EF90DF90CF90BF90AF909F90CA
:100DF0008F907F906F905F904F903F902F900895CD
:100E0000CF93DF9300D000D0CDB7DEB7789484B510
:100E1000826084BD84B5816084BD85B5826085BDF6
:100E200085B5816085BD80916E00816080936E0084
:100E30001092810080918100826080938100809176
:100E40008100816080938100809180008160809327
:100E500080008091B10084608093B1008091B000E7
:100E600081608093B00080917A00846080937A00E2
:100E700080917A00826080937A0080917A0081600C
:100E800080937A0080917A00806880937A00109233
:100E9000C10064E170E08CE492E00E9417041092BB
:100EA00088021092870210927C0284E190E0909375
:100EB0008202809381024DEC5CEC6CEC7CE340930D
:100EC00083025093840260938502709386024CEAF9
:100ED00055EC67EA77E340935602509357026093CC
:100EE0005802709359029093800280937F0280E0B1
:100EF00090E0A0EAB1E48093690290936A02A09323
:100F00006B02B0936C0280E593ECA0E0B0E08093BC
:100F10004C0290934D02A0934E02B0934F0281E099
:100F20008093760280937A029091790291110AC09F
:100F300080937902809164028F3F21F06091780262
:100F40000E94AA0284E690E0A0E0B0E080937102E3
:100F500090937202A0937302B093740280916D0219
:100F600090916E02A0916F02B0917002843691054B
:100F7000A105B10511F00E94010421E020937B023C
:100F800060E273E08BEF91E00E9417041092370249
:100F90001092360210922B0280E991E09093310278
:100FA000809330028AE097EDA3EABAE3809332029D
:100FB00090933302A0933402B093350287E197EB0C
:100FC000A1EDB9E38093050290930602A093070276
:100FD000B093080280E293E090932F0280932E0258
:100FE00080E090E0A8E4B4E48093180290931902A2
:100FF000A0931A02B0931B0282EE94E0A0E0B0E04E
:101000008093FB019093FC01A093FD01B093FE013E
:1010100031E030932502309329028091280281111A
:1010200002C00E94690384E690E0A0E0B0E08093F3
:10103000200290932102A0932202B0932302809178
:101040001C0290911D02A0911E02B0911F028436D5
:101050009105A105B10569F08BEF91E00E94D203E3
:1010600081E08093290280912802811102C00E94B0
:10107000690381E080932A0284EF91E09093EA0172
:101080008093E9018091E50188608093E50185FF07
:101090000E9425048091E5018D7F80618093E501A8
:1010A000E0915701F091580182E08083E091530173
:1010B000F09154011082E0915501F09156018FECAE
:1010C000808310925F01E0915B01F0915C0186E00A
:1010D0008083E0915901F0915A0180818061808381
:1010E000E0915901F0915A01808188608083E091FC
:1010F0005901F0915A01808180688083E091590103
:10110000F0915A0180818F7D808301E080E0282E5C
:1011100080E0382E8091E50184FD0E94A10080913D
:10112000E50180FF0EC0909142018E7F8093E50122
:10113000892F8027809342018091410180278093ED
:1011400041018091E50184FD0E94A1008091E401AC
:1011500083FF0DC0877F8093E40180914001802749
:101160008093400180913F01802780933F018091CF
:101170004201882309F4F3C280916D0290916E02BE
:10118000A0916F02B091700284369105A105B1055E
:1011900099F51092710210927202109273021092DD
:1011A00074020E94010481E0809377021092420150
:1011B00082E191E00E946704C0906D02D0906E02BF
:1011C000E0906F02F09070024AE0C701B601F7FEAE
:1011D0000DC06DE287E491E00E943D02662777270B
:1011E000CB016C197D098E099F094AE00E947404A5
:1011F00088E291E00E94670480917A02882309F4D2
:1012000058C18091870290918802892B09F051C1C1
:101210008091810290918202892B09F44AC10E9437
:101220002103C0905002D0905102E0905202F09001
:101230005302AB01BC014C195D096E097F09809115
:10124000540290915502092E000CAA0BBB0B4817B3
:1012500059076A077B0708F42CC10E942103609399
:1012600050027093510280935202909353028090E7
:10127000710290907202A0907302B09074028091FB
:101280006D0290916E02A0916F02B0917002881A67
:10129000990AAA0ABB0AC0906902D0906A02E0903B
:1012A0006B02F0906C026091540270915502072E0F
:1012B000000C880B990B0E94FA0D20915602309178
:1012C000570240915802509159020E94AF0E698313
:1012D0007A838B839C83A7019601C701B6010E9484
:1012E000AF0E20918302309184024091850250918B
:1012F00086020E94AF0E2B013C01C501B401B7FE6E
:1013000007C066277727CB01681979098A099B09E5
:101310000E94FA0D9B01AC01C301B2010E94AA0E0A
:1013200087FD0EC020E030E0A901C701B6010E9490
:10133000AA0E87FD07C020E030E040E85FEB06C062
:10134000B7FCF9CF20E030E040E85FE369817A81C3
:101350008B819C810E94AF0EA70196010E94E60C32
:10136000962EA72EB82EC92EA0917D02B0917E0296
:10137000BA83A983BD01719561957109072E000C8F
:10138000880B990B0E94FA0DD62EE72EF82E192FF6
:10139000262F372F482F592F692D7A2D8B2D9C2DD5
:1013A0000E94520D87FD1BC029813A81B901330F7C
:1013B000880B990B0E94FA0DD62EE72EF82E192FC6
:1013C000262F372F482F592F692D7A2D8B2D9C2DA5
:1013D0000E94AA0E18161CF0D92C75011C2D8D2DFB
:1013E0009E2DAF2DB12F8093690290936A02A09336
:1013F0006B02B0936C0220E030E0A9016D2D7E2DD0
:101400008F2D912F0E94AA0E1816CCF420E030E008
:1014100040EA51E46D2D7E2D8F2D912F0E94AA0E52
:101420001816CCF080E593ECA0E0B0E080934C027D
:1014300090934D02A0934E02B0934F022CC020E037
:1014400030E040EA51EC6D2D7E2D8F2D912F0E94C2
:10145000520D87FFE7CF2D2D3E2D4F2D512F60E0F0
:1014600074E284E799E40E94570D4B015C0120E08F
:1014700030E0A9010E94AA0E18160CF0E0C0C501C8
:10148000B4010E94C90D60934C0270934D02809389
:101490004E0290934F0220E030E0A9016D2D7E2D89
:1014A0008F2D912F0E94AA0E87FDCDC081E08093E1
:1014B000760280917C02882309F4E4C0809187023F
:1014C00090918802892B09F4DDC00E942103C0900D
:1014D0005C02D0905D02E0905E02F0905F02AB0192
:1014E000BC014C195D096E097F0980915A029091E7
:1014F0005B02092E000CAA0BBB0B481759076A07A1
:101500007B0708F4BFC00E94210360935C027093C4
:101510005D0280935E0290935F02A0917F02B09182
:101520008002BA83A983BD01BB0F880B990B0E946F
:10153000FA0D6B017C018090690290906A02A09084
:101540006B02B0906C02A50194010E94E50C20E0B2
:1015500030E0A9010E94AA0E11E087FD1FEF609103
:101560005A0270915B02072E000C880B990B0E94A7
:10157000FA0D209156023091570240915802509135
:1015800059020E94AF0E2B013C01612F012E000C6D
:10159000770B880B990B0E94FA0D9B01AC01C301DC
:1015A000B2010E94AF0EA50194010E94E60C4B010E
:1015B0005C018092690290926A02A0926B02B092E2
:1015C0006C0220E030E0A9010E94AA0E87FD3DC018
:1015D00081E0809376021130D1F5A5019401C70115
:1015E000B6010E94520D1816E4F5C0906902D09021
:1015F0006A02E0906B02F0906C0220E030E0A901FA
:10160000C701B6010E94AA0E18160CF0B4C020E063
:1016100030E040EA51E4C701B6010E94AA0E181654
:101620000CF4B3C080E593ECA0E0B0E080934C02F2
:1016300090934D02A0934E02B0934F0223C0C50178
:10164000B40190581ECF8FEF32CF8FEFC2CF1F3F24
:1016500061F6A5019401C701B6010E94AA0E87FD9B
:10166000C4CFC0926902D0926A02E0926B02F092FB
:101670006C0210927C0229813A81232B09F0B5CFAC
:101680000E94F60280917A02882309F444C00E94E5
:101690002103C0906502D0906602E0906702F0904E
:1016A00068026C197D098E099F09C0904C02D09088
:1016B0004D02E0904E02F0904F026C157D058E05B4
:1016C0009F0548F10E9421036093650270936602B2
:1016D00080936702909368028091870290918802BC
:1016E00040916D0250916E0260916F027091700294
:1016F000892B09F06CC08091710290917202A091C7
:101700007302B091740284179507A607B70709F012
:101710005EC00E94F6028BE291E00E946704C090D6
:101720006D02D0906E02E0906F02F09070024AE07D
:10173000C701B601F7FE0DC06DE287E491E00E949B
:101740003D0266277727CB016C197D098E099F0919
:101750004AE00E94740488E291E00E946704211428
:10176000310409F4D7CC0E940702882309F4D2CCB3
:101770000E940000CFCC20E030E040EA51ECC701ED
:10178000B6010E94520D87FF4DCFA701960160E080
:1017900074E284E799E40E94570D6B017C0120E01C
:1017A00030E0A9010E94AA0E18166CF4C701B60118
:1017B0000E94C90D60934C0270934D0280934E02BB
:1017C00090934F025FCFC701B6019058F1CF80913F
:1017D0007602C82E082E000CDD08EE08FF084C0D1E
:1017E0005D1D6E1D7F1D40936D0250936E026093D0
:1017F0006F0270937002E0917502909177029111DF
:1018000001C08195E80FE0937502E770E150E73081
:1018100070F40E2E000CFF0BE05FF34F0C941C0FC6
:101820002D0C320C4E0C5E0C6E0C8D0C9A0C8091B3
:101830009902E0918902F0918A029081892B80833C
:1018400061E070E08CE492E00E948C0062E070E065
:101850008CE492E00E948C001AC08CE492E00E941A
:10186000460359CF70E060E08CE492E00E948C0067
:1018700061E070E08CE492E00E948C0080919B0219
:10188000E0918D02F0918E029081892B808363E03C
:1018900070E08CE492E00E948C003DCF70E060E04C
:1018A0008CE492E00E948C0080919A02E0918B027D
:1018B000F0918C029081892B8083E0CF70E060E012
:1018C0008CE492E00E948C0080919A02E0918B025D
:1018D000F0918C029081892B8083B8CF70E060E01A
:1018E0008CE492E00E948C0080919A02E0918B023D
:1018F000F0918C029081892B808362E070E08CE40F
:1019000092E00E948C0080919C02E0918F02F09105
:1019100090029081892B8083FECE70E060E08CE4A1
:1019200092E00E948C0061E070E08CE492E00E9402
:101930008C00E3CF80919902E0918902F0918A02B4
:101940009081892B8083EFCF052E97FB1EF40094A6
:101950000E94BB0C57FD07D00E94C30C07FC03D0AC
:101960004EF40C94BB0C50954095309521953F4F0B
:101970004F4F5F4F089590958095709561957F4F7B
:101980008F4F9F4F0895A1E21A2EAA1BBB1BFD018A
:101990000DC0AA1FBB1FEE1FFF1FA217B307E4074E
:1019A000F50720F0A21BB30BE40BF50B661F771FA6
:1019B000881F991F1A9469F7609570958095909586
:1019C0009B01AC01BD01CF0108955058BB27AA2748
:1019D0000E94FD0C0C94700E0E94620E38F00E9462
:1019E000690E20F039F49F3F19F426F40C945F0E31
:1019F0000EF4E095E7FB0C94590EE92F0E94810E3E
:101A000058F3BA17620773078407950720F079F433
:101A1000A6F50C94A30E0EF4E0950B2EBA2FA02D74
:101A20000B01B90190010C01CA01A0011124FF278B
:101A3000591B99F0593F50F4503E68F11A16F04086
:101A4000A22F232F342F4427585FF3CF4695379585
:101A50002795A795F0405395C9F77EF41F16BA0B4A
:101A6000620B730B840BBAF09150A1F0FF0FBB1FF8
:101A7000661F771F881FC2F70EC0BA0F621F731F41
:101A8000841F48F4879577956795B795F7959E3F9E
:101A900008F0B0CF9395880F08F09927EE0F97952F
:101AA000879508950E94350E08F481E008950E94FC
:101AB0006B0D0C94700E0E94690E58F00E94620E1D
:101AC00040F029F45F3F29F00C94590E51110C9409
:101AD000A40E0C945F0E0E94810E68F39923B1F35B
:101AE000552391F3951B550BBB27AA276217730744
:101AF000840738F09F5F5F4F220F331F441FAA1FD8
:101B0000A9F335D00E2E3AF0E0E832D09150504093
:101B1000E695001CCAF72BD0FE2F29D0660F771F41
:101B2000881FBB1F261737074807AB07B0E809F027
:101B3000BB0B802DBF01FF2793585F4F3AF09E3FAC
:101B4000510578F00C94590E0C94A40E5F3FE4F309
:101B5000983ED4F3869577956795B795F7959F5FEF
:101B6000C9F7880F911D9695879597F90895E1E03B
:101B7000660F771F881FBB1F621773078407BA079A
:101B800020F0621B730B840BBA0BEE1F88F7E095F5
:101B900008950E94890E88F09F5798F0B92F9927D1
:101BA000B751B0F0E1F0660F771F881F991F1AF048
:101BB000BA95C9F714C0B13091F00E94A30EB1E0FC
:101BC00008950C94A30E672F782F8827B85F39F0FB
:101BD000B93FCCF3869577956795B395D9F73EF4E1
:101BE00090958095709561957F4F8F4F9F4F089589
:101BF000E89409C097FB3EF49095809570956195A7
:101C00007F4F8F4F9F4F9923A9F0F92F96E9BB275C
:101C10009395F695879577956795B795F111F8CFD8
:101C2000FAF4BB0F11F460FF1BC06F5F7F4F8F4F43
:101C30009F4F16C0882311F096E911C0772321F039
:101C40009EE8872F762F05C0662371F096E8862FD1
:101C500070E060E02AF09A95660F771F881FDAF728
:101C6000880F9695879597F90895990F0008550F55
:101C7000AA0BE0E8FEEF16161706E807F907C0F012
:101C800012161306E407F50798F0621B730B840B1A
:101C9000950B39F40A2661F0232B242B252B21F4F4
:101CA00008950A2609F4A140A6958FEF811D811D94
:101CB000089597F99F6780E870E060E008959FEFCE
:101CC00080EC089500240A941616170618060906D3
:101CD000089500240A9412161306140605060895A2
:101CE000092E0394000C11F4882352F0BB0F40F42A
:101CF000BF2B11F460FF04C06F5F7F4F8F4F9F4F6A
:101D0000089557FD9058440F551F59F05F3F71F0EB
:101D10004795880F97FB991F61F09F3F79F0879552
:101D20000895121613061406551FF2CF4695F1DFDB
:101D300008C0161617061806991FF1CF869571056B
:101D4000610508940895E894BB2766277727CB019F
:101D500097F908950E94350E08F48FEF08950E94B8
:101D6000C20E0C94700E0E94620E38F00E94690E32
:101D700020F0952311F00C94590E0C945F0E112451
:101D80000C94A40E0E94810E70F3959FC1F3950FE1
:101D900050E0551F629FF001729FBB27F00DB11DEF
:101DA000639FAA27F00DB11DAA1F649F6627B00D7F
:101DB000A11D661F829F2227B00DA11D621F739F68
:101DC000B00DA11D621F839FA00D611D221F749F76
:101DD0003327A00D611D231F849F600D211D822FBD
:101DE000762F6A2F11249F5750409AF0F1F08823E4
:101DF0004AF0EE0FFF1FBB1F661F771F881F915011
:101E00005040A9F79E3F510580F00C94590E0C9458
:101E1000A40E5F3FE4F3983ED4F3869577956795DB
:101E2000B795F795E7959F5FC1F7FE2B880F911D3A
:101E30009695879597F90895EE0FFF1F0590F491F9
:101E4000E02D0994F894FFCF000000003D029D01B1
:101E5000CA018A02FB01D901ED01676574437572FD
:101E600072656E742072657665727365203D200020
:101E70000D0A0067657443757272656E74203D20AB
:021E8000000060
:107E0000112484B714BE81FFF0D085E080938100F7
:107E100082E08093C00088E18093C10086E0809377
:107E2000C20080E18093C4008EE0C9D0259A86E02C
:107E300020E33CEF91E0309385002093840096BBD3
:107E4000B09BFECF1D9AA8958150A9F7CC24DD24C4
:107E500088248394B5E0AB2EA1E19A2EF3E0BF2EE7
:107E6000A2D0813461F49FD0082FAFD0023811F036
:107E7000013811F484E001C083E08DD089C08234E0
:107E800011F484E103C0853419F485E0A6D080C0E4
:107E9000853579F488D0E82EFF2485D0082F10E0AE
:107EA000102F00270E291F29000F111F8ED06801E7
:107EB0006FC0863521F484E090D080E0DECF843638
:107EC00009F040C070D06FD0082F6DD080E0C81688
:107ED00080E7D80618F4F601B7BEE895C0E0D1E017
:107EE00062D089930C17E1F7F0E0CF16F0E7DF06D8
:107EF00018F0F601B7BEE89568D007B600FCFDCFD4
:107F0000A601A0E0B1E02C9130E011968C91119780
:107F100090E0982F8827822B932B1296FA010C0160
:107F200087BEE89511244E5F5F4FF1E0A038BF0790
:107F300051F7F601A7BEE89507B600FCFDCF97BE46
:107F4000E89526C08437B1F42ED02DD0F82E2BD052
:107F50003CD0F601EF2C8F010F5F1F4F84911BD097
:107F6000EA94F801C1F70894C11CD11CFA94CF0C13
:107F7000D11C0EC0853739F428D08EE10CD085E9AC
:107F80000AD08FE07ACF813511F488E018D01DD067
:107F900080E101D065CF982F8091C00085FFFCCF94
:107FA0009093C60008958091C00087FFFCCF809118
:107FB000C00084FD01C0A8958091C6000895E0E648
:107FC000F0E098E1908380830895EDDF803219F02E
:107FD00088E0F5DFFFCF84E1DECF1F93182FE3DFCA
:107FE0001150E9F7F2DF1F91089580E0E8DFEE27F6
:047FF000FF270994CA
:027FFE00040479
:00000001FF
