:100000000C9462000C948A000C948A000C948A0070
:100010000C948A000C948A000C948A000C948A0038
:100020000C948A000C948A000C948A000C948A0028
:100030000C948A000C948A000C948A000C948A0018
:100040000C941E090C948A000C94EC080C94C608BD
:100050000C948A000C948A000C948A000C948A00F8
:100060000C948A000C948A000000000024002700F1
:100070002A0000000000250028002B0000000008D6
:10008000000201000003040700000000000000005F
:10009000010204081020408001020408102001021F
:1000A000040810200000000023002600290004049A
:1000B0000404040404040202020202020303030310
:1000C0000303680911241FBECFEFD8E0DEBFCDBF08
:1000D00011E0A0E0B1E0E0EAF0E202C005900D928C
:1000E000A836B107D9F722E0A8E6B1E001C01D9219
:1000F000A13BB207E1F710E0C2E6D0E004C02197CF
:10010000FE010E944810C136D107C9F70E94820A39
:100110000C944E100C940000CF92DF92EF92FF925D
:100120000F931F9380919B0282FD18C085FD16C01E
:10013000E091AE02F091AF0220813091B00281FBDC
:10014000992790F983FB882780F98927922F932399
:1001500021E009F020E082278093AC028FB7F89469
:1001600040916D0150916E0160916F01709170012D
:100170008FBF9091AC022091AD0280919A02992399
:1001800009F491C021118FC080FD6BC08160809304
:100190009A024093A8025093A9026093AA02709316
:1001A000AB028091AD02882389F1992379F1809186
:1001B0009F029091A002B0E0A0E00091A8021091EF
:1001C000A9022091AA023091AB026A017B01C01AF8
:1001D000D10AE20AF30A97018601081719072A07CC
:1001E0003B07A0F080919A0281FD10C09091A5027A
:1001F0009093A7028A648F7780939A024093A80213
:100200005093A9026093AA027093AB028091A80256
:100210009091A902A091AA02B091AB02481B590B80
:100220006A0B7B0B8091A1029091A202B0E0A0E04A
:10023000481759076A077B0768F08091A502882351
:1002400049F08093A6021092A50280919A028460E0
:1002500080939A021F910F91FF90EF90DF90CF90C3
:1002600008950091A8021091A9022091AA0230914C
:10027000AB026A017B01C01AD10AE20AF30A0091BB
:100280009D0210919E0230E020E0C016D106E206E9
:10029000F30608F4BBCF21E02093AD0280628068B2
:1002A00080939A027ECF8E7F80939A02911179CFAC
:1002B000222309F4ABCF1092AD0281FD05C08091DD
:1002C000A5028F5F8093A50280919A028D7F806145
:1002D00080939A024093A8025093A9026093AA02C5
:1002E0007093AB0286FF07C01092A6021092A5027F
:1002F0008F7B80939A0280919A0287FF87CF8F77B6
:1003000080939A0280919B02816080939B0249CFE7
:10031000AF92BF92CF92DF92EF92FF920F931F9313
:10032000CF93DF936C017B018B01040F151FEB0151
:100330005E01AE18BF08C017D10759F06991D60108
:10034000ED91FC910190F081E02DC6010995892B7A
:1003500079F7C501DF91CF911F910F91FF90EF9039
:10036000DF90CF90BF90AF900895FC01538D448DE6
:10037000252F30E0842F90E0821B930B541710F050
:10038000CF96089501970895FC01918D828D98175D
:1003900061F0A28DAE0FBF2FB11D5D968C91928D35
:1003A0009F5F9F73928F90E008958FEF9FEF089566
:1003B000FC01918D828D981731F0828DE80FF11D2F
:1003C000858D90E008958FEF9FEF0895FC01918D4A
:1003D000228D892F90E0805C9F4F821B91098F7343
:1003E0009927089585E791E00E94E60121E0892B95
:1003F00009F420E0822F089580E090E0892B29F015
:100400000E94F20181110C9400000895FC01A48D5A
:10041000A80FB92FB11DA35ABF4F2C91848D90E026
:1004200001968F739927848FA689B7892C93A08909
:10043000B1898C91837080648C93938D848D981393
:1004400006C00288F389E02D80818F7D8083089526
:10045000EF92FF920F931F93CF93DF93EC0181E014
:10046000888F9B8D8C8D98131AC0E889F9898081BB
:1004700085FF15C09FB7F894EE89FF896083E889EE
:10048000F98980818370806480839FBF81E090E0E0
:10049000DF91CF911F910F91FF90EF900895F62E6D
:1004A0000B8D10E00F5F1F4F0F731127E02E8C8D07
:1004B0008E110CC00FB607FCFACFE889F98980814C
:1004C00085FFF5CFCE010E940602F1CFEB8DEC0F38
:1004D000FD2FF11DE35AFF4FF0829FB7F8940B8F69
:1004E000EA89FB8980818062CFCFCF93DF93EC01D3
:1004F000888D8823B9F0AA89BB89E889F9898C910C
:1005000085FD03C0808186FD0DC00FB607FCF7CFC7
:100510008C9185FFF2CF808185FFEDCFCE010E94C7
:100520000602E9CFDF91CF91089590E0FC01E458F5
:10053000FF4F2491FC01E057FF4F3491FC01E2553D
:10054000FF4FE491EE23C9F0222339F0233001F16B
:10055000A8F4213019F1223029F1F0E0EE0FFF1F4D
:10056000EE58FF4FA591B4918FB7F894EC916111BB
:1005700026C030953E233C938FBF08952730A9F0C5
:100580002830C9F0243049F7809180008F7D03C066
:10059000809180008F7780938000DFCF84B58F7744
:1005A00084BDDBCF84B58F7DFBCF8091B0008F778A
:1005B0008093B000D2CF8091B0008F7DF9CF3E2BD9
:1005C000DACFCF93DF9390E0FC01E057FF4F249107
:1005D00082559F4FFC0184918823C9F090E0880FD9
:1005E000991FFC01E859FF4FA591B491FC01EE5809
:1005F000FF4FC591D49161110DC09FB7F8948C91B4
:10060000209582238C938881282328839FBFDF91A4
:10061000CF910895623051F49FB7F8943C91822FA6
:10062000809583238C93E8812E2BEFCF8FB7F8949E
:10063000EC912E2B2C938FBFEACF4F925F926F924B
:100640007F92AF92BF92CF92DF92EF92FF920F9381
:100650001F93CF93DF93EC015A018B01488C598C87
:100660006A8C7B8C73016201F7FAF094F7F8F094CE
:100670009A01AB01C701B6010E943A0F181664F047
:100680009501A801C301B2010E94DB0D7301620153
:1006900087FD02C06501780120E030E0A901C701B3
:1006A000B6010E94DB0D811117C01CA21DA21EA263
:1006B0001FA2CC8ADD8AEE8AFF8ADF91CF911F913B
:1006C0000F91FF90EF90DF90CF90BF90AF907F9011
:1006D0006F905F904F900895A701960160E074E2DB
:1006E00084E799E40E94E00D9F770E94590E6CA365
:1006F0007DA38EA39FA311E020E030E0A901C701F4
:10070000B6010E943A0F18160CF010E01A83D1CFF0
:10071000CF93DF93FC012381222359F1EC0161E0A7
:1007200084810E94E10261E08D810E94E1028B815F
:10073000843011F08830B1F461E08E810E94E102D2
:1007400061E08F810E94E1028FA58F3F91F061E00F
:100750000E94E1026EA581E068278FA5DF91CF910D
:100760000C949502833011F0863071F761E08E8130
:10077000E9CFDF91CF910895CF93DF93FC012381DF
:100780002223A9F0EC010190F081E02D0480F58195
:10079000E02D60E009958FA58F3F49F061E00E9450
:1007A000E1026EA58FA5DF91CF910C949502DF91A8
:1007B000CF910895DC01ED91FC9124813581477042
:1007C000552766277727415051096109710947303C
:1007D00051056105710560F4FA01EF50FC4F0C946E
:1007E0004810FB03FD03FF03010403040504070491
:1007F00061E0F901099465E0FCCF64E0FACF66E0BE
:10080000F8CF62E0F6CF6AE0F4CF68E0F2CF69E0BB
:10081000F0CFCF93DF93EC01CB01BA0126E030E0BB
:1008200040E050E00E942910623071058105910579
:1008300089F16CF46115710581059105D1F0613084
:10084000710581059105F9F0DF91CF91089564302C
:1008500071058105910561F124F16530710581050E
:10086000910591F7E881F9810480F581E02D66E03A
:1008700006C0E881F9810480F581E02D64E0CE01B5
:10088000DF91CF910994E881F9810480F581E02D11
:1008900065E0F5CFE881F9810480F581E02D61E024
:1008A000EECFE881F9810480F581E02D63E0E7CFA8
:1008B000E881F9810480F581E02D62E0E0CFDC0180
:1008C000ED91FC910480F581E02D4370552766275A
:1008D0007727423051056105710571F043305105AC
:1008E0006105710559F0413051056105710511F03F
:1008F00065E0099466E0FDCF6AE0FBCF69E0F9CFDF
:10090000CF93DF93EC01CB01BA0123E030E040E06C
:1009100050E00E942910613071058105910599F020
:100920006230710581059105A9F0672B682B692B51
:10093000C1F4E881F9810480F581E02D64E0CE0105
:10094000DF91CF910994E881F9810480F581E02D50
:1009500061E0F5CFE881F9810480F581E02D62E066
:10096000EECFDF91CF910895DC01ED91FC910480F1
:10097000F581E02D437055276627772742305105D2
:100980006105710571F0433051056105710559F03C
:10099000413051056105710511F062E0099463E091
:1009A000FDCF61E0FBCF60E0F9CFCF93DF93EC01A7
:1009B000E881F9810480F581E02D8A8160E0811170
:1009C00062E0CE010995E881F9810480F581E02D8E
:1009D0008A8161E0811163E0CE0109958CA59DA516
:1009E0008230910538F0880F991F880F991F05975D
:1009F0000197F1F7E881F9810480F581E02D8A8182
:100A000060E0811162E0CE01DF91CF910994CF9334
:100A1000DF93EC0120E030E0A9016C897D898E89AB
:100A20009F890E943A0F18162CF4E8A9F9A9DF91C2
:100A3000CF910994EAA9FBA9FACFCF92DF92EF9266
:100A4000FF920F931F93CF93DF93DC011396CC910A
:100A5000C43039F0C83059F1C33019F0C63049F10B
:100A6000C2E08C010C5F1F4FF12CE12CC62ED12C63
:100A7000D1E0F8016481C6010E2C02C095958795DE
:100A80000A94E2F780FD6D270F5F1F4F80810E945F
:100A90009502BFEFEB1AFB0AEC1658F3DF91CF91EA
:100AA0001F910F91FF90EF90DF90CF900895C4E0D9
:100AB000D8CFC3E0D6CFDC011396EC911397E93081
:100AC00008F038C0F0E0E959FA4F0C94481070056E
:100AD00076057C05820588059A058E059A0594059C
:100AE000ED91FC910084F185E02D0994ED91FC914C
:100AF0000284F385E02DF9CFED91FC910484F58516
:100B0000E02DF3CFED91FC910684F785E02DEDCF3C
:100B1000ED91FC910088F189E02DE7CFED91FC91FA
:100B20000288F389E02DE1CFED91FC910488F589ED
:100B3000E02DDBCF08954F925F926F927F928F925C
:100B40009F92AF92BF92CF92DF92EF92FF920F935C
:100B50001F93CF93DF93EC01C888D988EA88FB887C
:100B60008C859D85AE85BF85C81AD90AEA0AFB0A1D
:100B70006C897D898E899F899B01AC010E943F0F02
:100B80004B015C016C8D7D8D8E8D9F8D9B01AC0129
:100B90000E946F0D9B01AC01C501B4010E94E00DE4
:100BA0000E94520EC114D104E104F10409F0B1C055
:100BB00062307105810591050CF0CBC01CA21DA20D
:100BC0001EA21FA21C8A1D8A1E8A1F8A1CAA1DAA79
:100BD0001EAA1FAADF91CF911F910F91FF90EF9056
:100BE000DF90CF90BF90AF909F908F907F906F904D
:100BF0005F904F9008951016110612061306B4F474
:100C00006C157D058E059F051CF42A812111A1C05C
:100C10009B01AC0188279927DC01821B930BA40B55
:100C2000B50B8CAB9DABAEABBFAB93C00115110543
:100C30002105310509F48DC06C157D058E059F05D4
:100C40000CF087C08A81882309F483C030952095F1
:100C5000109501951F4F2F4F3F4F0CAB1DAB2EAB87
:100C60003FAB77C0011511052105310509F471C0AD
:100C70008824992454018C189D08AE08BF08681573
:100C800079058A059B050CF064C08A81811161C0D9
:100C9000DDCFCCACDDACEEACFFACA7019601C7015B
:100CA000B6010E946F0D2B013C01C501B4010E94E9
:100CB0008A0E20E030E040E850E40E943F0F20E040
:100CC00030E040E85FE30E946F0D9B01AC01C3017F
:100CD000B2010E94E00D9B01AC01C701B6010E9468
:100CE0006E0D3B016C01FE01E05CFF4FE080F18086
:100CF000028113819701A8010E943A0F181614F47B
:100D000073018601C701D8018CAF9DAFAEAFBFAFF5
:100D10003AC00CA91DA92EA93FA91C141D041E042C
:100D20001F040CF468CF10161106120613060CF0FF
:100D300099CF0027112798010C191D092E093F0989
:100D400060177107820793070CF062CF2A81211187
:100D50005FCF8CA89DA8AEA8BFA881149104A10460
:100D6000B10409F096CF88AD99ADAAADBBAD8CAFFB
:100D70009DAFAEAFBFAF81E01C141D041E041F0465
:100D80000CF080E08A833FEF831A930AA30AB30A28
:100D90008CAA9DAAAEAABFAACCACDDACEEACFFACCF
:100DA000C701B6010E94590E6CA37DA38EA39FA319
:100DB000A701960160E074E284E799E40E94E00DE7
:100DC0006C8B7D8B8E8B9F8B2A81211103CF90584A
:100DD0006C8B7D8B8E8B9F8BFDCECF92DF92EF92B3
:100DE000FF9280917A0290917B02A0917C02B09157
:100DF0007D02892B8A2B8B2B09F46FC03FB7F894A7
:100E00008091710190917201A0917301B091740170
:100E100026B5A89B05C02F3F19F00196A11DB11D55
:100E20003FBFBA2FA92F982F88276C017D01C20ED2
:100E3000D11CE11CF11C42E0CC0CDD1CEE1CFF1CA3
:100E40004A95D1F780917E0290917F02A091800215
:100E5000B0918102B701A601481B590B6A0B7B0BAD
:100E600080917A0290917B02A0917C02B0917D02E8
:100E7000481759076A077B0780F1809162029091B9
:100E80006302A0916402B09165022091580222236E
:100E900009F44EC00196A11DB11D8093620290938A
:100EA0006302A0936402B093650240916202509184
:100EB0006302609164027091650286E592E00E948F
:100EC0005B05C0927E02D0927F02E0928002F09297
:100ED000810286E592E00E949B0520E030E0A901B6
:100EE00060916A0270916B0280916C0290916D0228
:100EF0000E94DB0D811120C081E0C0906602D0907D
:100F00006702E0906802F09069024091620250919D
:100F100063026091640270916502C416D506E6060C
:100F2000F70609F480E0FF90EF90DF90CF900895EE
:100F30000197A109B109B1CF81E0F5CFCF93DF933C
:100F4000CAE9D2E060E08A810E94E1028A8190E0F1
:100F5000FC01E255FF4FE491F0E0EE0FFF1FEC556E
:100F6000FF4F259134913D8B2C8BFC01E057FF4FB7
:100F7000E491EE8BDF91CF910895FC010190002068
:100F8000E9F73197AF01481B590BBC0185E791E0A8
:100F90000C9488018F929F92AF92BF920F931F93F0
:100FA000CF93DF93CDB7DEB7A1970FB6F894DEBF2E
:100FB0000FBECDBF19A2423008F44AE08E010F5D8A
:100FC0001F4F842E912CB12CA12CA50194010E94BD
:100FD0000710E62FB901CA01EA30F4F4E05DD80148
:100FE000EE938D01232B242B252B79F790E080E0C5
:100FF000109719F0CD010E94BD07A1960FB6F89485
:10100000DEBF0FBECDBFDF91CF911F910F91BF907B
:10101000AF909F908F900895E95CE1CFCF92DF92DF
:10102000EF92FF92CF93DF936B017C016DE285E736
:1010300091E00E942802EC0166277727CB016C190A
:101040007D098E099F094AE00E94CA078C0F9D1FE7
:10105000DF91CF91FF90EF90DF90CF900895CF93E5
:10106000DF9397FF0CC00E940E08EC018DE291E027
:101070000E94BD078C0F9D1FDF91CF9108954AE01C
:101080000E94CA07F2CF4F925F926F927F928F9227
:101090009F92AF92BF92CF92DF92EF92FF92CF9347
:1010A000DF93EC016A017B0120E030E0A901CB0174
:1010B000B6010E94DB0D87FF04C0F7FAF094F7F841
:1010C000F0948C8C9D8CAE8CBF8CA7019601C501D1
:1010D000B4010E94DB0D882309F449C06CA97DA9E5
:1010E0008EA99FA90E948A0E2B013C01A70196019F
:1010F000C501B4010E94E00D9B01AC01C301B20126
:101100000E943F0F0E94520E6CAB7DAB8EAB9FAB2B
:10111000A701960160E070E080E090E40E94E00D9D
:101120000E94B20F26E53EE04DE25FE30E943F0FD2
:1011300020E034E244E759E40E943F0F68AF79AF02
:101140008AAF9BAFCC8EDD8EEE8EFF8ECE01DF910F
:10115000CF91FF90EF90DF90CF90BF90AF909F9096
:101160008F907F906F905F904F900C949B05DF91D4
:10117000CF91FF90EF90DF90CF90BF90AF909F9076
:101180008F907F906F905F904F9008951F920F9275
:101190000FB60F9211242F933F934F935F936F934A
:1011A0007F938F939F93AF93BF93EF93FF9385E7C5
:1011B00091E00E940602FF91EF91BF91AF919F9144
:1011C0008F917F916F915F914F913F912F910F90F0
:1011D0000FBE0F901F9018951F920F920FB60F928F
:1011E00011242F938F939F93EF93FF93E0918501A9
:1011F000F09186018081E0918B01F0918C0182FD5C
:101200001BC0908180918E018F5F8F7320918F0121
:10121000821741F0E0918E01F0E0EB58FE4F958F80
:1012200080938E01FF91EF919F918F912F910F905D
:101230000FBE0F901F9018958081F4CF1F920F92D0
:101240000FB60F9211242F933F938F939F93AF93D9
:10125000BF9380916D0190916E01A0916F01B0914B
:1012600070013091680123E0230F2D3758F5019666
:10127000A11DB11D2093680180936D0190936E01B3
:10128000A0936F01B09370018091710190917201F0
:10129000A0917301B09174010196A11DB11D8093BD
:1012A000710190937201A0937301B0937401BF9187
:1012B000AF919F918F913F912F910F900FBE0F9003
:1012C0001F90189526E8230F0296A11DB11DD2CFBD
:1012D000AF92BF92CF92DF92EF92FF920F931F9344
:1012E000CF93DF93E5E7F1E01382128288EE93E07B
:1012F000A0E0B0E084839583A683B78385E091E086
:101300009183808385EC90E09587848784EC90E0DE
:101310009787868780EC90E0918B808B81EC90E0C2
:10132000938B828B82EC90E0958B848B86EC90E0A3
:10133000978B868B118E128E138E148EEAE9F2E053
:101340008CE390E09483838384EF91E0968385839C
:101350009087878380E991E092878187138614863E
:10136000158616861786108A118A128A138A8CE0CF
:101370008283CBE9D2E088818F7D886088830E9458
:101380009E0788818B7E8D7F8883E6E5F2E007E10A
:1013900011E01183008388E0B82EB382148615868D
:1013A00016861786108A118A128A138A148A158A59
:1013B000168A178AC12CD12C90E8E92E9FE3F92ECA
:1013C000C08ED18EE28EF38E148E158E168E178EF1
:1013D000C0A2D1A2E2A2F3A214A215A216A217A241
:1013E000C1E0D0E0D5A7C4A7AA24AA94A7A610A6B6
:1013F00011A612A613A6B4828AE0858389E08683AB
:101400008BE0878316A614AA15AA16AA17AA10AEEF
:1014100011AE12AE13AE14AE15AE16AE17AEC0922C
:101420009602D0929702E0929802F092990212826C
:101430001086118612861386CF010E948803B70199
:10144000A60186E592E00E944308E2E1F2E0118302
:101450000083B3821486158616861786108A118A31
:10146000128A138A148A158A168A178AC08ED18E18
:10147000E28EF38E148E158E168E178EC0A2D1A218
:10148000E2A2F3A214A215A216A217A2D5A7C4A77E
:10149000A7A610A611A612A613A685E0848383E052
:1014A000858384E0868382E0878316A614AA15AA22
:1014B00016AA17AA10AE11AE12AE13AE14AE15AE28
:1014C00016AE17AEC0925202D0925302E09254026E
:1014D000F092550212821086118612861386CF0171
:1014E0000E948803B701A60182E192E0DF91CF91CB
:1014F0001F910F91FF90EF90DF90CF90BF90AF9032
:101500000C944308789484B5826084BD84B581606E
:1015100084BD85B5826085BD85B5816085BD8091BE
:101520006E00816080936E00109281008091810036
:10153000826080938100809181008160809381002E
:10154000809180008160809380008091B1008460F0
:101550008093B1008091B00081608093B000809151
:101560007A00846080937A0080917A008260809310
:101570007A0080917A00816080937A0080917A006D
:10158000806880937A001092C10020E030E040EA49
:1015900051E460916E0270916F028091700290919F
:1015A00071020E94DB0D882309F453C080E090E0B3
:1015B000A0EAB1E480936E0290936F02A093700250
:1015C000B093710280E090E5A3E4B7E480939602C3
:1015D00090939702A0939802B093990280918A0207
:1015E00090918B02A0918C02B0918D021816190671
:1015F0001A061B0674F560916A0270916B02809165
:101600006C0290916D029B01AC010E943F0F6B0137
:101610007C016091720270917302809174029091CA
:1016200075029B01AC010E946F0D9B01AC01C701CB
:10163000B6010E94E00D0E94520E60938A027093E0
:101640008B0280938C0290938D0286E592E00E943B
:101650009B0540E050E060EA71E486E592E00E947C
:10166000430820E030E040EA51E460916A02709162
:101670006B0280916C0290916D020E94DB0D8823B9
:1016800041F040E050E060EA71E486E592E00E94BB
:101690001D0320E030E048E454E460912A02709198
:1016A0002B0280912C0290912D020E94DB0D882349
:1016B00009F453C080E090E0A8E4B4E480932A02E7
:1016C00090932B02A0932C02B0932D0280E090E423
:1016D000ACE9B4E48093520290935302A093540275
:1016E000B09355028091460290914702A091480222
:1016F000B0914902181619061A061B0674F5609176
:1017000026027091270280912802909129029B0164
:10171000AC010E943F0F6B017C0160912E02709121
:101720002F0280913002909131029B01AC010E9406
:101730006F0D9B01AC01C701B6010E94E00D0E9434
:10174000520E609346027093470280934802909332
:10175000490282E192E00E949B0540E050E068EC83
:1017600073E482E192E00E94430820E030E048E424
:1017700054E4609126027091270280912802909192
:1017800029020E94DB0D882341F040E050E068E42C
:1017900074E482E192E00E941D0380912202909104
:1017A0002302A0912402B09125028897A105B105DA
:1017B00081F088E290E0A0E0B0E080932202909374
:1017C0002302A0932402B093250282E192E00E94BA
:1017D0009B0584EF91E09093A00280939F028091FB
:1017E0009B02886080939B0285FF0E949E078091E8
:1017F0009B028D7F806180939B02E0918501F09137
:10180000860182E08083E0918101F0918201108263
:10181000E0918301F09184018FEC808310928D011F
:10182000E0918901F0918A0186E08083E09187014F
:10183000F0918801808180618083E0918701F0913F
:101840008801808188608083E0918701F091880120
:10185000808180688083E0918701F0918801808198
:101860008F7D8083C1E088E2C82ED12CE12CF12C41
:1018700000E010E098E2892E912CA12CB12C8091EF
:101880009B0284FD0E948C0080919B0280FF0EC011
:1018900090916C018E7F80939B02892F8C2780937F
:1018A0006C0180916B018C2780936B0180919B026E
:1018B00084FD0E948C0080919A0283FF0DC0877F77
:1018C00080939A0280916A018C2780936A018091AB
:1018D00069018C278093690180916C01882309F448
:1018E00061C08091660290916702A0916802B091F8
:1018F00069024091620250916302609164027091AA
:10190000650284179507A607B70771F5B701A60109
:10191000481B590B6A0B7B0B481759076A077B0753
:1019200061F040936602509367026093680270937F
:10193000690286E592E00E949B0510926C018091FD
:1019400000018C278093000180E391E00E94BD0795
:101950006091000170E090E080E04AE00E94CA07D8
:101960008DE291E00E94BD070E94ED068CE391E0BC
:101970000E94BD07609166027091670280916802C3
:10198000909169020E942F0884E491E00E94BD07B3
:10199000609162027091630280916402909165028D
:1019A0000E942F0880916A01882309F451C0809118
:1019B000660290916702A0916802B091690220913D
:1019C0000001211179C0892B8A2B8B2B61F0109299
:1019D000660210926702109268021092690286E510
:1019E00092E00E949B058AE491E00E94BD0760910D
:1019F00066027091670280916802909169020E946C
:101A00002F084091660250916702609168027091C0
:101A100069028091620290916302A0916402B09188
:101A20006502481759076A077B0711F410926A018B
:101A30000E94ED068AE591E00E94BD076091620276
:101A40007091630280916402909165020E942F0858
:101A500020E030E0A90160916A0270916B028091F0
:101A60006C0290916D020E94DB0D811119C04091B2
:101A700066025091670260916802709169028091DC
:101A8000620290916302A0916402B09165024817CE
:101A900059076A077B0721F486E592E00E94BC03A0
:101AA0000115110509F4EBCE0E94F201882309F417
:101AB000E6CE0E940000E3CE8897A105B10509F4A7
:101AC000A0CF8092660290926702A0926802B092C4
:101AD000690286E592E00E949B0593CF5058BB2790
:101AE000AA270E94860D0C94000F0E94F20E38F077
:101AF0000E94F90E20F039F49F3F19F426F40C945B
:101B0000EF0E0EF4E095E7FB0C94E90EE92F0E942E
:101B1000110F58F3BA17620773078407950720F06F
:101B200079F4A6F50C94330F0EF4E0950B2EBA2F32
:101B3000A02D0B01B90190010C01CA01A0011124D3
:101B4000FF27591B99F0593F50F4503E68F11A167F
:101B5000F040A22F232F342F4427585FF3CF469510
:101B600037952795A795F0405395C9F77EF41F1632
:101B7000BA0B620B730B840BBAF09150A1F0FF0FFC
:101B8000BB1F661F771F881FC2F70EC0BA0F621FE8
:101B9000731F841F48F4879577956795B795F795D8
:101BA0009E3F08F0B0CF9395880F08F09927EE0F6D
:101BB0009795879508950E94C50E08F481E00895D1
:101BC0000E94F40D0C94000F0E94F90E58F00E9430
:101BD000F20E40F029F45F3F29F00C94E90E511108
:101BE0000C94340F0C94EF0E0E94110F68F399239C
:101BF000B1F3552391F3951B550BBB27AA27621709
:101C00007307840738F09F5F5F4F220F331F441F15
:101C1000AA1FA9F335D00E2E3AF0E0E832D0915049
:101C20005040E695001CCAF72BD0FE2F29D0660F36
:101C3000771F881FBB1F261737074807AB07B0E879
:101C400009F0BB0B802DBF01FF2793585F4F3AF07F
:101C50009E3F510578F00C94E90E0C94340F5F3FD1
:101C6000E4F3983ED4F3869577956795B795F79505
:101C70009F5FC9F7880F911D9695879597F90895ED
:101C8000E1E0660F771F881FBB1F62177307840789
:101C9000BA0720F0621B730B840BBA0BEE1F88F798
:101CA000E09508950E94590E6894B1110C94340F78
:101CB00008950E94190F88F09F5798F0B92F99271F
:101CC000B751B0F0E1F0660F771F881F991F1AF027
:101CD000BA95C9F714C0B13091F00E94330FB1E04A
:101CE00008950C94330F672F782F8827B85F39F049
:101CF000B93FCCF3869577956795B395D9F73EF4C0
:101D000090958095709561957F4F8F4F9F4F089567
:101D1000E89409C097FB3EF4909580957095619585
:101D20007F4F8F4F9F4F9923A9F0F92F96E9BB273B
:101D30009395F695879577956795B795F111F8CFB7
:101D4000FAF4BB0F11F460FF1BC06F5F7F4F8F4F22
:101D50009F4F16C0882311F096E911C0772321F018
:101D60009EE8872F762F05C0662371F096E8862FB0
:101D700070E060E02AF09A95660F771F881FDAF707
:101D8000880F9695879597F90895990F0008550F34
:101D9000AA0BE0E8FEEF16161706E807F907C0F0F1
:101DA00012161306E407F50798F0621B730B840BF9
:101DB000950B39F40A2661F0232B242B252B21F4D3
:101DC00008950A2609F4A140A6958FEF811D811D73
:101DD000089597F99F6780E870E060E008959FEFAD
:101DE00080EC089500240A941616170618060906B2
:101DF000089500240A941216130614060506089581
:101E0000092E0394000C11F4882352F0BB0F40F408
:101E1000BF2B11F460FF04C06F5F7F4F8F4F9F4F48
:101E2000089557FD9058440F551F59F05F3F71F0CA
:101E30004795880F97FB991F61F09F3F79F0879531
:101E40000895121613061406551FF2CF4695F1DFBA
:101E500008C0161617061806991FF1CF869571054A
:101E6000610508940895E894BB2766277727CB017E
:101E700097F908950E94C50E08F48FEF08950E9407
:101E8000520F0C94000F0E94F20E38F00E94F90ECF
:101E900020F0952311F00C94E90E0C94EF0E112410
:101EA0000C94340F0E94110F70F3959FC1F3950F9E
:101EB00050E0551F629FF001729FBB27F00DB11DCE
:101EC000639FAA27F00DB11DAA1F649F6627B00D5E
:101ED000A11D661F829F2227B00DA11D621F739F47
:101EE000B00DA11D621F839FA00D611D221F749F55
:101EF0003327A00D611D231F849F600D211D822F9C
:101F0000762F6A2F11249F5750409AF0F1F08823C2
:101F10004AF0EE0FFF1FBB1F661F771F881F9150EF
:101F20005040A9F79E3F510580F00C94E90E0C94A7
:101F3000340F5F3FE4F3983ED4F386957795679529
:101F4000B795F795E7959F5FC1F7FE2B880F911D19
:101F50009695879597F9089519F416F40C94EF0E59
:101F60000C94F20F0E94190FB8F39923C9F3B6F33A
:101F70009F57550B87FF0E9400100024A0E640EAFF
:101F8000900180585695979528F4805C660F771FCE
:101F9000881F20F026173707480730F4621B730BA1
:101FA000840B202931294A2BA695179407942025C4
:101FB00031254A2758F7660F771F881F20F026170C
:101FC0003707480730F4620B730B840B200D311D6B
:101FD000411DA09581F7B901842F9158880F9695DE
:101FE000879508959F3F31F0915020F4879577951C
:101FF0006795B795880F911D9695879597F90895E0
:1020000091505040660F771F881FD2F70895A1E2C4
:102010001A2EAA1BBB1BFD010DC0AA1FBB1FEE1F62
:10202000FF1FA217B307E407F50720F0A21BB30BAD
:10203000E40BF50B661F771F881F991F1A9469F729
:1020400060957095809590959B01AC01BD01CF0185
:102050000895052E97FB1EF400940E94401057FD32
:1020600007D00E94071007FC03D04EF40C944010D8
:1020700050954095309521953F4F4F4F5F4F0895B4
:1020800090958095709561957F4F8F4F9F4F0895E4
:10209000EE0FFF1F0590F491E02D0994F894FFCF07
:1020A000010000000028028801B5017502E601C4A4
:1020B00001D80100000000BC0388031D055B050773
:1020C00005D504B40480045F040904DA030D0A0092
:1020D0007365745374617475733120006D6F766528
:1020E000546F2000437572722000726576657273BA
:1020F0006520546F204C4F572000726576657273CF
:08210000652063757272200076
:00000001FF
