:100000000C9462000C948A000C948A000C948A0070
:100010000C948A000C948A000C948A000C948A0038
:100020000C948A000C948A000C948A000C948A0028
:100030000C948A000C948A000C948A000C948A0018
:100040000C9428090C948A000C94F6080C94D0089F
:100050000C948A000C948A000C948A000C948A00F8
:100060000C948A000C948A000000000024002700F1
:100070002A0000000000250028002B0000000008D6
:10008000000201000003040700000000000000005F
:10009000010204081020408001020408102001021F
:1000A000040810200000000023002600290004049A
:1000B0000404040404040202020202020303030310
:1000C0000303720911241FBECFEFD8E0DEBFCDBFFE
:1000D00011E0A0E0B1E0E0EEFFE102C005900D927A
:1000E000A634B107D9F722E0A6E4B1E001C01D9221
:1000F000AF38B207E1F710E0C2E6D0E004C02197C4
:10010000FE010E94E80FC136D107C9F70E948C0A90
:100110000C94EE0F0C940000CF92DF92EF92FF92BE
:100120000F931F938091790282FD18C085FD16C040
:10013000E0918C02F0918D02208130918E0281FB42
:10014000992790F983FB882780F98927922F932399
:1001500021E009F020E0822780938A028FB7F8948B
:1001600040914B0150914C0160914D0170914E01B5
:100170008FBF90918A0220918B02809178029923FF
:1001800009F491C021118FC080FD6BC08160809304
:10019000780240938602509387026093880270939E
:1001A000890280918B02882389F1992379F18091CA
:1001B0007D0290917E02B0E0A0E000918602109155
:1001C000870220918802309189026A017B01C01A5E
:1001D000D10AE20AF30A97018601081719072A07CC
:1001E0003B07A0F08091780281FD10C090918302BE
:1001F000909385028A648F77809378024093860279
:1002000050938702609388027093890280918602DE
:1002100090918702A0918802B0918902481B590BE6
:100220006A0B7B0B80917F0290918002B0E0A0E08E
:10023000481759076A077B0768F080918302882373
:1002400049F0809384021092830280917802846046
:10025000809378021F910F91FF90EF90DF90CF90E5
:1002600008950091860210918702209188023091B2
:1002700089026A017B01C01AD10AE20AF30A0091DD
:100280007B0210917C0230E020E0C016D106E2062D
:10029000F30608F4BBCF21E020938B0280628068D4
:1002A000809378027ECF8E7F80937802911179CFF0
:1002B000222309F4ABCF10928B0281FD05C08091FF
:1002C00083028F5F80938302809178028D7F8061AB
:1002D000809378024093860250938702609388024D
:1002E0007093890286FF07C01092840210928302E5
:1002F0008F7B809378028091780287FF87CF8F77FA
:10030000809378028091790281608093790249CF4D
:10031000AF92BF92CF92DF92EF92FF920F931F9313
:10032000CF93DF936C017B018B01040F151FEB0151
:100330005E01AE18BF08C017D10759F06991D60108
:10034000ED91FC910190F081E02DC6010995892B7A
:1003500079F7C501DF91CF911F910F91FF90EF9039
:10036000DF90CF90BF90AF900895FC01538D448DE6
:10037000252F30E0842F90E0821B930B541710F050
:10038000CF96089501970895FC01918D828D98175D
:1003900061F0A28DAE0FBF2FB11D5D968C91928D35
:1003A0009F5F9F73928F90E008958FEF9FEF089566
:1003B000FC01918D828D981731F0828DE80FF11D2F
:1003C000858D90E008958FEF9FEF0895FC01918D4A
:1003D000228D892F90E0805C9F4F821B91098F7343
:1003E0009927089583E591E00E94E60121E0892B99
:1003F00009F420E0822F089580E090E0892B29F015
:100400000E94F20181110C9400000895FC01A48D5A
:10041000A80FB92FB11DA35ABF4F2C91848D90E026
:1004200001968F739927848FA689B7892C93A08909
:10043000B1898C91837080648C93938D848D981393
:1004400006C00288F389E02D80818F7D8083089526
:10045000EF92FF920F931F93CF93DF93EC0181E014
:10046000888F9B8D8C8D98131AC0E889F9898081BB
:1004700085FF15C09FB7F894EE89FF896083E889EE
:10048000F98980818370806480839FBF81E090E0E0
:10049000DF91CF911F910F91FF90EF900895F62E6D
:1004A0000B8D10E00F5F1F4F0F731127E02E8C8D07
:1004B0008E110CC00FB607FCFACFE889F98980814C
:1004C00085FFF5CFCE010E940602F1CFEB8DEC0F38
:1004D000FD2FF11DE35AFF4FF0829FB7F8940B8F69
:1004E000EA89FB8980818062CFCFCF93DF93EC01D3
:1004F000888D8823B9F0AA89BB89E889F9898C910C
:1005000085FD03C0808186FD0DC00FB607FCF7CFC7
:100510008C9185FFF2CF808185FFEDCFCE010E94C7
:100520000602E9CFDF91CF91089590E0FC01E458F5
:10053000FF4F2491FC01E057FF4F3491FC01E2553D
:10054000FF4FE491EE23C9F0222339F0233001F16B
:10055000A8F4213019F1223029F1F0E0EE0FFF1F4D
:10056000EE58FF4FA591B4918FB7F894EC916111BB
:1005700026C030953E233C938FBF08952730A9F0C5
:100580002830C9F0243049F7809180008F7D03C066
:10059000809180008F7780938000DFCF84B58F7744
:1005A00084BDDBCF84B58F7DFBCF8091B0008F778A
:1005B0008093B000D2CF8091B0008F7DF9CF3E2BD9
:1005C000DACFCF93DF9390E0FC01E057FF4F249107
:1005D00082559F4FFC0184918823C9F090E0880FD9
:1005E000991FFC01E859FF4FA591B491FC01EE5809
:1005F000FF4FC591D49161110DC09FB7F8948C91B4
:10060000209582238C938881282328839FBFDF91A4
:10061000CF910895623051F49FB7F8943C91822FA6
:10062000809583238C93E8812E2BEFCF8FB7F8949E
:10063000EC912E2B2C938FBFEACF4F925F926F924B
:100640007F92AF92BF92CF92DF92EF92FF920F9381
:100650001F93CF93DF93EC015A018B01488C598C87
:100660006A8C7B8C73016201F7FAF094F7F8F094CE
:100670009A01AB01C701B6010E94DA0E181664F0A8
:100680009501A801C301B2010E947B0D73016201B3
:1006900087FD02C06501780120E030E0A901C701B3
:1006A000B6010E947B0D811117C01CA21DA21EA2C3
:1006B0001FA2CC8ADD8AEE8AFF8ADF91CF911F913B
:1006C0000F91FF90EF90DF90CF90BF90AF907F9011
:1006D0006F905F904F900895A701960160E074E2DB
:1006E00084E799E40E94800D9F770E94F90D6CA326
:1006F0007DA38EA39FA311E020E030E0A901C701F4
:10070000B6010E94DA0E18160CF010E01A83D1CF51
:10071000CF93DF93FC012381222359F1EC0161E0A7
:1007200084810E94E10261E08D810E94E1028B815F
:10073000843011F08830B1F461E08E810E94E102D2
:1007400061E08F810E94E1028FA58F3F91F061E00F
:100750000E94E1026EA581E068278FA5DF91CF910D
:100760000C949502833011F0863071F761E08E8130
:10077000E9CFDF91CF910895CF93DF93FC012381DF
:100780002223A9F0EC010190F081E02D0480F58195
:10079000E02D60E009958FA58F3F49F061E00E9450
:1007A000E1026EA58FA5DF91CF910C949502DF91A8
:1007B000CF910895DC01ED91FC9124813581477042
:1007C000552766277727415051096109710947303C
:1007D00051056105710560F4FA01EF50FC4F0C946E
:1007E000E80FFB03FD03FF030104030405040704F2
:1007F00061E0F901099465E0FCCF64E0FACF66E0BE
:10080000F8CF62E0F6CF6AE0F4CF68E0F2CF69E0BB
:10081000F0CFCF93DF93EC01CB01BA0126E030E0BB
:1008200040E050E00E94C90F6230710581059105DA
:1008300089F16CF46115710581059105D1F0613084
:10084000710581059105F9F0DF91CF91089564302C
:1008500071058105910561F124F16530710581050E
:10086000910591F7E881F9810480F581E02D66E03A
:1008700006C0E881F9810480F581E02D64E0CE01B5
:10088000DF91CF910994E881F9810480F581E02D11
:1008900065E0F5CFE881F9810480F581E02D61E024
:1008A000EECFE881F9810480F581E02D63E0E7CFA8
:1008B000E881F9810480F581E02D62E0E0CFDC0180
:1008C000ED91FC910480F581E02D4370552766275A
:1008D0007727423051056105710571F043305105AC
:1008E0006105710559F0413051056105710511F03F
:1008F00065E0099466E0FDCF6AE0FBCF69E0F9CFDF
:10090000CF93DF93EC01CB01BA0123E030E040E06C
:1009100050E00E94C90F613071058105910599F081
:100920006230710581059105A9F0672B682B692B51
:10093000C1F4E881F9810480F581E02D64E0CE0105
:10094000DF91CF910994E881F9810480F581E02D50
:1009500061E0F5CFE881F9810480F581E02D62E066
:10096000EECFDF91CF910895DC01ED91FC910480F1
:10097000F581E02D437055276627772742305105D2
:100980006105710571F0433051056105710559F03C
:10099000413051056105710511F062E0099463E091
:1009A000FDCF61E0FBCF60E0F9CFCF93DF93EC01A7
:1009B000E881F9810480F581E02D8A8160E0811170
:1009C00062E0CE010995E881F9810480F581E02D8E
:1009D0008A8161E0811163E0CE0109958CA59DA516
:1009E0008230910538F0880F991F880F991F05975D
:1009F0000197F1F7E881F9810480F581E02D8A8182
:100A000060E0811162E0CE01DF91CF910994CF9334
:100A1000DF93EC0120E030E0A9016C897D898E89AB
:100A20009F890E94DA0E18162CF4E8A9F9A9DF9123
:100A3000CF910994EAA9FBA9FACFCF92DF92EF9266
:100A4000FF920F931F93CF93DF93DC011396CC910A
:100A5000C43039F0C83059F1C33019F0C63049F10B
:100A6000C2E08C010C5F1F4FF12CE12CC62ED12C63
:100A7000D1E0F8016481C6010E2C02C095958795DE
:100A80000A94E2F780FD6D270F5F1F4F80810E945F
:100A90009502BFEFEB1AFB0AEC1658F3DF91CF91EA
:100AA0001F910F91FF90EF90DF90CF900895C4E0D9
:100AB000D8CFC3E0D6CFDC011396EC911397E93081
:100AC00008F038C0F0E0E959FA4F0C94E80F7005CF
:100AD00076057C05820588059A058E059A0594059C
:100AE000ED91FC910084F185E02D0994ED91FC914C
:100AF0000284F385E02DF9CFED91FC910484F58516
:100B0000E02DF3CFED91FC910684F785E02DEDCF3C
:100B1000ED91FC910088F189E02DE7CFED91FC91FA
:100B20000288F389E02DE1CFED91FC910488F589ED
:100B3000E02DDBCF08954F925F926F927F928F925C
:100B40009F92AF92BF92CF92DF92EF92FF920F935C
:100B50001F93CF93DF93EC01C888D988EA88FB887C
:100B60008C859D85AE85BF85C81AD90AEA0AFB0A1D
:100B70006C897D898E899F899B01AC010E94DF0E63
:100B80004B015C016C8D7D8D8E8D9F8D9B01AC0129
:100B90000E940F0D9B01AC01C501B4010E94800DA4
:100BA0000E94F20DC114D104E104F10409F0B1C0B6
:100BB00062307105810591050CF0CBC01CA21DA20D
:100BC0001EA21FA21C8A1D8A1E8A1F8A1CAA1DAA79
:100BD0001EAA1FAADF91CF911F910F91FF90EF9056
:100BE000DF90CF90BF90AF909F908F907F906F904D
:100BF0005F904F9008951016110612061306B4F474
:100C00006C157D058E059F051CF42A812111A1C05C
:100C10009B01AC0188279927DC01821B930BA40B55
:100C2000B50B8CAB9DABAEABBFAB93C00115110543
:100C30002105310509F48DC06C157D058E059F05D4
:100C40000CF087C08A81882309F483C030952095F1
:100C5000109501951F4F2F4F3F4F0CAB1DAB2EAB87
:100C60003FAB77C0011511052105310509F471C0AD
:100C70008824992454018C189D08AE08BF08681573
:100C800079058A059B050CF064C08A81811161C0D9
:100C9000DDCFCCACDDACEEACFFACA7019601C7015B
:100CA000B6010E940F0D2B013C01C501B4010E9449
:100CB0002A0E20E030E040E850E40E94DF0E20E001
:100CC00030E040E85FE30E940F0D9B01AC01C301DF
:100CD000B2010E94800D9B01AC01C701B6010E94C8
:100CE0000E0D3B016C01FE01E05CFF4FE080F180E6
:100CF000028113819701A8010E94DA0E181614F4DC
:100D000073018601C701D8018CAF9DAFAEAFBFAFF5
:100D10003AC00CA91DA92EA93FA91C141D041E042C
:100D20001F040CF468CF10161106120613060CF0FF
:100D300099CF0027112798010C191D092E093F0989
:100D400060177107820793070CF062CF2A81211187
:100D50005FCF8CA89DA8AEA8BFA881149104A10460
:100D6000B10409F096CF88AD99ADAAADBBAD8CAFFB
:100D70009DAFAEAFBFAF81E01C141D041E041F0465
:100D80000CF080E08A833FEF831A930AA30AB30A28
:100D90008CAA9DAAAEAABFAACCACDDACEEACFFACCF
:100DA000C701B6010E94F90D6CA37DA38EA39FA37A
:100DB000A701960160E074E284E799E40E94800D47
:100DC0006C8B7D8B8E8B9F8B2A81211103CF90584A
:100DD0006C8B7D8B8E8B9F8BFDCECF92DF92EF92B3
:100DE000FF928091580290915902A0915A02B091BD
:100DF0005B02892B8A2B8B2B09F46FC03FB7F894C9
:100E000080914F0190915001A0915101B0915201F8
:100E100026B5A89B05C02F3F19F00196A11DB11D55
:100E20003FBFBA2FA92F982F88276C017D01C20ED2
:100E3000D11CE11CF11C42E0CC0CDD1CEE1CFF1CA3
:100E40004A95D1F780915C0290915D02A0915E027B
:100E5000B0915F02B701A601481B590B6A0B7B0BCF
:100E60008091580290915902A0915A02B0915B0270
:100E7000481759076A077B0780F1809140029091DB
:100E80004102A0914202B0914302209136022223F6
:100E900009F44EC00196A11DB11D809340029093AC
:100EA0004102A0934202B09343024091400250910C
:100EB0004102609142027091430284E392E00E94F9
:100EC0005B05C0925C02D0925D02E0925E02F092FD
:100ED0005F0284E392E00E949B0520E030E0A901DC
:100EE000609148027091490280914A0290914B02B0
:100EF0000E947B0D811120C081E0C0904402D090FF
:100F00004502E0904602F090470240914002509125
:100F100041026091420270914302C416D506E60672
:100F2000F70609F480E0FF90EF90DF90CF900895EE
:100F30000197A109B109B1CF81E0F5CFCF93DF933C
:100F4000C8E7D2E060E08A810E94E1028A8190E0F5
:100F5000FC01E255FF4FE491F0E0EE0FFF1FEC556E
:100F6000FF4F259134913D8B2C8BFC01E057FF4FB7
:100F7000E491EE8BDF91CF910895FC010190002068
:100F8000E9F73197AF01481B590BBC0183E591E0AC
:100F90000C9488018F929F92AF92BF92CF92DF9272
:100FA000EF92FF920F931F93CF93DF93CDB7DEB7EE
:100FB000A1970FB6F894DEBF0FBECDBF6B017C01C9
:100FC000F7FE47C06DE283E591E00E9428028C01A4
:100FD00022273327A9012C193D094E095F0919A2BF
:100FE000CE0181967C019AE0892E912CA12CB12C06
:100FF000CA01B901A50194010E94A70F605DF70124
:1010000062937F01211531054105510589F790E073
:1010100080E0309719F0CF010E94BD07080F191F1B
:101020008CE291E00E94BD07800F911FA1960FB640
:10103000F894DEBF0FBECDBFDF91CF911F910F910E
:10104000FF90EF90DF90CF90BF90AF909F908F90E8
:101050000895AC019B0119A28E010F5D1F4F8AE01C
:10106000C82ED12CE12CF12CCA01B901A70196019F
:101070000E94A70F605DF80162938F012115310571
:101080004105510589F7309729F0CF010E94BD072E
:101090008C01C6CF10E000E0C3CF4F925F926F92F9
:1010A0007F928F929F92AF92BF92CF92DF92EF92F8
:1010B000FF92CF93DF93EC016A017B0120E030E0E7
:1010C000A901CB01B6010E947B0D87FF04C0F7FA8E
:1010D000F094F7F8F0948C8C9D8CAE8CBF8CA701AB
:1010E0009601C501B4010E947B0D882309F449C013
:1010F0006CA97DA98EA99FA90E942A0E2B013C01F3
:10110000A7019601C501B4010E94800D9B01AC01AD
:10111000C301B2010E94DF0E0E94F20D6CAB7DABE9
:101120008EAB9FABA701960160E070E080E090E499
:101130000E94800D0E94520F26E53EE04DE25FE3E3
:101140000E94DF0E20E034E244E759E40E94DF0E03
:1011500068AF79AF8AAF9BAFCC8EDD8EEE8EFF8EFF
:10116000CE01DF91CF91FF90EF90DF90CF90BF90B5
:10117000AF909F908F907F906F905F904F900C9466
:101180009B05DF91CF91FF90EF90DF90CF90BF90C4
:10119000AF909F908F907F906F905F904F90089549
:1011A0001F920F920FB60F9211242F933F934F93DC
:1011B0005F936F937F938F939F93AF93BF93EF93BF
:1011C000FF9383E591E00E940602FF91EF91BF91AA
:1011D000AF919F918F917F916F915F914F913F91CF
:1011E0002F910F900FBE0F901F9018951F920F9286
:1011F0000FB60F9211242F938F939F93EF93FF932A
:10120000E0916301F09164018081E0916901F091C6
:101210006A0182FD1BC0908180916C018F5F8F738A
:1012200020916D01821741F0E0916C01F0E0ED5AE0
:10123000FE4F958F80936C01FF91EF919F918F915D
:101240002F910F900FBE0F901F9018958081F4CFB3
:101250001F920F920FB60F9211242F933F938F93EB
:101260009F93AF93BF9380914B0190914C01A091BC
:101270004D01B0914E013091460123E0230F2D37EF
:1012800058F50196A11DB11D2093460180934B0195
:1012900090934C01A0934D01B0934E0180914F016A
:1012A00090915001A0915101B09152010196A11D60
:1012B000B11D80934F0190935001A0935101B093C1
:1012C0005201BF91AF919F918F913F912F910F90BC
:1012D0000FBE0F901F90189526E8230F0296A11DB0
:1012E000B11DD2CFAF92BF92CF92DF92EF92FF9219
:1012F0000F931F93CF93DF93E3E5F1E01382128204
:1013000088EE93E0A0E0B0E084839583A683B78362
:1013100084E091E09183808385EC90E095878487D9
:1013200084EC90E09787868780EC90E0918B808BAF
:1013300081EC90E0938B828B82EC90E0958B848B98
:1013400086EC90E0978B868B118E128E138E148E06
:10135000E8E7F2E08CE390E09483838384EF91E00C
:10136000968385839087878380E991E09287818740
:1013700013861486158616861786108A118A128A95
:10138000138A8CE08283C9E7D2E088818F7D8860F0
:1013900088830E949E0788818B7E8D7F8883E4E30B
:1013A000F2E006E111E01183008388E0B82EB382F9
:1013B0001486158616861786108A118A128A138A51
:1013C000148A158A168A178AC12CD12C90E8E92E26
:1013D0009FE3F92EC08ED18EE28EF38E148E158E81
:1013E000168E178EC0A2D1A2E2A2F3A214A215A259
:1013F00016A217A2C1E0D0E0D5A7C4A7AA24AA9438
:10140000A7A610A611A612A613A6B4828AE0858309
:1014100089E086838BE0878316A614AA15AA16AAEC
:1014200017AA10AE11AE12AE13AE14AE15AE16AEB4
:1014300017AEC0927402D0927502E0927602F092DA
:10144000770212821086118612861386CF010E94BF
:101450008803B701A60184E392E00E944D08E0EF03
:10146000F1E011830083B3821486158616861786F1
:10147000108A118A128A138A148A158A168A178A80
:10148000C08ED18EE28EF38E148E158E168E178E30
:10149000C0A2D1A2E2A2F3A214A215A216A217A280
:1014A000D5A7C4A7A7A610A611A612A613A685E0C5
:1014B000848383E0858384E0868382E0878316A625
:1014C00014AA15AA16AA17AA10AE11AE12AE13AE20
:1014D00014AE15AE16AE17AEC0923002D0923102E5
:1014E000E0923202F0923302128210861186128646
:1014F0001386CF010E948803B701A60180EF91E017
:10150000DF91CF911F910F91FF90EF90DF90CF90DF
:10151000BF90AF900C944D08789484B5826084BDE0
:1015200084B5816084BD85B5826085BD85B58160E7
:1015300085BD80916E00816080936E001092810065
:101540008091810082608093810080918100816020
:1015500080938100809180008160809380008091E1
:10156000B10084608093B1008091B000816080936D
:10157000B00080917A00846080937A0080917A0034
:10158000826080937A0080917A00816080937A00F3
:1015900080917A00806880937A001092C10020E0E8
:1015A00030E040EA51E460914C0270914D0280912C
:1015B0004E0290914F020E947B0D882309F453C084
:1015C00080E090E0A0EAB1E480934C0290934D0259
:1015D000A0934E02B0934F0280E090E5A3E4B7E4FD
:1015E0008093740290937502A0937602B093770271
:1015F0008091680290916902A0916A02B0916B0299
:10160000181619061A061B0674F5609148027091A7
:10161000490280914A0290914B029B01AC010E94C9
:10162000DF0E6B017C01609150027091510280913C
:101630005202909153029B01AC010E940F0D9B013D
:10164000AC01C701B6010E94800D0E94F20D6093AB
:1016500068027093690280936A0290936B0284E33C
:1016600092E00E949B0540E050E060EA71E484E370
:1016700092E00E944D0820E030E040EA51E46091A1
:1016800048027091490280914A0290914B020E9457
:101690007B0D882341F040E050E060EA71E484E390
:1016A00092E00E941D0320E030E048E454E46091A1
:1016B00008027091090280910A0290910B020E9427
:1016C0007B0D882309F453C080E090E0A8E4B4E4E3
:1016D0008093080290930902A0930A02B0930B0230
:1016E00080E090E4ACE9B4E480933002909331025E
:1016F000A0933202B093330280912402909125028C
:10170000A0912602B0912702181619061A061B0688
:1017100074F5609104027091050280910602909127
:1017200007029B01AC010E94DF0E6B017C016091FE
:101730000C0270910D0280910E0290910F029B019C
:10174000AC010E940F0D9B01AC01C701B6010E94C4
:10175000800D0E94F20D6093240270932502809305
:1017600026029093270280EF91E00E949B0540E0C3
:1017700050E068EC73E480EF91E00E944D0820E0B7
:1017800030E048E454E460910402709105028091D5
:101790000602909107020E947B0D882341F040E0F1
:1017A00050E068E474E480EF91E00E941D038091B2
:1017B000000290910102A0910202B0910302889769
:1017C000A105B10581F088E290E0A0E0B0E080934F
:1017D000000290930102A0930202B093030280EFF3
:1017E00091E00E949B0584EF91E090937E028093AC
:1017F0007D028091790288608093790285FF0E9442
:101800009E07809179028D7F806180937902E091BB
:101810006301F091640182E08083E0915F01F091C7
:1018200060011082E0916101F09162018FEC808390
:1018300010926B01E0916701F091680186E080836E
:10184000E0916501F0916601808180618083E09183
:101850006501F0916601808188608083E091650177
:10186000F0916601808180688083E0916501F0914C
:10187000660180818F7D8083C1E088E2C82ED12CF3
:10188000E12CF12C00E010E0D1E08091790284FDA0
:101890000E948C008091790280FF0EC090914A01D5
:1018A0008E7F80937902892F8C2780934A018091C3
:1018B00049018C27809349018091790284FD0E941F
:1018C0008C008091780283FF0AC0877F8093780222
:1018D000D0934801809147018C27809347018091E4
:1018E0004A01882309F44CC080914402909145023A
:1018F000A0914602B09147024091400250914102AE
:10190000609142027091430284179507A607B707BA
:10191000C9F4B701A601481B590B6A0B7B0B48178A
:1019200059076A077B0761F04093440250934502D0
:10193000609346027093470284E392E00E949B0505
:1019400010924A010E94ED0683E391E00E94BD07D8
:101950006091440270914502809146029091470245
:101960000E94CA078FE391E00E94BD076091400288
:101970007091410280914202909143020E94CA07F5
:10198000809148018823B1F18091440290914502F1
:10199000A0914602B09147028897A105B10541F593
:1019A0001092440210924502109246021092470291
:1019B00084E392E00E949B058FE291E00E94BD07C4
:1019C00060914402709145028091460290914702D5
:1019D0000E94CA078BE391E00E94BD07609140021C
:1019E0007091410280914202909143020E94CA0785
:1019F0000E94ED0680914A01811104C084E392E0C7
:101A00000E94BC030115110509F43FCF0E94F201A9
:101A1000882309F43ACF0E94000037CF5058BB27E3
:101A2000AA270E94260D0C94A00E0E94920E38F058
:101A30000E94990E20F039F49F3F19F426F40C947B
:101A40008F0E0EF4E095E7FB0C94890EE92F0E94AF
:101A5000B10E58F3BA17620773078407950720F091
:101A600079F4A6F50C94D30E0EF4E0950B2EBA2F54
:101A7000A02D0B01B90190010C01CA01A001112494
:101A8000FF27591B99F0593F50F4503E68F11A1640
:101A9000F040A22F232F342F4427585FF3CF4695D1
:101AA00037952795A795F0405395C9F77EF41F16F3
:101AB000BA0B620B730B840BBAF09150A1F0FF0FBD
:101AC000BB1F661F771F881FC2F70EC0BA0F621FA9
:101AD000731F841F48F4879577956795B795F79599
:101AE0009E3F08F0B0CF9395880F08F09927EE0F2E
:101AF0009795879508950E94650E08F481E00895F2
:101B00000E94940D0C94A00E0E94990E58F00E9411
:101B1000920E40F029F45F3F29F00C94890E511188
:101B20000C94D40E0C948F0E0E94B10E68F399237E
:101B3000B1F3552391F3951B550BBB27AA276217C9
:101B40007307840738F09F5F5F4F220F331F441FD6
:101B5000AA1FA9F335D00E2E3AF0E0E832D091500A
:101B60005040E695001CCAF72BD0FE2F29D0660FF7
:101B7000771F881FBB1F261737074807AB07B0E83A
:101B800009F0BB0B802DBF01FF2793585F4F3AF040
:101B90009E3F510578F00C94890E0C94D40E5F3F53
:101BA000E4F3983ED4F3869577956795B795F795C6
:101BB0009F5FC9F7880F911D9695879597F90895AE
:101BC000E1E0660F771F881FBB1F6217730784074A
:101BD000BA0720F0621B730B840BBA0BEE1F88F759
:101BE000E09508950E94F90D6894B1110C94D40EFB
:101BF00008950E94B90E88F09F5798F0B92F992741
:101C0000B751B0F0E1F0660F771F881F991F1AF0E7
:101C1000BA95C9F714C0B13091F00E94D30EB1E06B
:101C200008950C94D30E672F782F8827B85F39F06A
:101C3000B93FCCF3869577956795B395D9F73EF480
:101C400090958095709561957F4F8F4F9F4F089528
:101C5000E89409C097FB3EF4909580957095619546
:101C60007F4F8F4F9F4F9923A9F0F92F96E9BB27FC
:101C70009395F695879577956795B795F111F8CF78
:101C8000FAF4BB0F11F460FF1BC06F5F7F4F8F4FE3
:101C90009F4F16C0882311F096E911C0772321F0D9
:101CA0009EE8872F762F05C0662371F096E8862F71
:101CB00070E060E02AF09A95660F771F881FDAF7C8
:101CC000880F9695879597F90895990F0008550FF5
:101CD000AA0BE0E8FEEF16161706E807F907C0F0B2
:101CE00012161306E407F50798F0621B730B840BBA
:101CF000950B39F40A2661F0232B242B252B21F494
:101D000008950A2609F4A140A6958FEF811D811D33
:101D1000089597F99F6780E870E060E008959FEF6D
:101D200080EC089500240A94161617061806090672
:101D3000089500240A941216130614060506089541
:101D4000092E0394000C11F4882352F0BB0F40F4C9
:101D5000BF2B11F460FF04C06F5F7F4F8F4F9F4F09
:101D6000089557FD9058440F551F59F05F3F71F08B
:101D70004795880F97FB991F61F09F3F79F08795F2
:101D80000895121613061406551FF2CF4695F1DF7B
:101D900008C0161617061806991FF1CF869571050B
:101DA000610508940895E894BB2766277727CB013F
:101DB00097F908950E94650E08F48FEF08950E9428
:101DC000F20E0C94A00E0E94920E38F00E94990E12
:101DD00020F0952311F00C94890E0C948F0E112491
:101DE0000C94D40E0E94B10E70F3959FC1F3950F21
:101DF00050E0551F629FF001729FBB27F00DB11D8F
:101E0000639FAA27F00DB11DAA1F649F6627B00D1E
:101E1000A11D661F829F2227B00DA11D621F739F07
:101E2000B00DA11D621F839FA00D611D221F749F15
:101E30003327A00D611D231F849F600D211D822F5C
:101E4000762F6A2F11249F5750409AF0F1F0882383
:101E50004AF0EE0FFF1FBB1F661F771F881F9150B0
:101E60005040A9F79E3F510580F00C94890E0C94C8
:101E7000D40E5F3FE4F3983ED4F38695779567954B
:101E8000B795F795E7959F5FC1F7FE2B880F911DDA
:101E90009695879597F9089519F416F40C948F0E7A
:101EA0000C94920F0E94B90EB8F39923C9F3B6F3BC
:101EB0009F57550B87FF0E94A00F0024A0E640EA21
:101EC000900180585695979528F4805C660F771F8F
:101ED000881F20F026173707480730F4621B730B62
:101EE000840B202931294A2BA69517940794202585
:101EF00031254A2758F7660F771F881F20F02617CD
:101F00003707480730F4620B730B840B200D311D2B
:101F1000411DA09581F7B901842F9158880F96959E
:101F2000879508959F3F31F0915020F487957795DC
:101F30006795B795880F911D9695879597F90895A0
:101F400091505040660F771F881FD2F70895A1E285
:101F50001A2EAA1BBB1BFD010DC0AA1FBB1FEE1F23
:101F6000FF1FA217B307E407F50720F0A21BB30B6E
:101F7000E40BF50B661F771F881F991F1A9469F7EA
:101F800060957095809590959B01AC01BD01CF0146
:101F90000895052E97FB1EF400940E94E00F57FD54
:101FA00007D00E94A70F07FC03D04EF40C94E00F5B
:101FB00050954095309521953F4F4F4F5F4F089575
:101FC00090958095709561957F4F8F4F9F4F0895A5
:101FD000EE0FFF1F0590F491E02D0994F894FFCFC8
:101FE0000000000028028801B5017502E601C40165
:101FF000D80100000000BC0388031D055B05070530
:10200000D504B40480045F040904DA030D0A005205
:102010004576206D6F7665546F200072657620439B
:0620200075727220000041
:00000001FF
