:020000040000FA
:100000000C9462000C948A000C948A000C948A0070
:100010000C948A000C948A000C948A000C948A0038
:100020000C948A000C948A000C948A000C948A0028
:100030000C948A000C948A000C948A000C948A0018
:100040000C9400080C948A000C9470080C944A08D4
:100050000C948A000C948A000C948A000C948A00F8
:100060000C948A000C948A000000000024002700F1
:100070002A0000000000250028002B0000000008D6
:10008000000201000003040700000000000000005F
:10009000010204081020408001020408102001021F
:1000A000040810200000000023002600290004049A
:1000B0000404040404040202020202020303030310
:1000C0000303A20811241FBECFEFD8E0DEBFCDBFCF
:1000D00011E0A0E0B1E0E6E3F1E202C005900D928C
:1000E000A438B107D9F722E0A4E8B1E001C01D921D
:1000F000AB38B207E1F710E0C2E6D0E004C02197C8
:10010000FE010E945F0FC136D107C9F70E94F209B4
:100110000C9499100C9400008F929F92AF92BF9212
:10012000CF92DF92EF92FF920F931F938091710213
:1001300082FD18C085FD16C0E0918402F091850211
:1001400020813091860281FB992790F983FB8827D3
:1001500080F98927922F932321E009F020E082275C
:10016000809382028FB7F89440918B0150918C015B
:1001700060918D0170918E018FBF909182022091CC
:10018000830280917002992309F4A5C02111A3C0B4
:1001900080FD7FC081608093700240937E02509307
:1001A0007F02609380027093810280918302882392
:1001B00089F1992379F1009175021091760230E06E
:1001C00020E0C0907E02D0907F02E0908002F0900C
:1001D00081024A015B018C189D08AE08BF087501B9
:1001E0006401C016D106E206F306A0F08091700209
:1001F00081FD10C020917B0220937D028A648F775D
:100200008093700240937E0250937F02609380023D
:100210007093810200917E0210917F0220918002F2
:1002200030918102401B510B620B730B00917702DE
:100230001091780230E020E0401751076207730701
:1002400078F080917B02882359F0911109C0809346
:100250007C0210927B028091700284608093700215
:100260008091710286FF0AC010927C029091700208
:100270009B7F909370028F7B809371021F910F91EF
:10028000FF90EF90DF90CF90BF90AF909F908F90B6
:10029000089500917E0210917F022091800230919A
:1002A00081026A017B01C01AD10AE20AF30A0091B5
:1002B00073021091740230E020E0C016D106E2060D
:1002C000F30608F4A7CF21E02093830280628068C0
:1002D000809370026ACF8E7F80937002911165CFF8
:1002E000222309F497CF1092830281FD05C08091EB
:1002F0007B028F5F80937B02809170028D7F806193
:100300008093700240937E0250937F02609380023C
:100310007093810286FF07C010927C0210927B02CC
:100320008F7B809370028091700287FF73CF8F77ED
:10033000809370028091710281608093710235CF49
:1003400090E0FC01E458FF4F2491FC01E057FF4F7F
:100350003491FC01E255FF4FE491EE23C9F02223D2
:1003600039F0233001F1A8F4213019F1223029F1BC
:10037000F0E0EE0FFF1FEE58FF4FA591B4918FB73D
:10038000F894EC91611126C030953E233C938FBFC9
:1003900008952730A9F02830C9F0243049F780911A
:1003A00080008F7D03C0809180008F7780938000D4
:1003B000DFCF84B58F7784BDDBCF84B58F7DFBCF56
:1003C0008091B0008F778093B000D2CF8091B00041
:1003D0008F7DF9CF3E2BDACFCF93DF9390E0FC01F6
:1003E000E057FF4F249182559F4FFC018491882351
:1003F000C9F090E0880F991FFC01E859FF4FA591C3
:10040000B491FC01EE58FF4FC591D49161110DC01C
:100410009FB7F8948C91209582238C938881282310
:1004200028839FBFDF91CF910895623051F49FB729
:10043000F8943C91822F809583238C93E8812E2B16
:10044000EFCF8FB7F894EC912E2B2C938FBFEACF80
:10045000AF92BF92CF92DF92EF92FF920F931F93D2
:10046000CF93DF936C017B018B01040F151FEB0110
:100470005E01AE18BF08C017D10759F06991D601C7
:10048000ED91FC910190F081E02DC6010995892B39
:1004900079F7C501DF91CF911F910F91FF90EF90F8
:1004A000DF90CF90BF90AF900895FC01538D448DA5
:1004B000252F30E0842F90E0821B930B541710F00F
:1004C000CF96089501970895FC01918D828D98171C
:1004D00061F0A28DAE0FBF2FB11D5D968C91928DF4
:1004E0009F5F9F73928F90E008958FEF9FEF089525
:1004F000FC01918D828D981731F0828DE80FF11DEE
:10050000858D90E008958FEF9FEF0895FC01918D08
:10051000228D892F90E0805C9F4F821B91098F7301
:10052000992708958FE891E00E94860221E0892BA7
:1005300009F420E0822F089580E090E0892B29F0D3
:100540000E94920281110C9400000895FC01A48D78
:10055000A80FB92FB11DA35ABF4F2C91848D90E0E5
:1005600001968F739927848FA689B7892C93A089C8
:10057000B1898C91837080648C93938D848D981352
:1005800006C00288F389E02D80818F7D80830895E5
:10059000EF92FF920F931F93CF93DF93EC0181E0D3
:1005A000888F9B8D8C8D98131AC0E889F98980817A
:1005B00085FF15C09FB7F894EE89FF896083E889AD
:1005C000F98980818370806480839FBF81E090E09F
:1005D000DF91CF911F910F91FF90EF900895F62E2C
:1005E0000B8D10E00F5F1F4F0F731127E02E8C8DC6
:1005F0008E110CC00FB607FCFACFE889F98980810B
:1006000085FFF5CFCE010E94A602F1CFEB8DEC0F56
:10061000FD2FF11DE35AFF4FF0829FB7F8940B8F27
:10062000EA89FB8980818062CFCFCF93DF93EC0191
:10063000888D8823B9F0AA89BB89E889F9898C91CA
:1006400085FD03C0808186FD0DC00FB607FCF7CF86
:100650008C9185FFF2CF808185FFEDCFCE010E9486
:10066000A602E9CFDF91CF910895CF93DF93FC01EC
:100670002781222359F1EC0161E080850E94EC0181
:1006800061E089850E94EC018F81843011F088300F
:10069000B1F461E08A850E94EC0161E08B850E94E3
:1006A000EC018FA58F3F91F061E00E94EC016EA5F7
:1006B00081E068278FA5DF91CF910C94A001833052
:1006C00011F0863071F761E08A85E9CFDF91CF9133
:1006D0000895CF93DF93FC0127812223A9F0EC0139
:1006E0000190F081E02D0284F385E02D60E0099512
:1006F0008FA58F3F49F061E00E94EC016EA58FA5A8
:10070000DF91CF910C94A001DF91CF910895DC018E
:10071000ED91FC9122853385477055276627772711
:100720004150510961097109473051056105710551
:1007300060F4FA01E256FC4F0C945F0FA803AA0381
:10074000AC03AE03B003B203B40361E0F901099452
:1007500065E0FCCF64E0FACF66E0F8CF62E0F6CF68
:100760006AE0F4CF68E0F2CF69E0F0CFCF93DF9397
:10077000EC01CB01BA0126E030E040E050E00E94FD
:10078000400F623071058105910589F16CF46115A6
:10079000710581059105D1F06130710581059105E3
:1007A000F9F0DF91CF9108956430710581059105CD
:1007B00061F124F1653071058105910591F7E881BA
:1007C000F9810284F385E02D66E006C0E881F981B5
:1007D0000284F385E02D64E0CE01DF91CF9109948E
:1007E000E881F9810284F385E02D65E0F5CFE881A9
:1007F000F9810284F385E02D61E0EECFE881F98193
:100800000284F385E02D63E0E7CFE881F98102847B
:10081000F385E02D62E0E0CFDC01ED91FC910284F4
:10082000F385E02D43705527662777274230510521
:100830006105710571F0433051056105710559F08D
:10084000413051056105710511F065E0099466E0DC
:10085000FDCF6AE0FBCF69E0F9CFCF93DF93EC01E6
:10086000CB01BA0123E030E040E050E00E94400FAD
:10087000613071058105910599F06230710581053E
:100880009105A9F0672B682B692BC1F4E881F981E8
:100890000284F385E02D64E0CE01DF91CF910994CD
:1008A000E881F9810284F385E02D61E0F5CFE881EC
:1008B000F9810284F385E02D62E0EECFDF91CF91E4
:1008C0000895DC01ED91FC910284F385E02D4370E5
:1008D000552766277727423051056105710571F06C
:1008E000433051056105710559F0413051056105ED
:1008F000710511F062E0099463E0FDCF61E0FBCF88
:1009000060E0F9CFCF93DF93EC01E881F9810284B5
:10091000F385E02D8A8160E0811162E0CE010995C6
:10092000E881F9810284F385E02D8A8161E08111FB
:1009300063E0CE0109958CA59DA58230910538F024
:10094000880F991F880F991F05970197F1F7E88184
:10095000F9810284F385E02D8A8160E0811162E0F3
:10096000CE01DF91CF910994CF93DF93EC0120E08A
:1009700030E0A901688D798D8A8D9B8D0E94510E82
:1009800018162CF4E8A9F9A9DF91CF910994EAA9E6
:10099000FBA9FACFCF92DF92EF92FF920F931F93B2
:1009A000CF93DF93DC011796CC91C43039F0C83077
:1009B00059F1C33019F0C63049F1C2E08C01085F2B
:1009C0001F4FF12CE12CC62ED12CD1E0F80164810F
:1009D000C6010E2C02C0959587950A94E2F780FD1A
:1009E0006D270F5F1F4F80810E94A001BFEFEB1AA0
:1009F000FB0AEC1658F3DF91CF911F910F91FF90F6
:100A0000EF90DF90CF900895C4E0D8CFC3E0D6CF69
:100A1000DC011796EC911797E93008F038C0F0E048
:100A2000EC5EFA4F0C945F0F1D05230529052F0579
:100A3000350547053B0547054105ED91FC910684C9
:100A4000F785E02D0994ED91FC910088F189E02D66
:100A5000F9CFED91FC910288F389E02DF3CFED9170
:100A6000FC910488F589E02DEDCFED91FC9106888D
:100A7000F789E02DE7CFED91FC91008CF18DE02D11
:100A8000E1CFED91FC91028CF38DE02DDBCF089549
:100A90004F925F926F927F928F929F92AF92BF928E
:100AA000CF92DF92EF92FF920F931F93CF93DF933A
:100AB000EC01CC88DD88EE88FF8888899989AA892D
:100AC000BB89C81AD90AEA0AFB0A688D798D8A8D12
:100AD0009B8D9B01AC010E94560E4B015C0168A1ED
:100AE00079A18AA19BA19B01AC010E94860C9B016C
:100AF000AC01C501B4010E94F70C0E94690DC1143C
:100B0000D104E104F10409F0B6C062307105810539
:100B100091050CF0D0C01B821C821D821E82188E93
:100B2000198E1A8E1B8E1CAA1DAA1EAA1FAAC12CC2
:100B3000D12C7601C701B601DF91CF911F910F91A2
:100B4000FF90EF90DF90CF90BF90AF909F908F90ED
:100B50007F906F905F904F900895101611061206C7
:100B60001306B4F46C157D058E059F051CF42A81CF
:100B70002111A1C09B01AC0188279927DC01821BB0
:100B8000930BA40BB50B8CAB9DABAEABBFAB93C0C3
:100B9000011511052105310509F48DC06C157D0580
:100BA0008E059F050CF087C08A81882309F483C0D5
:100BB00030952095109501951F4F2F4F3F4F0CAB4F
:100BC0001DAB2EAB3FAB77C00115110521053105DB
:100BD00009F471C08824992454018C189D08AE082A
:100BE000BF08681579058A059B050CF064C08A81E9
:100BF000811161C0DDCFCCACDDACEEACFFACA701A8
:100C00009601C701B6010E94860C2B013C01C5016B
:100C1000B4010E94A10D20E030E040E850E40E94C1
:100C2000560E20E030E040E85FE30E94860C9B0116
:100C3000AC01C301B2010E94F70C9B01AC01C701DA
:100C4000B6010E94850C3B016C01FE01E05CFF4F88
:100C5000E080F180028113819701A8010E94510E6A
:100C6000181614F473018601C701D8018CAF9DAF2B
:100C7000AEAFBFAF3AC00CA91DA92EA93FA91C1445
:100C80001D041E041F040CF468CF10161106120672
:100C900013060CF099CF0027112798010C191D0994
:100CA0002E093F0960177107820793070CF062CF86
:100CB0002A8121115FCF8CA89DA8AEA8BFA881145E
:100CC0009104A104B10409F096CF88AD99ADAAAD05
:100CD000BBAD8CAF9DAFAEAFBFAF81E01C141D04A8
:100CE0001E041F040CF080E08A833FEF831A930AEE
:100CF000A30AB30A8CAA9DAAAEAABFAA8CAC9DACCB
:100D0000AEACBFACC501B4010E94700D6B017C019B
:100D1000CB82DC82ED82FE82A501940160E074E268
:100D200084E799E40E94F70C688F798F8A8F9B8FF4
:100D30002A812111FFCE9058688F798F8A8F9B8FDF
:100D4000F9CECF92DF92EF92FF92CF93DF93CCE276
:100D5000D2E0688D798D8A8D9B8D9B01AC010E94BC
:100D6000560E6B017C0168A179A18AA19BA19B0110
:100D7000AC010E94860C9B01AC01C701B6010E9428
:100D8000F70C0E94690D6CAB7DAB8EAB9FABCE01B7
:100D9000DF91CF91FF90EF90DF90CF900C944805BA
:100DA0000895CF93DF93C0E7D2E060E08A810E948C
:100DB000EC018A8190E0FC01E255FF4FE491F0E004
:100DC000EE0FFF1FEC55FF4F259134913D8B2C8B7F
:100DD000FC01E057FF4FE491EE8BDF91CF91089536
:100DE0004F925F926F927F928F929F92AF92BF923B
:100DF000CF92DF92EF92FF926B017C0120E030E016
:100E0000A9010E94F20C87FF04C0F7FAF094F7F8EA
:100E1000F09480904C0290904D02A0904E02B090C1
:100E20004F02A7019601C501B4010E94F20C88236C
:100E300009F458C060916002709161028091620271
:100E4000909163020E94A10D2B013C01A701960124
:100E5000C501B4010E94F70C9B01AC01C301B201B2
:100E60000E94560E0E94690D6093600270936102A9
:100E70008093620290936302A701960160E070E0A4
:100E800080E090E40E94F70C0E94C90E26E53EE047
:100E90004DE25FE30E94560E20E034E244E759E45D
:100EA0000E94560E609364027093650280936602FE
:100EB00090936702C0924C02D0924D02E0924E0293
:100EC000F0924F028CE292E0FF90EF90DF90CF9093
:100ED000BF90AF909F908F907F906F905F904F905A
:100EE0000C944805FF90EF90DF90CF90BF90AF90AB
:100EF0009F908F907F906F905F904F900895FC012E
:100F000001900020E9F73197AF01481B590BBC0154
:100F10008FE891E00C9428028F929F92AF92BF923B
:100F20000F931F93CF93DF93CDB7DEB7A1970FB683
:100F3000F894DEBF0FBECDBF19A2423008F44AE0DC
:100F40008E010F5D1F4F842E912CB12CA12CA50179
:100F500094010E941E0FE62FB901CA01EA30F4F491
:100F6000E05DD801EE938D01232B242B252B79F7FF
:100F700090E080E0109719F0CD010E947F07A196C4
:100F80000FB6F894DEBF0FBECDBFDF91CF911F919A
:100F90000F91BF90AF909F908F900895E95CE1CF43
:100FA000CF92DF92EF92FF92CF93DF936B017C01A0
:100FB000F7FE1FC06DE28FE891E00E94C802EC01CD
:100FC00066277727CB016C197D098E099F094AE0B6
:100FD0000E948C07C80FD91F89E391E00E947F0708
:100FE0008C0F9D1FDF91CF91FF90EF90DF90CF90FE
:100FF00008954AE00E948C07EC01EECF0C9410108B
:101000001F920F920FB60F9211242F933F938F933D
:101010009F93AF93BF9380918B0190918C01A0918E
:101020008D01B0918E0130918A0123E0230F2D377D
:1010300058F50196A11DB11D20938A0180938B0163
:1010400090938C01A0938D01B0938E0180918601C5
:1010500090918701A0918801B09189010196A11D0D
:10106000B11D8093860190938701A0938801B0936E
:101070008901BF91AF919F918F913F912F910F90D7
:101080000FBE0F901F90189526E8230F0296A11D02
:10109000B11DD2CF1F920F920FB60F9211242F9332
:1010A0003F934F935F936F937F938F939F93AF93F0
:1010B000BF93EF93FF938FE891E00E94A602FF9108
:1010C000EF91BF91AF919F918F917F916F915F91C0
:1010D0004F913F912F910F900FBE0F901F90189539
:1010E0001F920F920FB60F9211242F938F939F93FD
:1010F000EF93FF93E0919F01F091A0018081E09137
:10110000A501F091A60182FD1BC090818091A801EC
:101110008F5F8F732091A901821741F0E091A801A0
:10112000F0E0E157FE4F958F8093A801FF91EF917A
:101130009F918F912F910F900FBE0F901F90189538
:101140008081F4CFCF92DF92EF92FF9210929201C2
:101150001092910188EE93E0A0E0B0E080939301BB
:1011600090939401A0939501B09396018BE091E048
:101170009093900180938F0185EC90E090939C0177
:1011800080939B0184EC90E090939E0180939D015D
:1011900080EC90E09093A00180939F0181EC90E01F
:1011A0009093A2018093A10182EC90E09093A4011E
:1011B0008093A30186EC90E09093A6018093A50113
:1011C0001092A8011092A9011092AA011092AB01ED
:1011D0008CE390E0909374028093730284EF91E02B
:1011E00090937602809375029093780280937702B1
:1011F00080E991E090937A028093790210927B02C9
:1012000010927C0210927D0210927E0210927F0258
:101210001092800210928102109282021092830238
:101220008CE080937202809171028F7D8860809340
:1012300071020E94D106809171028B7E8D7F809316
:1012400071028DE191E090932D0280932C0288E051
:101250008093330210923C0210923D0210923E02A3
:1012600010923F02109240021092410210924202EC
:1012700010924302109244021092450210924602CC
:1012800010924702109248021092490210924A02AC
:1012900010924B0210924C0210924D0210924E028C
:1012A00010924F02C12CD12C90E8E92E9FE3F92E29
:1012B000C0925002D0925102E0925202F092530238
:1012C00010922F02109230021092310210923202CC
:1012D00021E030E030935902209358029FEF909321
:1012E0005B02109254021092550210925602109214
:1012F0005702809334028AE08093350289E080931C
:1013000036028BE08093370210925A0210926002EC
:1013100010926102109262021092630210926402B3
:101320001092650210926602109267021092680293
:101330001092690210926A0210926B02C0926C02C3
:10134000D0926D02E0926E02F0926F0210922E0225
:10135000109238021092390210923A0210923B0217
:101360008CE292E00E943503C701B6010E94F006AC
:10137000A7019601609148027091490280914A024A
:1013800090914B020E94F20C882339F1C0924802DE
:10139000D0924902E0924A02F0924B0280E094E23D
:1013A000A4E7B9E480936C0290936D02A0936E025F
:1013B000B0936F028091600290916102A0916202ED
:1013C000B0916302181619061A061B0634F4FF9032
:1013D000EF90DF90CF900C94A106FF90EF90DF90FC
:1013E000CF900895789484B5826084BD84B581607F
:1013F00084BD85B5826085BD85B5816085BD8091E0
:101400006E00816080936E00109281008091810057
:10141000826080938100809181008160809381004F
:10142000809180008160809380008091B100846011
:101430008093B1008091B00081608093B000809172
:101440007A00846080937A0080917A008260809331
:101450007A0080917A00816080937A0080917A008E
:10146000806880937A001092C10020E030E04AE763
:1014700054E4609148027091490280914A0290912F
:101480004B020E94F20C882319F180E090E0AAE759
:10149000B4E48093480290934902A0934A02B09327
:1014A0004B0280936C0290936D02A0936E02B093F6
:1014B0006F028091600290916102A0916202B091EE
:1014C0006302181619061A061B0614F40E94A106D8
:1014D00060E070E08AEF93E40E94F00620E030E0E4
:1014E0004AE754E4609144027091450280914602BB
:1014F000909147020E94F20C8823E9F18090480203
:1015000090904902A0904A02B0904B02750164018C
:10151000F7FAF094F7F8F09420E030E04AE754EC62
:10152000C501B4010E94F20C87FD0CC020E030E040
:101530004AE754E4C501B4010E94F20C87FFBAC126
:101540007501640120E030E0A901C701B6010E94E5
:10155000F20C8111B5C110922F021092300210923C
:10156000310210923202C0924402D0924502E092BF
:101570004602F09247028091400290914102A09170
:101580004202B0914302843F9140A105B10581F030
:1015900084EF91E0A0E0B0E080934002909341029C
:1015A000A0934202B09343028CE292E00E9448056D
:1015B0008CE291E0909376028093750280917102A3
:1015C00088608093710285FF0E94D106809171022C
:1015D0008D7F806180937102E0919F01F091A00165
:1015E00082E08083E0919B01F0919C011082E09168
:1015F0009D01F0919E018FEC80831092A701E091F4
:10160000A301F091A40186E08083E091A101F09113
:10161000A201808180618083E091A101F091A2010B
:10162000808188608083E091A101F091A201808196
:1016300080688083E091A101F091A20180818F7D7B
:10164000808311E0C0E0D0E08091710284FD0E94AF
:101650008C008091710280FF08C08E7F80937102A0
:10166000809185018127809385018091710284FD9D
:101670000E948C008091700283FF18C0877F809346
:101680007002809184018127809384018CE391E032
:101690000E947F076091840170E090E080E04AE062
:1016A0000E948C0789E391E00E947F078091850169
:1016B000882309F4F4C02091000130E0A4EFB1E0E8
:1016C0000E94650FC0904002D0904102E09042021B
:1016D000F09043026C157D058E059F0561F06093C7
:1016E00040027093410280934202909343028CE245
:1016F00092E00E9448058EE491E00E947F0760918D
:1017000040027091410280914202909143020E94F6
:10171000D007409140025091410260914202709185
:10172000430280913C0290913D02A0913E02B09113
:101730003F02481759076A077B07D9F48FE591E004
:101740000E947F0760913C0270913D0280913E02B1
:1017500090913F020E94D0078091000181278093E1
:10176000000110928501109284018CE292E00E94A7
:10177000690380912F0290913002A0913102B091C3
:101780003202892B8A2B8B2B09F46FC03FB7F89458
:101790008091860190918701A0918801B091890183
:1017A00026B5A89B05C02F3F19F00196A11DB11DBC
:1017B0003FBFBA2FA92F982F88276C017D01C20E39
:1017C000D11CE11CF11C42E0CC0CDD1CEE1CFF1C0A
:1017D0004A95D1F78091540290915502A0915602FA
:1017E000B0915702B701A601481B590B6A0B7B0B3E
:1017F00080912F0290913002A0913102B09132027B
:10180000481759076A077B0780F180913C02909145
:101810003D02A0913E02B0913F0220912E02222370
:1018200009F46FC00196A11DB11D80933C029093F5
:101830003D02A0933E02B0933F0240913C02509182
:101840003D0260913E0270913F028CE292E00E9464
:101850000805C0925402D0925502E0925602F092CE
:1018600057028CE292E00E94480583E791E00E94D3
:101870007F076091400270914102809142029091F5
:101880004302C0903C02D0903D02E0903E02F090B6
:101890003F026C197D098E099F090E94D00720978D
:1018A00009F4D2CE0E949202882309F4CDCE0E9480
:1018B0000000CACEC12CD12C5AE7E52E54E4F52EF7
:1018C000A701960160E074E284E799E40E94F70CB6
:1018D0009F770E94700D60932F0270933002809367
:1018E000310290933202C1E020E030E0A901C7014B
:1018F000B6010E94510E18160CF0C0E0C0932E02E3
:1019000032CE0197A109B10990CF5058BB27AA2721
:101910000E949D0C0C94170E0E94090E38F00E9434
:10192000100E20F039F49F3F19F426F40C94060EA3
:101930000EF4E095E7FB0C94000EE92F0E94280EB0
:1019400058F3BA17620773078407950720F079F4F4
:10195000A6F50C944A0E0EF4E0950B2EBA2FA02D8E
:101960000B01B90190010C01CA01A0011124FF274C
:10197000591B99F0593F50F4503E68F11A16F04047
:10198000A22F232F342F4427585FF3CF4695379546
:101990002795A795F0405395C9F77EF41F16BA0B0B
:1019A000620B730B840BBAF09150A1F0FF0FBB1FB9
:1019B000661F771F881FC2F70EC0BA0F621F731F02
:1019C000841F48F4879577956795B795F7959E3F5F
:1019D00008F0B0CF9395880F08F09927EE0F9795F0
:1019E000879508950E94DC0D08F481E008950E9417
:1019F0000B0D0C94170E0E94100E58F00E94090E49
:101A000040F029F45F3F29F00C94000E51110C9422
:101A10004B0E0C94060E0E94280E68F39923B1F326
:101A2000552391F3951B550BBB27AA276217730704
:101A3000840738F09F5F5F4F220F331F441FAA1F98
:101A4000A9F335D00E2E3AF0E0E832D09150504054
:101A5000E695001CCAF72BD0FE2F29D0660F771F02
:101A6000881FBB1F261737074807AB07B0E809F0E8
:101A7000BB0B802DBF01FF2793585F4F3AF09E3F6D
:101A8000510578F00C94000E0C944B0E5F3FE4F37C
:101A9000983ED4F3869577956795B795F7959F5FB0
:101AA000C9F7880F911D9695879597F90895E1E0FC
:101AB000660F771F881FBB1F621773078407BA075B
:101AC00020F0621B730B840BBA0BEE1F88F7E095B6
:101AD00008950E94700D6894B1110C944B0E0895F6
:101AE0000E94300E88F09F5798F0B92F9927B75170
:101AF000B0F0E1F0660F771F881F991F1AF0BA95B2
:101B0000C9F714C0B13091F00E944A0EB1E00895B7
:101B10000C944A0E672F782F8827B85F39F0B93FA9
:101B2000CCF3869577956795B395D9F73EF4909564
:101B30008095709561957F4F8F4F9F4F0895E894E2
:101B400009C097FB3EF490958095709561957F4F05
:101B50008F4F9F4F9923A9F0F92F96E9BB279395B3
:101B6000F695879577956795B795F111F8CFFAF4C3
:101B7000BB0F11F460FF1BC06F5F7F4F8F4F9F4FF4
:101B800016C0882311F096E911C0772321F09EE852
:101B9000872F762F05C0662371F096E8862F70E0B8
:101BA00060E02AF09A95660F771F881FDAF7880F92
:101BB0009695879597F90895990F0008550FAA0BE8
:101BC000E0E8FEEF16161706E807F907C0F0121650
:101BD0001306E407F50798F0621B730B840B950B53
:101BE00039F40A2661F0232B242B252B21F40895A8
:101BF0000A2609F4A140A6958FEF811D811D089545
:101C000097F99F6780E870E060E008959FEF80ECAF
:101C1000089500240A941616170618060906089552
:101C200000240A9412161306140605060895092EB8
:101C30000394000C11F4882352F0BB0F40F4BF2B27
:101C400011F460FF04C06F5F7F4F8F4F9F4F089567
:101C500057FD9058440F551F59F05F3F71F047955D
:101C6000880F97FB991F61F09F3F79F08795089542
:101C7000121613061406551FF2CF4695F1DF08C061
:101C8000161617061806991FF1CF8695710561057E
:101C900008940895E894BB2766277727CB0197F926
:101CA00008950E94DC0D08F48FEF08950E94690EDC
:101CB0000C94170E0E94090E38F00E94100E20F0AE
:101CC000952311F00C94000E0C94060E11240C9424
:101CD0004B0E0E94280E70F3959FC1F3950F50E0B4
:101CE000551F629FF001729FBB27F00DB11D639FCE
:101CF000AA27F00DB11DAA1F649F6627B00DA11D74
:101D0000661F829F2227B00DA11D621F739FB00D19
:101D1000A11D621F839FA00D611D221F749F332789
:101D2000A00D611D231F849F600D211D822F762F22
:101D30006A2F11249F5750409AF0F1F088234AF0FF
:101D4000EE0FFF1FBB1F661F771F881F915050406B
:101D5000A9F79E3F510580F00C94000E0C944B0E99
:101D60005F3FE4F3983ED4F3869577956795B795F2
:101D7000F795E7959F5FC1F7FE2B880F911D96950C
:101D8000879597F9089519F416F40C94060E0C949F
:101D9000090F0E94300EB8F39923C9F3B6F39F5789
:101DA000550B87FF0E94170F0024A0E640EA900120
:101DB00080585695979528F4805C660F771F881F8A
:101DC00020F026173707480730F4621B730B840B8B
:101DD000202931294A2BA6951794079420253125CF
:101DE0004A2758F7660F771F881F20F026173707F6
:101DF000480730F4620B730B840B200D311D411D1D
:101E0000A09581F7B901842F9158880F96958795F1
:101E100008959F3F31F0915020F48795779567950D
:101E2000B795880F911D9695879597F908959150CC
:101E30005040660F771F881FD2F70895A1E21A2E2F
:101E4000AA1BBB1BFD010DC0AA1FBB1FEE1FFF1F5E
:101E5000A217B307E407F50720F0A21BB30BE40BAE
:101E6000F50B661F771F881F991F1A9469F76095F5
:101E70007095809590959B01AC01BD01CF010895AF
:101E8000052E97FB1EF400940E94570F57FD07D0B4
:101E90000E941E0F07FC03D04EF40C94570F509570
:101EA0004095309521953F4F4F4F5F4F0895909546
:101EB0008095709561957F4F8F4F9F4F0895EE0FDE
:101EC000FF1F0590F491E02D0994A29FB001B39FEC
:101ED000C001A39F700D811D1124911DB29F700D33
:101EE000811D1124911D08950F931F93CF93DF93AC
:101EF0008230910510F482E090E0E0918902F09147
:101F00008A0230E020E0B0E0A0E0309799F421159B
:101F1000310509F44AC0281B390B24303105D8F5A6
:101F20008A819B816115710589F1FB01938382830D
:101F3000FE0111C040815181028113814817590768
:101F4000E0F04817590799F4109761F012960C9336
:101F5000129713961C933296CF01DF91CF911F9168
:101F60000F9108950093890210938A02F4CF2115EE
:101F7000310551F04217530738F0A901DB019A01EE
:101F8000BD01DF01F801C1CFEF01F9CF90938A02C3
:101F900080938902CDCFFE01E20FF31F81939193CD
:101FA0002250310939832883D7CF2091870230917D
:101FB0008802232B41F420910301309104013093D6
:101FC000880220938702209101013091020121159E
:101FD000310541F42DB73EB74091050150910601FE
:101FE000241B350BE0918702F0918802E217F3077A
:101FF000A0F42E1B3F0B2817390778F0AC014E5F79
:102000005F4F2417350748F04E0F5F1F509388022B
:1020100040938702819391939FCFF0E0E0E09CCFC3
:10202000CF93DF930097E9F0FC013297138212827D
:10203000A0918902B0918A02ED0130E020E0109772
:10204000A1F420813181820F931F2091870230916A
:1020500088022817390709F061C0F0938802E093DD
:102060008702DF91CF910895EA01CE17DF07E8F5E7
:102070004A815B819E0141155105B1F7E901FB835E
:10208000EA8349915991C40FD51FEC17FD0761F4FC
:10209000808191810296840F951FE901998388833D
:1020A000828193819B838A83F0E0E0E012968D9198
:1020B0009C9113970097B9F52D913C911197CD0103
:1020C0000296820F931F2091870230918802281771
:1020D000390739F6309751F510928A021092890229
:1020E000B0938802A0938702BCCFD383C283408180
:1020F0005181840F951FC817D90761F44E5F5F4F58
:1021000088819981480F591F518340838A819B811F
:10211000938382832115310509F0B0CFF0938A02B1
:10212000E09389029ECFFD01DC01C0CF13821282B1
:10213000D7CFF894FFCF0100008B02800000000091
:1021400000C80228025502150386026402780200C4
:1021500000000069033503D006FE074805CA0408DD
:1021600005B404820461042D040C04B60387030D36
:102170000A007265766572736553746174757331A4
:10218000203D2000746172676574506F73697469D3
:102190006F6E3D200043757272656E7420706F73B0
:1021A0006974696F6E203D200064697374616E63A9
:0A21B00065546F474F203D200000EA
:107E0000112484B714BE81FFF0D085E080938100F7
:107E100082E08093C00088E18093C10086E0809377
:107E2000C20080E18093C4008EE0C9D0259A86E02C
:107E300020E33CEF91E0309385002093840096BBD3
:107E4000B09BFECF1D9AA8958150A9F7CC24DD24C4
:107E500088248394B5E0AB2EA1E19A2EF3E0BF2EE7
:107E6000A2D0813461F49FD0082FAFD0023811F036
:107E7000013811F484E001C083E08DD089C08234E0
:107E800011F484E103C0853419F485E0A6D080C0E4
:107E9000853579F488D0E82EFF2485D0082F10E0AE
:107EA000102F00270E291F29000F111F8ED06801E7
:107EB0006FC0863521F484E090D080E0DECF843638
:107EC00009F040C070D06FD0082F6DD080E0C81688
:107ED00080E7D80618F4F601B7BEE895C0E0D1E017
:107EE00062D089930C17E1F7F0E0CF16F0E7DF06D8
:107EF00018F0F601B7BEE89568D007B600FCFDCFD4
:107F0000A601A0E0B1E02C9130E011968C91119780
:107F100090E0982F8827822B932B1296FA010C0160
:107F200087BEE89511244E5F5F4FF1E0A038BF0790
:107F300051F7F601A7BEE89507B600FCFDCF97BE46
:107F4000E89526C08437B1F42ED02DD0F82E2BD052
:107F50003CD0F601EF2C8F010F5F1F4F84911BD097
:107F6000EA94F801C1F70894C11CD11CFA94CF0C13
:107F7000D11C0EC0853739F428D08EE10CD085E9AC
:107F80000AD08FE07ACF813511F488E018D01DD067
:107F900080E101D065CF982F8091C00085FFFCCF94
:107FA0009093C60008958091C00087FFFCCF809118
:107FB000C00084FD01C0A8958091C6000895E0E648
:107FC000F0E098E1908380830895EDDF803219F02E
:107FD00088E0F5DFFFCF84E1DECF1F93182FE3DFCA
:107FE0001150E9F7F2DF1F91089580E0E8DFEE27F6
:047FF000FF270994CA
:027FFE00040479
:00000001FF
