:100000000C9462000C948A000C948A000C948A0070
:100010000C948A000C948A000C948A000C948A0038
:100020000C948A000C948A000C948A000C948A0028
:100030000C948A000C948A000C948A000C948A0018
:100040000C94DE070C948A000C94AC070C94860781
:100050000C948A000C948A000C948A000C948A00F8
:100060000C948A000C948A000000000024002700F1
:100070002A0000000000250028002B0000000008D6
:10008000000201000003040700000000000000005F
:10009000010204081020408001020408102001021F
:1000A000040810200000000023002600290004049A
:1000B0000404040404040202020202020303030310
:1000C0000303280811241FBECFEFD8E0DEBFCDBF49
:1000D00011E0A0E0B1E0E8E5FDE102C005900D927D
:1000E000A033B107D9F722E0A0E3B1E001C01D922F
:1000F000A333B207E1F710E0C2E6D0E004C02197D5
:10010000FE010E94950EC136D107C9F70E94DD0895
:100110000C94AA0E0C9400004F925F926F927F9203
:100120008F929F92AF92BF92CF92DF92EF92FF9207
:100130000F931F93CF93DF93C090FF01D0900002E5
:10014000E0900102F09002028091FB019091FC018D
:10015000A091FD01B091FE01C81AD90AEA0AFB0A72
:100160006091030270910402809105029091060251
:100170009B01AC010E948C0D4B015C0160910B0254
:1001800070910C0280910D0290910E029B01AC01C6
:100190000E94BC0B9B01AC01C501B4010E942D0C57
:1001A0000E949F0CC114D104E104F10409F0D3C0F2
:1001B00062307105810591050CF0F2C010921302B6
:1001C000109214021092150210921602109203025D
:1001D000109204021092050210920602109223025D
:1001E000109224021092250210922602DF91CF91E4
:1001F0001F910F91FF90EF90DF90CF90BF90AF9045
:100200009F908F907F906F905F904F900895101601
:10021000110612061306DCF46C157D058E059F058C
:1002200024F42091F1012111BBC09B01AC0188276E
:100230009927DC01821B930BA40BB50B809323023F
:1002400090932402A0932502B0932602A9C0011521
:1002500011052105310509F4A3C06C157D058E0536
:100260009F050CF09DC08091F101882309F498C08E
:1002700030952095109501951F4F2F4F3F4F0093BC
:10028000230210932402209325023093260288C073
:10029000011511052105310509F482C0882499242E
:1002A00054018C189D08AE08BF08681579058A05A9
:1002B0009B050CF075C08091F101811171C0D8CF00
:1002C000C0902B02D0902C02E0902D02F0902E02D4
:1002D000A7019601C701B6010E94BC0B2B013C018E
:1002E000C501B4010E94D70C20E030E040E850E4A2
:1002F0000E948C0D20E030E040E85FE30E94BC0BE0
:100300009B01AC01C301B2010E942D0C9B01AC0109
:10031000C701B6010E94BB0BD62FC72F6C01E0901E
:100320002F02F090300200913102109132029701B9
:10033000A8010E94870D18161CF4ED2EFC2E8601D4
:10034000C701D80180932B0290932C02A0932D0219
:10035000B0932E024CC000912302109124022091F0
:100360002502309126021C141D041E041F040CF4E7
:100370004ECF10161106120613060CF089CF002777
:10038000112798010C191D092E093F0960177107E3
:10039000820793070CF049CF2091F101211145CF3D
:1003A0008090230290902402A0902502B090260213
:1003B00081149104A104B10409F082CF8091270235
:1003C00090912802A0912902B0912A0280932B02D9
:1003D00090932C02A0932D02B0932E0281E01C1466
:1003E0001D041E041F040CF080E08093F1013FEF18
:1003F000831A930AA30AB30A8092230290922402DA
:10040000A0922502B0922602C0902B02D0902C021E
:10041000E0902D02F0902E02C701B6010E94A60CBA
:100420006093130270931402809315029093160246
:10043000A701960160E074E284E799E40E942D0C24
:100440006093030270930402809305029093060266
:100450002091F1012111CACE90586093030270934C
:1004600004028093050290930602C0CECF92DF92E1
:10047000EF92FF920F931F938091D90182FD18C0D4
:1004800085FD16C0E091EC01F091ED0120813091E5
:10049000EE0181FB992790F983FB882780F9892752
:1004A000922F932321E009F020E082278093EA0134
:1004B0008FB7F8944091370150913801609139011C
:1004C00070913A018FBF9091EA012091EB018091E8
:1004D000D801992309F491C021118FC080FD6BC010
:1004E00081608093D8014093E6015093E7016093C7
:1004F000E8017093E9018091EB01882389F1992348
:1005000079F18091DD019091DE01B0E0A0E00091F1
:10051000E6011091E7012091E8013091E9016A01BB
:100520007B01C01AD10AE20AF30A97018601081773
:1005300019072A073B07A0F08091D80181FD10C060
:100540009091E3019093E5018A648F778093D801BD
:100550004093E6015093E7016093E8017093E9014D
:100560008091E6019091E701A091E801B091E90145
:10057000481B590B6A0B7B0B8091DF019091E001C6
:10058000B0E0A0E0481759076A077B0768F0809140
:10059000E301882349F08093E4011092E301809104
:1005A000D80184608093D8011F910F91FF90EF9044
:1005B000DF90CF9008950091E6011091E70120911E
:1005C000E8013091E9016A017B01C01AD10AE20A0F
:1005D000F30A0091DB011091DC0130E020E0C0164D
:1005E000D106E206F30608F4BBCF21E02093EB012D
:1005F000806280688093D8017ECF8E7F8093D801FF
:10060000911179CF222309F4ABCF1092EB0181FD38
:1006100005C08091E3018F5F8093E3018091D80151
:100620008D7F80618093D8014093E6015093E7016C
:100630006093E8017093E90186FF07C01092E4011E
:100640001092E3018F7B8093D8018091D80187FFBE
:1006500087CF8F778093D8018091D9018160809373
:10066000D90149CFAF92BF92CF92DF92EF92FF9222
:100670000F931F93CF93DF936C017B018B01040FCA
:10068000151FEB015E01AE18BF08C017D10759F066
:100690006991D601ED91FC910190F081E02DC601A8
:1006A0000995892B79F7C501DF91CF911F910F91A2
:1006B000FF90EF90DF90CF90BF90AF900895FC0136
:1006C000538D448D252F30E0842F90E0821B930BB7
:1006D000541710F0CF96089501970895FC01918D5D
:1006E000828D981761F0A28DAE0FBF2FB11D5D9660
:1006F0008C91928D9F5F9F73928F90E008958FEF02
:100700009FEF0895FC01918D828D981731F0828DB5
:10071000E80FF11D858D90E008958FEF9FEF08950C
:10072000FC01918D228D892F90E0805C9F4F821B70
:1007300091098F73992708958BE391E00E949003AC
:1007400021E0892B09F420E0822F089580E090E0D9
:10075000892B29F00E949C0381110C9400000895BC
:10076000FC01A48DA80FB92FB11DA35ABF4F2C9126
:10077000848D90E001968F739927848FA689B7891D
:100780002C93A089B1898C91837080648C93938D14
:10079000848D981306C00288F389E02D80818F7DB7
:1007A00080830895EF92FF920F931F93CF93DF936F
:1007B000EC0181E0888F9B8D8C8D98131AC0E8899D
:1007C000F989808185FF15C09FB7F894EE89FF896C
:1007D0006083E889F98980818370806480839FBF0A
:1007E00081E090E0DF91CF911F910F91FF90EF900A
:1007F0000895F62E0B8D10E00F5F1F4F0F7311271A
:10080000E02E8C8D8E110CC00FB607FCFACFE88954
:10081000F989808185FFF5CFCE010E94B003F1CF29
:10082000EB8DEC0FFD2FF11DE35AFF4FF0829FB7C8
:10083000F8940B8FEA89FB8980818062CFCFCF93B8
:10084000DF93EC01888D8823B9F0AA89BB89E889F8
:10085000F9898C9185FD03C0808186FD0DC00FB69E
:1008600007FCF7CF8C9185FFF2CF808185FFEDCF1C
:10087000CE010E94B003E9CFDF91CF91089590E0BF
:10088000FC01E458FF4F2491FC01E057FF4F3491E5
:10089000FC01E255FF4FE491EE23C9F0222339F029
:1008A000233001F1A8F4213019F1223029F1F0E0D0
:1008B000EE0FFF1FEE58FF4FA591B4918FB7F8943C
:1008C000EC91611126C030953E233C938FBF089573
:1008D0002730A9F02830C9F0243049F780918000F2
:1008E0008F7D03C0809180008F7780938000DFCF61
:1008F00084B58F7784BDDBCF84B58F7DFBCF8091AE
:10090000B0008F778093B000D2CF8091B0008F7D00
:10091000F9CF3E2BDACFCF93DF9390E0FC01E05785
:10092000FF4F249182559F4FFC0184918823C9F089
:1009300090E0880F991FFC01E859FF4FA591B491F1
:10094000FC01EE58FF4FC591D49161110DC09FB7C6
:10095000F8948C91209582238C9388812823288376
:100960009FBFDF91CF910895623051F49FB7F89403
:100970003C91822F809583238C93E8812E2BEFCF9F
:100980008FB7F894EC912E2B2C938FBFEACFCF9397
:10099000DF93FC012381222359F1EC0161E0848182
:1009A0000E948B0461E08D810E948B048B818430D6
:1009B00011F08830B1F461E08E810E948B0461E017
:1009C0008F810E948B048FA58F3F91F061E00E9480
:1009D0008B046EA581E068278FA5DF91CF910C94E1
:1009E0003F04833011F0863071F761E08E81E9CFEA
:1009F000DF91CF910895CF93DF93FC0123812223D0
:100A0000A9F0EC010190F081E02D0480F581E02D4A
:100A100060E009958FA58F3F49F061E00E948B044B
:100A20006EA58FA5DF91CF910C943F04DF91CF91FC
:100A30000895DC01ED91FC912481358147705527A3
:100A400066277727415051096109710947305105DF
:100A50006105710560F4FA01E05DFA4F0C94950EA2
:100A60003A053C053E05400542054405460561E062
:100A7000F901099465E0FCCF64E0FACF66E0F8CFB5
:100A800062E0F6CF6AE0F4CF68E0F2CF69E0F0CF41
:100A9000CF93DF93EC01CB01BA0126E030E040E0D8
:100AA00050E00E94760E623071058105910589F152
:100AB0006CF46115710581059105D1F06130710506
:100AC00081059105F9F0DF91CF91089564307105AA
:100AD0008105910561F124F165307105810591056C
:100AE00091F7E881F9810480F581E02D66E006C088
:100AF000E881F9810480F581E02D64E0CE01DF9189
:100B0000CF910994E881F9810480F581E02D65E0B9
:100B1000F5CFE881F9810480F581E02D61E0EECF29
:100B2000E881F9810480F581E02D63E0E7CFE88179
:100B3000F9810480F581E02D62E0E0CFDC01ED91E8
:100B4000FC910480F581E02D4370552766277727B7
:100B5000423051056105710571F043305105610561
:100B6000710559F0413051056105710511F065E0DD
:100B7000099466E0FDCF6AE0FBCF69E0F9CFCF933F
:100B8000DF93EC01CB01BA0123E030E040E050E01C
:100B90000E94760E613071058105910599F06230F1
:100BA000710581059105A9F0672B682B692BC1F4AC
:100BB000E881F9810480F581E02D64E0CE01DF91C8
:100BC000CF910994E881F9810480F581E02D61E0FD
:100BD000F5CFE881F9810480F581E02D62E0EECF68
:100BE000DF91CF910895DC01ED91FC910480F581B6
:100BF000E02D437055276627772742305105610560
:100C0000710571F0433051056105710559F04130AE
:100C100051056105710511F062E0099463E0FDCFB3
:100C200061E0FBCF60E0F9CFCF93DF93EC01E88187
:100C3000F9810480F581E02D8A8160E0811162E014
:100C4000CE010995E881F9810480F581E02D8A8142
:100C500061E0811163E0CE0109958CA59DA58230EC
:100C6000910538F0880F991F880F991F05970197F4
:100C7000F1F7E881F9810480F581E02D8A8160E057
:100C8000811162E0CE01DF91CF910994CF93DF9380
:100C9000EC0120E030E0A9016C897D898E899F8973
:100CA0000E94870D18162CF4E8A9F9A9DF91CF91BD
:100CB0000994EAA9FBA9FACFCF92DF92EF92FF92B3
:100CC0000F931F93CF93DF93DC011396CC91C43025
:100CD00039F0C83059F1C33019F0C63049F1C2E0DB
:100CE0008C010C5F1F4FF12CE12CC62ED12CD1E0D2
:100CF000F8016481C6010E2C02C0959587950A946F
:100D0000E2F780FD6D270F5F1F4F80810E943F0437
:100D1000BFEFEB1AFB0AEC1658F3DF91CF911F914E
:100D20000F91FF90EF90DF90CF900895C4E0D8CF5F
:100D3000C3E0D6CFDC011396EC911397E93008F0AD
:100D400038C0F0E0EA55F94F0C94950EAF06B506A1
:100D5000BB06C106C706D906CD06D906D306ED9156
:100D6000FC910084F185E02D0994ED91FC910284C1
:100D7000F385E02DF9CFED91FC910484F585E02D0C
:100D8000F3CFED91FC910684F785E02DEDCFED9149
:100D9000FC910088F189E02DE7CFED91FC9102886C
:100DA000F389E02DE1CFED91FC910488F589E02DE8
:100DB000DBCF0895CF93DF93C8EDD1E060E08A8167
:100DC0000E948B048A8190E0FC01E255FF4FE49180
:100DD000F0E0EE0FFF1FEC55FF4F259134913D8B56
:100DE0002C8BFC01E057FF4FE491EE8BDF91CF910C
:100DF00008954F925F926F927F928F929F92AF92DF
:100E0000BF92CF92DF92EF92FF926B017C0120E0C4
:100E100030E0A9010E94280C87FF04C0F7FAF09483
:100E2000F7F8F09480900B0290900C02A0900D02C5
:100E3000B0900E02A7019601C501B4010E94280CD2
:100E4000882309F456C06091230270912402809196
:100E50002502909126020E94D70C2B013C01A7018C
:100E60009601C501B4010E942D0C9B01AC01C30188
:100E7000B2010E948C0D0E949F0C6093230270931C
:100E800024028093250290932602A701960160E038
:100E900070E080E090E40E942D0C0E94FF0D26E59A
:100EA0003EE04DE25FE30E948C0D20E034E244E737
:100EB00059E40E948C0D609327027093280280935E
:100EC000290290932A02C0920B02D0920C02E09267
:100ED0000D02F0920E02FF90EF90DF90CF90BF9046
:100EE000AF909F908F907F906F905F904F900C94F9
:100EF0008C00FF90EF90DF90CF90BF90AF909F90CD
:100F00008F907F906F905F904F9008951F920F92F7
:100F10000FB60F9211242F933F934F935F936F93CC
:100F20007F938F939F93AF93BF93EF93FF938BE345
:100F300091E00E94B003FF91EF91BF91AF919F911B
:100F40008F917F916F915F914F913F912F910F9072
:100F50000FBE0F901F9018951F920F920FB60F9211
:100F600011242F938F939F93EF93FF93E0914B0165
:100F7000F0914C018081E0915101F091520182FD8C
:100F80001BC09081809154018F5F8F732091550118
:100F9000821741F0E0915401F0E0E55CFE4F958F3F
:100FA00080935401FF91EF919F918F912F910F901A
:100FB0000FBE0F901F9018958081F4CF1F920F9253
:100FC0000FB60F9211242F933F938F939F93AF935C
:100FD000BF938091370190913801A0913901B09170
:100FE0003A013091300123E0230F2D3758F5019657
:100FF000A11DB11D209330018093370190933801DA
:10100000A0933901B0933A0180913101909132015E
:10101000A0913301B09134010196A11DB11D8093BF
:10102000310190933201A0933301B0933401BF9109
:10103000AF919F918F913F912F910F900FBE0F9085
:101040001F90189526E8230F0296A11DB11DD2CF3F
:10105000CF93DF93EBE3F1E01382128288EE93E00B
:10106000A0E0B0E084839583A683B78385E091E018
:101070009183808385EC90E09587848784EC90E071
:101080009787868780EC90E0918B808B81EC90E055
:10109000938B828B82EC90E0958B848B86EC90E036
:1010A000978B868B118E128E138E148EEFEEF1E0DD
:1010B00087E191E09183808384E0838314861586A1
:1010C00016861786108A118A128A138A148A158A3C
:1010D000168A178A80E090E0A0E8BFE3808F918FA6
:1010E000A28FB38F148E158E168E178E80A391A3A8
:1010F000A2A3B3A314A215A216A217A221E030E066
:1011000035A724A72FEF27A710A611A612A613A66E
:101110002BE0248329E025832AE0268328E0278307
:1011200016A614AA15AA16AA17AA10AE11AE12AEC8
:1011300013AE14AE15AE16AE17AE80932F02909379
:101140003002A0933102B0933202128210861186CF
:1011500012861386CF010E94C70460E070E080E829
:101160009FE30E94F906E8EDF1E08CE390E09483C0
:10117000838384EF91E0968385839087878380E9DA
:1011800091E09287818713861486158616861786C6
:10119000108A118A128A138A8CE08283C9EDD1E009
:1011A00088818F7D886088830E94DA0688818B7EA3
:1011B0008D7F8883DF91CF910895CF93DF93CDB753
:1011C000DEB7A1970FB6F894DEBF0FBECDBF7894FF
:1011D00084B5826084BD84B5816084BD85B582603C
:1011E00085BD85B5816085BD80916E0081608093ED
:1011F0006E00109281008091810082608093810056
:101200008091810081608093810080918000816065
:10121000809380008091B10084608093B1008091C0
:10122000B00081608093B00080917A0084608093E8
:101230007A0080917A00826080937A0080917A00AF
:10124000816080937A0080917A00806880937A0030
:101250001092C10020E030E046E154E460910702C2
:10126000709108028091090290910A020E94280C54
:10127000882309F451C080E090E0A6E1B4E48093B3
:10128000070290930802A0930902B0930A0285E531
:1012900095E5A0EDB4E480932F0290933002A093E3
:1012A0003102B09332028091230290912402A091E6
:1012B0002502B0912602181619061A061B0664F5B7
:1012C00060910302709104028091050290910602E0
:1012D0009B01AC010E948C0D6B017C0160910B02A3
:1012E00070910C0280910D0290910E029B01AC0155
:1012F0000E94BC0B9B01AC01C701B6010E942D0CE2
:101300000E949F0C60932302709324028093250215
:10131000909326020E948C0060E070E088E493E4E1
:101320000E94F90620E030E048E453E460910302B3
:101330007091040280910502909106020E94280C8F
:101340008823E9F14090070250900802609009025A
:1013500070900A0273016201F7FAF094F7F8F094C2
:1013600020E030E048E453ECC301B2010E94280CB5
:1013700087FD0CC020E030E048E453E4C301B20133
:101380000E94280C87FFB6C17301620120E030E0A3
:10139000A901C701B6010E94280C8111B1C11092A8
:1013A0001302109214021092150210921602C092AB
:1013B0000302D0920402E0920502F09206028091AC
:1013C000FF0190910002A0910102B0910202843FBE
:1013D0009140A105B10571F084EF91E0A0E0B0E08B
:1013E0008093FF0190930002A0930102B093020248
:1013F0000E948C008CE291E09093DE018093DD01ED
:101400008091D90188608093D90185FF0E94DA0616
:101410008091D9018D7F80618093D901E0914B014A
:10142000F0914C0182E08083E0914701F091480106
:101430001082E0914901F0914A018FEC8083109273
:101440005301E0914F01F091500186E08083E091DB
:101450004D01F0914E01808180618083E0914D01CA
:10146000F0914E01808188608083E0914D01F09180
:101470004E01808180688083E0914D01F0914E01A2
:1014800080818F7D808311E05AE0452E512C612CA4
:10149000712C60E0A62E60E0B62E8091D90184FD0B
:1014A0000E9436028091D90180FF09C090913601D7
:1014B0008E7F8093D901892F812780933601809177
:1014C000D90184FD0E9436028091D80183FF08C0B3
:1014D000877F8093D80180913501812780933501E2
:1014E00080913601882309F4F9C0F09000012F2D76
:1014F00030E0A4EFB1E00E949B0E2091FF013091FB
:1015000000024091010250910202621773078407A2
:10151000950751F06093FF017093000280930102E0
:10152000909302020E948C004091FF0150910002B2
:1015300060910102709102028091FB019091FC0187
:10154000A091FD01B091FE01481759076A077B077A
:1015500059F4F126F09200011092360110923501F3
:101560008FEE91E00E94FB04C090FB01D090FC0143
:10157000E090FD01F090FE01F7FEE3C06DE28BE329
:1015800091E00E94D20322273327A9012C193D099B
:101590004E095F0919A2CE0181967C01CA01B901E9
:1015A000A30192010E94540E605DF70162937F01D6
:1015B000211531054105510589F7E114F10461F068
:1015C00001900020E9F73197AF014E195F09B7018B
:1015D0008BE391E00E94320342E050E06DE271E063
:1015E0008BE391E00E9432038091130290911402E8
:1015F000A0911502B0911602892B8A2B8B2B09F42E
:101600006DC03FB7F8948091310190913201A09163
:101610003301B091340126B5A89B05C02F3F19F0C6
:101620000196A11DB11D3FBFBA2FA92F982F882762
:101630006C017D01C20ED11CE11CF11C42E0CC0CFE
:10164000DD1CEE1CFF1C4A95D1F78091170290918A
:101650001802A0911902B0911A02B701A601481B05
:10166000590B6A0B7B0B8091130290911402A0918D
:101670001502B0911602481759076A077B0770F1E7
:101680008091FB019091FC01A091FD01B091FE01C0
:101690002091F101222309F46AC00196A11DB11D18
:1016A0008093FB019093FC01A093FD01B093FE0198
:1016B0004091FB015091FC016091FD017091FE0190
:1016C0008FEE91E00E949A06C0921702D092180203
:1016D000E0921902F0921A020E948C00A114B10447
:1016E00009F4DBCE0E949C03882309F4D6CE0E9425
:1016F0000000D3CEC12CD12C78E4E72E73E4F72E72
:10170000A701960160E074E284E799E40E942D0C41
:101710009F770E94A60C609313027093140280932B
:1017200015029093160211E020E030E0A901C701F4
:10173000B6010E94870D18160CF010E01093F1010D
:1017400036CEA701960119A2CE0181967C01CA016D
:10175000B901A30192010E94540E605DF7016293EA
:101760007F01211531054105510589F726CF0197E4
:10177000A109B10995CF5058BB27AA270E94D30BC6
:101780000C944D0D0E943F0D38F00E94460D20F044
:1017900039F49F3F19F426F40C943C0D0EF4E095B7
:1017A000E7FB0C94360DE92F0E945E0D58F3BA1733
:1017B000620773078407950720F079F4A6F50C9467
:1017C000800D0EF4E0950B2EBA2FA02D0B01B90160
:1017D00090010C01CA01A0011124FF27591B99F0A7
:1017E000593F50F4503E68F11A16F040A22F232FB3
:1017F000342F4427585FF3CF469537952795A79503
:10180000F0405395C9F77EF41F16BA0B620B730BA9
:10181000840BBAF09150A1F0FF0FBB1F661F771F1A
:10182000881FC2F70EC0BA0F621F731F841F48F4CF
:10183000879577956795B795F7959E3F08F0B0CF58
:101840009395880F08F09927EE0F9795879508953F
:101850000E94120D08F481E008950E94410C0C943E
:101860004D0D0E94460D58F00E943F0D40F029F4A6
:101870005F3F29F00C94360D51110C94810D0C949E
:101880003C0D0E945E0D68F39923B1F3552391F34B
:10189000951B550BBB27AA2762177307840738F0DF
:1018A0009F5F5F4F220F331F441FAA1FA9F335D03C
:1018B0000E2E3AF0E0E832D091505040E695001CF0
:1018C000CAF72BD0FE2F29D0660F771F881FBB1FAA
:1018D000261737074807AB07B0E809F0BB0B802D88
:1018E000BF01FF2793585F4F3AF09E3F510578F0B4
:1018F0000C94360D0C94810D5F3FE4F3983ED4F3C5
:10190000869577956795B795F7959F5FC9F7880F87
:10191000911D9695879597F90895E1E0660F771FD9
:10192000881FBB1F621773078407BA0720F0621B6A
:10193000730B840BBA0BEE1F88F7E09508950E9495
:10194000A60C6894B1110C94810D08950E94660D47
:1019500088F09F5798F0B92F9927B751B0F0E1F070
:10196000660F771F881F991F1AF0BA95C9F714C020
:10197000B13091F00E94800DB1E008950C94800D7B
:10198000672F782F8827B85F39F0B93FCCF3869559
:1019900077956795B395D9F73EF4909580957095B6
:1019A00061957F4F8F4F9F4F0895E89409C097FB33
:1019B0003EF490958095709561957F4F8F4F9F4F26
:1019C0009923A9F0F92F96E9BB279395F69587956A
:1019D00077956795B795F111F8CFFAF4BB0F11F42D
:1019E00060FF1BC06F5F7F4F8F4F9F4F16C08823D4
:1019F00011F096E911C0772321F09EE8872F762F0A
:101A000005C0662371F096E8862F70E060E02AF04A
:101A10009A95660F771F881FDAF7880F9695879536
:101A200097F90895990F0008550FAA0BE0E8FEEF0B
:101A300016161706E807F907C0F012161306E40792
:101A4000F50798F0621B730B840B950B39F40A268B
:101A500061F0232B242B252B21F408950A2609F469
:101A6000A140A6958FEF811D811D089597F99F676D
:101A700080E870E060E008959FEF80EC0895002416
:101A80000A941616170618060906089500240A94E3
:101A900012161306140605060895092E0394000C69
:101AA00011F4882352F0BB0F40F4BF2B11F460FFF8
:101AB00004C06F5F7F4F8F4F9F4F089557FD905821
:101AC000440F551F59F05F3F71F04795880F97FB02
:101AD000991F61F09F3F79F08795089512161306BC
:101AE0001406551FF2CF4695F1DF08C016161706EB
:101AF0001806991FF1CF8695710561050894089520
:101B0000E894BB2766277727CB0197F908950E94B1
:101B1000120D08F48FEF08950E949F0D0C944D0D47
:101B20000E943F0D38F00E94460D20F0952311F0E1
:101B30000C94360D0C943C0D11240C94810D0E94D4
:101B40005E0D70F3959FC1F3950F50E0551F629F96
:101B5000F001729FBB27F00DB11D639FAA27F00D06
:101B6000B11DAA1F649F6627B00DA11D661F829F2D
:101B70002227B00DA11D621F739FB00DA11D621F12
:101B8000839FA00D611D221F749F3327A00D611D2F
:101B9000231F849F600D211D822F762F6A2F112411
:101BA0009F5750409AF0F1F088234AF0EE0FFF1F44
:101BB000BB1F661F771F881F91505040A9F79E3F9B
:101BC000510580F00C94360D0C94810D5F3FE4F3C9
:101BD000983ED4F3869577956795B795F795E795F1
:101BE0009F5FC1F7FE2B880F911D9695879597F9FA
:101BF000089519F416F40C943C0D0C943F0E0E94B9
:101C0000660DB8F39923C9F3B6F39F57550B87FFB9
:101C10000E944D0E0024A0E640EA9001805856959F
:101C2000979528F4805C660F771F881F20F0261791
:101C30003707480730F4621B730B840B20293129C6
:101C40004A2BA69517940794202531254A2758F743
:101C5000660F771F881F20F026173707480730F4D4
:101C6000620B730B840B200D311D411DA09581F774
:101C7000B901842F9158880F9695879508959F3FB5
:101C800031F0915020F4879577956795B795880F37
:101C9000911D9695879597F9089591505040660F3C
:101CA000771F881FD2F70895A1E21A2EAA1BBB1B2B
:101CB000FD010DC0AA1FBB1FEE1FFF1FA217B30718
:101CC000E407F50720F0A21BB30BE40BF50B661F2E
:101CD000771F881F991F1A9469F7609570958095F2
:101CE00090959B01AC01BD01CF010895052E97FB96
:101CF0001EF400940E948D0E57FD07D00E94540ED2
:101D000007FC03D04EF40C948D0E50954095309501
:101D100021953F4F4F4F5F4F089590958095709557
:101D200061957F4F8F4F9F4F0895EE0FFF1F0590D6
:101D3000F491E02D0994A29FB001B39FC001A39F2D
:101D4000700D811D1124911DB29F700D811D1124F4
:081D5000911D0895F894FFCFE6
:101D58000100000000D20332035F031F0490036EEA
:101D680003820300000000FB04C7045C069A0646D1
:101D7800061406F305BF059E05480519050D0A005A
:00000001FF
