:100000000C9462000C948A000C948A000C948A0070
:100010000C948A000C948A000C948A000C948A0038
:100020000C948A000C948A000C948A000C948A0028
:100030000C948A000C948A000C948A000C948A0018
:100040000C94C3050C948A000C9491050C946B05D8
:100050000C948A000C948A000C948A000C948A00F8
:100060000C948A000C948A00000000080002010031
:100070000003040700000000000000000000000072
:1000800023002600290001020408102040800102FC
:1000900004081020010204081020000000002400C1
:1000A00027002A0000000000250028002B0004047F
:1000B0000404040404040202020202020303030310
:1000C00003030D0611241FBECFEFD8E0DEBFCDBF66
:1000D00011E0A0E0B1E0ECE9FDE102C005900D9275
:1000E000AE32B107D9F722E0AEE2B1E001C01D9215
:1000F000AD33B207E1F710E0C2E6D0E004C02197CB
:10010000FE010E94C60EC136D107C9F70E94E00663
:100110000C94CC0E0C940000CF93DF93062E000CB1
:10012000770B9B0122553F4FF9014491E42FF0E0FA
:10013000EE0FFF1FEC55FF4F45915491DC01AA0FC4
:10014000BB1FAB52BE4FDE965C934E93DD97F90119
:100150002491E22FF0E0EE0FFF1FE656FF4FC5910E
:10016000D491AB5BBF4FCD93DC936A577F4FFB01BC
:100170006491FC01EE5DFD4F608380819881892B45
:100180008883DF91CF910895CF92DF92EF92FF9213
:1001900090930702809306026C01990FEE08FF0806
:1001A0008091100290911102892B71F580910A02C1
:1001B00090910B02892B41F560E472E48FE090E0AE
:1001C000A70196010E941E0C2093D5013093D60101
:1001D0004093D7015093D8014091FA015091FB010F
:1001E0006091FC017091FD018091F6019091F70101
:1001F000A091F801B091F90184179507A607B707F8
:100200002CF581E08093FF01A7019601285E334021
:1002100041095109A0E5B9EC0E944B0C28E33AE4EE
:1002200040E050E00E941E0C2856354C4F4F5F4F67
:1002300028393A436CF488E99AE39093DE0180937D
:10024000DD01FF90EF90DF90CF9008958FEFDACF30
:1002500088EE93E0F2CFFC01EE5DFD4F2081880F28
:10026000991FFC01EB52FE4F05ACF6ADE02D9081DD
:10027000822F80958923808308958091FE01837069
:10028000823069F1833009F445C08130D1F080912A
:100290002202E0911202F09113029081892B808357
:1002A00081E090E00E942B0180912402E0911602EF
:1002B000F09117029081892B808383E090E00C9469
:1002C0002B0190E080E00E942B0180912302E091BD
:1002D0001402F09115029081892B8083E5CF90E084
:1002E00080E00E942B0180912302E0911402F091A2
:1002F00015029081892B808382E090E00E942B017F
:1003000080912502E0911802F09119029081892BC9
:100310008083089580912202E0911202F0911302ED
:100320009081892B808381E090E00E942B01E4CFB3
:10033000CF92DF92EF92FF920F931F93809127024B
:1003400082FD18C085FD16C0E0913A02F0913B0293
:10035000208130913C0281FB992790F983FB88270B
:1003600080F98927922F932321E009F020E082274A
:10037000809338028FB7F894409134015091350141
:1003800060913601709137018FBF909138022091B2
:10039000390280912602992309F491C021118FC05E
:1003A00080FD6BC08160809326024093340250939D
:1003B00035026093360270933702809139028823A8
:1003C00089F1992379F180912B0290912C02B0E070
:1003D000A0E0009134021091350220913602309154
:1003E00037026A017B01C01AD10AE20AF30A9701B7
:1003F0008601081719072A073B07A0F080912602FB
:1004000081FD10C090913102909333028A648F77FE
:100410008093260240933402509335026093360253
:10042000709337028091340290913502A091360288
:10043000B0913702481B590B6A0B7B0B80912D0240
:1004400090912E02B0E0A0E0481759076A077B0799
:1004500068F080913102882349F080933202109233
:100460003102809126028460809326021F910F91B1
:10047000FF90EF90DF90CF9008950091340210919B
:10048000350220913602309137026A017B01C01A91
:10049000D10AE20AF30A0091290210912A0230E0FF
:1004A00020E0C016D106E206F30608F4BBCF21E037
:1004B0002093390280628068809326027ECF8E7FEF
:1004C00080932602911179CF222309F4ABCF1092A9
:1004D000390281FD05C0809131028F5F8093310226
:1004E000809126028D7F80618093260240933402A2
:1004F00050933502609336027093370286FF07C02F
:1005000010923202109231028F7B809326028091EA
:10051000260287FF87CF8F7780932602809127025C
:1005200081608093270249CFAF92BF92CF92DF9232
:10053000EF92FF920F931F93CF93DF936C017B0198
:100540008B01040F151FEB015E01AE18BF08C01729
:10055000D10759F06991D601ED91FC910190F0819C
:10056000E02DC6010995892B79F7C501DF91CF915F
:100570001F910F91FF90EF90DF90CF90BF90AF90C1
:100580000895FC01538D448D252F30E0842F90E099
:10059000821B930B541710F0CF960895019708957E
:1005A000FC01918D828D981761F0A28DAE0FBF2F47
:1005B000B11D5D968C91928D9F5F9F73928F90E09D
:1005C00008958FEF9FEF0895FC01918D828D98170C
:1005D00031F0828DE80FF11D858D90E008958FEF49
:1005E0009FEF0895FC01918D228D892F90E0805C12
:1005F0009F4F821B91098F739927089588E391E09B
:100600000E94F20221E0892B09F420E0822F089554
:1006100080E090E0892B29F00E94FE0281110C9469
:1006200000000895FC01A48DA80FB92FB11DA35A95
:10063000BF4F2C91848D90E001968F739927848F02
:10064000A689B7892C93A089B1898C918370806425
:100650008C93938D848D981306C00288F389E02DC6
:1006600080818F7D80830895EF92FF920F931F9377
:10067000CF93DF93EC0181E0888F9B8D8C8D981355
:100680001AC0E889F989808185FF15C09FB7F89461
:10069000EE89FF896083E889F989808183708064AD
:1006A00080839FBF81E090E0DF91CF911F910F91F8
:1006B000FF90EF900895F62E0B8D10E00F5F1F4F07
:1006C0000F731127E02E8C8D8E110CC00FB607FC16
:1006D000FACFE889F989808185FFF5CFCE010E94A4
:1006E0001203F1CFEB8DEC0FFD2FF11DE35AFF4FFD
:1006F000F0829FB7F8940B8FEA89FB898081806232
:10070000CFCFCF93DF93EC01888D8823B9F0AA89EE
:10071000BB89E889F9898C9185FD03C0808186FDBC
:100720000DC00FB607FCF7CF8C9185FFF2CF80810B
:1007300085FFEDCFCE010E941203E9CFDF91CF916B
:10074000089590E0FC01E859FF4F2491FC01EA571D
:10075000FF4F3491FC01E255FF4FE491EE23C9F0C5
:10076000222339F0233001F1A8F4213019F122308D
:1007700029F1F0E0EE0FFF1FEC55FF4FA591B4916A
:100780008FB7F894EC91611126C030953E233C93CD
:100790008FBF08952730A9F02830C9F0243049F7D9
:1007A000809180008F7D03C0809180008F7780933F
:1007B0008000DFCF84B58F7784BDDBCF84B58F7D9C
:1007C000FBCF8091B0008F778093B000D2CF809123
:1007D000B0008F7DF9CF3E2BDACF81E0809302020B
:1007E0000E943D018091ED018F3F21F06091010257
:1007F0000C94A10308958091100290911102892B0D
:10080000A1F580910A0290910B02892B71F520913C
:10081000060230910702032E000C440B550B60E4D6
:1008200072E48FE090E00E941E0C2093D50130937B
:10083000D6014093D7015093D8014091FA015091CD
:10084000FB016091FC017091FD018091F601909196
:10085000F701A091F801B091F90184179507A60757
:10086000B70764F08FEF8093FF0181E0809303026C
:1008700080910202811104C00C94ED0381E0F3CF5A
:100880000895809103028823B1F1109203028091B0
:1008900004028823E1F01092020290E080E00E94BE
:1008A0002B0181E090E00E942B0182E090E00E9409
:1008B0002B0183E090E00E942B018091ED018F3F9E
:1008C00031F06091010291E069270E94A10310922A
:1008D000F2011092F3011092F4011092F50180E5FB
:1008E00093ECA0E0B0E08093D5019093D601A09363
:1008F000D701B093D80108953FB7F89480912F01A4
:1009000090913001A0913101B091320126B5A89BA0
:1009100005C02F3F19F00196A11DB11D3FBFBA2F91
:10092000A92F982F8827BC01CD01620F711D811D51
:10093000911D42E0660F771F881F991F4A95D1F7D6
:100940000895CF93DF938091280290E0FC01EA574D
:10095000FF4F249182559F4FFC0184918823C1F061
:1009600090E0880F991FFC01E656FF4FC591D49186
:10097000FC01EC55FF4FA591B4919FB7F894888185
:10098000E22FE0958E2388838C91E823EC939FBF20
:100990008091280290E0FC01E255FF4FE491F0E0E5
:1009A000EE0FFF1FE458FF4F2591349130933B0227
:1009B00020933A02FC01EA57FF4FE491E0933C0296
:1009C000DF91CF910895FC0101900020E9F7319764
:1009D000AF01481B590BBC0188E391E00C949402D1
:1009E0008F929F92AF92BF92CF92DF92EF92FF923F
:1009F0000F931F93CF93DF93CDB7DEB7A1970FB6B9
:100A0000F894DEBF0FBECDBF6B017C01F7FE41C085
:100A10006DE288E391E00E9434038C0122273327A2
:100A2000A9012C193D094E095F0919A2CE01819631
:100A30007C019AE0892E912CA12CB12CCA01B9011C
:100A4000A50194010E94500C605DF70162937F0143
:100A5000211531054105510589F790E080E0309777
:100A600019F0CF010E94E304800F911FA1960FB6E9
:100A7000F894DEBF0FBECDBFDF91CF911F910F91D4
:100A8000FF90EF90DF90CF90BF90AF909F908F90AE
:100A90000895AC019B0119A28E010F5D1F4F8AE0E2
:100AA000C82ED12CE12CF12CCA01B901A701960165
:100AB0000E94500C605DF80162938F012115310591
:100AC0004105510589F790E080E0309779F2CF0138
:100AD0000E94E304CBCF1F920F920FB60F92112406
:100AE0002F933F934F935F936F937F938F939F9336
:100AF000AF93BF93EF93FF9388E391E00E941203BB
:100B0000FF91EF91BF91AF919F918F917F916F91E5
:100B10005F914F913F912F910F900FBE0F901F90BB
:100B200018951F920F920FB60F9211242F938F9347
:100B30009F93EF93FF93E0914801F09149018081E9
:100B4000E0914E01F0914F0182FD1BC09081809198
:100B500051018F5F8F7320915201821741F0E09114
:100B60005101F0E0E85CFE4F958F80935101FF91B9
:100B7000EF919F918F912F910F900FBE0F901F902B
:100B800018958081F4CF1F920F920FB60F92112407
:100B90002F933F938F939F93AF93BF938091340193
:100BA00090913501A0913601B091370130912E011D
:100BB00023E0230F2D3758F50196A11DB11D209379
:100BC0002E018093340190933501A0933601B093A8
:100BD000370180912F0190913001A0913101B091A6
:100BE00032010196A11DB11D80932F019093300118
:100BF000A0933101B0933201BF91AF919F918F913A
:100C00003F912F910F900FBE0F901F90189526E8DF
:100C1000230F0296A11DB11DD2CF0F931F93CF9327
:100C2000DF93E8E3F1E01382128288EE93E0A0E024
:100C3000B0E084839583A683B78386E091E09183B7
:100C4000808385EC90E09587848784EC90E097879B
:100C5000868780EC90E0918B808B81EC90E0938B89
:100C6000828B82EC90E0958B848B86EC90E0978B66
:100C7000868B118E128E138E148EE6E2F2E08CE3D8
:100C800090E09483838384EF91E0968385839087BB
:100C9000878380E991E09287818713861486158681
:100CA00016861786108A118A128A138A8CE082832C
:100CB000C7E2D2E088818F7D886088830E94A1048A
:100CC00088818B7E8D7F8883C5EDD1E080E197E2BE
:100CD000A0E0B0E088839983AA83BB831C821D8235
:100CE0001E821F8288E99AE3998788871A861B8665
:100CF0001C861D869F878E87188A198A1A8A1B8AE6
:100D000081E69BE0A6E3BBE38C8B9D8BAE8BBF8B18
:100D10008FEF888F198E1A8E1B8E1C8E1D8E1E8E45
:100D20001F8E18A219A21AA21BA21CA21DA21EA2EB
:100D30001FA218A619A681E08AA71BA61CA61DA69D
:100D40001EA61FA618AA0CE211E01AAB09AB1CAA3A
:100D50001BAA1EAA1DAA1FAA18AE19AE1AAE1CAE57
:100D60001BAE68E090E080E00E948C006AE081E0C9
:100D700090E00E948C0069E082E090E00E948C008C
:100D80006BE083E090E00E948C008CE291E00E9496
:100D9000C4001EAB0DAB8EE094E7AAEDBAE38FABB7
:100DA00098AFA9AFBAAF82E599E4ADE9B9E38A8714
:100DB0009B87AC87BD87DF91CF911F910F910895DD
:100DC000CF93DF9300D000D01F92CDB7DEB77894D9
:100DD00084B5826084BD84B5816084BD85B5826040
:100DE00085BD85B5816085BD80916E0081608093F1
:100DF0006E0010928100809181008260809381005A
:100E00008091810081608093810080918000816069
:100E1000809380008091B10084608093B1008091C4
:100E2000B00081608093B00080917A0084608093EC
:100E30007A0080917A00826080937A0080917A00B3
:100E4000816080937A0080917A00806880937A0034
:100E50001092C10084E190E00E94C40084E190E01F
:100E600090930B0280930A024DEC5CEC6CEC7CE3FB
:100E700040930C0250930D0260930E0270930F0288
:100E80004CEA55EC67EA77E34093DF015093E001C9
:100E90006093E1017093E20190930902809308024C
:100EA00080E090E0A0EAB1E48093F2019093F30136
:100EB000A093F401B093F50180E593ECA0E0B0E0DD
:100EC0008093D5019093D601A093D701B093D80118
:100ED00081E08093FF0180930302809102028111DF
:100EE00002C00E94ED0310921102109210021092A3
:100EF000050281E08093040284EF91E090932C023C
:100F000080932B028091270288608093270285FFBF
:100F10000E94A104809127028D7F80618093270227
:100F2000E0914801F091490182E08083E091440121
:100F3000F09145011082E0914601F09147018FEC5C
:100F4000808310925001E0914C01F0914D0186E0B8
:100F50008083E0914A01F0914B0180818061808320
:100F6000E0914A01F0914B01808188608083E0919B
:100F70004A01F0914B01808180688083E0914A01B1
:100F8000F0914B0180818F7D808301E080E0282EED
:100F900080E0382E8091270284FD0E949801809184
:100FA000270280FF09C0909133018E7F8093270232
:100FB00081E089278093330180913301882309F4EC
:100FC000E2C220910001309101013A83298328E295
:100FD00030E0A981BA810E94BF0E6093FA0170933C
:100FE000FB018093FC019093FD01C090F601D0902D
:100FF000F701E090F801F090F9016C157D058E0580
:101000009F0511F00E94FB03C090F601D090F701FC
:10101000E090F801F090F901809103024091FA010B
:101020005091FB016091FC017091FD01C416D50641
:10103000E606F70609F40CC3882309F452C180912F
:10104000100290911102892B09F04BC180910A0284
:1010500090910B02892B09F444C10E947C04C0903A
:10106000D901D090DA01E090DB01F090DC01AB0116
:10107000BC014C195D096E097F098091DD019091D9
:10108000DE01092E000CAA0BBB0B481759076A0793
:101090007B0708F426C10E947C046093D9017093F9
:1010A000DA018093DB019093DC018090FA0190904B
:1010B000FB01A090FC01B090FD018091F6019091A0
:1010C000F701A091F801B091F901881A990AAA0ACA
:1010D000BB0AC090F201D090F301E090F401F090CF
:1010E000F5016091DD017091DE01072E000C880B87
:1010F000990B0E949D0D2091DF013091E0014091FC
:10110000E1015091E2010E94520E69837A838B8340
:101110009C83A7019601C701B6010E94520E20913F
:101120000C0230910D0240910E0250910F020E946C
:10113000520E2B013C01C501B401B7FE07C0662762
:101140007727CB01681979098A099B090E949D0DAF
:101150009B01AC01C301B2010E944D0E87FD0EC080
:1011600020E030E0A901C701B6010E944D0E87FDC5
:1011700007C020E030E040E85FEB06C0B7FCF9CFE5
:1011800020E030E040E85FE369817A818B819C81D7
:101190000E94520EA70196010E94820C962EA72E45
:1011A000B82EC92EE0900602F09007026627772736
:1011B0006E197F09072E000C880B990B0E949D0D5C
:1011C000D62E172F8D839983262F372FAC01692DAB
:1011D0007A2D8B2D9C2D0E94EE0C87FD19C0B70136
:1011E000FF0C880B990B0E949D0DD62E172F8D8317
:1011F0009983262F372FAC01692D7A2D8B2D9C2DAD
:101200000E944D0E181624F0D92C1A2DBD82C982C9
:101210008D2D912FAD81B9818093F2019093F301CF
:10122000A093F401B093F50120E030E0A9016D2D09
:10123000712FCD010E944D0E1816CCF420E030E045
:1012400040EA51E46D2D712F8D8199810E944D0EE0
:101250001816CCF080E593ECA0E0B0E08093D501C7
:101260009093D601A093D701B093D8012CC020E071
:1012700030E040EA51EC6D2D712F8D8199810E94F3
:10128000EE0C87FFE7CF2D2D312F4D81598160E086
:1012900074E284E799E40E94F30C4B015C0120E0C6
:1012A00030E0A9010E944D0E18160CF0E0C0C501F7
:1012B000B4010E946C0D6093D5017093D6018093A8
:1012C000D7019093D80120E030E0A9016D2D712F56
:1012D0008D8199810E944D0E87FDCDC081E0809364
:1012E000FF0180910502882309F4E4C08091100277
:1012F00090911102892B09F4DDC00E947C04C090FA
:10130000E501D090E601E090E701F090E801AB0143
:10131000BC014C195D096E097F098091E301909130
:10132000E401092E000CAA0BBB0B481759076A07EA
:101330007B0708F4BFC00E947C046093E5017093B2
:10134000E6018093E7019093E801A0910802B09133
:101350000902BA83A983BD01BB0F880B990B0E94B8
:101360009D0D6B017C018090F2019090F301A090A3
:10137000F401B090F501A50194010E94810C20E0D8
:1013800030E0A9010E944D0E11E087FD1FEF609132
:10139000E3017091E401072E000C880B990B0E9469
:1013A0009D0D2091DF013091E0014091E1015091CC
:1013B000E2010E94520E2B013C01612F012E000C14
:1013C000770B880B990B0E949D0D9B01AC01C3010B
:1013D000B2010E94520EA50194010E94820C4B01A1
:1013E0005C018092F2019092F301A092F401B0921C
:1013F000F50120E030E0A9010E944D0E87FD3DC0BF
:1014000081E08093FF011130D1F5A5019401C7015E
:10141000B6010E94EE0C1816E4F5C090F201D090CF
:10142000F301E090F401F090F50120E030E0A90133
:10143000C701B6010E944D0E18160CF0BCC020E08A
:1014400030E040EA51E4C701B6010E944D0E181683
:101450000CF4BBC080E593ECA0E0B0E08093D50134
:101460009093D601A093D701B093D80123C0C501B2
:10147000B40190581ECF8FEF32CF8FEFC2CF1F3FF6
:1014800061F6A5019401C701B6010E944D0E87FDCA
:10149000C4CFC092F201D092F301E092F401F09235
:1014A000F5011092050229813A81232B09F0B5CF6D
:1014B0000E94410480910302882309F444C00E94E1
:1014C0007C04C090EE01D090EF01E090F001F0902C
:1014D000F1016C197D098E099F09C090D501D0904A
:1014E000D601E090D701F090D8016C157D058E05EE
:1014F0009F0548F10E947C046093EE017093EF0118
:101500008093F0019093F10180911002909111026B
:101510004091F6015091F7016091F8017091F90145
:10152000892B09F074C08091FA019091FB01A09180
:10153000FC01B091FD0184179507A607B70709F0D4
:1015400066C00E9441046091F6017091F70180919C
:10155000F8019091F9010E94F00484E191E00E9469
:10156000E30487E191E00E94E3046091FA01709145
:10157000FB018091FC019091FD010E94F00484E147
:1015800091E00E94E3048091270284FD0E9498016B
:101590008091260283FF03C0877F80932602211457
:1015A000310409F4F7CC0E94FE02882309F4F2CC3E
:1015B0000E940000EBCC20E030E040EA51ECC70193
:1015C000B6010E94EE0C87FF45CFA701960160E0AF
:1015D00074E284E799E40E94F30C6B017C0120E043
:1015E00030E0A9010E944D0E18166CF4C701B60137
:1015F0000E946C0D6093D5017093D6018093D70142
:101600009093D80157CFC701B6019058F1CF809180
:10161000FF01C82E082E000CDD08EE08FF084C0D57
:101620005D1D6E1D7F1D4093F6015093F701609381
:10163000F8017093F9019091FE01209100022111AF
:1016400001C08195890F8093FE010E943D017BCFEF
:10165000882309F477C08091100290911102892BA0
:1016600009F09EC06091FF01062E000C770B880BDD
:10167000990B0E949D0D4B015C016091D501709109
:10168000D6018091D7019091D8010E949B0D9B01BA
:10169000AC0160E074E284E799E40E94F30CA501D8
:1016A00094010E94520E6093F2017093F3018093B3
:1016B000F4019093F5019B01AC010E94520E209120
:1016C0000C0230910D0240910E0250910F020E94C7
:1016D000520EA50194010E94520E4B015C01C701FC
:1016E000B6010E949D0D9B01AC01C501B4010E9491
:1016F000820C0E94650D6093FA017093FB01809348
:10170000FC019093FD01C616D706E806F90611F014
:101710000E94FB03C090F201D090F301E090F4012D
:10172000F090F50120E030E0A901C701B6010E9468
:101730004D0E18168CF5C701B6010E94650DCB0140
:101740000E94C4000E9441041092F6011092F70119
:101750001092F8011092F9011092F2011092F30127
:101760001092F4011092F50110923301A981BA810F
:10177000B195A195B109B0930101A093000180E258
:1017800091E00E94E3046091000170910101072E35
:10179000000C880B990BF1CEC701B6019058CDCF44
:1017A0001092090210920802C090F201D090F30149
:1017B000E090F401F090F50120E030E0A901C701CC
:1017C000B6010E94EE0C882309F4BCCF00930502F9
:1017D000C701B6010E94650D9B0177FF04C0222757
:1017E0003327261B370B032E000C440B550B285EAA
:1017F000334041095109A0E5B9EC0E944B0C28E3A4
:101800003AE440E050E00E941E0C2856354C4F4F01
:101810005F4F28393A437CF488E99AE39093E401D6
:101820008093E301009303028091020281118ACF29
:101830000E94ED0387CF88EE93E0F0CF052E97FB53
:101840001EF400940E94350C57FD07D00E94500CE6
:1018500007FC03D04EF40C94350C50954095309510
:1018600021953F4F4F4F5F4F08959095809570950C
:1018700061957F4F8F4F9F4F08950E94720CA59FD7
:10188000900DB49F900DA49F800D911D112408957B
:10189000B7FF0C943D0C0E943D0C821B930B0895E6
:1018A000A1E21A2EAA1BBB1BFD010DC0AA1FBB1F64
:1018B000EE1FFF1FA217B307E407F50720F0A21BD6
:1018C000B30BE40BF50B661F771F881F991F1A9443
:1018D00069F760957095809590959B01AC01BD016D
:1018E000CF010895A29FB001B39FC001A39F700DC7
:1018F000811D1124911DB29F700D811D1124911D18
:1019000008955058BB27AA270E94990C0C94130ED7
:101910000E94050E38F00E940C0E20F039F49F3F13
:1019200019F426F40C94020E0EF4E095E7FB0C94E7
:10193000FC0DE92F0E94240E58F3BA1762077307B3
:101940008407950720F079F4A6F50C94460E0EF462
:10195000E0950B2EBA2FA02D0B01B90190010C01BF
:10196000CA01A0011124FF27591B99F0593F50F4D7
:10197000503E68F11A16F040A22F232F342F44272F
:10198000585FF3CF469537952795A795F040539527
:10199000C9F77EF41F16BA0B620B730B840BBAF0F7
:1019A0009150A1F0FF0FBB1F661F771F881FC2F762
:1019B0000EC0BA0F621F731F841F48F48795779576
:1019C0006795B795F7959E3F08F0B0CF9395880F30
:1019D00008F09927EE0F9795879508950E94D80DE6
:1019E00008F481E008950E94070D0C94130E0E94E4
:1019F0000C0E58F00E94050E40F029F45F3F29F0CC
:101A00000C94FC0D51110C94470E0C94020E0E9484
:101A1000240E68F39923B1F3552391F3951B550BCD
:101A2000BB27AA2762177307840738F09F5F5F4FB1
:101A3000220F331F441FAA1FA9F335D00E2E3AF0F0
:101A4000E0E832D091505040E695001CCAF72BD008
:101A5000FE2F29D0660F771F881FBB1F2617370759
:101A60004807AB07B0E809F0BB0B802DBF01FF278B
:101A700093585F4F3AF09E3F510578F00C94FC0D5F
:101A80000C94470E5F3FE4F3983ED4F38695779528
:101A90006795B795F7959F5FC9F7880F911D969544
:101AA000879597F90895E1E0660F771F881FBB1FA0
:101AB000621773078407BA0720F0621B730B840B4D
:101AC000BA0BEE1F88F7E09508950E946C0D68949C
:101AD000B1110C94470E08950E942C0E88F09F5768
:101AE00098F0B92F9927B751B0F0E1F0660F771F42
:101AF000881F991F1AF0BA95C9F714C0B13091F038
:101B00000E94460EB1E008950C94460E672F782F80
:101B10008827B85F39F0B93FCCF3869577956795FC
:101B2000B395D9F73EF490958095709561957F4F68
:101B30008F4F9F4F0895E89409C097FB3EF490950E
:101B40008095709561957F4F8F4F9F4F9923A9F096
:101B5000F92F96E9BB279395F69587957795679525
:101B6000B795F111F8CFFAF4BB0F11F460FF1BC069
:101B70006F5F7F4F8F4F9F4F16C0882311F096E9FC
:101B800011C0772321F09EE8872F762F05C06623AA
:101B900071F096E8862F70E060E02AF09A95660F63
:101BA000771F881FDAF7880F9695879597F908951C
:101BB000990F0008550FAA0BE0E8FEEF161617065E
:101BC000E807F907C0F012161306E407F50798F0C6
:101BD000621B730B840B950B39F40A2661F0232BDF
:101BE000242B252B21F408950A2609F4A140A6955B
:101BF0008FEF811D811D089597F99F6780E870E040
:101C000060E008959FEF80EC089500240A94161672
:101C1000170618060906089500240A9412161306DA
:101C2000140605060895092E0394000C11F4882368
:101C300052F0BB0F40F4BF2B11F460FF04C06F5F84
:101C40007F4F8F4F9F4F089557FD9058440F551F5A
:101C500059F05F3F71F04795880F97FB991F61F02E
:101C60009F3F79F087950895121613061406551FA5
:101C7000F2CF4695F1DF08C0161617061806991F11
:101C8000F1CF86957105610508940895E894BB2706
:101C900066277727CB0197F908950E94D80D08F49D
:101CA0008FEF08950E94650E0C94130E0E94050E8E
:101CB00038F00E940C0E20F0952311F00C94FC0DCE
:101CC0000C94020E11240C94470E0E94240E70F303
:101CD000959FC1F3950F50E0551F629FF001729FD1
:101CE000BB27F00DB11D639FAA27F00DB11DAA1FE0
:101CF000649F6627B00DA11D661F829F2227B00D2D
:101D0000A11D621F739FB00DA11D621F839FA00DB7
:101D1000611D221F749F3327A00D611D231F849F07
:101D2000600D211D822F762F6A2F11249F5750405E
:101D30009AF0F1F088234AF0EE0FFF1FBB1F661FD9
:101D4000771F881F91505040A9F79E3F510580F0A2
:101D50000C94FC0D0C94470E5F3FE4F3983ED4F3D3
:101D6000869577956795B795F795E7959F5FC1F746
:101D7000FE2B880F911D9695879597F908950E94DF
:101D8000720CB7FF0895821B930B0895EE0FFF1F8F
:0C1D90000590F491E02D0994F894FFCF29
:101D9C0001000000000034039402C1028103F2022E
:101DAC00D002E4020D0A005461726765743A200097
:0E1DBC00736574537461747573313A200000BE
:107E0000112484B714BE81FFF0D085E080938100F7
:107E100082E08093C00088E18093C10086E0809377
:107E2000C20080E18093C4008EE0C9D0259A86E02C
:107E300020E33CEF91E0309385002093840096BBD3
:107E4000B09BFECF1D9AA8958150A9F7CC24DD24C4
:107E500088248394B5E0AB2EA1E19A2EF3E0BF2EE7
:107E6000A2D0813461F49FD0082FAFD0023811F036
:107E7000013811F484E001C083E08DD089C08234E0
:107E800011F484E103C0853419F485E0A6D080C0E4
:107E9000853579F488D0E82EFF2485D0082F10E0AE
:107EA000102F00270E291F29000F111F8ED06801E7
:107EB0006FC0863521F484E090D080E0DECF843638
:107EC00009F040C070D06FD0082F6DD080E0C81688
:107ED00080E7D80618F4F601B7BEE895C0E0D1E017
:107EE00062D089930C17E1F7F0E0CF16F0E7DF06D8
:107EF00018F0F601B7BEE89568D007B600FCFDCFD4
:107F0000A601A0E0B1E02C9130E011968C91119780
:107F100090E0982F8827822B932B1296FA010C0160
:107F200087BEE89511244E5F5F4FF1E0A038BF0790
:107F300051F7F601A7BEE89507B600FCFDCF97BE46
:107F4000E89526C08437B1F42ED02DD0F82E2BD052
:107F50003CD0F601EF2C8F010F5F1F4F84911BD097
:107F6000EA94F801C1F70894C11CD11CFA94CF0C13
:107F7000D11C0EC0853739F428D08EE10CD085E9AC
:107F80000AD08FE07ACF813511F488E018D01DD067
:107F900080E101D065CF982F8091C00085FFFCCF94
:107FA0009093C60008958091C00087FFFCCF809118
:107FB000C00084FD01C0A8958091C6000895E0E648
:107FC000F0E098E1908380830895EDDF803219F02E
:107FD00088E0F5DFFFCF84E1DECF1F93182FE3DFCA
:107FE0001150E9F7F2DF1F91089580E0E8DFEE27F6
:047FF000FF270994CA
:027FFE00040479
:0400000300007E007B
:00000001FF
