:100000000C9462000C948A000C948A000C948A0070
:100010000C948A000C948A000C948A000C948A0038
:100020000C948A000C948A000C948A000C948A0028
:100030000C948A000C948A000C948A000C948A0018
:100040000C94FC080C948A000C94CA080C94A40824
:100050000C948A000C948A000C948A000C948A00F8
:100060000C948A000C948A00000000080002010031
:100070000003040700000000000000000000000072
:1000800023002600290001020408102040800102FC
:1000900004081020010204081020000000002400C1
:1000A00027002A0000000000250028002B0004047F
:1000B0000404040404040202020202020303030310
:1000C0000303460911241FBECFEFD8E0DEBFCDBF2A
:1000D00011E0A0E0B1E0EEE0FCE102C005900D927D
:1000E000AA32B107D9F722E0AAE2B1E001C01D921D
:1000F000AA33B207E1F710E0C2E6D0E004C02197CE
:10010000FE010E94FF0DC136D107C9F70E94190AEE
:100110000C94050E0C940000CF93DF93062E000C78
:10012000770B9B0122553F4FF9014491E42FF0E0FA
:10013000EE0FFF1FEC55FF4F45915491DC01AA0FC4
:10014000BB1FAE52BE4FDE965C934E93DD97F90116
:100150002491E22FF0E0EE0FFF1FE656FF4FC5910E
:10016000D491AB5BBF4FCD93DC936A577F4FFB01BC
:100170006491FC01E15EFD4F608380819881892B51
:100180008883DF91CF9108959093040280930302B6
:1001900020910D0230910E02232B81F52091070250
:1001A00030910802232B51F59C01990F440B550BFC
:1001B00060E472E48FE090E00E94650B2093D2012E
:1001C0003093D3014093D4015093D5014091F7016E
:1001D0005091F8016091F9017091FA018091F30159
:1001E0009091F401A091F501B091F6018417950763
:1001F000A607B70754F08FEF8093FC0188EE93E0D9
:100200009093DB018093DA01089581E0F5CFFC0142
:10021000E15EFD4F2081880F991FFC01EE52FE4FD9
:1002200005ACF6ADE02D9081822F809589238083E7
:1002300008958091FB018370823069F1833009F465
:1002400045C08130D1F080911F02E0910F02F09102
:1002500010029081892B808381E090E00E94070149
:1002600080912102E0911302F09114029081892B78
:10027000808383E090E00C94070190E080E00E948E
:10028000070180912002E0911102F0911202908109
:10029000892B8083E5CF90E080E00E940701809168
:1002A0002002E0911102F09112029081892B80834B
:1002B00082E090E00E94070180912202E091150205
:1002C000F09116029081892B8083089580911F02FE
:1002D000E0910F02F09110029081892B808381E0E0
:1002E00090E00E940701E4CFCF92DF92EF92FF925D
:1002F0000F931F938091240282FD18C085FD16C0C4
:10030000E0913702F091380220813091390281FB6F
:10031000992790F983FB882780F98927922F9323C7
:1003200021E009F020E08227809335028FB7F8940E
:10033000409131015091320160913301709134014B
:100340008FBF90913502209136028091230299232C
:1003500009F491C021118FC080FD6BC08160809332
:100360002302409331025093320260933302709320
:10037000340280913602882389F1992379F18091A2
:10038000280290912902B0E0A0E000913102109182
:10039000320220913302309134026A017B01C01A8B
:1003A000D10AE20AF30A97018601081719072A07FA
:1003B0003B07A0F08091230281FD10C090912E0296
:1003C000909330028A648F778093230240933102A6
:1003D0005093320260933302709334028091310261
:1003E00090913202A0913302B0913402481B590B14
:1003F0006A0B7B0B80912A0290912B02B0E0A0E067
:10040000481759076A077B0768F080912E028823F6
:1004100049F080932F0210922E0280912302846073
:10042000809323021F910F91FF90EF90DF90CF9068
:1004300008950091310210913202209133023091DF
:1004400034026A017B01C01AD10AE20AF30A009160
:1004500026021091270230E020E0C016D106E20605
:10046000F30608F4BBCF21E0209336028062806857
:10047000809323027ECF8E7F80932302911179CFC8
:10048000222309F4ABCF1092360281FD05C0809182
:100490002E028F5F80932E02809123028D7F8061D8
:1004A00080932302409331025093320260933302CF
:1004B0007093340286FF07C010922F0210922E0212
:1004C0008F7B809323028091230287FF87CF8F77D2
:1004D000809323028091240281608093240249CF7B
:1004E000AF92BF92CF92DF92EF92FF920F931F9342
:1004F000CF93DF936C017B018B01040F151FEB0180
:100500005E01AE18BF08C017D10759F06991D60136
:10051000ED91FC910190F081E02DC6010995892BA8
:1005200079F7C501DF91CF911F910F91FF90EF9067
:10053000DF90CF90BF90AF900895FC01538D448D14
:10054000252F30E0842F90E0821B930B541710F07E
:10055000CF96089501970895FC01918D828D98178B
:1005600061F0A28DAE0FBF2FB11D5D968C91928D63
:100570009F5F9F73928F90E008958FEF9FEF089594
:10058000FC01918D828D981731F0828DE80FF11D5D
:10059000858D90E008958FEF9FEF0895FC01918D78
:1005A000228D892F90E0805C9F4F821B91098F7371
:1005B0009927089585E391E00E94CE0221E0892BDE
:1005C00009F420E0822F089580E090E0892B29F043
:1005D0000E94DA0281110C9400000895FC01A48DA0
:1005E000A80FB92FB11DA35ABF4F2C91848D90E055
:1005F00001968F739927848FA689B7892C93A08938
:10060000B1898C91837080648C93938D848D9813C1
:1006100006C00288F389E02D80818F7D8083089554
:10062000EF92FF920F931F93CF93DF93EC0181E042
:10063000888F9B8D8C8D98131AC0E889F9898081E9
:1006400085FF15C09FB7F894EE89FF896083E8891C
:10065000F98980818370806480839FBF81E090E00E
:10066000DF91CF911F910F91FF90EF900895F62E9B
:100670000B8D10E00F5F1F4F0F731127E02E8C8D35
:100680008E110CC00FB607FCFACFE889F98980817A
:1006900085FFF5CFCE010E94EE02F1CFEB8DEC0F7E
:1006A000FD2FF11DE35AFF4FF0829FB7F8940B8F97
:1006B000EA89FB8980818062CFCFCF93DF93EC0101
:1006C000888D8823B9F0AA89BB89E889F9898C913A
:1006D00085FD03C0808186FD0DC00FB607FCF7CFF6
:1006E0008C9185FFF2CF808185FFEDCFCE010E94F6
:1006F000EE02E9CFDF91CF91089590E0FC01E85937
:10070000FF4F2491FC01EA57FF4F3491FC01E25561
:10071000FF4FE491EE23C9F0222339F0233001F199
:10072000A8F4213019F1223029F1F0E0EE0FFF1F7B
:10073000EC55FF4FA591B4918FB7F894EC916111EE
:1007400026C030953E233C938FBF08952730A9F0F3
:100750002830C9F0243049F7809180008F7D03C094
:10076000809180008F7780938000DFCF84B58F7772
:1007700084BDDBCF84B58F7DFBCF8091B0008F77B8
:100780008093B000D2CF8091B0008F7DF9CF3E2B07
:10079000DACF81E08093FF010E9419018091EA0184
:1007A0008F3F21F06091FE010C947D0308958091AC
:1007B0000D0290910E02892BA1F580910702909174
:1007C0000802892B71F52091030230910402032E57
:1007D000000C440B550B60E472E48FE090E00E9443
:1007E000650B2093D2013093D3014093D4015093F1
:1007F000D5014091F7015091F8016091F901709194
:10080000FA018091F3019091F401A091F501B0916A
:10081000F60184179507A607B70764F08FEF80935A
:10082000FC0181E0809300028091FF01811104C0EE
:100830000C94C90381E0F3CF0895809100028823CE
:10084000B1F110920002809101028823E1F0109230
:10085000FF0190E080E00E94070181E090E00E94AB
:10086000070182E090E00E94070183E090E00E948F
:1008700007018091EA018F3F31F06091FE0191E024
:1008800069270E947D031092EF011092F0011092EF
:10089000F1011092F20180E593ECA0E0B0E08093CA
:1008A000D2019093D301A093D401B093D5010895C0
:1008B0003FB7F89480912B0190912C01A0912D01CC
:1008C000B0912E0126B5A89B05C02F3F19F00196C7
:1008D000A11DB11D3FBFBA2FA92F982F8827BC019A
:1008E000CD01620F711D811D911D42E0660F771FC2
:1008F000881F991F4A95D1F70895CF93DF93809170
:10090000250290E0FC01EA57FF4F249182559F4F4A
:10091000FC0184918823C1F090E0880F991FFC01AD
:10092000E656FF4FC591D491FC01EC55FF4FA591C0
:10093000B4919FB7F8948881E22FE0958E23888345
:100940008C91E823EC939FBF8091250290E0FC01FD
:10095000E255FF4FE491F0E0EE0FFF1FE458FF4F28
:10096000259134913093380220933702FC01EA57E5
:10097000FF4FE491E0933902DF91CF910895FC019C
:1009800001900020E9F73197AF01481B590BBC01DA
:1009900085E391E00C9470028F929F92AF92BF9288
:1009A000CF92DF92EF92FF920F931F93CF93DF933B
:1009B000CDB7DEB7A1970FB6F894DEBF0FBECDBF9F
:1009C0006B017C01F7FE47C06DE285E391E00E9478
:1009D00010038C0122273327A9012C193D094E0948
:1009E0005F0919A2CE0181967C019AE0892E912C93
:1009F000A12CB12CCA01B901A50194010E94970B49
:100A0000605DF70162937F012115310541055105B4
:100A100089F790E080E0309719F0CF010E94BF0481
:100A2000080F191F82E191E00E94BF04800F911FFF
:100A3000A1960FB6F894DEBF0FBECDBFDF91CF9168
:100A40001F910F91FF90EF90DF90CF90BF90AF90EC
:100A50009F908F900895AC019B0119A28E010F5DAC
:100A60001F4F8AE0C82ED12CE12CF12CCA01B9010C
:100A7000A70196010E94970B605DF80162938F01B8
:100A8000211531054105510589F7309729F0CF012E
:100A90000E94BF048C01C6CF10E000E0C3CF2F92AC
:100AA0003F924F925F926F927F928F929F92AF92FE
:100AB000BF92CF92DF92EF92FF92CF93DF9300D05D
:100AC00000D0CDB7DEB76B017C015A014091F30134
:100AD0005091F4016091F5017091F601DC01C601BD
:100AE000840F951FA61FB71F8093F7019093F801FD
:100AF000A093F901B093FA01481759076A077B07D9
:100B000011F00E94D703D501A70196010E948F0B17
:100B1000C090F301D090F401E090F501F090F6015F
:100B20006C157D058E059F0509F4EEC280910002CB
:100B3000882309F439C180910D0290910E02892B0E
:100B400009F032C18091070290910802892B09F4C3
:100B50002BC10E945804C090D601D090D701E090DC
:100B6000D801F090D901AB01BC014C195D096E09A7
:100B70007F098091DA019091DB01092E000CAA0B0C
:100B8000BB0B481759076A077B0708F40DC10E9481
:100B900058046093D6017093D7018093D801909345
:100BA000D9018090F7019090F801A090F901B090E0
:100BB000FA018091F3019091F401A091F501B091B7
:100BC000F601881A990AAA0ABB0AC090EF01D090D0
:100BD000F001E090F101F090F2016091DA01709182
:100BE000DB01072E000C880B990B0E94DD0C209175
:100BF000DC013091DD014091DE015091DF010E9466
:100C0000920D69837A838B839C83A7019601C70128
:100C1000B6010E94920D2091090230910A02409182
:100C20000B0250910C020E94920D2B013C01C50158
:100C3000B401B7FE07C066277727CB016819790989
:100C40008A099B090E94DD0C9B01AC01C301B20122
:100C50000E948D0D87FD0EC020E030E0A901C70184
:100C6000B6010E948D0D87FD07C020E030E040E80E
:100C70005FEB06C0B7FCF9CF20E030E040E85FE36F
:100C800069817A818B819C810E94920DA7019601D6
:100C90000E94C90B3B014C01A0900302B0900402DA
:100CA000662777276A197B09072E000C880B990B9A
:100CB0000E94DD0C6B017C019B01AC01B301C401FE
:100CC0000E94350C87FD12C0B501BB0C880B990B37
:100CD0000E94DD0C6B017C019B01AC01B301C401DE
:100CE0000E948D0D181614F063017401C601D7011E
:100CF0008093EF019093F001A093F101B093F20182
:100D000020E030E0A901B601C7010E948D0D181640
:100D1000BCF420E030E040EA51E4B601C7010E9493
:100D20008D0D1816BCF080E593ECA0E0B0E0809348
:100D3000D2019093D301A093D401B093D50128C0E0
:100D400020E030E040EA51ECB601C7010E94350CCA
:100D500087FFE9CF9601A70160E074E284E799E498
:100D60000E943A0C4B015C0120E030E0A9010E9496
:100D70008D0D18160CF0E1C0C501B4010E94AC0C39
:100D80006093D2017093D3018093D4019093D501E5
:100D900020E030E0A901B601C7010E948D0D87FD5A
:100DA000D0C081E08093FC0180910202882309F485
:100DB000E9C080910D0290910E02892B09F4E2C0E6
:100DC0000E945804C090E201D090E301E090E40159
:100DD000F090E501AB01BC014C195D096E097F097A
:100DE0008091E0019091E101092E000CAA0BBB0B50
:100DF000481759076A077B0708F4C4C00E945804C3
:100E00006093E2017093E3018093E4019093E50124
:100E10006090050270900602B301072C000C880B4D
:100E2000990B0E94DD0C6B017C018090EF0190908A
:100E3000F001A090F101B090F201A50194010E948F
:100E4000C80B20E030E0A9010E948D0D87FD7BC01A
:100E500021E029836091E0017091E101072E000CEF
:100E6000880B990B0E94DD0C2091DC013091DD0193
:100E70004091DE015091DF010E94920D1B012C0177
:100E80002981622F220F770B880B990B0E94DD0CB2
:100E90009B01AC01C201B1010E94920DA501940118
:100EA0000E94C90B4B015C018092EF019092F0010E
:100EB000A092F101B092F20120E030E0A9010E947D
:100EC0008D0D87FD43C081E08093FC0189818130D5
:100ED00009F03EC0A5019401C701B6010E94350C7E
:100EE00018160CF040C0C090EF01D090F001E090D7
:100EF000F101F090F20120E030E0A901C701B60154
:100F00000E948D0D18160CF0B2C020E030E040EACF
:100F100051E4C701B6010E948D0D18160CF4B1C042
:100F200080E593ECA0E0B0E08093D2019093D301F0
:100F3000A093D401B093D50125C0C501B401905848
:100F40001DCF8FEF2FCF8FEF898384CF8FEFBCCF53
:100F500029812F3F41F6A5019401C701B6010E94E6
:100F60008D0D87FDC0CFC092EF01D092F001E092CD
:100F7000F101F092F20110920202672809F0B3CF5A
:100F80000E941D0480910002882309F444C00E943D
:100F90005804C090EB01D090EC01E090ED01F0908E
:100FA000EE016C197D098E099F09C090D201D09085
:100FB000D301E090D401F090D5016C157D058E052C
:100FC0009F0548F10E9458046093EB017093EC0177
:100FD0008093ED019093EE0180910D0290910E02AD
:100FE0004091F3015091F4016091F5017091F60187
:100FF000892B09F068C08091F7019091F801A091C8
:10100000F901B091FA0184179507A607B70709F00F
:101010005AC00E941D046091F3017091F401809107
:10102000F5019091F6010E94CC0485E191E00E94C7
:10103000BF046091F7017091F8018091F9019091DE
:10104000FA010F900F900F900F90DF91CF91FF90CA
:10105000EF90DF90CF90BF90AF909F908F907F9058
:101060006F905F904F903F902F900C94CC0420E0B5
:1010700030E040EA51ECC701B6010E94350C87FF11
:101080004FCFA701960160E074E284E799E40E94E3
:101090003A0C6B017C0120E030E0A9010E948D0D2B
:1010A00018166CF4C701B6010E94AC0C6093D20113
:1010B0007093D3018093D4019093D50163CFC7017E
:1010C000B6019058F1CF8091FC01C82E082E000C7B
:1010D000DD08EE08FF084C0D5D1D6E1D7F1D409361
:1010E000F3015093F4016093F5017093F601909130
:1010F000FB012091FD01211101C08195890F809391
:10110000FB010E94190187CF9091300121E09227C5
:101110009093300180912F01822780932F010F90AF
:101120000F900F900F90DF91CF91FF90EF90DF9095
:10113000CF90BF90AF909F908F907F906F905F9077
:101140004F903F902F9008951F920F920FB60F92DD
:1011500011242F933F934F935F936F937F938F93BC
:101160009F93AF93BF93EF93FF9385E391E00E942A
:10117000EE02FF91EF91BF91AF919F918F917F917F
:101180006F915F914F913F912F910F900FBE0F90F4
:101190001F9018951F920F920FB60F9211242F9344
:1011A0008F939F93EF93FF93E0914501F091460158
:1011B0008081E0914B01F0914C0182FD1BC0908138
:1011C00080914E018F5F8F7320914F01821741F004
:1011D000E0914E01F0E0EB5CFE4F958F80934E0165
:1011E000FF91EF919F918F912F910F900FBE0F90D4
:1011F0001F9018958081F4CF1F920F920FB60F9217
:1012000011242F933F938F939F93AF93BF9380911C
:10121000310190913201A0913301B09134013091AC
:101220002A0123E0230F2D3758F50196A11DB11D8A
:1012300020932A018093310190933201A0933301CE
:10124000B093340180912B0190912C01A0912D013C
:10125000B0912E010196A11DB11D80932B01909399
:101260002C01A0932D01B0932E01BF91AF919F91BE
:101270008F913F912F910F900FBE0F901F90189557
:1012800026E8230F0296A11DB11DD2CF0F931F9305
:10129000CF93DF93E5E3F1E01382128288EE93E0CF
:1012A000A0E0B0E084839583A683B78384E091E0D7
:1012B0009183808385EC90E09587848784EC90E02F
:1012C0009787868780EC90E0918B808B81EC90E013
:1012D000938B828B82EC90E0958B848B86EC90E0F4
:1012E000978B868B118E128E138E148EE3E2F2E0B2
:1012F0008CE390E09483838384EF91E096838583ED
:101300009087878380E991E092878187138614868E
:10131000158616861786108A118A128A138A8CE01F
:101320008283C4E2D2E088818F7D886088830E94B6
:101330007D0488818B7E8D7F8883C2EDD1E080E142
:1013400097E2A0E0B0E088839983AA83BB831C82E4
:101350001D821E821F8288E99AE3998788871A86F0
:101360001B861C861D869F878E87188A198A1A8A73
:101370001B8A81E69BE0A6E3BBE38C8B9D8BAE8B47
:10138000BF8B8FEF888F198E1A8E1B8E1C8E1D8E31
:101390001E8E1F8E18A219A21AA21BA21CA21DA289
:1013A0001EA21FA218A619A681E08AA71BA61CA62A
:1013B0001DA61EA61FA618AA0CE211E01AAB09ABC7
:1013C0001CAA1BAA1EAA1DAA1FAA18AE19AE1AAEE5
:1013D0001CAE1BAE68E090E080E00E948C006AE0EA
:1013E00081E090E00E948C0069E082E090E00E9441
:1013F0008C006BE083E090E00E948C008CE291E036
:101400000E94C4001EAB0DAB8EE094E7AAEDBAE3D8
:101410008FAB98AFA9AFBAAF82E599E4ADE9B9E374
:101420008A879B87AC87BD87DF91CF911F910F91F2
:101430000895789484B5826084BD84B5816084BD4C
:1014400085B5826085BD85B5816085BD80916E0062
:10145000816080936E001092810080918100826093
:1014600080938100809181008160809381008091D0
:1014700080008160809380008091B10084608093BF
:10148000B1008091B00081608093B00080917A00BB
:10149000846080937A0080917A00826080937A00E1
:1014A00080917A00816080937A0080917A008068D0
:1014B00080937A001092C10084E190E00E94C40001
:1014C00084E190E090930802809307024DEC5CEC7D
:1014D0006CEC7CE34093090250930A0260930B0288
:1014E00070930C024CEA55EC67EA77E34093DC0119
:1014F0005093DD016093DE017093DF01909306024B
:101500008093050280E090E0A0EAB1E48093EF01CF
:101510009093F001A093F101B093F20180E593EC78
:10152000A0E0B0E08093D2019093D301A093D401C6
:10153000B093D50181E08093FC01809300028091FB
:10154000FF01811102C00E94C9038091F3019091B3
:10155000F401A091F501B091F6018896A11DB11D8D
:101560008093F7019093F801A093F901B093FA01E9
:101570000E94D70310920E0210920D0210920202E6
:1015800081E08093010284EF91E09093290280939F
:1015900028028091240288608093240285FF0E94A3
:1015A0007D04809124028D7F806180932402E091EC
:1015B0004501F091460182E08083E0914101F09184
:1015C00042011082E0914301F09144018FEC80834D
:1015D00010924D01E0914901F0914A0186E080832B
:1015E000E0914701F0914801808180618083E09122
:1015F0004701F0914801808188608083E091470134
:10160000F0914801808180688083E0914701F091EA
:10161000480180818F7D808311E0C0E0D0E080911F
:10162000240284FD0E9474018091240280FF11C075
:10163000909130018E7F80932402892F812780939F
:10164000300182E291E00E94BF0482E191E00E94B9
:10165000BF0480913001882341F041E050E068E20E
:1016600070E080E090E00E944F058091240284FDAC
:101670000E9474018091230283FF11C090912F0179
:10168000877F80932302892F812780932F018DE10B
:1016900091E00E94BF0482E191E00E94BF0480912A
:1016A0002F01882339F04FEF5FEF60E070E0CB014E
:1016B0000E944F05209709F4B2CF0E94DA028823D6
:1016C00009F4ADCF0E940000AACF052E97FB1EF4AF
:1016D00000940E947C0B57FD07D00E94970B07FCDB
:1016E00003D04EF40C947C0B509540953095219589
:1016F0003F4F4F4F5F4F089590958095709561953E
:101700007F4F8F4F9F4F08950E94B90BA59F900D5B
:10171000B49F900DA49F800D911D11240895B7FFD3
:101720000C94840B0E94840B821B930B0895A1E2FE
:101730001A2EAA1BBB1BFD010DC0AA1FBB1FEE1F4B
:10174000FF1FA217B307E407F50720F0A21BB30B96
:10175000E40BF50B661F771F881F991F1A9469F712
:1017600060957095809590959B01AC01BD01CF016E
:101770000895A29FB001B39FC001A39F700D811D6A
:101780001124911DB29F700D811D1124911D08958A
:101790005058BB27AA270E94E00B0C94530D0E94BF
:1017A000450D38F00E944C0D20F039F49F3F19F49C
:1017B00026F40C94420D0EF4E095E7FB0C943C0DDE
:1017C000E92F0E94640D58F3BA1762077307840764
:1017D000950720F079F4A6F50C94860D0EF4E095AB
:1017E0000B2EBA2FA02D0B01B90190010C01CA01DB
:1017F000A0011124FF27591B99F0593F50F4503E86
:1018000068F11A16F040A22F232F342F4427585F77
:10181000F3CF469537952795A795F0405395C9F78F
:101820007EF41F16BA0B620B730B840BBAF0915047
:10183000A1F0FF0FBB1F661F771F881FC2F70EC0E6
:10184000BA0F621F731F841F48F4879577956795B9
:10185000B795F7959E3F08F0B0CF9395880F08F0A5
:101860009927EE0F9795879508950E94180D08F413
:1018700081E008950E944E0C0C94530D0E944C0D73
:1018800058F00E94450D40F029F45F3F29F00C9478
:101890003C0D51110C94870D0C94420D0E94640D67
:1018A00068F39923B1F3552391F3951B550BBB278F
:1018B000AA2762177307840738F09F5F5F4F220FD4
:1018C000331F441FAA1FA9F335D00E2E3AF0E0E8CB
:1018D00032D091505040E695001CCAF72BD0FE2F15
:1018E00029D0660F771F881FBB1F261737074807A9
:1018F000AB07B0E809F0BB0B802DBF01FF27935861
:101900005F4F3AF09E3F510578F00C943C0D0C94DB
:10191000870D5F3FE4F3983ED4F3869577956795FE
:10192000B795F7959F5FC9F7880F911D9695879595
:1019300097F90895E1E0660F771F881FBB1F6217B4
:1019400073078407BA0720F0621B730B840BBA0B72
:10195000EE1F88F7E09508950E946C0D88F09F5760
:1019600098F0B92F9927B751B0F0E1F0660F771FC3
:10197000881F991F1AF0BA95C9F714C0B13091F0B9
:101980000E94860DB1E008950C94860D672F782F84
:101990008827B85F39F0B93FCCF38695779567957E
:1019A000B395D9F73EF490958095709561957F4FEA
:1019B0008F4F9F4F0895E89409C097FB3EF4909590
:1019C0008095709561957F4F8F4F9F4F9923A9F018
:1019D000F92F96E9BB279395F695879577956795A7
:1019E000B795F111F8CFFAF4BB0F11F460FF1BC0EB
:1019F0006F5F7F4F8F4F9F4F16C0882311F096E97E
:101A000011C0772321F09EE8872F762F05C066232B
:101A100071F096E8862F70E060E02AF09A95660FE4
:101A2000771F881FDAF7880F9695879597F908959D
:101A3000990F0008550FAA0BE0E8FEEF16161706DF
:101A4000E807F907C0F012161306E407F50798F047
:101A5000621B730B840B950B39F40A2661F0232B60
:101A6000242B252B21F408950A2609F4A140A695DC
:101A70008FEF811D811D089597F99F6780E870E0C1
:101A800060E008959FEF80EC089500240A941616F4
:101A9000170618060906089500240A94121613065C
:101AA000140605060895092E0394000C11F48823EA
:101AB00052F0BB0F40F4BF2B11F460FF04C06F5F06
:101AC0007F4F8F4F9F4F089557FD9058440F551FDC
:101AD00059F05F3F71F04795880F97FB991F61F0B0
:101AE0009F3F79F087950895121613061406551F27
:101AF000F2CF4695F1DF08C0161617061806991F93
:101B0000F1CF86957105610508940895E894BB2787
:101B100066277727CB0197F908950E94180D08F4DE
:101B20008FEF08950E94A50D0C94530D0E94450D52
:101B300038F00E944C0D20F0952311F00C943C0DD0
:101B40000C94420D11240C94870D0E94640D70F3C7
:101B5000959FC1F3950F50E0551F629FF001729F52
:101B6000BB27F00DB11D639FAA27F00DB11DAA1F61
:101B7000649F6627B00DA11D661F829F2227B00DAE
:101B8000A11D621F739FB00DA11D621F839FA00D39
:101B9000611D221F749F3327A00D611D231F849F89
:101BA000600D211D822F762F6A2F11249F575040E0
:101BB0009AF0F1F088234AF0EE0FFF1FBB1F661F5B
:101BC000771F881F91505040A9F79E3F510580F024
:101BD0000C943C0D0C94870D5F3FE4F3983ED4F3D6
:101BE000869577956795B795F795E7959F5FC1F7C8
:101BF000FE2B880F911D9695879597F90895EE0F06
:0E1C0000FF1F0590F491E02D0994F894FFCF9A
:101C0E0000000000100370029D025D03CE02AC02C4
:101C1E00C0020D0A005461726765743A004C6F6E13
:0A1C2E006720436C69636B2100001E
:107800000C94343C0C94513C0C94513C0C94513CE1
:107810000C94513C0C94513C0C94513C0C94513CB4
:107820000C94513C0C94513C0C94513C0C94513CA4
:107830000C94513C0C94513C0C94513C0C94513C94
:107840000C94513C0C94513C0C94513C0C94513C84
:107850000C94513C0C94513C0C94513C0C94513C74
:107860000C94513C0C94513C11241FBECFEFD8E036
:10787000DEBFCDBF11E0A0E0B1E0ECE9FFE702C060
:1078800005900D92A230B107D9F712E0A2E0B1E065
:1078900001C01D92AD30B107E1F70E942D3D0C945F
:1078A000CC3F0C94003C982F959595959595959582
:1078B000905D8F708A307CF0282F295A8091C0000B
:1078C00085FFFCCF9093C6008091C00085FFFCCF60
:1078D0002093C6000895282F205DF0CF982F809127
:1078E000C00085FFFCCF9093C6000895EF92FF92F1
:1078F0000F931F93EE24FF2487018091C00087FD22
:1079000017C00894E11CF11C011D111D81E4E8164B
:1079100082E4F8068FE0080780E0180770F3E09132
:107920000401F091050109958091C00087FFE9CF1E
:107930008091C6001F910F91FF90EF9008950E94D3
:10794000763C982F8091C00085FFFCCF9093C600B5
:1079500091362CF490330CF09053892F089597555D
:10796000892F08951F930E949F3C182F0E949F3CCF
:107970001295107F810F1F9108951F93182F882350
:1079800021F00E94763C1150E1F71F9108951F935A
:10799000182F0E94763C803249F0809103018F5F5E
:1079A000809303018530C1F01F9108958091C0003C
:1079B00085FFFCCF84E18093C6008091C00085FFE5
:1079C000FCCF1093C6008091C00085FFFCCF80E102
:1079D0008093C6001F910895E0910401F091050184
:1079E00009951F9108950E94763C803241F0809164
:1079F00003018F5F80930301853081F008958091AA
:107A0000C00085FFFCCF84E18093C6008091C00058
:107A100085FFFCCF80E18093C6000895E0910401CA
:107A2000F09105010995089540E951E08823A1F0FE
:107A30002D9A28EE33E0FA013197F1F721503040CA
:107A4000D1F72D9828EE33E0FA013197F1F7215064
:107A50003040D1F7815061F708953F924F925F9285
:107A60006F927F928F929F92AF92BF92CF92DF924E
:107A7000EF92FF920F931F93CF93DF93000080E16B
:107A80008093C4001092C50088E18093C10086E015
:107A90008093C2005098589A259A81E00E94143D24
:107AA00024E1F22E9EE1E92E85E9D82E0FE0C02ECA
:107AB00010E1B12EAA24A394B1E49B2EA6E58A2E50
:107AC000F2E57F2EE0E26E2E79E4572E63E5462E36
:107AD00050E5352E0E94763C8033B1F18133B9F107
:107AE000803409F46FC0813409F476C0823409F41B
:107AF00085C0853409F488C0803531F1823521F1A3
:107B0000813511F1853509F485C0863509F48DC0BC
:107B1000843609F496C0843709F403C1853709F423
:107B200072C1863709F466C0809103018F5F80932C
:107B30000301853079F6E0910401F0910501099582
:107B40000E94763C803351F60E94F33CC3CF0E94E2
:107B5000763C803249F78091C00085FFFCCFF092DF
:107B6000C6008091C00085FFFCCF9092C600809136
:107B7000C00085FFFCCF8092C6008091C00085FFC9
:107B8000FCCF7092C6008091C00085FFFCCF609250
:107B9000C6008091C00085FFFCCF5092C600809146
:107BA000C00085FFFCCF4092C6008091C00085FFD9
:107BB000FCCF3092C6008091C00085FFFCCFB09210
:107BC000C60088CF0E94763C863808F4BDCF0E945C
:107BD000763C0E94F33C7ECF0E94763C803809F4CC
:107BE0009CC0813809F40BC1823809F43CC1883942
:107BF00009F48FC080E00E94C73C6CCF84E10E94F2
:107C0000BD3C0E94F33C66CF85E00E94BD3C0E94D3
:107C1000F33C60CF0E94763C809306010E94763C44
:107C2000809307010E94F33C55CF0E94763C80333D
:107C300009F41DC183E00E94BD3C80E00E94C73C66
:107C400049CF0E94763C809309020E94763C809343
:107C5000080280910C028E7F80930C020E94763C79
:107C6000853409F415C18091080290910902892B8D
:107C700089F000E010E00E94763CF801E85FFE4FDA
:107C800080830F5F1F4F80910802909109020817AF
:107C9000190788F30E94763C803209F045CF809125
:107CA0000C0280FF01C16091060170910701660F0F
:107CB000771F7093070160930601A0910802B091AD
:107CC00009021097C9F0E8E0F1E09B01AD014E0F09
:107CD0005F1FF999FECF32BD21BD819180BDFA9A17
:107CE000F99A2F5F3F4FE417F50799F76A0F7B1F4B
:107CF00070930701609306018091C00085FFFCCF5F
:107D0000F092C6008091C00085FFFCCFB092C60003
:107D1000E1CE83E00E94C73CDDCE82E00E94C73CFA
:107D2000D9CE0E94763C809309020E94763C8093D3
:107D300008028091060190910701880F991F909386
:107D40000701809306010E94763C853409F4A6C0A1
:107D500080910C028E7F80930C020E94763C8032D0
:107D600009F0B8CE8091C00085FFFCCFF092C6002C
:107D7000609108027091090261157105B9F140E046
:107D800050E080910C02A82FA170B82FB27011C0E2
:107D9000BB2309F45CC0E0910601F0910701319624
:107DA000F0930701E09306014F5F5F4F46175707B7
:107DB000E8F4AA2369F3F999FECF209106013091E6
:107DC000070132BD21BDF89A90B58091C00085FFB2
:107DD000FCCF9093C6002F5F3F4F30930701209355
:107DE00006014F5F5F4F4617570718F38091C00099
:107DF00085FDE5CE8091C00085FFF8CFE0CE81E023
:107E00000E94C73C67CE0E94763C803209F08CCE3F
:107E10008091C00085FFFCCFF092C6008091C00029
:107E200085FFFCCFE092C6008091C00085FFFCCFAB
:107E3000D092C6008091C00085FFFCCFC092C600E2
:107E40008091C00085FFFCCFB092C60043CEE09188
:107E50000601F091070194918091C00085FFFCCF4D
:107E60009093C6009CCF80E10E94C73C33CE0E9415
:107E7000763C0E94763C182F0E94763C112309F430
:107E800083C0113009F484C08FE00E94C73C22CE29
:107E900080910C02816080930C02E5CE80910C02EF
:107EA000816080930C0259CF809107018823880F4D
:107EB000880B8A2180930B02809106019091070123
:107EC000880F991F90930701809306018091080203
:107ED00080FF09C080910802909109020196909359
:107EE000090280930802F894F999FECF1127E091D6
:107EF0000601F0910701C8E0D1E08091080290915D
:107F00000902103091F40091570001700130D9F34B
:107F100003E000935700E89500915700017001308D
:107F2000D9F301E100935700E89509901990009169
:107F3000570001700130D9F301E000935700E89534
:107F40001395103498F011270091570001700130FB
:107F5000D9F305E000935700E895009157000170B0
:107F60000130D9F301E100935700E895329602976A
:107F700009F0C7CF103011F00296E5CF112480919F
:107F8000C00085FFB9CEBCCE8EE10E94C73CA2CD19
:0C7F900085E90E94C73C9ECDF894FFCF0D
:027F9C00800063
:040000030000780081
:00000001FF
