:100000000C9462000C948A000C948A000C948A0070
:100010000C948A000C948A000C948A000C948A0038
:100020000C948A000C948A000C948A000C948A0028
:100030000C948A000C948A000C948A000C948A0018
:100040000C94DE070C948A000C94AC070C94860781
:100050000C948A000C948A000C948A000C948A00F8
:100060000C948A000C948A000000000024002700F1
:100070002A0000000000250028002B0000000008D6
:10008000000201000003040700000000000000005F
:10009000010204081020408001020408102001021F
:1000A000040810200000000023002600290004049A
:1000B0000404040404040202020202020303030310
:1000C0000303280811241FBECFEFD8E0DEBFCDBF49
:1000D00011E0A0E0B1E0E4ECFCE102C005900D927B
:1000E000A633B107D9F722E0A6E3B1E001C01D9223
:1000F000A933B207E1F710E0C2E6D0E004C02197CF
:10010000FE010E94220EC136D107C9F70E94DD0808
:100110000C94600E0C9400004F925F926F927F924D
:100120008F929F92AF92BF92CF92DF92EF92FF9207
:100130000F931F93CF93DF93C0900502D0900602D8
:10014000E0900702F0900802809101029091020273
:10015000A0910302B0910402C81AD90AEA0AFB0A64
:100160006091090270910A0280910B0290910C0239
:100170009B01AC010E943B0D4B015C01609111029F
:100180007091120280911302909114029B01AC01B4
:100190000E946B0B9B01AC01C501B4010E94DC0BFA
:1001A0000E944E0CC114D104E104F10409F0D3C043
:1001B00062307105810591050CF0F2C010921902B0
:1001C00010921A0210921B0210921C021092090245
:1001D00010920A0210920B0210920C021092290245
:1001E00010922A0210922B0210922C02DF91CF91D2
:1001F0001F910F91FF90EF90DF90CF90BF90AF9045
:100200009F908F907F906F905F904F900895101601
:10021000110612061306DCF46C157D058E059F058C
:1002200024F42091F7012111BBC09B01AC01882768
:100230009927DC01821B930BA40BB50B8093290239
:1002400090932A02A0932B02B0932C02A9C001150F
:1002500011052105310509F4A3C06C157D058E0536
:100260009F050CF09DC08091F701882309F498C088
:1002700030952095109501951F4F2F4F3F4F0093BC
:10028000290210932A0220932B0230932C0288C05B
:10029000011511052105310509F482C0882499242E
:1002A00054018C189D08AE08BF08681579058A05A9
:1002B0009B050CF075C08091F701811171C0D8CFFA
:1002C000C0903102D0903202E0903302F0903402BC
:1002D000A7019601C701B6010E946B0B2B013C01DF
:1002E000C501B4010E94860C20E030E040E850E4F3
:1002F0000E943B0D20E030E040E85FE30E946B0B82
:100300009B01AC01C301B2010E94DC0B9B01AC015B
:10031000C701B6010E946A0BD62FC72F6C01E0906F
:100320003502F090360200913702109138029701A1
:10033000A8010E94360D18161CF4ED2EFC2E860125
:10034000C701D8018093310290933202A093330207
:10035000B09334024CC00091290210912A022091DE
:100360002B0230912C021C141D041E041F040CF4DB
:100370004ECF10161106120613060CF089CF002777
:10038000112798010C191D092E093F0960177107E3
:10039000820793070CF049CF2091F701211145CF37
:1003A0008090290290902A02A0902B02B0902C02FB
:1003B00081149104A104B10409F082CF80912D022F
:1003C00090912E02A0912F02B091300280933102C1
:1003D00090933202A0933302B093340281E01C1454
:1003E0001D041E041F040CF080E08093F7013FEF12
:1003F000831A930AA30AB30A8092290290922A02CE
:10040000A0922B02B0922C02C0903102D090320206
:10041000E0903302F0903402C701B6010E94550CFF
:100420006093190270931A0280931B0290931C022E
:10043000A701960160E074E284E799E40E94DC0B76
:100440006093090270930A0280930B0290930C024E
:100450002091F7012111CACE905860930902709340
:100460000A0280930B0290930C02C0CECF92DF92CF
:10047000EF92FF920F931F938091DF0182FD18C0CE
:1004800085FD16C0E091F201F091F30120813091D9
:10049000F40181FB992790F983FB882780F989274C
:1004A000922F932321E009F020E082278093F0012E
:1004B0008FB7F89440913D0150913E0160913F010A
:1004C000709140018FBF9091F0012091F1018091D6
:1004D000DE01992309F491C021118FC080FD6BC00A
:1004E00081608093DE014093EC015093ED016093B5
:1004F000EE017093EF018091F101882389F1992336
:1005000079F18091E3019091E401B0E0A0E00091E5
:10051000EC011091ED012091EE013091EF016A01A3
:100520007B01C01AD10AE20AF30A97018601081773
:1005300019072A073B07A0F08091DE0181FD10C05A
:100540009091E9019093EB018A648F778093DE01AB
:100550004093EC015093ED016093EE017093EF0135
:100560008091EC019091ED01A091EE01B091EF012D
:10057000481B590B6A0B7B0B8091E5019091E601BA
:10058000B0E0A0E0481759076A077B0768F0809140
:10059000E901882349F08093EA011092E9018091F2
:1005A000DE0184608093DE011F910F91FF90EF9038
:1005B000DF90CF9008950091EC011091ED01209112
:1005C000EE013091EF016A017B01C01AD10AE20A03
:1005D000F30A0091E1011091E20130E020E0C01641
:1005E000D106E206F30608F4BBCF21E02093F10127
:1005F000806280688093DE017ECF8E7F8093DE01F3
:10060000911179CF222309F4ABCF1092F10181FD32
:1006100005C08091E9018F5F8093E9018091DE013F
:100620008D7F80618093DE014093EC015093ED015A
:100630006093EE017093EF0186FF07C01092EA010C
:100640001092E9018F7B8093DE018091DE0187FFAC
:1006500087CF8F778093DE018091DF018160809367
:10066000DF0149CFAF92BF92CF92DF92EF92FF921C
:100670000F931F93CF93DF936C017B018B01040FCA
:10068000151FEB015E01AE18BF08C017D10759F066
:100690006991D601ED91FC910190F081E02DC601A8
:1006A0000995892B79F7C501DF91CF911F910F91A2
:1006B000FF90EF90DF90CF90BF90AF900895FC0136
:1006C000538D448D252F30E0842F90E0821B930BB7
:1006D000541710F0CF96089501970895FC01918D5D
:1006E000828D981761F0A28DAE0FBF2FB11D5D9660
:1006F0008C91928D9F5F9F73928F90E008958FEF02
:100700009FEF0895FC01918D828D981731F0828DB5
:10071000E80FF11D858D90E008958FEF9FEF08950C
:10072000FC01918D228D892F90E0805C9F4F821B70
:1007300091098F739927089581E491E00E949003B5
:1007400021E0892B09F420E0822F089580E090E0D9
:10075000892B29F00E949C0381110C9400000895BC
:10076000FC01A48DA80FB92FB11DA35ABF4F2C9126
:10077000848D90E001968F739927848FA689B7891D
:100780002C93A089B1898C91837080648C93938D14
:10079000848D981306C00288F389E02D80818F7DB7
:1007A00080830895EF92FF920F931F93CF93DF936F
:1007B000EC0181E0888F9B8D8C8D98131AC0E8899D
:1007C000F989808185FF15C09FB7F894EE89FF896C
:1007D0006083E889F98980818370806480839FBF0A
:1007E00081E090E0DF91CF911F910F91FF90EF900A
:1007F0000895F62E0B8D10E00F5F1F4F0F7311271A
:10080000E02E8C8D8E110CC00FB607FCFACFE88954
:10081000F989808185FFF5CFCE010E94B003F1CF29
:10082000EB8DEC0FFD2FF11DE35AFF4FF0829FB7C8
:10083000F8940B8FEA89FB8980818062CFCFCF93B8
:10084000DF93EC01888D8823B9F0AA89BB89E889F8
:10085000F9898C9185FD03C0808186FD0DC00FB69E
:1008600007FCF7CF8C9185FFF2CF808185FFEDCF1C
:10087000CE010E94B003E9CFDF91CF91089590E0BF
:10088000FC01E458FF4F2491FC01E057FF4F3491E5
:10089000FC01E255FF4FE491EE23C9F0222339F029
:1008A000233001F1A8F4213019F1223029F1F0E0D0
:1008B000EE0FFF1FEE58FF4FA591B4918FB7F8943C
:1008C000EC91611126C030953E233C938FBF089573
:1008D0002730A9F02830C9F0243049F780918000F2
:1008E0008F7D03C0809180008F7780938000DFCF61
:1008F00084B58F7784BDDBCF84B58F7DFBCF8091AE
:10090000B0008F778093B000D2CF8091B0008F7D00
:10091000F9CF3E2BDACFCF93DF9390E0FC01E05785
:10092000FF4F249182559F4FFC0184918823C9F089
:1009300090E0880F991FFC01E859FF4FA591B491F1
:10094000FC01EE58FF4FC591D49161110DC09FB7C6
:10095000F8948C91209582238C9388812823288376
:100960009FBFDF91CF910895623051F49FB7F89403
:100970003C91822F809583238C93E8812E2BEFCF9F
:100980008FB7F894EC912E2B2C938FBFEACFCF9397
:10099000DF93FC012381222359F1EC0161E0848182
:1009A0000E948B0461E08D810E948B048B818430D6
:1009B00011F08830B1F461E08E810E948B0461E017
:1009C0008F810E948B048FA58F3F91F061E00E9480
:1009D0008B046EA581E068278FA5DF91CF910C94E1
:1009E0003F04833011F0863071F761E08E81E9CFEA
:1009F000DF91CF910895CF93DF93FC0123812223D0
:100A0000A9F0EC010190F081E02D0480F581E02D4A
:100A100060E009958FA58F3F49F061E00E948B044B
:100A20006EA58FA5DF91CF910C943F04DF91CF91FC
:100A30000895DC01ED91FC912481358147705527A3
:100A400066277727415051096109710947305105DF
:100A50006105710560F4FA01E05DFA4F0C94220E15
:100A60003A053C053E05400542054405460561E062
:100A7000F901099465E0FCCF64E0FACF66E0F8CFB5
:100A800062E0F6CF6AE0F4CF68E0F2CF69E0F0CF41
:100A9000CF93DF93EC01CB01BA0126E030E040E0D8
:100AA00050E00E94030E623071058105910589F1C5
:100AB0006CF46115710581059105D1F06130710506
:100AC00081059105F9F0DF91CF91089564307105AA
:100AD0008105910561F124F165307105810591056C
:100AE00091F7E881F9810480F581E02D66E006C088
:100AF000E881F9810480F581E02D64E0CE01DF9189
:100B0000CF910994E881F9810480F581E02D65E0B9
:100B1000F5CFE881F9810480F581E02D61E0EECF29
:100B2000E881F9810480F581E02D63E0E7CFE88179
:100B3000F9810480F581E02D62E0E0CFDC01ED91E8
:100B4000FC910480F581E02D4370552766277727B7
:100B5000423051056105710571F043305105610561
:100B6000710559F0413051056105710511F065E0DD
:100B7000099466E0FDCF6AE0FBCF69E0F9CFCF933F
:100B8000DF93EC01CB01BA0123E030E040E050E01C
:100B90000E94030E613071058105910599F0623064
:100BA000710581059105A9F0672B682B692BC1F4AC
:100BB000E881F9810480F581E02D64E0CE01DF91C8
:100BC000CF910994E881F9810480F581E02D61E0FD
:100BD000F5CFE881F9810480F581E02D62E0EECF68
:100BE000DF91CF910895DC01ED91FC910480F581B6
:100BF000E02D437055276627772742305105610560
:100C0000710571F0433051056105710559F04130AE
:100C100051056105710511F062E0099463E0FDCFB3
:100C200061E0FBCF60E0F9CFCF93DF93EC01E88187
:100C3000F9810480F581E02D8A8160E0811162E014
:100C4000CE010995E881F9810480F581E02D8A8142
:100C500061E0811163E0CE0109958CA59DA58230EC
:100C6000910538F0880F991F880F991F05970197F4
:100C7000F1F7E881F9810480F581E02D8A8160E057
:100C8000811162E0CE01DF91CF910994CF93DF9380
:100C9000EC0120E030E0A9016C897D898E899F8973
:100CA0000E94360D18162CF4E8A9F9A9DF91CF910E
:100CB0000994EAA9FBA9FACFCF92DF92EF92FF92B3
:100CC0000F931F93CF93DF93DC011396CC91C43025
:100CD00039F0C83059F1C33019F0C63049F1C2E0DB
:100CE0008C010C5F1F4FF12CE12CC62ED12CD1E0D2
:100CF000F8016481C6010E2C02C0959587950A946F
:100D0000E2F780FD6D270F5F1F4F80810E943F0437
:100D1000BFEFEB1AFB0AEC1658F3DF91CF911F914E
:100D20000F91FF90EF90DF90CF900895C4E0D8CF5F
:100D3000C3E0D6CFDC011396EC911397E93008F0AD
:100D400038C0F0E0EA55F94F0C94220EAF06B50614
:100D5000BB06C106C706D906CD06D906D306ED9156
:100D6000FC910084F185E02D0994ED91FC910284C1
:100D7000F385E02DF9CFED91FC910484F585E02D0C
:100D8000F3CFED91FC910684F785E02DEDCFED9149
:100D9000FC910088F189E02DE7CFED91FC9102886C
:100DA000F389E02DE1CFED91FC910488F589E02DE8
:100DB000DBCF0895CF93DF93CEEDD1E060E08A8161
:100DC0000E948B048A8190E0FC01E255FF4FE49180
:100DD000F0E0EE0FFF1FEC55FF4F259134913D8B56
:100DE0002C8BFC01E057FF4FE491EE8BDF91CF910C
:100DF00008954F925F926F927F928F929F92AF92DF
:100E0000BF92CF92DF92EF92FF926B017C0120E0C4
:100E100030E0A9010E94D70B87FF04C0F7FAF094D5
:100E2000F7F8F0948090110290901202A0901302B3
:100E3000B0901402A7019601C501B4010E94D70B1E
:100E4000882309F456C06091290270912A0280918A
:100E50002B0290912C020E94860C2B013C01A701D1
:100E60009601C501B4010E94DC0B9B01AC01C301DA
:100E7000B2010E943B0D0E944E0C609329027093B8
:100E80002A0280932B0290932C02A701960160E026
:100E900070E080E090E40E94DC0B0E94AE0D26E53D
:100EA0003EE04DE25FE30E943B0D20E034E244E788
:100EB00059E40E943B0D60932D0270932E028093A3
:100EC0002F0290933002C0921102D0921202E0924F
:100ED0001302F0921402FF90EF90DF90CF90BF903A
:100EE000AF909F908F907F906F905F904F900C94F9
:100EF0008C00FF90EF90DF90CF90BF90AF909F90CD
:100F00008F907F906F905F904F9008951F920F92F7
:100F10000FB60F9211242F933F934F935F936F93CC
:100F20007F938F939F93AF93BF93EF93FF9381E44E
:100F300091E00E94B003FF91EF91BF91AF919F911B
:100F40008F917F916F915F914F913F912F910F9072
:100F50000FBE0F901F9018951F920F920FB60F9211
:100F600011242F938F939F93EF93FF93E09151015F
:100F7000F09152018081E0915701F091580182FD7A
:100F80001BC0908180915A018F5F8F7320915B010C
:100F9000821741F0E0915A01F0E0EF5BFE4F958F30
:100FA00080935A01FF91EF919F918F912F910F9014
:100FB0000FBE0F901F9018958081F4CF1F920F9253
:100FC0000FB60F9211242F933F938F939F93AF935C
:100FD000BF9380913D0190913E01A0913F01B0915E
:100FE00040013091360123E0230F2D3758F501964B
:100FF000A11DB11D2093360180933D0190933E01C8
:10100000A0933F01B0934001809137019091380146
:10101000A0913901B0913A010196A11DB11D8093B3
:10102000370190933801A0933901B0933A01BF91F1
:10103000AF919F918F913F912F910F900FBE0F9085
:101040001F90189526E8230F0296A11DB11DD2CF3F
:10105000CF93DF93E1E4F1E01382128288EE93E014
:10106000A0E0B0E084839583A683B78386E091E017
:101070009183808385EC90E09587848784EC90E071
:101080009787868780EC90E0918B808B81EC90E055
:10109000938B828B82EC90E0958B848B86EC90E036
:1010A000978B868B118E128E138E148EE5EFF1E0E6
:1010B00088E191E09183808384E0838314861586A0
:1010C00016861786108A118A128A138A148A158A3C
:1010D000168A178A80E090E0A0E8BFE3808F918FA6
:1010E000A28FB38F148E158E168E178E80A391A3A8
:1010F000A2A3B3A314A215A216A217A221E030E066
:1011000035A724A72FEF27A710A611A612A613A66E
:101110002BE0248329E025832AE0268328E0278307
:1011200016A614AA15AA16AA17AA10AE11AE12AEC8
:1011300013AE14AE15AE16AE17AE80933502909373
:101140003602A0933702B0933802128210861186BD
:1011500012861386CF010E94C70460E070E080E829
:101160009FE30E94F906EEEDF1E08CE390E09483BA
:10117000838384EF91E0968385839087878380E9DA
:1011800091E09287818713861486158616861786C6
:10119000108A118A128A138A8CE08283CFEDD1E003
:1011A00088818F7D886088830E94DA0688818B7EA3
:1011B0008D7F8883DF91CF910895789484B5826084
:1011C00084BD84B5816084BD85B5826085BD85B5EB
:1011D000816085BD80916E00816080936E00109269
:1011E00081008091810082608093810080918100E4
:1011F0008160809381008091800081608093800075
:101200008091B10084608093B1008091B0008160D2
:101210008093B00080917A00846080937A008091FE
:101220007A00826080937A0080917A008160809356
:101230007A0080917A00806880937A001092C100D1
:1012400020E030E046E154E460910D0270910E021E
:1012500080910F02909110020E94D70B882309F40D
:1012600051C080E090E0A6E1B4E480930D02909339
:101270000E02A0930F02B093100285E595E5A0ED54
:10128000B4E48093350290933602A0933702B09372
:1012900038028091290290912A02A0912B02B091EC
:1012A0002C02181619061A061B0664F5609109022D
:1012B00070910A0280910B0290910C029B01AC018B
:1012C0000E943B0D6B017C01609111027091120232
:1012D00080911302909114029B01AC010E946B0B50
:1012E0009B01AC01C701B6010E94DC0B0E944E0CB1
:1012F0006093290270932A0280932B0290932C0210
:101300000E948C0060E070E088E493E40E94F9069B
:1013100020E030E048E453E46091090270910A0251
:1013200080910B0290910C020E94D70B8823E9F167
:1013300080900D0290900E02A0900F02B0901002CB
:1013400075016401F7FAF094F7F8F09420E030E0CA
:1013500048E453ECC501B4010E94D70B87FD0CC0D3
:1013600020E030E048E453E4C501B4010E94D70B0B
:1013700087FF85C17501640120E030E0A901C70144
:10138000B6010E94D70B811180C1109219021092F0
:101390001A0210921B0210921C02C0920902D092F3
:1013A0000A02E0920B02F0920C02809105029091E9
:1013B0000602A0910702B0910802863F9740A1055E
:1013C000B10571F086EF97E0A0E0B0E080930502F0
:1013D00090930602A0930702B09308020E948C002B
:1013E0008CE291E09093E4018093E3018091DF012E
:1013F00088608093DF0185FF0E94DA068091DF011B
:101400008D7F80618093DF01E0915101F091520165
:1014100082E08083E0914D01F0914E011082E091D5
:101420004F01F09150018FEC808310925901E091AF
:101430005501F091560186E08083E0915301F091CF
:101440005401808180618083E0915301F0915401C7
:10145000808188608083E0915301F0915401808104
:1014600080688083E0915301F091540180818F7DE9
:10147000808311E0C0E0D0E08091DF0184FD0E9414
:1014800036028091DF0180FF08C08E7F8093DF01EC
:1014900080913C01812780933C018091DF0184FD94
:1014A0000E9436028091DE0183FF18C0877F8093FF
:1014B000DE0144E050E06EE271E081E491E00E94E0
:1014C000320342E050E063E371E081E491E00E9486
:1014D000320380913B01812780933B0180913C0145
:1014E000882309F4C1C0E0900001F090010126EFCB
:1014F00037E0D7010E94280E8090050290900602E6
:10150000A0900702B0900802681579058A059B052E
:1015100051F0609305027093060280930702909346
:1015200008020E948C0040910502509106026091D1
:101530000702709108028091010290910202A0912D
:101540000302B0910402481759076A077B0791F418
:1015500081E090E0EF2811F090E080E090930101AD
:101560008093000110923C0110923B0185EF91E0C5
:101570000E94FB048091190290911A02A0911B0213
:10158000B0911C02892B8A2B8B2B09F46DC03FB7BD
:10159000F8948091370190913801A0913901B09170
:1015A0003A0126B5A89B05C02F3F19F00196A11D51
:1015B000B11D3FBFBA2FA92F982F88276C017D013D
:1015C000C20ED11CE11CF11C42E0CC0CDD1CEE1C57
:1015D000FF1C4A95D1F780911D0290911E02A091A7
:1015E0001F02B0912002B701A601481B590B6A0BDC
:1015F0007B0B8091190290911A02A0911B02B0916D
:101600001C02481759076A077B0770F18091010295
:1016100090910202A0910302B09104022091F7017F
:10162000222309F453C00196A11DB11D809301022C
:1016300090930202A0930302B0930402409101022E
:1016400050910202609103027091040285EF91E0D3
:101650000E949A06C0921D02D0921E02E0921F02C2
:10166000F09220020E948C00209709F405CF0E947E
:101670009C03882309F400CF0E940000FDCEC12CFA
:10168000D12C58E4E52E53E4F52EA701960160E035
:1016900074E284E799E40E94DC0B9F770E94550C6A
:1016A0006093190270931A0280931B0290931C029C
:1016B000C1E020E030E0A901C701B6010E94360D6B
:1016C00018160CF0C0E0C093F70167CE0197A1098E
:1016D000B109ACCF5058BB27AA270E94820B0C94AB
:1016E000FC0C0E94EE0C38F00E94F50C20F039F44E
:1016F0009F3F19F426F40C94EB0C0EF4E095E7FBF5
:101700000C94E50CE92F0E940D0D58F3BA176207EF
:1017100073078407950720F079F4A6F50C942F0D34
:101720000EF4E0950B2EBA2FA02D0B01B9019001FC
:101730000C01CA01A0011124FF27591B99F0593F40
:1017400050F4503E68F11A16F040A22F232F342F88
:101750004427585FF3CF469537952795A795F040D6
:101760005395C9F77EF41F16BA0B620B730B840BEB
:10177000BAF09150A1F0FF0FBB1F661F771F881FA3
:10178000C2F70EC0BA0F621F731F841F48F48795FB
:1017900077956795B795F7959E3F08F0B0CF9395ED
:1017A000880F08F09927EE0F9795879508950E9466
:1017B000C10C08F481E008950E94F00B0C94FC0C1D
:1017C0000E94F50C58F00E94EE0C40F029F45F3FA7
:1017D00029F00C94E50C51110C94300D0C94EB0C89
:1017E0000E940D0D68F39923B1F3552391F3951BD6
:1017F000550BBB27AA2762177307840738F09F5F32
:101800005F4F220F331F441FAA1FA9F335D00E2E9E
:101810003AF0E0E832D091505040E695001CCAF70B
:101820002BD0FE2F29D0660F771F881FBB1F2617CE
:1018300037074807AB07B0E809F0BB0B802DBF01A5
:10184000FF2793585F4F3AF09E3F510578F00C9474
:10185000E50C0C94300D5F3FE4F3983ED4F386958D
:1018600077956795B795F7959F5FC9F7880F911D95
:101870009695879597F90895E1E0660F771F881F81
:10188000BB1F621773078407BA0720F0621B730B34
:10189000840BBA0BEE1F88F7E09508950E94550C53
:1018A0006894B1110C94300D08950E94150D88F0C4
:1018B0009F5798F0B92F9927B751B0F0E1F0660F14
:1018C000771F881F991F1AF0BA95C9F714C0B13055
:1018D00091F00E942F0DB1E008950C942F0D672F09
:1018E000782F8827B85F39F0B93FCCF38695779584
:1018F0006795B395D9F73EF490958095709561956D
:101900007F4F8F4F9F4F0895E89409C097FB3EF497
:1019100090958095709561957F4F8F4F9F4F99233C
:10192000A9F0F92F96E9BB279395F69587957795BA
:101930006795B795F111F8CFFAF4BB0F11F460FF7A
:101940001BC06F5F7F4F8F4F9F4F16C0882311F0D2
:1019500096E911C0772321F09EE8872F762F05C0E6
:10196000662371F096E8862F70E060E02AF09A9581
:10197000660F771F881FDAF7880F9695879597F976
:101980000895990F0008550FAA0BE0E8FEEF161610
:101990001706E807F907C0F012161306E407F50763
:1019A00098F0621B730B840B950B39F40A2661F0D7
:1019B000232B242B252B21F408950A2609F4A1407A
:1019C000A6958FEF811D811D089597F99F6780E887
:1019D00070E060E008959FEF80EC089500240A9481
:1019E0001616170618060906089500240A941216FA
:1019F0001306140605060895092E0394000C11F42D
:101A0000882352F0BB0F40F4BF2B11F460FF04C0D9
:101A10006F5F7F4F8F4F9F4F089557FD9058440F32
:101A2000551F59F05F3F71F04795880F97FB991F3D
:101A300061F09F3F79F087950895121613061406FA
:101A4000551FF2CF4695F1DF08C016161706180687
:101A5000991FF1CF86957105610508940895E89462
:101A6000BB2766277727CB0197F908950E94C10C01
:101A700008F48FEF08950E944E0D0C94FC0C0E9408
:101A8000EE0C38F00E94F50C20F0952311F00C9428
:101A9000E50C0C94EB0C11240C94300D0E940D0DF0
:101AA00070F3959FC1F3950F50E0551F629FF001B1
:101AB000729FBB27F00DB11D639FAA27F00DB11DCA
:101AC000AA1F649F6627B00DA11D661F829F222753
:101AD000B00DA11D621F739FB00DA11D621F839FDA
:101AE000A00D611D221F749F3327A00D611D231FB0
:101AF000849F600D211D822F762F6A2F11249F57FE
:101B000050409AF0F1F088234AF0EE0FFF1FBB1F00
:101B1000661F771F881F91505040A9F79E3F5105BF
:101B200080F00C94E50C0C94300D5F3FE4F3983E8C
:101B3000D4F3869577956795B795F795E7959F5F69
:101B4000C1F7FE2B880F911D9695879597F90895FB
:101B500019F416F40C94EB0C0C94EE0D0E94150D78
:101B6000B8F39923C9F3B6F39F57550B87FF0E942B
:101B7000FC0D0024A0E640EA900180585695979508
:101B800028F4805C660F771F881F20F02617370720
:101B9000480730F4621B730B840B202931294A2B30
:101BA000A69517940794202531254A2758F7660FE4
:101BB000771F881F20F026173707480730F4620B7D
:101BC000730B840B200D311D411DA09581F7B901C8
:101BD000842F9158880F9695879508959F3F31F0EF
:101BE000915020F4879577956795B795880F911D4B
:101BF0009695879597F9089591505040660F771FF5
:101C0000881FD2F70895052E97FB1EF400940E94BA
:101C10001A0E57FD07D00E942F0E07FC03D04EF47A
:101C20000C941A0E50954095309521953F4F4F4F8B
:101C30005F4F089590958095709561957F4F8F4F78
:101C40009F4F0895EE0FFF1F0590F491E02D09942A
:101C50000E94510EB7FF0895821B930B0895A1E2D5
:101C60001A2EAA1BBB1BFD010DC0AA1FBB1FEE1F16
:101C7000FF1FA217B307E407F50720F0A21BB30B61
:101C8000E40BF50B661F771F881F991F1A9469F7DD
:101C900060957095809590959B01AC01BD01CF0139
:101CA0000895A29FB001B39FC001A39F700D811D35
:101CB0001124911DB29F700D811D1124911D089555
:041CC000F894FFCFC6
:101CC400010000000000D20332035F031F049003ED
:101CD4006E03820300000000FB04C7045C069A063E
:101CE40046061406F305BF059E0548051905484F29
:061CF4004C44000D0A0043
:107E0000112484B714BE81FFF0D085E080938100F7
:107E100082E08093C00088E18093C10086E0809377
:107E2000C20080E18093C4008EE0C9D0259A86E02C
:107E300020E33CEF91E0309385002093840096BBD3
:107E4000B09BFECF1D9AA8958150A9F7CC24DD24C4
:107E500088248394B5E0AB2EA1E19A2EF3E0BF2EE7
:107E6000A2D0813461F49FD0082FAFD0023811F036
:107E7000013811F484E001C083E08DD089C08234E0
:107E800011F484E103C0853419F485E0A6D080C0E4
:107E9000853579F488D0E82EFF2485D0082F10E0AE
:107EA000102F00270E291F29000F111F8ED06801E7
:107EB0006FC0863521F484E090D080E0DECF843638
:107EC00009F040C070D06FD0082F6DD080E0C81688
:107ED00080E7D80618F4F601B7BEE895C0E0D1E017
:107EE00062D089930C17E1F7F0E0CF16F0E7DF06D8
:107EF00018F0F601B7BEE89568D007B600FCFDCFD4
:107F0000A601A0E0B1E02C9130E011968C91119780
:107F100090E0982F8827822B932B1296FA010C0160
:107F200087BEE89511244E5F5F4FF1E0A038BF0790
:107F300051F7F601A7BEE89507B600FCFDCF97BE46
:107F4000E89526C08437B1F42ED02DD0F82E2BD052
:107F50003CD0F601EF2C8F010F5F1F4F84911BD097
:107F6000EA94F801C1F70894C11CD11CFA94CF0C13
:107F7000D11C0EC0853739F428D08EE10CD085E9AC
:107F80000AD08FE07ACF813511F488E018D01DD067
:107F900080E101D065CF982F8091C00085FFFCCF94
:107FA0009093C60008958091C00087FFFCCF809118
:107FB000C00084FD01C0A8958091C6000895E0E648
:107FC000F0E098E1908380830895EDDF803219F02E
:107FD00088E0F5DFFFCF84E1DECF1F93182FE3DFCA
:107FE0001150E9F7F2DF1F91089580E0E8DFEE27F6
:047FF000FF270994CA
:027FFE00040479
:0400000300007E007B
:00000001FF
