:100000000C9462000C948A000C948A000C948A0070
:100010000C948A000C948A000C948A000C948A0038
:100020000C948A000C948A000C948A000C948A0028
:100030000C948A000C948A000C948A000C948A0018
:100040000C94F1090C948A000C94BF090C94990942
:100050000C948A000C948A000C948A000C948A00F8
:100060000C948A000C948A00000000080002010031
:100070000003040700000000000000000000000072
:1000800023002600290001020408102040800102FC
:1000900004081020010204081020000000002400C1
:1000A00027002A0000000000250028002B0004047F
:1000B0000404040404040202020202020303030310
:1000C00003033B0A11241FBECFEFD8E0DEBFCDBF34
:1000D00011E0A0E0B1E0E4EAFDE102C005900D927C
:1000E000AE31B107D9F722E0AEE1B1E001C01D9217
:1000F000AE32B207E1F710E0C2E6D0E004C02197CB
:10010000FE010E94CA0EC136D107C9F70E940E0B2C
:100110000C94D00E0C940000CF93DF93062E000CAD
:10012000770B9B0122553F4FF9014491E42FF0E0FA
:10013000EE0FFF1FEC55FF4F45915491DC01AA0FC4
:10014000BB1FAA53BE4FDE965C934E93DD97F90119
:100150002491E22FF0E0EE0FFF1FE656FF4FC5910E
:10016000D491AB5BBF4FCD93DC936A577F4FFB01BC
:100170006491FC01ED5EFD4F608380819881892B45
:100180008883DF91CF910895CF92DF92EF92FF9213
:100190009093F8018093F7016C01990FEE08FF0826
:1001A0008091010290910202892B71F58091FB01EF
:1001B0009091FC01892B41F560E472E48FE090E0BE
:1001C000A70196010E94290C2093C6013093C70114
:1001D0004093C8015093C9014091EB015091EC014B
:1001E0006091ED017091EE018091E7019091E8013D
:1001F000A091E901B091EA0184179507A607B70716
:100200002CF581E08093F001A7019601285E334030
:1002100041095109A0E5B9EC0E94560C28E33AE4E3
:1002200040E050E00E94290C2856354C4F4F5F4F5C
:1002300028393A436CF488E99AE39093CF0180938C
:10024000CE01FF90EF90DF90CF9008958FEFDACF3F
:1002500088EE93E0F2CFFC01ED5EFD4F2081880F28
:10026000991FFC01EA53FE4F05ACF6ADE02D9081DD
:10027000822F80958923808308958091EF01837078
:10028000823069F1833009F445C08130D1F080912A
:100290001302E0910302F09104029081892B808384
:1002A00081E090E00E942B0180911502E09107020D
:1002B000F09108029081892B808383E090E00C9478
:1002C0002B0190E080E00E942B0180911402E091CC
:1002D0000502F09106029081892B8083E5CF90E0A2
:1002E00080E00E942B0180911402E0910502F091C0
:1002F00006029081892B808382E090E00E942B018E
:1003000080911602E0910902F0910A029081892BF6
:100310008083089580911302E0910302F09104021A
:100320009081892B808381E090E00E942B01E4CFB3
:10033000CF92DF92EF92FF920F931F93809118025A
:1003400082FD18C085FD16C0E0912B02F0912C02B1
:10035000208130912D0281FB992790F983FB88271A
:1003600080F98927922F932321E009F020E082274A
:10037000809329028FB7F89440912501509126016E
:1003800060912701709128018FBF909129022091DF
:100390002A0280911702992309F491C021118FC07C
:1003A00080FD6BC0816080931702409325025093BB
:1003B0002602609327027093280280912A028823E4
:1003C00089F1992379F180911C0290911D02B0E08E
:1003D000A0E0009125021091260220912702309181
:1003E00028026A017B01C01AD10AE20AF30A9701C6
:1003F0008601081719072A073B07A0F0809117020A
:1004000081FD10C090912202909324028A648F771C
:10041000809317024093250250932602609327028F
:10042000709328028091250290912602A0912702C4
:10043000B0912802481B590B6A0B7B0B80911E025E
:1004400090911F02B0E0A0E0481759076A077B07A8
:1004500068F080912202882349F080932302109251
:100460002202809117028460809317021F910F91DE
:10047000FF90EF90DF90CF900895009125021091AA
:10048000260220912702309128026A017B01C01ABE
:10049000D10AE20AF30A00911A0210911B0230E01D
:1004A00020E0C016D106E206F30608F4BBCF21E037
:1004B00020932A0280628068809317027ECF8E7F0D
:1004C00080931702911179CF222309F4ABCF1092B8
:1004D0002A0281FD05C0809122028F5F8093220253
:1004E000809117028D7F80618093170240932502CF
:1004F00050932602609327027093280286FF07C05C
:1005000010922302109222028F7B80931702809117
:10051000170287FF87CF8F77809317028091180289
:1005200081608093180249CFAF92BF92CF92DF9241
:10053000EF92FF920F931F93CF93DF936C017B0198
:100540008B01040F151FEB015E01AE18BF08C01729
:10055000D10759F06991D601ED91FC910190F0819C
:10056000E02DC6010995892B79F7C501DF91CF915F
:100570001F910F91FF90EF90DF90CF90BF90AF90C1
:100580000895FC01538D448D252F30E0842F90E099
:10059000821B930B541710F0CF960895019708957E
:1005A000FC01918D828D981761F0A28DAE0FBF2F47
:1005B000B11D5D968C91928D9F5F9F73928F90E09D
:1005C00008958FEF9FEF0895FC01918D828D98170C
:1005D00031F0828DE80FF11D858D90E008958FEF49
:1005E0009FEF0895FC01918D228D892F90E0805C12
:1005F0009F4F821B91098F739927089589E291E09B
:100600000E94F20221E0892B09F420E0822F089554
:1006100080E090E0892B29F00E94FE0281110C9469
:1006200000000895FC01A48DA80FB92FB11DA35A95
:10063000BF4F2C91848D90E001968F739927848F02
:10064000A689B7892C93A089B1898C918370806425
:100650008C93938D848D981306C00288F389E02DC6
:1006600080818F7D80830895EF92FF920F931F9377
:10067000CF93DF93EC0181E0888F9B8D8C8D981355
:100680001AC0E889F989808185FF15C09FB7F89461
:10069000EE89FF896083E889F989808183708064AD
:1006A00080839FBF81E090E0DF91CF911F910F91F8
:1006B000FF90EF900895F62E0B8D10E00F5F1F4F07
:1006C0000F731127E02E8C8D8E110CC00FB607FC16
:1006D000FACFE889F989808185FFF5CFCE010E94A4
:1006E0001203F1CFEB8DEC0FFD2FF11DE35AFF4FFD
:1006F000F0829FB7F8940B8FEA89FB898081806232
:10070000CFCFCF93DF93EC01888D8823B9F0AA89EE
:10071000BB89E889F9898C9185FD03C0808186FDBC
:100720000DC00FB607FCF7CF8C9185FFF2CF80810B
:1007300085FFEDCFCE010E941203E9CFDF91CF916B
:10074000089590E0FC01E859FF4F2491FC01EA571D
:10075000FF4F3491FC01E255FF4FE491EE23C9F0C5
:10076000222339F0233001F1A8F4213019F122308D
:1007700029F1F0E0EE0FFF1FEC55FF4FA591B4916A
:100780008FB7F894EC91611126C030953E233C93CD
:100790008FBF08952730A9F02830C9F0243049F7D9
:1007A000809180008F7D03C0809180008F7780933F
:1007B0008000DFCF84B58F7784BDDBCF84B58F7D9C
:1007C000FBCF8091B0008F778093B000D2CF809123
:1007D000B0008F7DF9CF3E2BDACF81E08093F3011B
:1007E0000E943D018091DE018F3F21F06091F20176
:1007F0000C94A10308958091010290910202892B2B
:10080000A1F58091FB019091FC01892B71F520915C
:10081000F7013091F801032E000C440B550B60E4F6
:1008200072E48FE090E00E94290C2093C60130937F
:10083000C7014093C8015093C9014091EB01509109
:10084000EC016091ED017091EE018091E7019091D2
:10085000E801A091E901B091EA0184179507A60784
:10086000B70764F08FEF8093F00181E08093F4018B
:100870008091F301811104C00C94ED0381E0F3CF6A
:1008800008958091F4018823B1F11092F4018091D0
:10089000F5018823E1F01092F30190E080E00E94DE
:1008A0002B0181E090E00E942B0182E090E00E9409
:1008B0002B0183E090E00E942B018091DE018F3FAD
:1008C00031F06091F20191E069270E94A10310923A
:1008D000E3011092E4011092E5011092E60180E537
:1008E00093ECA0E0B0E08093C6019093C701A09381
:1008F000C801B093C90108953FB7F89480911F01D2
:1009000090912001A0912101B091220126B5A89BD0
:1009100005C02F3F19F00196A11DB11D3FBFBA2F91
:10092000A92F982F8827BC01CD01620F711D811D51
:10093000911D42E0660F771F881F991F4A95D1F7D6
:100940000895CF93DF938091190290E0FC01EA575C
:10095000FF4F249182559F4FFC0184918823C1F061
:1009600090E0880F991FFC01E656FF4FC591D49186
:10097000FC01EC55FF4FA591B4919FB7F894888185
:10098000E22FE0958E2388838C91E823EC939FBF20
:100990008091190290E0FC01E255FF4FE491F0E0F4
:1009A000EE0FFF1FE458FF4F2591349130932C0236
:1009B00020932B02FC01EA57FF4FE491E0932D02B4
:1009C000DF91CF910895FC0101900020E9F7319764
:1009D000AF01481B590BBC0189E291E00C949402D1
:1009E0008F929F92AF92BF92CF92DF92EF92FF923F
:1009F0000F931F93CF93DF93CDB7DEB7A1970FB6B9
:100A0000F894DEBF0FBECDBF6B017C01F7FE47C07F
:100A10006DE289E291E00E9434038C0122273327A2
:100A2000A9012C193D094E095F0919A2CE01819631
:100A30007C019AE0892E912CA12CB12CCA01B9011C
:100A4000A50194010E945B0C605DF70162937F0138
:100A5000211531054105510589F790E080E0309777
:100A600019F0CF010E94E304080F191F82E191E001
:100A70000E94E304800F911FA1960FB6F894DEBF89
:100A80000FBECDBFDF91CF911F910F91FF90EF90DF
:100A9000DF90CF90BF90AF909F908F900895AC0162
:100AA0009B0119A28E010F5D1F4F8AE0C82ED12C29
:100AB000E12CF12CCA01B901A70196010E945B0C3F
:100AC000605DF80162938F012115310541055105E3
:100AD00089F7309729F0CF010E94E3048C01C6CF3B
:100AE00010E000E0C3CF2F923F924F925F926F923F
:100AF0007F928F929F92AF92BF92CF92DF92EF92AE
:100B0000FF92CF93DF9300D000D0CDB7DEB76B015B
:100B10007C01C092EB01D092EC01E092ED01F092E9
:100B2000EE018091E7019091E801A091E901B09177
:100B3000EA01C816D906EA06FB0611F00E94FB037B
:100B40008091F4014091E7015091E8016091E90141
:100B50007091EA01C416D506E606F70609F4ECC260
:100B6000882309F439C18091010290910202892BF6
:100B700009F032C18091FB019091FC01892B09F4AD
:100B80002BC10E947C04C090CA01D090CB01E090A0
:100B9000CC01F090CD01AB01BC014C195D096E098F
:100BA0007F098091CE019091CF01092E000CAA0BF4
:100BB000BB0B481759076A077B0708F40DC10E9451
:100BC0007C046093CA017093CB018093CC01909315
:100BD000CD018090EB019090EC01A090ED01B090E0
:100BE000EE018091E7019091E801A091E901B091B7
:100BF000EA01881A990AAA0ABB0AC090E301D090B8
:100C0000E401E090E501F090E6016091CE01709181
:100C1000CF01072E000C880B990B0E94A80D209184
:100C2000D0013091D1014091D2015091D3010E9465
:100C30005D0E69837A838B839C83A7019601C7012C
:100C4000B6010E945D0E2091FD013091FE014091A0
:100C5000FF01509100020E945D0E2B013C01C50175
:100C6000B401B7FE07C066277727CB016819790959
:100C70008A099B090E94A80D9B01AC01C301B20126
:100C80000E94580E87FD0EC020E030E0A901C70188
:100C9000B6010E94580E87FD07C020E030E040E812
:100CA0005FEB06C0B7FCF9CF20E030E040E85FE33F
:100CB00069817A818B819C810E945D0EA7019601DA
:100CC0000E948D0C3B014C01A090F701B090F801FF
:100CD000662777276A197B09072E000C880B990B6A
:100CE0000E94A80D6B017C019B01AC01B301C40102
:100CF0000E94F90C87FD12C0B501BB0C880B990B43
:100D00000E94A80D6B017C019B01AC01B301C401E1
:100D10000E94580E181614F063017401C601D70121
:100D20008093E3019093E401A093E501B093E60181
:100D300020E030E0A901B601C7010E94580E181644
:100D4000BCF420E030E040EA51E4B601C7010E9463
:100D5000580E1816BCF080E593ECA0E0B0E080934C
:100D6000C6019093C701A093C801B093C90128C0E0
:100D700020E030E040EA51ECB601C7010E94F90CD6
:100D800087FFE9CF9601A70160E074E284E799E468
:100D90000E94FE0C4B015C0120E030E0A9010E94A2
:100DA000580E18160CF0E1C0C501B4010E94770D71
:100DB0006093C6017093C7018093C8019093C901E5
:100DC00020E030E0A901B601C7010E94580E87FD5E
:100DD000D0C081E08093F0018091F601882309F46E
:100DE000E9C08091010290910202892B09F4E2C0CE
:100DF0000E947C04C090D601D090D701E090D80129
:100E0000F090D901AB01BC014C195D096E097F0955
:100E10008091D4019091D501092E000CAA0BBB0B37
:100E2000481759076A077B0708F4C4C00E947C046E
:100E30006093D6017093D7018093D8019093D90124
:100E40006090F9017090FA01B301072C000C880B37
:100E5000990B0E94A80D6B017C018090E30190909A
:100E6000E401A090E501B090E601A50194010E9483
:100E70008C0C20E030E0A9010E94580E87FD7BC059
:100E800021E029836091D4017091D501072E000CD7
:100E9000880B990B0E94A80D2091D0013091D101AF
:100EA0004091D2015091D3010E945D0E1B012C0193
:100EB0002981622F220F770B880B990B0E94A80DB6
:100EC0009B01AC01C201B1010E945D0EA50194011C
:100ED0000E948D0C4B015C018092E3019092E40131
:100EE000A092E501B092E60120E030E0A9010E9465
:100EF000580E87FD43C081E08093F00189818130E5
:100F000009F03EC0A5019401C701B6010E94F90C89
:100F100018160CF040C0C090E301D090E401E090BE
:100F2000E501F090E60120E030E0A901C701B6013B
:100F30000E94580E18160CF0B2C020E030E040EAD3
:100F400051E4C701B6010E94580E18160CF4B1C046
:100F500080E593ECA0E0B0E08093C6019093C701D8
:100F6000A093C801B093C90125C0C501B401905830
:100F70001DCF8FEF2FCF8FEF898384CF8FEFBCCF23
:100F800029812F3F41F6A5019401C701B6010E94B6
:100F9000580E87FDC0CFC092E301D092E401E092E9
:100FA000E501F092E6011092F601672809F0B3CF4F
:100FB0000E9441048091F401882309F444C00E94F6
:100FC0007C04C090DF01D090E001E090E101F0905E
:100FD000E2016C197D098E099F09C090C601D0906D
:100FE000C701E090C801F090C9016C157D058E0520
:100FF0009F0548F10E947C046093DF017093E0013B
:101000008093E1019093E2018091010290910202AC
:101010004091E7015091E8016091E9017091EA0186
:10102000892B09F068C08091EB019091EC01A091AF
:10103000ED01B091EE0184179507A607B70709F0F7
:101040005AC00E9441046091E7017091E8018091CB
:10105000E9019091EA010E94F00485E191E00E948B
:10106000E3046091EB017091EC018091ED019091AE
:10107000EE010F900F900F900F90DF91CF91FF90A6
:10108000EF90DF90CF90BF90AF909F908F907F9028
:101090006F905F904F903F902F900C94F00420E061
:1010A00030E040EA51ECC701B6010E94F90C87FF1D
:1010B0004FCFA701960160E074E284E799E40E94B3
:1010C000FE0C6B017C0120E030E0A9010E94580E6B
:1010D00018166CF4C701B6010E94770D6093C60123
:1010E0007093C7018093C8019093C90163CFC70172
:1010F000B6019058F1CF8091F001C82E082E000C57
:10110000DD08EE08FF084C0D5D1D6E1D7F1D409330
:10111000E7015093E8016093E9017093EA0190912F
:10112000EF012091F101211101C08195890F809378
:10113000EF010E943D0187CF882309F477C0809199
:10114000010290910202892B09F0A3C06091F00185
:10115000062E000C770B880B990B0E94A80D4B01F3
:101160005C016091C6017091C7018091C8019091A6
:10117000C9010E94A60D9B01AC0160E074E284E706
:1011800099E40E94FE0CA50194010E945D0E6093FB
:10119000E3017093E4018093E5019093E6019B01E4
:1011A000AC010E945D0E2091FD013091FE01409145
:1011B000FF01509100020E945D0EA50194010E9462
:1011C0005D0E4B015C01C701B6010E94A80D9B0199
:1011D000AC01C501B4010E948D0C0E94700D60939A
:1011E000EB017093EC018093ED019093EE01C61634
:1011F000D706E806F90611F00E94FB03C090E30150
:10120000D090E401E090E501F090E60120E030E0CC
:10121000A901C701B6010E94580E1816B4F5C701FE
:10122000B6010E94700DCB010E94C4000E944104CF
:101230001092E7011092E8011092E9011092EA0180
:101240001092E3011092E4011092E5011092E60180
:10125000109224018091230191E08927809323013A
:101260000F900F900F900F90DF91CF91FF90EF9024
:10127000DF90CF90BF90AF909F908F907F906F90B6
:101280005F904F903F902F900895C701B6019058FE
:10129000C8CF1092FA011092F901C090E301D090EA
:1012A000E401E090E501F090E60120E030E0A901E2
:1012B000C701B6010E94F90C882309F4B7CF81E079
:1012C0008093F601C701B6010E94700D9B0177FF64
:1012D00004C022273327261B370B032E000C440B98
:1012E000550B285E334041095109A0E5B9EC0E9435
:1012F000560C28E33AE440E050E00E94290C2856BE
:10130000354C4F4F5F4F28393A4384F488E99AE3CC
:101310009093D5018093D40181E08093F401809172
:10132000F301811183CF0E94ED0380CF88EE93E01B
:10133000EFCF1F920F920FB60F9211242F933F936E
:101340004F935F936F937F938F939F93AF93BF93CD
:10135000EF93FF9389E291E00E941203FF91EF91D6
:10136000BF91AF919F918F917F916F915F914F91BD
:101370003F912F910F900FBE0F901F9018951F92C5
:101380000F920FB60F9211242F938F939F93EF9389
:10139000FF93E0913901F0913A018081E0913F01A2
:1013A000F091400182FD1BC09081809142018F5FCE
:1013B0008F7320914301821741F0E0914201F0E0E8
:1013C000E75DFE4F958F80934201FF91EF919F91D2
:1013D0008F912F910F900FBE0F901F9018958081C5
:1013E000F4CF1F920F920FB60F9211242F933F93B9
:1013F0008F939F93AF93BF93809125019091260186
:10140000A0912701B091280130911E0123E0230F04
:101410002D3758F50196A11DB11D20931E01809313
:10142000250190932601A0932701B0932801809174
:101430001F0190912001A0912101B09122010196FC
:10144000A11DB11D80931F0190932001A093210144
:10145000B0932201BF91AF919F918F913F912F91B6
:101460000F900FBE0F901F90189526E8230F02963D
:10147000A11DB11DD2CF0F931F93CF93DF93E9E24C
:10148000F1E01382128288EE93E0A0E0B0E0848362
:101490009583A683B78384E091E09183808385EC74
:1014A00090E09587848784EC90E09787868780EC2E
:1014B00090E0918B808B81EC90E0938B828B82EC1F
:1014C00090E0958B848B86EC90E0978B868B118EC9
:1014D000128E138E148EE7E1F2E08CE390E0948399
:1014E000838384EF91E0968385839087878380E967
:1014F00091E0928781871386148615861686178653
:10150000108A118A128A138A8CE08283C8E1D2E0A1
:1015100088818F7D886088830E94A10488818B7E6A
:101520008D7F8883C6ECD1E080E197E2A0E0B0E057
:1015300088839983AA83BB831C821D821E821F829B
:1015400088E99AE3998788871A861B861C861D86F8
:101550009F878E87188A198A1A8A1B8A81E69BE0E0
:10156000A6E3BBE38C8B9D8BAE8BBF8B8FEF888FFD
:10157000198E1A8E1B8E1C8E1D8E1E8E1F8E18A20B
:1015800019A21AA21BA21CA21DA21EA21FA218A66B
:1015900019A681E08AA71BA61CA61DA61EA61FA62B
:1015A00018AA0CE211E01AAB09AB1CAA1BAA1EAACE
:1015B0001DAA1FAA18AE19AE1AAE1CAE1BAE68E06B
:1015C00090E080E00E948C006AE081E090E00E9460
:1015D0008C0069E082E090E00E948C006BE083E088
:1015E00090E00E948C008CE291E00E94C4001EAB4F
:1015F0000DAB8EE094E7AAEDBAE38FAB98AFA9AF3D
:10160000BAAF82E599E4ADE9B9E38A879B87AC87F5
:10161000BD87DF91CF911F910F910895789484B584
:10162000826084BD84B5816084BD85B5826085BDDE
:1016300085B5816085BD80916E00816080936E006C
:10164000109281008091810082608093810080915E
:10165000810081608093810080918000816080930F
:1016600080008091B10084608093B1008091B000CF
:1016700081608093B00080917A00846080937A00CA
:1016800080917A00826080937A0080917A008160F4
:1016900080937A0080917A00806880937A0010921B
:1016A000C10084E190E00E94C40084E190E0909346
:1016B000FC018093FB014DEC5CEC6CEC7CE3409313
:1016C000FD015093FE016093FF01709300024CEA0C
:1016D00055EC67EA77E34093D0015093D1016093D2
:1016E000D2017093D3019093FA018093F90180E0C5
:1016F00090E0A0EAB1E48093E3019093E401A09329
:10170000E501B093E60180E593ECA0E0B0E08093C2
:10171000C6019093C701A093C801B093C90181E0AD
:101720008093F0018093F4018091F301811102C054
:101730000E94ED0310920202109201021092F60133
:1017400081E08093F50184EF91E090931D028093F6
:101750001C028091180288608093180285FF0E9405
:10176000A104809118028D7F806180931802E0911E
:101770003901F0913A0182E08083E0913501F091E6
:1017800036011082E0913701F09138018FEC8083AF
:1017900010924101E0913D01F0913E0186E080838D
:1017A000E0913B01F0913C01808180618083E09178
:1017B0003B01F0913C01808188608083E0913B0196
:1017C000F0913C01808180688083E0913B01F09141
:1017D0003C0180818F7D808311E0C0E0D0E080916A
:1017E000180284FD0E9498018091180280FF09C0B0
:1017F000909124018E7F80931802892F81278093F6
:10180000240180912401882351F0809123018111CA
:101810001BC068E270E080E090E00E947305809158
:10182000180284FD0E9498018091170283FF03C073
:10183000877F80931702209791F20E94FE028823EF
:1018400071F20E940000CBCF68ED7FEF8FEF9FEF2A
:10185000E4CF052E97FB1EF400940E94400C57FD28
:1018600007D00E945B0C07FC03D04EF40C94400C94
:1018700050954095309521953F4F4F4F5F4F0895BC
:1018800090958095709561957F4F8F4F9F4F0895EC
:101890000E947D0CA59F900DB49F900DA49F800D7C
:1018A000911D11240895B7FF0C94480C0E94480C18
:1018B000821B930B0895A1E21A2EAA1BBB1BFD01EC
:1018C0000DC0AA1FBB1FEE1FFF1FA217B307E4071F
:1018D000F50720F0A21BB30BE40BF50B661F771F77
:1018E000881F991F1A9469F7609570958095909557
:1018F0009B01AC01BD01CF010895A29FB001B39F30
:10190000C001A39F700D811D1124911DB29F700D08
:10191000811D1124911D08955058BB27AA270E94AC
:10192000A40C0C941E0E0E94100E38F00E94170E8C
:1019300020F039F49F3F19F426F40C940D0E0EF4A8
:10194000E095E7FB0C94070EE92F0E942F0E58F349
:10195000BA17620773078407950720F079F4A6F594
:101960000C94510E0EF4E0950B2EBA2FA02D0B0106
:10197000B90190010C01CA01A0011124FF27591BD4
:1019800099F0593F50F4503E68F11A16F040A22FDA
:10199000232F342F4427585FF3CF4695379527954B
:1019A000A795F0405395C9F77EF41F16BA0B620B4A
:1019B000730B840BBAF09150A1F0FF0FBB1F661F91
:1019C000771F881FC2F70EC0BA0F621F731F841FD4
:1019D00048F4879577956795B795F7959E3F08F0FA
:1019E000B0CF9395880F08F09927EE0F97958795BC
:1019F00008950E94E30D08F481E008950E94120DFD
:101A00000C941E0E0E94170E58F00E94100E40F00B
:101A100029F45F3F29F00C94070E51110C94520EDB
:101A20000C940D0E0E942F0E68F39923B1F35523E9
:101A300091F3951B550BBB27AA27621773078407E1
:101A400038F09F5F5F4F220F331F441FAA1FA9F377
:101A500035D00E2E3AF0E0E832D091505040E69565
:101A6000001CCAF72BD0FE2F29D0660F771F881FC6
:101A7000BB1F261737074807AB07B0E809F0BB0BB9
:101A8000802DBF01FF2793585F4F3AF09E3F5105CD
:101A900078F00C94070E0C94520E5F3FE4F3983EDE
:101AA000D4F3869577956795B795F7959F5FC9F7B6
:101AB000880F911D9695879597F90895E1E0660F37
:101AC000771F881FBB1F621773078407BA0720F0B0
:101AD000621B730B840BBA0BEE1F88F7E095089519
:101AE0000E94770D6894B1110C94520E08950E94D3
:101AF000370E88F09F5798F0B92F9927B751B0F05B
:101B0000E1F0660F771F881F991F1AF0BA95C9F781
:101B100014C0B13091F00E94510EB1E008950C94C0
:101B2000510E672F782F8827B85F39F0B93FCCF373
:101B3000869577956795B395D9F73EF490958095FE
:101B4000709561957F4F8F4F9F4F0895E89409C01E
:101B500097FB3EF490958095709561957F4F8F4FE0
:101B60009F4F9923A9F0F92F96E9BB279395F695F6
:101B7000879577956795B795F111F8CFFAF4BB0F74
:101B800011F460FF1BC06F5F7F4F8F4F9F4F16C0D8
:101B9000882311F096E911C0772321F09EE8872F62
:101BA000762F05C0662371F096E8862F70E060E01E
:101BB0002AF09A95660F771F881FDAF7880F969597
:101BC000879597F90895990F0008550FAA0BE0E83B
:101BD000FEEF16161706E807F907C0F012161306EF
:101BE000E407F50798F0621B730B840B950B39F42F
:101BF0000A2661F0232B242B252B21F408950A2695
:101C000009F4A140A6958FEF811D811D089597F9D4
:101C10009F6780E870E060E008959FEF80EC089592
:101C200000240A94161617061806090608950024BB
:101C30000A9412161306140605060895092E039435
:101C4000000C11F4882352F0BB0F40F4BF2B11F4A9
:101C500060FF04C06F5F7F4F8F4F9F4F089557FD08
:101C60009058440F551F59F05F3F71F04795880F0A
:101C700097FB991F61F09F3F79F0879508951216A1
:101C800013061406551FF2CF4695F1DF08C016164D
:101C900017061806991FF1CF8695710561050894FE
:101CA0000895E894BB2766277727CB0197F9089515
:101CB0000E94E30D08F48FEF08950E94700E0C94BB
:101CC0001E0E0E94100E38F00E94170E20F0952371
:101CD00011F00C94070E0C940D0E11240C94520E5E
:101CE0000E942F0E70F3959FC1F3950F50E0551F82
:101CF000629FF001729FBB27F00DB11D639FAA2761
:101D0000F00DB11DAA1F649F6627B00DA11D661FAF
:101D1000829F2227B00DA11D621F739FB00DA11DD0
:101D2000621F839FA00D611D221F749F3327A00D8A
:101D3000611D231F849F600D211D822F762F6A2F26
:101D400011249F5750409AF0F1F088234AF0EE0F8B
:101D5000FF1FBB1F661F771F881F91505040A9F7B8
:101D60009E3F510580F00C94070E0C94520E5F3F7D
:101D7000E4F3983ED4F3869577956795B795F795F4
:101D8000E7959F5FC1F7FE2B880F911D969587956C
:101D900097F90895EE0FFF1F0590F491E02D099437
:041DA000F894FFCFE5
:101DA4000000000034039402C1028103F202D00255
:0E1DB400E4020D0A005461726765743A200063
:00000001FF
