:020000040000FA
:100000000C9462000C948A000C948A000C948A0070
:100010000C948A000C948A000C948A000C948A0038
:100020000C948A000C948A000C948A000C948A0028
:100030000C948A000C948A000C948A000C948A0018
:100040000C9409080C948A000C9479080C945308B9
:100050000C948A000C948A000C948A000C948A00F8
:100060000C948A000C948A000000000024002700F1
:100070002A0000000000250028002B0000000008D6
:10008000000201000003040700000000000000005F
:10009000010204081020408001020408102001021F
:1000A000040810200000000023002600290004049A
:1000B0000404040404040202020202020303030310
:1000C0000303AB0811241FBECFEFD8E0DEBFCDBFC6
:1000D00011E0A0E0B1E0EAE5F1E202C005900D9286
:1000E000AA36B107D9F722E0AAE6B1E001C01D9215
:1000F000A037B207E1F710E0C2E6D0E004C02197D4
:10010000FE010E94710FC136D107C9F70E94F8099C
:100110000C94AB100C9400008F929F92AF92BF9200
:10012000CF92DF92EF92FF920F931F938091120272
:1001300082FD18C085FD16C0E0912502F0912602CF
:1001400020813091270281FB992790F983FB882732
:1001500080F98927922F932321E009F020E082275C
:10016000809323028FB7F8944091700150917101F0
:1001700060917201709173018FBF90912302209161
:10018000240280911102992309F4A5C02111A3C072
:1001900080FD7FC081608093110240931F025093C5
:1001A000200260932102709322028091240288230E
:1001B00089F1992379F1009116021091170230E02C
:1001C00020E0C0901F02D0902002E0902102F09029
:1001D00022024A015B018C189D08AE08BF08750118
:1001E0006401C016D106E206F306A0F08091110268
:1001F00081FD10C020911C0220931E028A648F771B
:100200008093110240931F025093200260932102B9
:100210007093220200911F0210912002209121026E
:1002200030912202401B510B620B730B009118029C
:100230001091190230E020E0401751076207730760
:1002400078F080911C02882359F0911109C08093A5
:100250001D0210921C028091110284608093110291
:100260008091120286FF0AC010921D029091110225
:100270009B7F909311028F7B809312021F910F91AD
:10028000FF90EF90DF90CF90BF90AF909F908F90B6
:10029000089500911F0210912002209121023091B7
:1002A00022026A017B01C01AD10AE20AF30A009114
:1002B00014021091150230E020E0C016D106E206CB
:1002C000F30608F4A7CF21E020932402806280681F
:1002D000809311026ACF8E7F80931102911165CFB6
:1002E000222309F497CF1092240281FD05C080914A
:1002F0001C028F5F80931C02809111028D7F8061B0
:100300008093110240931F025093200260932102B8
:100310007093220286FF07C010921D0210921C02E9
:100320008F7B809311028091110287FF73CF8F77AB
:10033000809311028091120281608093120235CF66
:1003400090E0FC01E458FF4F2491FC01E057FF4F7F
:100350003491FC01E255FF4FE491EE23C9F02223D2
:1003600039F0233001F1A8F4213019F1223029F1BC
:10037000F0E0EE0FFF1FEE58FF4FA591B4918FB73D
:10038000F894EC91611126C030953E233C938FBFC9
:1003900008952730A9F02830C9F0243049F780911A
:1003A00080008F7D03C0809180008F7780938000D4
:1003B000DFCF84B58F7784BDDBCF84B58F7DFBCF56
:1003C0008091B0008F778093B000D2CF8091B00041
:1003D0008F7DF9CF3E2BDACFCF93DF9390E0FC01F6
:1003E000E057FF4F249182559F4FFC018491882351
:1003F000C9F090E0880F991FFC01E859FF4FA591C3
:10040000B491FC01EE58FF4FC591D49161110DC01C
:100410009FB7F8948C91209582238C938881282310
:1004200028839FBFDF91CF910895623051F49FB729
:10043000F8943C91822F809583238C93E8812E2B16
:10044000EFCF8FB7F894EC912E2B2C938FBFEACF80
:10045000AF92BF92CF92DF92EF92FF920F931F93D2
:10046000CF93DF936C017B018B01040F151FEB0110
:100470005E01AE18BF08C017D10759F06991D601C7
:10048000ED91FC910190F081E02DC6010995892B39
:1004900079F7C501DF91CF911F910F91FF90EF90F8
:1004A000DF90CF90BF90AF900895FC01538D448DA5
:1004B000252F30E0842F90E0821B930B541710F00F
:1004C000CF96089501970895FC01918D828D98171C
:1004D00061F0A28DAE0FBF2FB11D5D968C91928DF4
:1004E0009F5F9F73928F90E008958FEF9FEF089525
:1004F000FC01918D828D981731F0828DE80FF11DEE
:10050000858D90E008958FEF9FEF0895FC01918D08
:10051000228D892F90E0805C9F4F821B91098F7301
:100520009927089584E791E00E94860221E0892BB3
:1005300009F420E0822F089580E090E0892B29F0D3
:100540000E94920281110C9400000895FC01A48D78
:10055000A80FB92FB11DA35ABF4F2C91848D90E0E5
:1005600001968F739927848FA689B7892C93A089C8
:10057000B1898C91837080648C93938D848D981352
:1005800006C00288F389E02D80818F7D80830895E5
:10059000EF92FF920F931F93CF93DF93EC0181E0D3
:1005A000888F9B8D8C8D98131AC0E889F98980817A
:1005B00085FF15C09FB7F894EE89FF896083E889AD
:1005C000F98980818370806480839FBF81E090E09F
:1005D000DF91CF911F910F91FF90EF900895F62E2C
:1005E0000B8D10E00F5F1F4F0F731127E02E8C8DC6
:1005F0008E110CC00FB607FCFACFE889F98980810B
:1006000085FFF5CFCE010E94A602F1CFEB8DEC0F56
:10061000FD2FF11DE35AFF4FF0829FB7F8940B8F27
:10062000EA89FB8980818062CFCFCF93DF93EC0191
:10063000888D8823B9F0AA89BB89E889F9898C91CA
:1006400085FD03C0808186FD0DC00FB607FCF7CF86
:100650008C9185FFF2CF808185FFEDCFCE010E9486
:10066000A602E9CFDF91CF910895CF93DF93FC01EC
:100670002781222359F1EC0161E080850E94EC0181
:1006800061E089850E94EC018F81843011F088300F
:10069000B1F461E08A850E94EC0161E08B850E94E3
:1006A000EC018FA58F3F91F061E00E94EC016EA5F7
:1006B00081E068278FA5DF91CF910C94A001833052
:1006C00011F0863071F761E08A85E9CFDF91CF9133
:1006D0000895CF93DF93FC0127812223A9F0EC0139
:1006E0000190F081E02D0284F385E02D60E0099512
:1006F0008FA58F3F49F061E00E94EC016EA58FA5A8
:10070000DF91CF910C94A001DF91CF910895DC018E
:10071000ED91FC9122853385477055276627772711
:100720004150510961097109473051056105710551
:1007300060F4FA01E256FC4F0C94710FA803AA036F
:10074000AC03AE03B003B203B40361E0F901099452
:1007500065E0FCCF64E0FACF66E0F8CF62E0F6CF68
:100760006AE0F4CF68E0F2CF69E0F0CFCF93DF9397
:10077000EC01CB01BA0126E030E040E050E00E94FD
:10078000520F623071058105910589F16CF4611594
:10079000710581059105D1F06130710581059105E3
:1007A000F9F0DF91CF9108956430710581059105CD
:1007B00061F124F1653071058105910591F7E881BA
:1007C000F9810284F385E02D66E006C0E881F981B5
:1007D0000284F385E02D64E0CE01DF91CF9109948E
:1007E000E881F9810284F385E02D65E0F5CFE881A9
:1007F000F9810284F385E02D61E0EECFE881F98193
:100800000284F385E02D63E0E7CFE881F98102847B
:10081000F385E02D62E0E0CFDC01ED91FC910284F4
:10082000F385E02D43705527662777274230510521
:100830006105710571F0433051056105710559F08D
:10084000413051056105710511F065E0099466E0DC
:10085000FDCF6AE0FBCF69E0F9CFCF93DF93EC01E6
:10086000CB01BA0123E030E040E050E00E94520F9B
:10087000613071058105910599F06230710581053E
:100880009105A9F0672B682B692BC1F4E881F981E8
:100890000284F385E02D64E0CE01DF91CF910994CD
:1008A000E881F9810284F385E02D61E0F5CFE881EC
:1008B000F9810284F385E02D62E0EECFDF91CF91E4
:1008C0000895DC01ED91FC910284F385E02D4370E5
:1008D000552766277727423051056105710571F06C
:1008E000433051056105710559F0413051056105ED
:1008F000710511F062E0099463E0FDCF61E0FBCF88
:1009000060E0F9CFCF93DF93EC01E881F9810284B5
:10091000F385E02D8A8160E0811162E0CE010995C6
:10092000E881F9810284F385E02D8A8161E08111FB
:1009300063E0CE0109958CA59DA58230910538F024
:10094000880F991F880F991F05970197F1F7E88184
:10095000F9810284F385E02D8A8160E0811162E0F3
:10096000CE01DF91CF910994CF93DF93EC0120E08A
:1009700030E0A901688D798D8A8D9B8D0E94630E70
:1009800018162CF4E8A9F9A9DF91CF910994EAA9E6
:10099000FBA9FACFCF92DF92EF92FF920F931F93B2
:1009A000CF93DF93DC011796CC91C43039F0C83077
:1009B00059F1C33019F0C63049F1C2E08C01085F2B
:1009C0001F4FF12CE12CC62ED12CD1E0F80164810F
:1009D000C6010E2C02C0959587950A94E2F780FD1A
:1009E0006D270F5F1F4F80810E94A001BFEFEB1AA0
:1009F000FB0AEC1658F3DF91CF911F910F91FF90F6
:100A0000EF90DF90CF900895C4E0D8CFC3E0D6CF69
:100A1000DC011796EC911797E93008F038C0F0E048
:100A2000EC5EFA4F0C94710F1D05230529052F0567
:100A3000350547053B0547054105ED91FC910684C9
:100A4000F785E02D0994ED91FC910088F189E02D66
:100A5000F9CFED91FC910288F389E02DF3CFED9170
:100A6000FC910488F589E02DEDCFED91FC9106888D
:100A7000F789E02DE7CFED91FC91008CF18DE02D11
:100A8000E1CFED91FC91028CF38DE02DDBCF089549
:100A90004F925F926F927F928F929F92AF92BF928E
:100AA000CF92DF92EF92FF920F931F93CF93DF933A
:100AB000EC01CC88DD88EE88FF8888899989AA892D
:100AC000BB89C81AD90AEA0AFB0A688D798D8A8D12
:100AD0009B8D9B01AC010E94680E4B015C0168A1DB
:100AE00079A18AA19BA19B01AC010E94980C9B015A
:100AF000AC01C501B4010E94090D0E947B0DC11417
:100B0000D104E104F10409F0B6C062307105810539
:100B100091050CF0D0C01B821C821D821E82188E93
:100B2000198E1A8E1B8E1CAA1DAA1EAA1FAAC12CC2
:100B3000D12C7601C701B601DF91CF911F910F91A2
:100B4000FF90EF90DF90CF90BF90AF909F908F90ED
:100B50007F906F905F904F900895101611061206C7
:100B60001306B4F46C157D058E059F051CF42A81CF
:100B70002111A1C09B01AC0188279927DC01821BB0
:100B8000930BA40BB50B8CAB9DABAEABBFAB93C0C3
:100B9000011511052105310509F48DC06C157D0580
:100BA0008E059F050CF087C08A81882309F483C0D5
:100BB00030952095109501951F4F2F4F3F4F0CAB4F
:100BC0001DAB2EAB3FAB77C00115110521053105DB
:100BD00009F471C08824992454018C189D08AE082A
:100BE000BF08681579058A059B050CF064C08A81E9
:100BF000811161C0DDCFCCACDDACEEACFFACA701A8
:100C00009601C701B6010E94980C2B013C01C50159
:100C1000B4010E94B30D20E030E040E850E40E94AF
:100C2000680E20E030E040E85FE30E94980C9B01F2
:100C3000AC01C301B2010E94090D9B01AC01C701C7
:100C4000B6010E94970C3B016C01FE01E05CFF4F76
:100C5000E080F180028113819701A8010E94630E58
:100C6000181614F473018601C701D8018CAF9DAF2B
:100C7000AEAFBFAF3AC00CA91DA92EA93FA91C1445
:100C80001D041E041F040CF468CF10161106120672
:100C900013060CF099CF0027112798010C191D0994
:100CA0002E093F0960177107820793070CF062CF86
:100CB0002A8121115FCF8CA89DA8AEA8BFA881145E
:100CC0009104A104B10409F096CF88AD99ADAAAD05
:100CD000BBAD8CAF9DAFAEAFBFAF81E01C141D04A8
:100CE0001E041F040CF080E08A833FEF831A930AEE
:100CF000A30AB30A8CAA9DAAAEAABFAA8CAC9DACCB
:100D0000AEACBFACC501B4010E94820D6B017C0189
:100D1000CB82DC82ED82FE82A501940160E074E268
:100D200084E799E40E94090D688F798F8A8F9B8FE1
:100D30002A812111FFCE9058688F798F8A8F9B8FDF
:100D4000F9CECF92DF92EF92FF92CF93DF93C8E27A
:100D5000D2E0688D798D8A8D9B8D9B01AC010E94BC
:100D6000680E6B017C0168A179A18AA19BA19B01FE
:100D7000AC010E94980C9B01AC01C701B6010E9416
:100D8000090D0E947B0D6CAB7DAB8EAB9FABCE0192
:100D9000DF91CF91FF90EF90DF90CF900C944805BA
:100DA00008954F925F926F927F928F929F92AF922F
:100DB000BF92CF92DF92EF92FF926B017C0120E015
:100DC00030E0A9010E94040D87FF04C0F7FAF094F7
:100DD000F7F8F0948090480290904902A0904A025F
:100DE000B0904B02A7019601C501B4010E94040D09
:100DF000882309F458C060915C0270915D02809173
:100E00005E0290915F020E94B30D2B013C01A7018D
:100E10009601C501B4010E94090D9B01AC01C301FB
:100E2000B2010E94680E0E947B0D60935C02709379
:100E30005D0280935E0290935F02A701960160E0DD
:100E400070E080E090E40E94090D0E94DB0E26E530
:100E50003EE04DE25FE30E94680E20E034E244E7AA
:100E600059E40E94680E609360027093610280935F
:100E7000620290936302C0924802D0924902E092CB
:100E80004A02F0924B0288E292E0FF90EF90DF90EE
:100E9000CF90BF90AF909F908F907F906F905F901A
:100EA0004F900C944805FF90EF90DF90CF90BF904B
:100EB000AF909F908F907F906F905F904F9008952C
:100EC000CF93DF93C1E1D2E060E08A810E94EC0120
:100ED0008A8190E0FC01E255FF4FE491F0E0EE0FD3
:100EE000FF1FEC55FF4F259134913D8B2C8BFC015E
:100EF000E057FF4FE491EE8BDF91CF910895FC0115
:100F000001900020E9F73197AF01481B590BBC0154
:100F100084E791E00C9428028F929F92AF92BF9247
:100F2000CF92DF92EF92FF920F931F93CF93DF93B5
:100F3000CDB7DEB7A1970FB6F894DEBF0FBECDBF19
:100F40006B017C01F7FE41C06DE284E791E00E94F5
:100F5000C8028C0122273327A9012C193D094E090B
:100F60005F0919A2CE0181967C019AE0892E912C0D
:100F7000A12CB12CCA01B901A50194010E94300F26
:100F8000605DF70162937F0121153105410551052F
:100F900089F790E080E0309719F0CF010E947F0739
:100FA000800F911FA1960FB6F894DEBF0FBECDBF84
:100FB000DF91CF911F910F91FF90EF90DF90CF9035
:100FC000BF90AF909F908F900895AC019B0119A2A4
:100FD0008E010F5D1F4F8AE0C82ED12CE12CF12C21
:100FE000CA01B901A70196010E94300F605DF801A6
:100FF00062938F01211531054105510589F790E074
:1010000080E0309779F2CF010E947F07CBCF0C941C
:1010100022101F920F920FB60F9211242F933F931D
:101020008F939F93AF93BF938091700190917101C3
:10103000A0917201B091730130916F0123E0230FF1
:101040002D3758F50196A11DB11D20936F01809396
:10105000700190937101A0937201B093730180911C
:101060006B0190916C01A0916D01B0916E010196A0
:10107000A11DB11D80936B0190936C01A0936D0134
:10108000B0936E01BF91AF919F918F913F912F913E
:101090000F900FBE0F901F90189526E8230F029611
:1010A000A11DB11DD2CF1F920F920FB60F92112426
:1010B0002F933F934F935F936F937F938F939F9360
:1010C000AF93BF93EF93FF9384E791E00E94A60252
:1010D000FF91EF91BF91AF919F918F917F916F9110
:1010E0005F914F913F912F910F900FBE0F901F90E6
:1010F00018951F920F920FB60F9211242F938F9372
:101100009F93EF93FF93E0918401F091850180819B
:10111000E0918A01F0918B0182FD1BC0908180914A
:101120008D018F5F8F7320918E01821741F0E091C6
:101130008D01F0E0EC58FE4F958F80938D01FF916B
:10114000EF919F918F912F910F900FBE0F901F9055
:1011500018958081F4CFCF92DF92EF92FF92109298
:1011600077011092760188EE93E0A0E0B0E08093E2
:10117000780190937901A0937A01B0937B018BE081
:1011800091E0909375018093740185EC90E09093C9
:1011900081018093800184EC90E09093830180939F
:1011A000820180EC90E0909385018093840181EC32
:1011B00090E0909387018093860182EC90E0909379
:1011C00089018093880186EC90E090938B01809355
:1011D0008A0110928D0110928E0110928F0110924F
:1011E00090018DE191E0909329028093280284E0A0
:1011F00080932F02109238021092390210923A0214
:1012000010923B0210923C0210923D0210923E025C
:1012100010923F021092400210924102109242023C
:10122000109243021092440210924502109246021C
:1012300010924702109248021092490210924A02FC
:1012400010924B02C12CD12C80E8E82E8FE3F82EAF
:10125000C0924C02D0924D02E0924E02F0924F02A8
:1012600010922B0210922C0210922D0210922E023C
:1012700081E090E090935502809354028FEF809329
:101280005702109250021092510210925202109284
:1012900053028BE08093300289E0809331028AE030
:1012A0008093320288E080933302109256021092AB
:1012B0005C0210925D0210925E0210925F02109228
:1012C0006002109261021092620210926302109208
:1012D0006402109265021092660210926702C09238
:1012E0006802D0926902E0926A02F0926B02109258
:1012F0002A02109234021092350210923602109295
:10130000370288E292E00E943503C701B6010E94CD
:10131000D106A70196016091440270914502809127
:101320004602909147020E94040D882319F1C09251
:101330004402D0924502E0924602F092470280E0D9
:1013400094E2A4E7B9E48093680290936902A093C1
:101350006A02B0936B0280915C0290915D02A09151
:101360005E02B0915F02181619061A061B0614F4E5
:101370000E94A1068CE390E09093150280931402E2
:1013800084EF91E0909317028093160290931902D4
:101390008093180280E991E090931B0280931A02D7
:1013A00010921C0210921D0210921E0210921F0237
:1013B0001092200210922102109222021092230217
:1013C000109224028CE080931302809112028F7D90
:1013D0008860809312020E946007809112028B7EC7
:1013E0008D7F80931202FF90EF90DF90CF90089551
:1013F000789484B5826084BD84B5816084BD85B5F0
:10140000826085BD85B5816085BD80916E008160FB
:1014100080936E00109281008091810082608093A1
:1014200081008091810081608093810080918000A3
:101430008160809380008091B10084608093B100CE
:101440008091B00081608093B00080917A008460C8
:1014500080937A0080917A00826080937A008091F4
:101460007A00816080937A0080917A00806880930E
:101470007A001092C10020E030E046E154E460912F
:1014800044027091450280914602909147020E9469
:10149000040D882339F180E090E0A6E1B4E4809364
:1014A000440290934502A0934602B093470285E51B
:1014B00095E5A0EDB4E48093680290936902A0934F
:1014C0006A02B0936B0280915C0290915D02A091E0
:1014D0005E02B0915F02181619061A061B0614F474
:1014E0000E94A10660E070E088E493E40E94D106C7
:1014F00020E030E048E453E4609140027091410202
:1015000080914202909143020E94040D8823E9F1E8
:101510008090440290904502A0904602B09047020D
:1015200075016401F7FAF094F7F8F09420E030E0E8
:1015300048E453ECC501B4010E94040D87FD0CC0C2
:1015400020E030E048E453E4C501B4010E94040DFA
:1015500087FFC2C17501640120E030E0A901C70125
:10156000B6010E94040D8111BDC110922B02109290
:101570002C0210922D0210922E02C0924002D092A4
:101580004102E0924202F092430280913C0290912B
:101590003D02A0913E02B0913F02883C9105A10519
:1015A000B10581F088EC90E0A0E0B0E080933C02CF
:1015B00090933D02A0933E02B0933F0288E292E0F6
:1015C0000E9448058CE291E09093170280931602E6
:1015D0008091120288608093120285FF0E9460074A
:1015E000809112028D7F806180931202E0918401CC
:1015F000F091850182E08083E0918001F09181018A
:101600001082E0918201F09183018FEC808310922F
:101610008C01E0918801F091890186E08083E0915E
:101620008601F0918701808180618083E09186014D
:10163000F0918701808188608083E0918601F0913C
:101640008701808180688083E0918601F091870125
:1016500080818F7D808311E0C0E0D0E001E0809147
:10166000120284FD0E948C008091120280FF11C042
:1016700090916A018E7F80931202892F8127809337
:101680006A0189E391E00E947F0782E491E00E9471
:101690007F078091120284FD0E948C0080911102CC
:1016A00083FF2AC090916A01877F80931102911174
:1016B00028C06091000161276093000100936A01D6
:1016C00070E090E080E00E948C0782E491E00E944C
:1016D0007F0760916A0170E090E080E00E948C07D3
:1016E00082E491E00E947F0785E491E00E947F07F9
:1016F00082E491E00E947F0780916A01882309F4C7
:10170000E0C02091000130E0A8ECB0E00E94770F2B
:10171000C0903C02D0903D02E0903E02F0903F022B
:101720006C157D058E059F0561F060933C027093FA
:101730003D0280933E0290933F0288E292E00E9435
:1017400048058CE491E00E947F0760913C02709113
:101750003D0280913E0290913F020E948C0782E4FC
:1017600091E00E947F078EE591E00E947F076091E3
:1017700038027091390280913A0290913B020E94A6
:101780008C0782E491E00E947F0740913C025091D7
:101790003D0260913E0270913F028091380290912B
:1017A0003902A0913A02B0913B02481759076A07E3
:1017B0007B0759F4809100018127809300011092EA
:1017C0006A0188E292E00E94690380912B02909165
:1017D0002C02A0912D02B0912E02892B8A2B8B2BEB
:1017E00009F46FC03FB7F89480916B0190916C0140
:1017F000A0916D01B0916E0126B5A89B05C02F3F49
:1018000019F00196A11DB11D3FBFBA2FA92F982F26
:1018100088276C017D01C20ED11CE11CF11C42E045
:10182000CC0CDD1CEE1CFF1C4A95D1F780915002B8
:1018300090915102A0915202B0915302B701A601BA
:10184000481B590B6A0B7B0B80912B0290912C0249
:10185000A0912D02B0912E02481759076A077B0705
:1018600080F18091380290913902A0913A02B091B2
:101870003B0220912A02222309F455C00196A11DA2
:10188000B11D8093380290933902A0933A02B0932D
:101890003B02409138025091390260913A027091B6
:1018A0003B0288E292E00E940805C0925002D0926A
:1018B0005102E0925202F092530288E292E00E94BA
:1018C0004805209709F4CBCE0E949202882309F4A0
:1018D000C6CE0E940000C3CEC12CD12C58E4E52E08
:1018E00053E4F52EA701960160E074E284E799E4E1
:1018F0000E94090D9F770E94820D60932B027093C6
:101900002C0280932D0290932E02C1E020E030E063
:10191000A901C701B6010E94630E18160CF0C0E0C1
:10192000C0932A022ACE0197A109B109AACF505823
:10193000BB27AA270E94AF0C0C94290E0E941B0EF5
:1019400038F00E94220E20F039F49F3F19F426F45B
:101950000C94180E0EF4E095E7FB0C94120EE92F90
:101960000E943A0E58F3BA17620773078407950767
:1019700020F079F4A6F50C945C0E0EF4E0950B2E95
:10198000BA2FA02D0B01B90190010C01CA01A001D1
:101990001124FF27591B99F0593F50F4503E68F12C
:1019A0001A16F040A22F232F342F4427585FF3CF6D
:1019B000469537952795A795F0405395C9F77EF43E
:1019C0001F16BA0B620B730B840BBAF09150A1F087
:1019D000FF0FBB1F661F771F881FC2F70EC0BA0F0D
:1019E000621F731F841F48F4879577956795B79595
:1019F000F7959E3F08F0B0CF9395880F08F0992790
:101A0000EE0F9795879508950E94EE0D08F481E0FA
:101A100008950E941D0D0C94290E0E94220E58F06C
:101A20000E941B0E40F029F45F3F29F00C94120E27
:101A300051110C945D0E0C94180E0E943A0E68F32E
:101A40009923B1F3552391F3951B550BBB27AA2777
:101A500062177307840738F09F5F5F4F220F331FB1
:101A6000441FAA1FA9F335D00E2E3AF0E0E832D079
:101A700091505040E695001CCAF72BD0FE2F29D07C
:101A8000660F771F881FBB1F261737074807AB074E
:101A9000B0E809F0BB0B802DBF01FF2793585F4FC3
:101AA0003AF09E3F510578F00C94120E0C945D0EA6
:101AB0005F3FE4F3983ED4F3869577956795B795A5
:101AC000F7959F5FC9F7880F911D9695879597F9B0
:101AD0000895E1E0660F771F881FBB1F6217730729
:101AE0008407BA0720F0621B730B840BBA0BEE1F3E
:101AF00088F7E09508950E94820D6894B1110C94C6
:101B00005D0E08950E94420E88F09F5798F0B92FFD
:101B10009927B751B0F0E1F0660F771F881F991F22
:101B20001AF0BA95C9F714C0B13091F00E945C0E5A
:101B3000B1E008950C945C0E672F782F8827B85F6A
:101B400039F0B93FCCF3869577956795B395D9F77A
:101B50003EF490958095709561957F4F8F4F9F4F84
:101B60000895E89409C097FB3EF490958095709590
:101B700061957F4F8F4F9F4F9923A9F0F92F96E9D9
:101B8000BB279395F695879577956795B795F1114E
:101B9000F8CFFAF4BB0F11F460FF1BC06F5F7F4FEB
:101BA0008F4F9F4F16C0882311F096E911C07723FD
:101BB00021F09EE8872F762F05C0662371F096E806
:101BC000862F70E060E02AF09A95660F771F881FD5
:101BD000DAF7880F9695879597F90895990F000879
:101BE000550FAA0BE0E8FEEF16161706E807F907EF
:101BF000C0F012161306E407F50798F0621B730B8A
:101C0000840B950B39F40A2661F0232B242B252B0A
:101C100021F408950A2609F4A140A6958FEF811DAD
:101C2000811D089597F99F6780E870E060E008954E
:101C30009FEF80EC089500240A94161617061806E4
:101C40000906089500240A941216130614060506C0
:101C50000895092E0394000C11F4882352F0BB0F51
:101C600040F4BF2B11F460FF04C06F5F7F4F8F4FB4
:101C70009F4F089557FD9058440F551F59F05F3FEF
:101C800071F04795880F97FB991F61F09F3F79F09E
:101C900087950895121613061406551FF2CF469520
:101CA000F1DF08C0161617061806991FF1CF8695A2
:101CB0007105610508940895E894BB276627772786
:101CC000CB0197F908950E94EE0D08F48FEF089567
:101CD0000E947B0E0C94290E0E941B0E38F00E946D
:101CE000220E20F0952311F00C94120E0C94180E75
:101CF00011240C945D0E0E943A0E70F3959FC1F36F
:101D0000950F50E0551F629FF001729FBB27F00DA9
:101D1000B11D639FAA27F00DB11DAA1F649F6627FE
:101D2000B00DA11D661F829F2227B00DA11D621F4D
:101D3000739FB00DA11D621F839FA00D611D221F07
:101D4000749F3327A00D611D231F849F600D211DEB
:101D5000822F762F6A2F11249F5750409AF0F1F06E
:101D600088234AF0EE0FFF1FBB1F661F771F881FD7
:101D700091505040A9F79E3F510580F00C94120EEF
:101D80000C945D0E5F3FE4F3983ED4F3869577950F
:101D90006795B795F795E7959F5FC1F7FE2B880F7D
:101DA000911D9695879597F9089519F416F40C945A
:101DB000180E0C941B0F0E94420EB8F39923C9F31E
:101DC000B6F39F57550B87FF0E94290F0024A0E60A
:101DD00040EA900180585695979528F4805C660FEC
:101DE000771F881F20F026173707480730F4621B3B
:101DF000730B840B202931294A2BA695179407943D
:101E0000202531254A2758F7660F771F881F20F0B5
:101E100026173707480730F4620B730B840B200D2D
:101E2000311D411DA09581F7B901842F9158880F6C
:101E30009695879508959F3F31F0915020F48795AE
:101E400077956795B795880F911D9695879597F922
:101E5000089591505040660F771F881FD2F708955C
:101E6000A1E21A2EAA1BBB1BFD010DC0AA1FBB1F9E
:101E7000EE1FFF1FA217B307E407F50720F0A21B10
:101E8000B30BE40BF50B661F771F881F991F1A947D
:101E900069F760957095809590959B01AC01BD01A7
:101EA000CF010895052E97FB1EF400940E94690F40
:101EB00057FD07D00E94300F07FC03D04EF40C945E
:101EC000690F50954095309521953F4F4F4F5F4F8B
:101ED000089590958095709561957F4F8F4F9F4F96
:101EE0000895EE0FFF1F0590F491E02D0994A29F35
:101EF000B001B39FC001A39F700D811D1124911DDE
:101F0000B29F700D811D1124911D08950F931F9391
:101F1000CF93DF938230910510F482E090E0E0915E
:101F20006E02F0916F0230E020E0B0E0A0E0309768
:101F300099F42115310509F44AC0281B390B2430C6
:101F40003105D8F58A819B816115710589F1FB0105
:101F500093838283FE0111C04081518102811381EC
:101F600048175907E0F04817590799F4109761F09E
:101F700012960C93129713961C933296CF01DF9111
:101F8000CF911F910F91089500936E0210936F02ED
:101F9000F4CF2115310551F04217530738F0A9014C
:101FA000DB019A01BD01DF01F801C1CFEF01F9CFDB
:101FB00090936F0280936E02CDCFFE01E20FF31F6C
:101FC000819391932250310939832883D7CF20916F
:101FD0006C0230916D02232B41F42091030130916A
:101FE000040130936D0220936C0220910101309125
:101FF00002012115310541F42DB73EB7409105018D
:1020000050910601241B350BE0916C02F0916D029A
:10201000E217F307A0F42E1B3F0B2817390778F0BF
:10202000AC014E5F5F4F2417350748F04E0F5F1F1E
:1020300050936D0240936C02819391939FCFF0E097
:10204000E0E09CCFCF93DF930097E9F0FC0132975B
:1020500013821282A0916E02B0916F02ED0130E006
:1020600020E01097A1F420813181820F931F2091ED
:102070006C0230916D022817390709F061C0F093A6
:102080006D02E0936C02DF91CF910895EA01CE17C3
:10209000DF07E8F54A815B819E0141155105B1F7E3
:1020A000E901FB83EA8349915991C40FD51FEC17CD
:1020B000FD0761F4808191810296840F951FE901EB
:1020C00099838883828193819B838A83F0E0E0E017
:1020D00012968D919C9113970097B9F52D913C9193
:1020E0001197CD010296820F931F20916C023091BF
:1020F0006D022817390739F6309751F510926F02A3
:1021000010926E02B0936D02A0936C02BCCFD38389
:10211000C28340815181840F951FC817D90761F48C
:102120004E5F5F4F88819981480F591F51834083CB
:102130008A819B81938382832115310509F0B0CF79
:10214000F0936F02E0936E029ECFFD01DC01C0CFE1
:1021500013821282D7CFF894FFCF01000070028063
:102160000000000000C80228025502150386026420
:102170000278020000000069033503D00607084812
:1021800005CA040805B404820461042D040C04B6D5
:10219000038703436C69636B656421000D0A004883
:1021A0006F6C64656400746172676574506F736905
:1021B00074696F6E203D200043757272506F7320FA
:0421C000697320001F
:107E0000112484B714BE81FFF0D085E080938100F7
:107E100082E08093C00088E18093C10086E0809377
:107E2000C20080E18093C4008EE0C9D0259A86E02C
:107E300020E33CEF91E0309385002093840096BBD3
:107E4000B09BFECF1D9AA8958150A9F7CC24DD24C4
:107E500088248394B5E0AB2EA1E19A2EF3E0BF2EE7
:107E6000A2D0813461F49FD0082FAFD0023811F036
:107E7000013811F484E001C083E08DD089C08234E0
:107E800011F484E103C0853419F485E0A6D080C0E4
:107E9000853579F488D0E82EFF2485D0082F10E0AE
:107EA000102F00270E291F29000F111F8ED06801E7
:107EB0006FC0863521F484E090D080E0DECF843638
:107EC00009F040C070D06FD0082F6DD080E0C81688
:107ED00080E7D80618F4F601B7BEE895C0E0D1E017
:107EE00062D089930C17E1F7F0E0CF16F0E7DF06D8
:107EF00018F0F601B7BEE89568D007B600FCFDCFD4
:107F0000A601A0E0B1E02C9130E011968C91119780
:107F100090E0982F8827822B932B1296FA010C0160
:107F200087BEE89511244E5F5F4FF1E0A038BF0790
:107F300051F7F601A7BEE89507B600FCFDCF97BE46
:107F4000E89526C08437B1F42ED02DD0F82E2BD052
:107F50003CD0F601EF2C8F010F5F1F4F84911BD097
:107F6000EA94F801C1F70894C11CD11CFA94CF0C13
:107F7000D11C0EC0853739F428D08EE10CD085E9AC
:107F80000AD08FE07ACF813511F488E018D01DD067
:107F900080E101D065CF982F8091C00085FFFCCF94
:107FA0009093C60008958091C00087FFFCCF809118
:107FB000C00084FD01C0A8958091C6000895E0E648
:107FC000F0E098E1908380830895EDDF803219F02E
:107FD00088E0F5DFFFCF84E1DECF1F93182FE3DFCA
:107FE0001150E9F7F2DF1F91089580E0E8DFEE27F6
:047FF000FF270994CA
:027FFE00040479
:00000001FF
