:020000040000FA
:100000000C9462000C948A000C948A000C948A0070
:100010000C948A000C948A000C948A000C948A0038
:100020000C948A000C948A000C948A000C948A0028
:100030000C948A000C948A000C948A000C948A0018
:100040000C9407080C948A000C9477080C945108BF
:100050000C948A000C948A000C948A000C948A00F8
:100060000C948A000C948A000000000024002700F1
:100070002A0000000000250028002B0000000008D6
:10008000000201000003040700000000000000005F
:10009000010204081020408001020408102001021F
:1000A000040810200000000023002600290004049A
:1000B0000404040404040202020202020303030310
:1000C0000303A90811241FBECFEFD8E0DEBFCDBFC8
:1000D00011E0A0E0B1E0E2E0F2E202C005900D9292
:1000E000A638B107D9F722E0A6E8B1E001C01D9219
:1000F000AC38B207E1F710E0C2E6D0E004C02197C7
:10010000FE010E94C50FC136D107C9F70E94F6094A
:100110000C94FF100C9400008F929F92AF92BF92AC
:10012000CF92DF92EF92FF920F931F9380912E0256
:1001300082FD18C085FD16C0E0914102F091420297
:1001400020813091430281FB992790F983FB882716
:1001500080F98927922F932321E009F020E082275C
:1001600080933F028FB7F89440918C0150918D019C
:1001700060918E0170918F018FBF90913F0220910D
:10018000400280912D02992309F4A5C02111A3C03A
:1001900080FD7FC0816080932D0240933B0250938D
:1001A0003C0260933D0270933E028091400288239E
:1001B00089F1992379F1009132021091330230E0F4
:1001C00020E0C0903B02D0903C02E0903D02F090D5
:1001D0003E024A015B018C189D08AE08BF087501FC
:1001E0006401C016D106E206F306A0F080912D024C
:1001F00081FD10C02091380220933A028A648F77E3
:1002000080932D0240933B0250933C0260933D0249
:1002100070933E0200913B0210913C0220913D02FE
:1002200030913E02401B510B620B730B0091340264
:100230001091350230E020E0401751076207730744
:1002400078F080913802882359F0911109C0809389
:1002500039021092380280912D02846080932D0221
:1002600080912E0286FF0AC01092390290912D02D1
:100270009B7F90932D028F7B80932E021F910F9175
:10028000FF90EF90DF90CF90BF90AF909F908F90B6
:10029000089500913B0210913C0220913D02309163
:1002A0003E026A017B01C01AD10AE20AF30A0091F8
:1002B00030021091310230E020E0C016D106E20693
:1002C000F30608F4A7CF21E0209340028062806803
:1002D00080932D026ACF8E7F80932D02911165CF7E
:1002E000222309F497CF1092400281FD05C080912E
:1002F00038028F5F8093380280912D028D7F80615C
:1003000080932D0240933B0250933C0260933D0248
:1003100070933E0286FF07C0109239021092380295
:100320008F7B80932D0280912D0287FF73CF8F7773
:1003300080932D0280912E02816080932E0235CF12
:1003400090E0FC01E458FF4F2491FC01E057FF4F7F
:100350003491FC01E255FF4FE491EE23C9F02223D2
:1003600039F0233001F1A8F4213019F1223029F1BC
:10037000F0E0EE0FFF1FEE58FF4FA591B4918FB73D
:10038000F894EC91611126C030953E233C938FBFC9
:1003900008952730A9F02830C9F0243049F780911A
:1003A00080008F7D03C0809180008F7780938000D4
:1003B000DFCF84B58F7784BDDBCF84B58F7DFBCF56
:1003C0008091B0008F778093B000D2CF8091B00041
:1003D0008F7DF9CF3E2BDACFCF93DF9390E0FC01F6
:1003E000E057FF4F249182559F4FFC018491882351
:1003F000C9F090E0880F991FFC01E859FF4FA591C3
:10040000B491FC01EE58FF4FC591D49161110DC01C
:100410009FB7F8948C91209582238C938881282310
:1004200028839FBFDF91CF910895623051F49FB729
:10043000F8943C91822F809583238C93E8812E2B16
:10044000EFCF8FB7F894EC912E2B2C938FBFEACF80
:10045000AF92BF92CF92DF92EF92FF920F931F93D2
:10046000CF93DF936C017B018B01040F151FEB0110
:100470005E01AE18BF08C017D10759F06991D601C7
:10048000ED91FC910190F081E02DC6010995892B39
:1004900079F7C501DF91CF911F910F91FF90EF90F8
:1004A000DF90CF90BF90AF900895FC01538D448DA5
:1004B000252F30E0842F90E0821B930B541710F00F
:1004C000CF96089501970895FC01918D828D98171C
:1004D00061F0A28DAE0FBF2FB11D5D968C91928DF4
:1004E0009F5F9F73928F90E008958FEF9FEF089525
:1004F000FC01918D828D981731F0828DE80FF11DEE
:10050000858D90E008958FEF9FEF0895FC01918D08
:10051000228D892F90E0805C9F4F821B91098F7301
:100520009927089580E991E00E94860221E0892BB5
:1005300009F420E0822F089580E090E0892B29F0D3
:100540000E94920281110C9400000895FC01A48D78
:10055000A80FB92FB11DA35ABF4F2C91848D90E0E5
:1005600001968F739927848FA689B7892C93A089C8
:10057000B1898C91837080648C93938D848D981352
:1005800006C00288F389E02D80818F7D80830895E5
:10059000EF92FF920F931F93CF93DF93EC0181E0D3
:1005A000888F9B8D8C8D98131AC0E889F98980817A
:1005B00085FF15C09FB7F894EE89FF896083E889AD
:1005C000F98980818370806480839FBF81E090E09F
:1005D000DF91CF911F910F91FF90EF900895F62E2C
:1005E0000B8D10E00F5F1F4F0F731127E02E8C8DC6
:1005F0008E110CC00FB607FCFACFE889F98980810B
:1006000085FFF5CFCE010E94A602F1CFEB8DEC0F56
:10061000FD2FF11DE35AFF4FF0829FB7F8940B8F27
:10062000EA89FB8980818062CFCFCF93DF93EC0191
:10063000888D8823B9F0AA89BB89E889F9898C91CA
:1006400085FD03C0808186FD0DC00FB607FCF7CF86
:100650008C9185FFF2CF808185FFEDCFCE010E9486
:10066000A602E9CFDF91CF910895CF93DF93FC01EC
:100670002781222359F1EC0161E080850E94EC0181
:1006800061E089850E94EC018F81843011F088300F
:10069000B1F461E08A850E94EC0161E08B850E94E3
:1006A000EC018FA58F3F91F061E00E94EC016EA5F7
:1006B00081E068278FA5DF91CF910C94A001833052
:1006C00011F0863071F761E08A85E9CFDF91CF9133
:1006D0000895CF93DF93FC0127812223A9F0EC0139
:1006E0000190F081E02D0284F385E02D60E0099512
:1006F0008FA58F3F49F061E00E94EC016EA58FA5A8
:10070000DF91CF910C94A001DF91CF910895DC018E
:10071000ED91FC9122853385477055276627772711
:100720004150510961097109473051056105710551
:1007300060F4FA01E256FC4F0C94C50FA803AA031B
:10074000AC03AE03B003B203B40361E0F901099452
:1007500065E0FCCF64E0FACF66E0F8CF62E0F6CF68
:100760006AE0F4CF68E0F2CF69E0F0CFCF93DF9397
:10077000EC01CB01BA0126E030E040E050E00E94FD
:10078000A60F623071058105910589F16CF4611540
:10079000710581059105D1F06130710581059105E3
:1007A000F9F0DF91CF9108956430710581059105CD
:1007B00061F124F1653071058105910591F7E881BA
:1007C000F9810284F385E02D66E006C0E881F981B5
:1007D0000284F385E02D64E0CE01DF91CF9109948E
:1007E000E881F9810284F385E02D65E0F5CFE881A9
:1007F000F9810284F385E02D61E0EECFE881F98193
:100800000284F385E02D63E0E7CFE881F98102847B
:10081000F385E02D62E0E0CFDC01ED91FC910284F4
:10082000F385E02D43705527662777274230510521
:100830006105710571F0433051056105710559F08D
:10084000413051056105710511F065E0099466E0DC
:10085000FDCF6AE0FBCF69E0F9CFCF93DF93EC01E6
:10086000CB01BA0123E030E040E050E00E94A60F47
:10087000613071058105910599F06230710581053E
:100880009105A9F0672B682B692BC1F4E881F981E8
:100890000284F385E02D64E0CE01DF91CF910994CD
:1008A000E881F9810284F385E02D61E0F5CFE881EC
:1008B000F9810284F385E02D62E0EECFDF91CF91E4
:1008C0000895DC01ED91FC910284F385E02D4370E5
:1008D000552766277727423051056105710571F06C
:1008E000433051056105710559F0413051056105ED
:1008F000710511F062E0099463E0FDCF61E0FBCF88
:1009000060E0F9CFCF93DF93EC01E881F9810284B5
:10091000F385E02D8A8160E0811162E0CE010995C6
:10092000E881F9810284F385E02D8A8161E08111FB
:1009300063E0CE0109958CA59DA58230910538F024
:10094000880F991F880F991F05970197F1F7E88184
:10095000F9810284F385E02D8A8160E0811162E0F3
:10096000CE01DF91CF910994CF93DF93EC0120E08A
:1009700030E0A901688D798D8A8D9B8D0E94B70E1C
:1009800018162CF4E8A9F9A9DF91CF910994EAA9E6
:10099000FBA9FACFCF92DF92EF92FF920F931F93B2
:1009A000CF93DF93DC011796CC91C43039F0C83077
:1009B00059F1C33019F0C63049F1C2E08C01085F2B
:1009C0001F4FF12CE12CC62ED12CD1E0F80164810F
:1009D000C6010E2C02C0959587950A94E2F780FD1A
:1009E0006D270F5F1F4F80810E94A001BFEFEB1AA0
:1009F000FB0AEC1658F3DF91CF911F910F91FF90F6
:100A0000EF90DF90CF900895C4E0D8CFC3E0D6CF69
:100A1000DC011796EC911797E93008F038C0F0E048
:100A2000EC5EFA4F0C94C50F1D05230529052F0513
:100A3000350547053B0547054105ED91FC910684C9
:100A4000F785E02D0994ED91FC910088F189E02D66
:100A5000F9CFED91FC910288F389E02DF3CFED9170
:100A6000FC910488F589E02DEDCFED91FC9106888D
:100A7000F789E02DE7CFED91FC91008CF18DE02D11
:100A8000E1CFED91FC91028CF38DE02DDBCF089549
:100A90004F925F926F927F928F929F92AF92BF928E
:100AA000CF92DF92EF92FF920F931F93CF93DF933A
:100AB000EC01CC88DD88EE88FF8888899989AA892D
:100AC000BB89C81AD90AEA0AFB0A688D798D8A8D12
:100AD0009B8D9B01AC010E94BC0E4B015C0168A187
:100AE00079A18AA19BA19B01AC010E94EC0C9B0106
:100AF000AC01C501B4010E945D0D0E94CF0DC1146F
:100B0000D104E104F10409F0B6C062307105810539
:100B100091050CF0D0C01B821C821D821E82188E93
:100B2000198E1A8E1B8E1CAA1DAA1EAA1FAAC12CC2
:100B3000D12C7601C701B601DF91CF911F910F91A2
:100B4000FF90EF90DF90CF90BF90AF909F908F90ED
:100B50007F906F905F904F900895101611061206C7
:100B60001306B4F46C157D058E059F051CF42A81CF
:100B70002111A1C09B01AC0188279927DC01821BB0
:100B8000930BA40BB50B8CAB9DABAEABBFAB93C0C3
:100B9000011511052105310509F48DC06C157D0580
:100BA0008E059F050CF087C08A81882309F483C0D5
:100BB00030952095109501951F4F2F4F3F4F0CAB4F
:100BC0001DAB2EAB3FAB77C00115110521053105DB
:100BD00009F471C08824992454018C189D08AE082A
:100BE000BF08681579058A059B050CF064C08A81E9
:100BF000811161C0DDCFCCACDDACEEACFFACA701A8
:100C00009601C701B6010E94EC0C2B013C01C50105
:100C1000B4010E94070E20E030E040E850E40E945A
:100C2000BC0E20E030E040E85FE30E94EC0C9B014A
:100C3000AC01C301B2010E945D0D9B01AC01C70173
:100C4000B6010E94EB0C3B016C01FE01E05CFF4F22
:100C5000E080F180028113819701A8010E94B70E04
:100C6000181614F473018601C701D8018CAF9DAF2B
:100C7000AEAFBFAF3AC00CA91DA92EA93FA91C1445
:100C80001D041E041F040CF468CF10161106120672
:100C900013060CF099CF0027112798010C191D0994
:100CA0002E093F0960177107820793070CF062CF86
:100CB0002A8121115FCF8CA89DA8AEA8BFA881145E
:100CC0009104A104B10409F096CF88AD99ADAAAD05
:100CD000BBAD8CAF9DAFAEAFBFAF81E01C141D04A8
:100CE0001E041F040CF080E08A833FEF831A930AEE
:100CF000A30AB30A8CAA9DAAAEAABFAA8CAC9DACCB
:100D0000AEACBFACC501B4010E94D60D6B017C0135
:100D1000CB82DC82ED82FE82A501940160E074E268
:100D200084E799E40E945D0D688F798F8A8F9B8F8D
:100D30002A812111FFCE9058688F798F8A8F9B8FDF
:100D4000F9CECF92DF92EF92FF92CF93DF93C4E47C
:100D5000D2E0688D798D8A8D9B8D9B01AC010E94BC
:100D6000BC0E6B017C0168A179A18AA19BA19B01AA
:100D7000AC010E94EC0C9B01AC01C701B6010E94C2
:100D80005D0D0E94CF0D6CAB7DAB8EAB9FABCE01EA
:100D9000DF91CF91FF90EF90DF90CF900C944805BA
:100DA00008954F925F926F927F928F929F92AF922F
:100DB000BF92CF92DF92EF92FF926B017C0120E015
:100DC00030E0A9010E94580D87FF04C0F7FAF094A3
:100DD000F7F8F0948090640290906502A09066020B
:100DE000B0906702A7019601C501B4010E94580D99
:100DF000882309F458C0609178027091790280913B
:100E00007A0290917B020E94070E2B013C01A70100
:100E10009601C501B4010E945D0D9B01AC01C301A7
:100E2000B2010E94BC0E0E94CF0D609378027093B5
:100E3000790280937A0290937B02A701960160E089
:100E400070E080E090E40E945D0D0E942F0F26E587
:100E50003EE04DE25FE30E94BC0E20E034E244E756
:100E600059E40E94BC0E60937C0270937D028093D3
:100E70007E0290937F02C0926402D0926502E0925B
:100E80006602F092670284E492E0FF90EF90DF90B8
:100E9000CF90BF90AF909F908F907F906F905F901A
:100EA0004F900C944805FF90EF90DF90CF90BF904B
:100EB000AF909F908F907F906F905F904F9008952C
:100EC000CF93DF93CDE2D2E060E08A810E94EC0113
:100ED0008A8190E0FC01E255FF4FE491F0E0EE0FD3
:100EE000FF1FEC55FF4F259134913D8B2C8BFC015E
:100EF000E057FF4FE491EE8BDF91CF910895FC0115
:100F000001900020E9F73197AF01481B590BBC0154
:100F100080E991E00C9428028F929F92AF92BF9249
:100F20000F931F93CF93DF93CDB7DEB7A1970FB683
:100F3000F894DEBF0FBECDBF19A2423008F44AE0DC
:100F40008E010F5D1F4F842E912CB12CA12CA50179
:100F500094010E94840FE62FB901CA01EA30F4F42B
:100F6000E05DD801EE938D01232B242B252B79F7FF
:100F700090E080E0109719F0CD010E947F07A196C4
:100F80000FB6F894DEBF0FBECDBFDF91CF911F919A
:100F90000F91BF90AF909F908F900895E95CE1CF43
:100FA000CF92DF92EF92FF92CF93DF936B017C01A0
:100FB0006DE280E991E00E94C802EC016627772784
:100FC000CB016C197D098E099F094AE00E948C07AC
:100FD0008C0F9D1FDF91CF91FF90EF90DF90CF900E
:100FE0000895CF93DF9397FF0CC00E94D007EC01C8
:100FF00089E391E00E947F078C0F9D1FDF91CF91C5
:1010000008954AE00E948C07F2CF0C9476101F924C
:101010000F920FB60F9211242F933F938F939F93AC
:10102000AF93BF9380918C0190918D01A0918E011F
:10103000B0918F0130918B0123E0230F2D3758F5AC
:101040000196A11DB11D20938B0180938C0190937B
:101050008D01A0938E01B0938F01809187019091B3
:101060008801A0918901B0918A010196A11DB11D4D
:101070008093870190938801A0938901B0938A019E
:10108000BF91AF919F918F913F912F910F900FBE84
:101090000F901F90189526E8230F0296A11DB11DF1
:1010A000D2CF1F920F920FB60F9211242F933F931E
:1010B0004F935F936F937F938F939F93AF93BF9360
:1010C000EF93FF9380E991E00E94A602FF91EF91D8
:1010D000BF91AF919F918F917F916F915F914F9150
:1010E0003F912F910F900FBE0F901F9018951F9258
:1010F0000F920FB60F9211242F938F939F93EF931C
:10110000FF93E091A001F091A1018081E091A601FF
:10111000F091A70182FD1BC090818091A9018F5F92
:101120008F732091AA01821741F0E091A901F0E0AC
:10113000E057FE4F958F8093A901FF91EF919F910A
:101140008F912F910F900FBE0F901F901895808157
:10115000F4CFCF92DF92EF92FF9210929301109210
:10116000920188EE93E0A0E0B0E080939401909328
:101170009501A0939601B09397018BE091E0909335
:1011800091018093900185EC90E090939D01809374
:101190009C0184EC90E090939F0180939E0180ECF1
:1011A00090E09093A1018093A00181EC90E0909356
:1011B000A3018093A20182EC90E09093A50180931B
:1011C000A40186EC90E09093A7018093A601109271
:1011D000A9011092AA011092AB011092AC018DE10D
:1011E00091E0909345028093440284E080934B0207
:1011F0001092540210925502109256021092570209
:10120000109258021092590210925A0210925B02E8
:1012100010925C0210925D0210925E0210925F02C8
:1012200010926002109261021092620210926302A8
:101230001092640210926502109266021092670288
:10124000C12CD12C80E8E82E8FE3F82EC0926802E2
:10125000D0926902E0926A02F0926B021092470209
:10126000109248021092490210924A0281E090E0E6
:1012700090937102809370028FEF809373021092AB
:101280006C0210926D0210926E0210926F028BE04F
:1012900080934C0289E080934D028AE080934E0255
:1012A00088E080934F02109272021092780210929E
:1012B000790210927A0210927B0210927C021092B4
:1012C0007D0210927E0210927F0210928002109294
:1012D00081021092820210928302C0928402D09204
:1012E0008502E0928602F0928702109246021092E6
:1012F000500210925102109252021092530284E452
:1013000092E00E943503C701B6010E94D106A701F1
:1013100096016091600270916102809162029091E9
:1013200063020E94580D882319F1C0926002D09286
:101330006102E0926202F092630280E094E2A4E72C
:10134000B9E48093840290938502A0938602B093BF
:1013500087028091780290917902A0917A02B091EF
:101360007B02181619061A061B0614F40E94A10621
:101370008CE390E0909331028093300284EF91E00F
:10138000909333028093320290933502809334021B
:1013900080E991E0909337028093360210923802F0
:1013A0001092390210923A0210923B0210923C02C3
:1013B00010923D0210923E0210923F0210924002A3
:1013C0008CE080932F0280912E028F7D8860809325
:1013D0002E020E94600780912E028B7E8D7F80936B
:1013E0002E02FF90EF90DF90CF900895789484B50F
:1013F000826084BD84B5816084BD85B5826085BD11
:1014000085B5816085BD80916E00816080936E009E
:101410001092810080918100826080938100809190
:101420008100816080938100809180008160809341
:1014300080008091B10084608093B1008091B00001
:1014400081608093B00080917A00846080937A00FC
:1014500080917A00826080937A0080917A00816026
:1014600080937A0080917A00806880937A0010924D
:10147000C10020E030E048E454E4609160027091E3
:10148000610280916202909163020E94580D88234C
:1014900039F180E090E0A8E4B4E480936002909396
:1014A0006102A0936202B093630280E090E4ACE931
:1014B000B4E48093840290938502A0938602B09353
:1014C00087028091780290917902A0917A02B0917E
:1014D0007B02181619061A061B0614F40E94A106B0
:1014E00060E070E088EC93E40E94D10620E030E0F8
:1014F00048E454E460915C0270915D0280915E0268
:1015000090915F020E94580D8823E9F1809060025B
:1015100090906102A0906202B09063027501640134
:10152000F7FAF094F7F8F09420E030E048E454EC57
:10153000C501B4010E94580D87FD0CC020E030E0C9
:1015400048E454E4C501B4010E94580D87FF18C255
:101550007501640120E030E0A901C701B6010E94D5
:10156000580D811113C21092470210924802109236
:10157000490210924A02C0925C02D0925D02E0924F
:101580005E02F0925F028091580290915902A09100
:101590005A02B0915B02883E9340A105B10581F0EB
:1015A00088EE93E0A0E0B0E0809358029093590257
:1015B000A0935A02B0935B0284E492E00E94480533
:1015C0008CE291E0909333028093320280912E025C
:1015D000886080932E0285FF0E94600780912E0212
:1015E0008D7F806180932E02E091A001F091A10196
:1015F00082E08083E0919C01F0919D011082E09156
:101600009E01F0919F018FEC80831092A801E091E0
:10161000A401F091A50186E08083E091A201F09100
:10162000A301808180618083E091A201F091A301F8
:10163000808188608083E091A201F091A301808184
:1016400080688083E091A201F091A30180818F7D69
:10165000808311E0C0E0D0E001E080912E0284FDA3
:101660000E948C0080912E0280FF31C090918601F3
:101670008E7F80932E0240915402509155026091CA
:10168000560270915702409358025093590260934A
:101690005A0270935B0210927802109279021092B3
:1016A0007A0210927B021092470210924802109226
:1016B000490210924A0210925C0210925D0210924E
:1016C0005E0210925F02892F8127809386018091AC
:1016D0002E0284FD0E948C0080912D0283FF4EC05B
:1016E00090918601877F80932D0291114CC080914B
:1016F000540290915502A0915602B09157028093E6
:10170000580290935902A0935A02B0935B02109230
:1017100078021092790210927A0210927B02109253
:101720004702109248021092490210924A02109207
:101730005C0210925D0210925E0210925F02809134
:1017400000018127809300018CE391E00E947F07D4
:101750006091000170E090E080E04AE00E948C0718
:1017600089E391E00E947F070093860189E491E07C
:101770000E947F0789E391E00E947F0780918601A4
:10178000882309F4F2C02091000130E0A8EEB3E014
:101790000E94CB0FC0905802D0905902E0905A029C
:1017A000F0905B026C157D058E059F0561F06093DE
:1017B00058027093590280935A0290935B0284E41A
:1017C00092E00E9448058AE591E00E947F076091BF
:1017D00054027091550280915602909157020E94D6
:1017E000F10786E691E00E947F07609158027091B0
:1017F000590280915A0290915B020E94F10788E79A
:1018000091E00E947F076091580270915902809187
:101810005A0290915B02C0905402D0905502E09021
:101820005602F09057026C197D098E099F090E949B
:10183000F107409158025091590260915A027091FB
:101840005B028091540290915502A0915602B09192
:101850005702481759076A077B0759F4809100011E
:101860008127809300011092860184E492E00E9417
:1018700069038091470290914802A0914902B0917A
:101880004A02892B8A2B8B2B09F46FC03FB7F8943F
:101890008091870190918801A0918901B0918A017E
:1018A00026B5A89B05C02F3F19F00196A11DB11DBB
:1018B0003FBFBA2FA92F982F88276C017D01C20E38
:1018C000D11CE11CF11C42E0CC0CDD1CEE1CFF1C09
:1018D0004A95D1F780916C0290916D02A0916E02B1
:1018E000B0916F02B701A601481B590B6A0B7B0B25
:1018F0008091470290914802A0914902B0914A021A
:10190000481759076A077B0780F18091540290912C
:101910005502A0915602B09157022091460222230F
:1019200009F455C00196A11DB11D809354029093F6
:101930005502A0935602B093570240915402509121
:101940005502609156027091570284E492E00E9421
:101950000805C0926C02D0926D02E0926E02F09285
:101960006F0284E492E00E944805209709F475CE46
:101970000E949202882309F470CE0E9400006DCE6E
:10198000C12CD12C58E4E52E54E4F52EA701960184
:1019900060E074E284E799E40E945D0D9F770E9405
:1019A000D60D60934702709348028093490290934A
:1019B0004A02C1E020E030E0A901C701B6010E945F
:1019C000B70E18160CF0C0E0C0934602D4CD0197B4
:1019D000A109B109AACF5058BB27AA270E94030D1D
:1019E0000C947D0E0E946F0E38F00E94760E20F04F
:1019F00039F49F3F19F426F40C946C0E0EF4E09524
:101A0000E7FB0C94660EE92F0E948E0E58F3BA176E
:101A1000620773078407950720F079F4A6F50C9404
:101A2000B00E0EF4E0950B2EBA2FA02D0B01B901CC
:101A300090010C01CA01A0011124FF27591B99F044
:101A4000593F50F4503E68F11A16F040A22F232F50
:101A5000342F4427585FF3CF469537952795A795A0
:101A6000F0405395C9F77EF41F16BA0B620B730B47
:101A7000840BBAF09150A1F0FF0FBB1F661F771FB8
:101A8000881FC2F70EC0BA0F621F731F841F48F46D
:101A9000879577956795B795F7959E3F08F0B0CFF6
:101AA0009395880F08F09927EE0F979587950895DD
:101AB0000E94420E08F481E008950E94710D0C947A
:101AC0007D0E0E94760E58F00E946F0E40F029F4B1
:101AD0005F3F29F00C94660E51110C94B10E0C94DA
:101AE0006C0E0E948E0E68F39923B1F3552391F387
:101AF000951B550BBB27AA2762177307840738F07D
:101B00009F5F5F4F220F331F441FAA1FA9F335D0D9
:101B10000E2E3AF0E0E832D091505040E695001C8D
:101B2000CAF72BD0FE2F29D0660F771F881FBB1F47
:101B3000261737074807AB07B0E809F0BB0B802D25
:101B4000BF01FF2793585F4F3AF09E3F510578F051
:101B50000C94660E0C94B10E5F3FE4F3983ED4F300
:101B6000869577956795B795F7959F5FC9F7880F25
:101B7000911D9695879597F90895E1E0660F771F77
:101B8000881FBB1F621773078407BA0720F0621B08
:101B9000730B840BBA0BEE1F88F7E09508950E9433
:101BA000D60D6894B1110C94B10E08950E94960E52
:101BB00088F09F5798F0B92F9927B751B0F0E1F00E
:101BC000660F771F881F991F1AF0BA95C9F714C0BE
:101BD000B13091F00E94B00EB1E008950C94B00EB7
:101BE000672F782F8827B85F39F0B93FCCF38695F7
:101BF00077956795B395D9F73EF490958095709554
:101C000061957F4F8F4F9F4F0895E89409C097FBD0
:101C10003EF490958095709561957F4F8F4F9F4FC3
:101C20009923A9F0F92F96E9BB279395F695879507
:101C300077956795B795F111F8CFFAF4BB0F11F4CA
:101C400060FF1BC06F5F7F4F8F4F9F4F16C0882371
:101C500011F096E911C0772321F09EE8872F762FA7
:101C600005C0662371F096E8862F70E060E02AF0E8
:101C70009A95660F771F881FDAF7880F96958795D4
:101C800097F90895990F0008550FAA0BE0E8FEEFA9
:101C900016161706E807F907C0F012161306E40730
:101CA000F50798F0621B730B840B950B39F40A2629
:101CB00061F0232B242B252B21F408950A2609F407
:101CC000A140A6958FEF811D811D089597F99F670B
:101CD00080E870E060E008959FEF80EC08950024B4
:101CE0000A941616170618060906089500240A9481
:101CF00012161306140605060895092E0394000C07
:101D000011F4882352F0BB0F40F4BF2B11F460FF95
:101D100004C06F5F7F4F8F4F9F4F089557FD9058BE
:101D2000440F551F59F05F3F71F04795880F97FB9F
:101D3000991F61F09F3F79F0879508951216130659
:101D40001406551FF2CF4695F1DF08C01616170688
:101D50001806991FF1CF86957105610508940895BD
:101D6000E894BB2766277727CB0197F908950E944F
:101D7000420E08F48FEF08950E94CF0E0C947D0E52
:101D80000E946F0E38F00E94760E20F0952311F01D
:101D90000C94660E0C946C0E11240C94B10E0E94DF
:101DA0008E0E70F3959FC1F3950F50E0551F629F03
:101DB000F001729FBB27F00DB11D639FAA27F00DA4
:101DC000B11DAA1F649F6627B00DA11D661F829FCB
:101DD0002227B00DA11D621F739FB00DA11D621FB0
:101DE000839FA00D611D221F749F3327A00D611DCD
:101DF000231F849F600D211D822F762F6A2F1124AF
:101E00009F5750409AF0F1F088234AF0EE0FFF1FE1
:101E1000BB1F661F771F881F91505040A9F79E3F38
:101E2000510580F00C94660E0C94B10E5F3FE4F304
:101E3000983ED4F3869577956795B795F795E7958E
:101E40009F5FC1F7FE2B880F911D9695879597F997
:101E5000089519F416F40C946C0E0C946F0F0E94F4
:101E6000960EB8F39923C9F3B6F39F57550B87FF26
:101E70000E947D0F0024A0E640EA9001805856950C
:101E8000979528F4805C660F771F881F20F026172F
:101E90003707480730F4621B730B840B2029312964
:101EA0004A2BA69517940794202531254A2758F7E1
:101EB000660F771F881F20F026173707480730F472
:101EC000620B730B840B200D311D411DA09581F712
:101ED000B901842F9158880F9695879508959F3F53
:101EE00031F0915020F4879577956795B795880FD5
:101EF000911D9695879597F9089591505040660FDA
:101F0000771F881FD2F70895A1E21A2EAA1BBB1BC8
:101F1000FD010DC0AA1FBB1FEE1FFF1FA217B307B5
:101F2000E407F50720F0A21BB30BE40BF50B661FCB
:101F3000771F881F991F1A9469F76095709580958F
:101F400090959B01AC01BD01CF010895052E97FB33
:101F50001EF400940E94BD0F57FD07D00E94840F0D
:101F600007FC03D04EF40C94BD0F5095409530956E
:101F700021953F4F4F4F5F4F0895909580957095F5
:101F800061957F4F8F4F9F4F0895EE0FFF1F059074
:101F9000F491E02D0994A29FB001B39FC001A39FCB
:101FA000700D811D1124911DB29F700D811D112492
:101FB000911D08950F931F93CF93DF938230910566
:101FC00010F482E090E0E0918A02F0918B0230E020
:101FD00020E0B0E0A0E0309799F42115310509F434
:101FE0004AC0281B390B24303105D8F58A819B81E2
:101FF0006115710589F1FB0193838283FE0111C094
:10200000408151810281138148175907E0F0481738
:10201000590799F4109761F012960C931297139642
:102020001C933296CF01DF91CF911F910F910895AC
:1020300000938A0210938B02F4CF2115310551F0E1
:102040004217530738F0A901DB019A01BD01DF01F6
:10205000F801C1CFEF01F9CF90938B0280938A02F0
:10206000CDCFFE01E20FF31F8193919322503109EE
:1020700039832883D7CF2091880230918902232B7E
:1020800041F420910301309104013093890220939F
:10209000880220910101309102012115310541F49E
:1020A0002DB73EB74091050150910601241B350B19
:1020B000E0918802F0918902E217F307A0F42E1B49
:1020C0003F0B2817390778F0AC014E5F5F4F24179C
:1020D000350748F04E0F5F1F5093890240938802E6
:1020E000819391939FCFF0E0E0E09CCFCF93DF937B
:1020F0000097E9F0FC01329713821282A0918A02C4
:10210000B0918B02ED0130E020E01097A1F4208126
:102110003181820F931F2091880230918902281704
:10212000390709F061C0F0938902E0938802DF91DA
:10213000CF910895EA01CE17DF07E8F54A815B8168
:102140009E0141155105B1F7E901FB83EA834991ED
:102150005991C40FD51FEC17FD0761F4808191815F
:102160000296840F951FE901998388838281938168
:102170009B838A83F0E0E0E012968D919C91139707
:102180000097B9F52D913C911197CD010296820FE0
:10219000931F20918802309189022817390739F658
:1021A000309751F510928B0210928A02B0938902F7
:1021B000A0938802BCCFD383C28340815181840F16
:1021C000951FC817D90761F44E5F5F4F88819981C9
:1021D000480F591F518340838A819B819383828357
:1021E0002115310509F0B0CFF0938B02E0938A02FC
:1021F0009ECFFD01DC01C0CF13821282D7CFF894AD
:10220000FFCF0100008C02800000000000C80228FF
:10221000025502150386026402780200000000697C
:10222000033503D00605084805CA040805B404822E
:102230000461042D040C04B60387030D0A007365C2
:1022400074537461747573203D20003D3D3D3D3DE8
:10225000484F4C4445443D3D3D3D3D004375727201
:10226000506F732069732000746172676574506FDA
:10227000736974696F6E203D200064697374616EC8
:082280006365546F474F200015
:107E0000112484B714BE81FFF0D085E080938100F7
:107E100082E08093C00088E18093C10086E0809377
:107E2000C20080E18093C4008EE0C9D0259A86E02C
:107E300020E33CEF91E0309385002093840096BBD3
:107E4000B09BFECF1D9AA8958150A9F7CC24DD24C4
:107E500088248394B5E0AB2EA1E19A2EF3E0BF2EE7
:107E6000A2D0813461F49FD0082FAFD0023811F036
:107E7000013811F484E001C083E08DD089C08234E0
:107E800011F484E103C0853419F485E0A6D080C0E4
:107E9000853579F488D0E82EFF2485D0082F10E0AE
:107EA000102F00270E291F29000F111F8ED06801E7
:107EB0006FC0863521F484E090D080E0DECF843638
:107EC00009F040C070D06FD0082F6DD080E0C81688
:107ED00080E7D80618F4F601B7BEE895C0E0D1E017
:107EE00062D089930C17E1F7F0E0CF16F0E7DF06D8
:107EF00018F0F601B7BEE89568D007B600FCFDCFD4
:107F0000A601A0E0B1E02C9130E011968C91119780
:107F100090E0982F8827822B932B1296FA010C0160
:107F200087BEE89511244E5F5F4FF1E0A038BF0790
:107F300051F7F601A7BEE89507B600FCFDCF97BE46
:107F4000E89526C08437B1F42ED02DD0F82E2BD052
:107F50003CD0F601EF2C8F010F5F1F4F84911BD097
:107F6000EA94F801C1F70894C11CD11CFA94CF0C13
:107F7000D11C0EC0853739F428D08EE10CD085E9AC
:107F80000AD08FE07ACF813511F488E018D01DD067
:107F900080E101D065CF982F8091C00085FFFCCF94
:107FA0009093C60008958091C00087FFFCCF809118
:107FB000C00084FD01C0A8958091C6000895E0E648
:107FC000F0E098E1908380830895EDDF803219F02E
:107FD00088E0F5DFFFCF84E1DECF1F93182FE3DFCA
:107FE0001150E9F7F2DF1F91089580E0E8DFEE27F6
:047FF000FF270994CA
:027FFE00040479
:00000001FF
