:020000040000FA
:100000000C9462000C948A000C948A000C948A0070
:100010000C948A000C948A000C948A000C948A0038
:100020000C948A000C948A000C948A000C948A0028
:100030000C948A000C948A000C948A000C948A0018
:100040000C9411080C948A000C9481080C945B08A1
:100050000C948A000C948A000C948A000C948A00F8
:100060000C948A000C948A000000000024002700F1
:100070002A0000000000250028002B0000000008D6
:10008000000201000003040700000000000000005F
:10009000010204081020408001020408102001021F
:1000A000040810200000000023002600290004049A
:1000B0000404040404040202020202020303030310
:1000C0000303B30811241FBECFEFD8E0DEBFCDBFBE
:1000D00011E0A0E0B1E0E6EFF1E202C005900D9280
:1000E000AA37B107D9F722E0AAE7B1E001C01D9213
:1000F000A038B207E1F710E0C2E6D0E004C02197D3
:10010000FE010E94BF0FC136D107C9F70E94000A45
:100110000C94F9100C9400008F929F92AF92BF92B2
:10012000CF92DF92EF92FF920F931F938091220262
:1001300082FD18C085FD16C0E0913502F0913602AF
:1001400020813091370281FB992790F983FB882722
:1001500080F98927922F932321E009F020E082275C
:10016000809333028FB7F8944091800150918101C0
:1001700060918201709183018FBF90913302209131
:10018000340280912102992309F4A5C02111A3C052
:1001900080FD7FC081608093210240932F025093A5
:1001A00030026093310270933202809134028823CE
:1001B00089F1992379F1009126021091270230E00C
:1001C00020E0C0902F02D0903002E0903102F090F9
:1001D00032024A015B018C189D08AE08BF08750108
:1001E0006401C016D106E206F306A0F08091210258
:1001F00081FD10C020912C0220932E028A648F77FB
:100200008093210240932F02509330026093310279
:100210007093320200912F0210913002209131022E
:1002200030913202401B510B620B730B009128027C
:100230001091290230E020E0401751076207730750
:1002400078F080912C02882359F0911109C0809395
:100250002D0210922C028091210284608093210251
:100260008091220286FF0AC010922D0290912102F5
:100270009B7F909321028F7B809322021F910F918D
:10028000FF90EF90DF90CF90BF90AF909F908F90B6
:10029000089500912F021091300220913102309187
:1002A00032026A017B01C01AD10AE20AF30A009104
:1002B00024021091250230E020E0C016D106E206AB
:1002C000F30608F4A7CF21E020933402806280680F
:1002D000809321026ACF8E7F80932102911165CF96
:1002E000222309F497CF1092340281FD05C080913A
:1002F0002C028F5F80932C02809121028D7F806180
:100300008093210240932F02509330026093310278
:100310007093320286FF07C010922D0210922C02B9
:100320008F7B809321028091210287FF73CF8F778B
:10033000809321028091220281608093220235CF36
:1003400090E0FC01E458FF4F2491FC01E057FF4F7F
:100350003491FC01E255FF4FE491EE23C9F02223D2
:1003600039F0233001F1A8F4213019F1223029F1BC
:10037000F0E0EE0FFF1FEE58FF4FA591B4918FB73D
:10038000F894EC91611126C030953E233C938FBFC9
:1003900008952730A9F02830C9F0243049F780911A
:1003A00080008F7D03C0809180008F7780938000D4
:1003B000DFCF84B58F7784BDDBCF84B58F7DFBCF56
:1003C0008091B0008F778093B000D2CF8091B00041
:1003D0008F7DF9CF3E2BDACFCF93DF9390E0FC01F6
:1003E000E057FF4F249182559F4FFC018491882351
:1003F000C9F090E0880F991FFC01E859FF4FA591C3
:10040000B491FC01EE58FF4FC591D49161110DC01C
:100410009FB7F8948C91209582238C938881282310
:1004200028839FBFDF91CF910895623051F49FB729
:10043000F8943C91822F809583238C93E8812E2B16
:10044000EFCF8FB7F894EC912E2B2C938FBFEACF80
:10045000AF92BF92CF92DF92EF92FF920F931F93D2
:10046000CF93DF936C017B018B01040F151FEB0110
:100470005E01AE18BF08C017D10759F06991D601C7
:10048000ED91FC910190F081E02DC6010995892B39
:1004900079F7C501DF91CF911F910F91FF90EF90F8
:1004A000DF90CF90BF90AF900895FC01538D448DA5
:1004B000252F30E0842F90E0821B930B541710F00F
:1004C000CF96089501970895FC01918D828D98171C
:1004D00061F0A28DAE0FBF2FB11D5D968C91928DF4
:1004E0009F5F9F73928F90E008958FEF9FEF089525
:1004F000FC01918D828D981731F0828DE80FF11DEE
:10050000858D90E008958FEF9FEF0895FC01918D08
:10051000228D892F90E0805C9F4F821B91098F7301
:100520009927089584E891E00E94860221E0892BB2
:1005300009F420E0822F089580E090E0892B29F0D3
:100540000E94920281110C9400000895FC01A48D78
:10055000A80FB92FB11DA35ABF4F2C91848D90E0E5
:1005600001968F739927848FA689B7892C93A089C8
:10057000B1898C91837080648C93938D848D981352
:1005800006C00288F389E02D80818F7D80830895E5
:10059000EF92FF920F931F93CF93DF93EC0181E0D3
:1005A000888F9B8D8C8D98131AC0E889F98980817A
:1005B00085FF15C09FB7F894EE89FF896083E889AD
:1005C000F98980818370806480839FBF81E090E09F
:1005D000DF91CF911F910F91FF90EF900895F62E2C
:1005E0000B8D10E00F5F1F4F0F731127E02E8C8DC6
:1005F0008E110CC00FB607FCFACFE889F98980810B
:1006000085FFF5CFCE010E94A602F1CFEB8DEC0F56
:10061000FD2FF11DE35AFF4FF0829FB7F8940B8F27
:10062000EA89FB8980818062CFCFCF93DF93EC0191
:10063000888D8823B9F0AA89BB89E889F9898C91CA
:1006400085FD03C0808186FD0DC00FB607FCF7CF86
:100650008C9185FFF2CF808185FFEDCFCE010E9486
:10066000A602E9CFDF91CF910895CF93DF93FC01EC
:100670002781222359F1EC0161E080850E94EC0181
:1006800061E089850E94EC018F81843011F088300F
:10069000B1F461E08A850E94EC0161E08B850E94E3
:1006A000EC018FA58F3F91F061E00E94EC016EA5F7
:1006B00081E068278FA5DF91CF910C94A001833052
:1006C00011F0863071F761E08A85E9CFDF91CF9133
:1006D0000895CF93DF93FC0127812223A9F0EC0139
:1006E0000190F081E02D0284F385E02D60E0099512
:1006F0008FA58F3F49F061E00E94EC016EA58FA5A8
:10070000DF91CF910C94A001DF91CF910895DC018E
:10071000ED91FC9122853385477055276627772711
:100720004150510961097109473051056105710551
:1007300060F4FA01E256FC4F0C94BF0FA803AA0321
:10074000AC03AE03B003B203B40361E0F901099452
:1007500065E0FCCF64E0FACF66E0F8CF62E0F6CF68
:100760006AE0F4CF68E0F2CF69E0F0CFCF93DF9397
:10077000EC01CB01BA0126E030E040E050E00E94FD
:10078000A00F623071058105910589F16CF4611546
:10079000710581059105D1F06130710581059105E3
:1007A000F9F0DF91CF9108956430710581059105CD
:1007B00061F124F1653071058105910591F7E881BA
:1007C000F9810284F385E02D66E006C0E881F981B5
:1007D0000284F385E02D64E0CE01DF91CF9109948E
:1007E000E881F9810284F385E02D65E0F5CFE881A9
:1007F000F9810284F385E02D61E0EECFE881F98193
:100800000284F385E02D63E0E7CFE881F98102847B
:10081000F385E02D62E0E0CFDC01ED91FC910284F4
:10082000F385E02D43705527662777274230510521
:100830006105710571F0433051056105710559F08D
:10084000413051056105710511F065E0099466E0DC
:10085000FDCF6AE0FBCF69E0F9CFCF93DF93EC01E6
:10086000CB01BA0123E030E040E050E00E94A00F4D
:10087000613071058105910599F06230710581053E
:100880009105A9F0672B682B692BC1F4E881F981E8
:100890000284F385E02D64E0CE01DF91CF910994CD
:1008A000E881F9810284F385E02D61E0F5CFE881EC
:1008B000F9810284F385E02D62E0EECFDF91CF91E4
:1008C0000895DC01ED91FC910284F385E02D4370E5
:1008D000552766277727423051056105710571F06C
:1008E000433051056105710559F0413051056105ED
:1008F000710511F062E0099463E0FDCF61E0FBCF88
:1009000060E0F9CFCF93DF93EC01E881F9810284B5
:10091000F385E02D8A8160E0811162E0CE010995C6
:10092000E881F9810284F385E02D8A8161E08111FB
:1009300063E0CE0109958CA59DA58230910538F024
:10094000880F991F880F991F05970197F1F7E88184
:10095000F9810284F385E02D8A8160E0811162E0F3
:10096000CE01DF91CF910994CF93DF93EC0120E08A
:1009700030E0A901688D798D8A8D9B8D0E94B10E22
:1009800018162CF4E8A9F9A9DF91CF910994EAA9E6
:10099000FBA9FACFCF92DF92EF92FF920F931F93B2
:1009A000CF93DF93DC011796CC91C43039F0C83077
:1009B00059F1C33019F0C63049F1C2E08C01085F2B
:1009C0001F4FF12CE12CC62ED12CD1E0F80164810F
:1009D000C6010E2C02C0959587950A94E2F780FD1A
:1009E0006D270F5F1F4F80810E94A001BFEFEB1AA0
:1009F000FB0AEC1658F3DF91CF911F910F91FF90F6
:100A0000EF90DF90CF900895C4E0D8CFC3E0D6CF69
:100A1000DC011796EC911797E93008F038C0F0E048
:100A2000EC5EFA4F0C94BF0F1D05230529052F0519
:100A3000350547053B0547054105ED91FC910684C9
:100A4000F785E02D0994ED91FC910088F189E02D66
:100A5000F9CFED91FC910288F389E02DF3CFED9170
:100A6000FC910488F589E02DEDCFED91FC9106888D
:100A7000F789E02DE7CFED91FC91008CF18DE02D11
:100A8000E1CFED91FC91028CF38DE02DDBCF089549
:100A90004F925F926F927F928F929F92AF92BF928E
:100AA000CF92DF92EF92FF920F931F93CF93DF933A
:100AB000EC01CC88DD88EE88FF8888899989AA892D
:100AC000BB89C81AD90AEA0AFB0A688D798D8A8D12
:100AD0009B8D9B01AC010E94B60E4B015C0168A18D
:100AE00079A18AA19BA19B01AC010E94E60C9B010C
:100AF000AC01C501B4010E94570D0E94C90DC1147B
:100B0000D104E104F10409F0B6C062307105810539
:100B100091050CF0D0C01B821C821D821E82188E93
:100B2000198E1A8E1B8E1CAA1DAA1EAA1FAAC12CC2
:100B3000D12C7601C701B601DF91CF911F910F91A2
:100B4000FF90EF90DF90CF90BF90AF909F908F90ED
:100B50007F906F905F904F900895101611061206C7
:100B60001306B4F46C157D058E059F051CF42A81CF
:100B70002111A1C09B01AC0188279927DC01821BB0
:100B8000930BA40BB50B8CAB9DABAEABBFAB93C0C3
:100B9000011511052105310509F48DC06C157D0580
:100BA0008E059F050CF087C08A81882309F483C0D5
:100BB00030952095109501951F4F2F4F3F4F0CAB4F
:100BC0001DAB2EAB3FAB77C00115110521053105DB
:100BD00009F471C08824992454018C189D08AE082A
:100BE000BF08681579058A059B050CF064C08A81E9
:100BF000811161C0DDCFCCACDDACEEACFFACA701A8
:100C00009601C701B6010E94E60C2B013C01C5010B
:100C1000B4010E94010E20E030E040E850E40E9460
:100C2000B60E20E030E040E85FE30E94E60C9B0156
:100C3000AC01C301B2010E94570D9B01AC01C70179
:100C4000B6010E94E50C3B016C01FE01E05CFF4F28
:100C5000E080F180028113819701A8010E94B10E0A
:100C6000181614F473018601C701D8018CAF9DAF2B
:100C7000AEAFBFAF3AC00CA91DA92EA93FA91C1445
:100C80001D041E041F040CF468CF10161106120672
:100C900013060CF099CF0027112798010C191D0994
:100CA0002E093F0960177107820793070CF062CF86
:100CB0002A8121115FCF8CA89DA8AEA8BFA881145E
:100CC0009104A104B10409F096CF88AD99ADAAAD05
:100CD000BBAD8CAF9DAFAEAFBFAF81E01C141D04A8
:100CE0001E041F040CF080E08A833FEF831A930AEE
:100CF000A30AB30A8CAA9DAAAEAABFAA8CAC9DACCB
:100D0000AEACBFACC501B4010E94D00D6B017C013B
:100D1000CB82DC82ED82FE82A501940160E074E268
:100D200084E799E40E94570D688F798F8A8F9B8F93
:100D30002A812111FFCE9058688F798F8A8F9B8FDF
:100D4000F9CECF92DF92EF92FF92CF93DF93C8E379
:100D5000D2E0688D798D8A8D9B8D9B01AC010E94BC
:100D6000B60E6B017C0168A179A18AA19BA19B01B0
:100D7000AC010E94E60C9B01AC01C701B6010E94C8
:100D8000570D0E94C90D6CAB7DAB8EAB9FABCE01F6
:100D9000DF91CF91FF90EF90DF90CF900C944805BA
:100DA00008954F925F926F927F928F929F92AF922F
:100DB000BF92CF92DF92EF92FF926B017C0120E015
:100DC00030E0A9010E94520D87FF04C0F7FAF094A9
:100DD000F7F8F0948090580290905902A0905A022F
:100DE000B0905B02A7019601C501B4010E94520DAB
:100DF000882309F458C060916C0270916D02809153
:100E00006E0290916F020E94010E2B013C01A7011E
:100E10009601C501B4010E94570D9B01AC01C301AD
:100E2000B2010E94B60E0E94C90D60936C027093CD
:100E30006D0280936E0290936F02A701960160E0AD
:100E400070E080E090E40E94570D0E94290F26E593
:100E50003EE04DE25FE30E94B60E20E034E244E75C
:100E600059E40E94B60E60937002709371028093F1
:100E7000720290937302C0925802D0925902E0928B
:100E80005A02F0925B0288E392E0FF90EF90DF90CD
:100E9000CF90BF90AF909F908F907F906F905F901A
:100EA0004F900C944805FF90EF90DF90CF90BF904B
:100EB000AF909F908F907F906F905F904F9008952C
:100EC000CF93DF93C1E2D2E060E08A810E94EC011F
:100ED0008A8190E0FC01E255FF4FE491F0E0EE0FD3
:100EE000FF1FEC55FF4F259134913D8B2C8BFC015E
:100EF000E057FF4FE491EE8BDF91CF910895FC0115
:100F000001900020E9F73197AF01481B590BBC0154
:100F100084E891E00C9428028F929F92AF92BF9246
:100F2000CF92DF92EF92FF920F931F93CF93DF93B5
:100F3000CDB7DEB7A1970FB6F894DEBF0FBECDBF19
:100F40006B017C01F7FE47C06DE284E891E00E94EE
:100F5000C8028C0122273327A9012C193D094E090B
:100F60005F0919A2CE0181967C019AE0892E912C0D
:100F7000A12CB12CCA01B901A50194010E947E0FD8
:100F8000605DF70162937F0121153105410551052F
:100F900089F790E080E0309719F0CF010E947F0739
:100FA000080F191F89E391E00E947F07800F911FAE
:100FB000A1960FB6F894DEBF0FBECDBFDF91CF91E3
:100FC0001F910F91FF90EF90DF90CF90BF90AF9067
:100FD0009F908F900895AC019B0119A28E010F5D27
:100FE0001F4F8AE0C82ED12CE12CF12CCA01B90187
:100FF000A70196010E947E0F605DF80162938F0148
:10100000211531054105510589F7309729F0CF01A8
:101010000E947F078C01C6CF10E000E0C3CF0C9484
:1010200070101F920F920FB60F9211242F933F93BF
:101030008F939F93AF93BF93809180019091810193
:10104000A0918201B091830130917F0123E0230FB1
:101050002D3758F50196A11DB11D20937F01809376
:10106000800190938101A0938201B09383018091CC
:101070007B0190917C01A0917D01B0917E01019650
:10108000A11DB11D80937B0190937C01A0937D01F4
:10109000B0937E01BF91AF919F918F913F912F911E
:1010A0000F900FBE0F901F90189526E8230F029601
:1010B000A11DB11DD2CF1F920F920FB60F92112416
:1010C0002F933F934F935F936F937F938F939F9350
:1010D000AF93BF93EF93FF9384E891E00E94A60241
:1010E000FF91EF91BF91AF919F918F917F916F9100
:1010F0005F914F913F912F910F900FBE0F901F90D6
:1011000018951F920F920FB60F9211242F938F9361
:101110009F93EF93FF93E0919401F091950180816B
:10112000E0919A01F0919B0182FD1BC0908180911A
:101130009D018F5F8F7320919E01821741F0E09196
:101140009D01F0E0EC57FE4F958F80939D01FF913C
:10115000EF919F918F912F910F900FBE0F901F9045
:1011600018958081F4CFCF92DF92EF92FF92109288
:1011700087011092860188EE93E0A0E0B0E08093B2
:10118000880190938901A0938A01B0938B018BE031
:1011900091E0909385018093840185EC90E0909399
:1011A00091018093900184EC90E09093930180935F
:1011B000920180EC90E0909395018093940181ECF2
:1011C00090E0909397018093960182EC90E0909349
:1011D00099018093980186EC90E090939B01809315
:1011E0009A0110929D0110929E0110929F011092FF
:1011F000A0018DE191E0909339028093380284E060
:1012000080933F02109248021092490210924A02C3
:1012100010924B0210924C0210924D0210924E020C
:1012200010924F02109250021092510210925202EC
:1012300010925302109254021092550210925602CC
:1012400010925702109258021092590210925A02AC
:1012500010925B02C12CD12C80E8E82E8FE3F82E8F
:10126000C0925C02D0925D02E0925E02F0925F0258
:1012700010923B0210923C0210923D0210923E02EC
:1012800081E090E090936502809364028FEF8093F9
:101290006702109260021092610210926202109234
:1012A00063028BE08093400289E0809341028AE0F0
:1012B0008093420288E0809343021092660210926B
:1012C0006C0210926D0210926E0210926F021092D8
:1012D00070021092710210927202109273021092B8
:1012E0007402109275021092760210927702C092E8
:1012F0007802D0927902E0927A02F0927B02109208
:101300003A02109244021092450210924602109244
:10131000470288E392E00E943503C701B6010E94AC
:10132000D106A701960160915402709155028091F7
:101330005602909157020E94520D882319F1C092D3
:101340005402D0925502E0925602F092570280E089
:1013500094E2A4E7B9E48093780290937902A09391
:101360007A02B0937B0280916C0290916D02A09101
:101370006E02B0916F02181619061A061B0614F4B5
:101380000E94A1068CE390E09093250280932402B2
:1013900084EF91E090932702809326029093290294
:1013A0008093280280E991E090932B0280932A0297
:1013B00010922C0210922D0210922E0210922F02E7
:1013C00010923002109231021092320210923302C7
:1013D000109234028CE080932302809122028F7D50
:1013E0008860809322020E946007809122028B7E97
:1013F0008D7F80932202FF90EF90DF90CF90089531
:10140000789484B5826084BD84B5816084BD85B5DF
:10141000826085BD85B5816085BD80916E008160EB
:1014200080936E0010928100809181008260809391
:101430008100809181008160809381008091800093
:101440008160809380008091B10084608093B100BE
:101450008091B00081608093B00080917A008460B8
:1014600080937A0080917A00826080937A008091E4
:101470007A00816080937A0080917A0080688093FE
:101480007A001092C10020E030E048E454E460911A
:1014900054027091550280915602909157020E9419
:1014A000520D882339F180E090E0A8E4B4E4809301
:1014B000540290935502A0935602B093570280E0D5
:1014C00090E4ACE9B4E48093780290937902A0931D
:1014D0007A02B0937B0280916C0290916D02A09190
:1014E0006E02B0916F02181619061A061B0614F444
:1014F0000E94A10660E070E088EC93E40E94D106AF
:1015000020E030E048E454E46091500270915102D0
:1015100080915202909153020E94520D8823E9F16A
:101520008090540290905502A0905602B0905702BD
:1015300075016401F7FAF094F7F8F09420E030E0D8
:1015400048E454ECC501B4010E94520D87FD0CC063
:1015500020E030E048E454E4C501B4010E94520D9B
:1015600087FF08C27501640120E030E0A901C701CE
:10157000B6010E94520D811103C210923B021092DB
:101580003C0210923D0210923E02C0925002D09254
:101590005102E0925202F092530280914C029091DB
:1015A0004D02A0914E02B0914F02883E9340A1059A
:1015B000B10581F088EE93E0A0E0B0E080934C02AA
:1015C00090934D02A0934E02B0934F0288E392E0B5
:1015D0000E9448058CE291E09093270280932602B6
:1015E0008091220288608093220285FF0E9460071A
:1015F000809122028D7F806180932202E09194018C
:10160000F091950182E08083E0919001F091910149
:101610001082E0919201F09193018FEC80831092FF
:101620009C01E0919801F091990186E08083E0911E
:101630009601F0919701808180618083E09196010D
:10164000F0919701808188608083E0919601F0910C
:101650009701808180688083E0919601F0919701E5
:1016600080818F7D808311E0C0E0D0E001E0809137
:10167000220284FD0E948C008091220280FF31C0F2
:1016800090917A018E7F809322024091480250917E
:10169000490260914A0270914B0240934C02509370
:1016A0004D0260934E0270934F0210926C021092A2
:1016B0006D0210926E0210926F0210923B02109215
:1016C0003C0210923D0210923E0210925002109283
:1016D00051021092520210925302892F8127809357
:1016E0007A018091220284FD0E948C008091210267
:1016F00083FF3EC090917A01877F809321029111F0
:101700003CC08091480290914902A0914A02B09158
:101710004B0280934C0290934D02A0934E02B093E3
:101720004F0210926C0210926D0210926E02109293
:101730006F0210923B0210923C0210923D021092F6
:101740003E021092500210925102109252021092D8
:1017500053028091000181278093000100937A0158
:101760008CE391E00E947F0789E391E00E947F076C
:1017700080917A01882309F4F2C02091000130E0C1
:10178000A8EEB3E00E94C50FC0904C02D0904D026D
:10179000E0904E02F0904F026C157D058E059F057E
:1017A00061F060934C0270934D0280934E029093CF
:1017B0004F0288E392E00E9448058DE491E00E9488
:1017C0007F07609148027091490280914A0290918E
:1017D0004B020E948C0789E591E00E947F0760918F
:1017E0004C0270914D0280914E0290914F020E94E6
:1017F0008C078BE691E00E947F0760914C0270910C
:101800004D0280914E0290914F02C0904802D090BC
:101810004902E0904A02F0904B026C197D098E0952
:101820009F090E948C0740914C0250914D0260919B
:101830004E0270914F028091480290914902A0910E
:101840004A02B0914B02481759076A077B0759F4BF
:101850008091000181278093000110927A0188E332
:1018600092E00E94690380913B0290913C02A0911A
:101870003D02B0913E02892B8A2B8B2B09F46FC05D
:101880003FB7F89480917B0190917C01A0917D01FC
:10189000B0917E0126B5A89B05C02F3F19F0019697
:1018A000A11DB11D3FBFBA2FA92F982F88276C010A
:1018B0007D01C20ED11CE11CF11C42E0CC0CDD1CF0
:1018C000EE1CFF1C4A95D1F7809160029091610255
:1018D000A0916202B0916302B701A601481B590BA7
:1018E0006A0B7B0B80913B0290913C02A0913D02E0
:1018F000B0913E02481759076A077B0780F1809133
:10190000480290914902A0914A02B0914B02209165
:101910003A02222309F455C00196A11DB11D8093FE
:10192000480290934902A0934A02B0934B0240911F
:1019300048025091490260914A0270914B0288E33B
:1019400092E00E940805C0926002D0926102E0928B
:101950006202F092630288E392E00E9448052097B9
:1019600009F485CE0E949202882309F480CE0E9459
:1019700000007DCEC12CD12C58E4E52E54E4F52E88
:10198000A701960160E074E284E799E40E94570D94
:101990009F770E94D00D60933B0270933C0280932E
:1019A0003D0290933E02C1E020E030E0A901C70172
:1019B000B6010E94B10E18160CF0C0E0C0933A02B6
:1019C000E4CD0197A109B109AACF5058BB27AA2796
:1019D0000E94FD0C0C94770E0E94690E38F00E9454
:1019E000700E20F039F49F3F19F426F40C94660E23
:1019F0000EF4E095E7FB0C94600EE92F0E94880E30
:101A000058F3BA17620773078407950720F079F433
:101A1000A6F50C94AA0E0EF4E0950B2EBA2FA02D6D
:101A20000B01B90190010C01CA01A0011124FF278B
:101A3000591B99F0593F50F4503E68F11A16F04086
:101A4000A22F232F342F4427585FF3CF4695379585
:101A50002795A795F0405395C9F77EF41F16BA0B4A
:101A6000620B730B840BBAF09150A1F0FF0FBB1FF8
:101A7000661F771F881FC2F70EC0BA0F621F731F41
:101A8000841F48F4879577956795B795F7959E3F9E
:101A900008F0B0CF9395880F08F09927EE0F97952F
:101AA000879508950E943C0E08F481E008950E94F5
:101AB0006B0D0C94770E0E94700E58F00E94690E08
:101AC00040F029F45F3F29F00C94600E51110C9402
:101AD000AB0E0C94660E0E94880E68F39923B1F346
:101AE000552391F3951B550BBB27AA276217730744
:101AF000840738F09F5F5F4F220F331F441FAA1FD8
:101B0000A9F335D00E2E3AF0E0E832D09150504093
:101B1000E695001CCAF72BD0FE2F29D0660F771F41
:101B2000881FBB1F261737074807AB07B0E809F027
:101B3000BB0B802DBF01FF2793585F4F3AF09E3FAC
:101B4000510578F00C94600E0C94AB0E5F3FE4F3FB
:101B5000983ED4F3869577956795B795F7959F5FEF
:101B6000C9F7880F911D9695879597F90895E1E03B
:101B7000660F771F881FBB1F621773078407BA079A
:101B800020F0621B730B840BBA0BEE1F88F7E095F5
:101B900008950E94D00D6894B1110C94AB0E089575
:101BA0000E94900E88F09F5798F0B92F9927B7514F
:101BB000B0F0E1F0660F771F881F991F1AF0BA95F1
:101BC000C9F714C0B13091F00E94AA0EB1E0089597
:101BD0000C94AA0E672F782F8827B85F39F0B93F89
:101BE000CCF3869577956795B395D9F73EF49095A4
:101BF0008095709561957F4F8F4F9F4F0895E89422
:101C000009C097FB3EF490958095709561957F4F44
:101C10008F4F9F4F9923A9F0F92F96E9BB279395F2
:101C2000F695879577956795B795F111F8CFFAF402
:101C3000BB0F11F460FF1BC06F5F7F4F8F4F9F4F33
:101C400016C0882311F096E911C0772321F09EE891
:101C5000872F762F05C0662371F096E8862F70E0F7
:101C600060E02AF09A95660F771F881FDAF7880FD1
:101C70009695879597F90895990F0008550FAA0B27
:101C8000E0E8FEEF16161706E807F907C0F012168F
:101C90001306E407F50798F0621B730B840B950B92
:101CA00039F40A2661F0232B242B252B21F40895E7
:101CB0000A2609F4A140A6958FEF811D811D089584
:101CC00097F99F6780E870E060E008959FEF80ECEF
:101CD000089500240A941616170618060906089592
:101CE00000240A9412161306140605060895092EF8
:101CF0000394000C11F4882352F0BB0F40F4BF2B67
:101D000011F460FF04C06F5F7F4F8F4F9F4F0895A6
:101D100057FD9058440F551F59F05F3F71F047959C
:101D2000880F97FB991F61F09F3F79F08795089581
:101D3000121613061406551FF2CF4695F1DF08C0A0
:101D4000161617061806991FF1CF869571056105BD
:101D500008940895E894BB2766277727CB0197F965
:101D600008950E943C0E08F48FEF08950E94C90E5A
:101D70000C94770E0E94690E38F00E94700E20F0CD
:101D8000952311F00C94600E0C94660E11240C94A3
:101D9000AB0E0E94880E70F3959FC1F3950F50E033
:101DA000551F629FF001729FBB27F00DB11D639F0D
:101DB000AA27F00DB11DAA1F649F6627B00DA11DB3
:101DC000661F829F2227B00DA11D621F739FB00D59
:101DD000A11D621F839FA00D611D221F749F3327C9
:101DE000A00D611D231F849F600D211D822F762F62
:101DF0006A2F11249F5750409AF0F1F088234AF03F
:101E0000EE0FFF1FBB1F661F771F881F91505040AA
:101E1000A9F79E3F510580F00C94600E0C94AB0E18
:101E20005F3FE4F3983ED4F3869577956795B79531
:101E3000F795E7959F5FC1F7FE2B880F911D96954B
:101E4000879597F9089519F416F40C94660E0C947E
:101E5000690F0E94900EB8F39923C9F3B6F39F5708
:101E6000550B87FF0E94770F0024A0E640EA9001FF
:101E700080585695979528F4805C660F771F881FC9
:101E800020F026173707480730F4621B730B840BCA
:101E9000202931294A2BA69517940794202531250E
:101EA0004A2758F7660F771F881F20F02617370735
:101EB000480730F4620B730B840B200D311D411D5C
:101EC000A09581F7B901842F9158880F9695879531
:101ED00008959F3F31F0915020F48795779567954D
:101EE000B795880F911D9695879597F9089591500C
:101EF0005040660F771F881FD2F70895A1E21A2E6F
:101F0000AA1BBB1BFD010DC0AA1FBB1FEE1FFF1F9D
:101F1000A217B307E407F50720F0A21BB30BE40BED
:101F2000F50B661F771F881F991F1A9469F7609534
:101F30007095809590959B01AC01BD01CF010895EE
:101F4000052E97FB1EF400940E94B70F57FD07D093
:101F50000E947E0F07FC03D04EF40C94B70F5095EF
:101F60004095309521953F4F4F4F5F4F0895909585
:101F70008095709561957F4F8F4F9F4F0895EE0F1D
:101F8000FF1F0590F491E02D0994A29FB001B39F2B
:101F9000C001A39F700D811D1124911DB29F700D72
:101FA000811D1124911D08950F931F93CF93DF93EB
:101FB0008230910510F482E090E0E0917E02F09191
:101FC0007F0230E020E0B0E0A0E0309799F42115E6
:101FD000310509F44AC0281B390B24303105D8F5E6
:101FE0008A819B816115710589F1FB01938382834D
:101FF000FE0111C0408151810281138148175907A8
:10200000E0F04817590799F4109761F012960C9375
:10201000129713961C933296CF01DF91CF911F91A7
:102020000F91089500937E0210937F02F4CF211543
:10203000310551F04217530738F0A901DB019A012D
:10204000BD01DF01F801C1CFEF01F9CF90937F020D
:1020500080937E02CDCFFE01E20FF31F8193919317
:102060002250310939832883D7CF20917C023091C7
:102070007D02232B41F42091030130910401309320
:102080007D0220937C0220910101309102012115F3
:10209000310541F42DB73EB740910501509106013D
:1020A000241B350BE0917C02F0917D02E217F307CF
:1020B000A0F42E1B3F0B2817390778F0AC014E5FB8
:1020C0005F4F2417350748F04E0F5F1F50937D0276
:1020D00040937C02819391939FCFF0E0E0E09CCF0E
:1020E000CF93DF930097E9F0FC01329713821282BD
:1020F000A0917E02B0917F02ED0130E020E01097C8
:10210000A1F420813181820F931F20917C023091B4
:102110007D022817390709F061C0F0937D02E09332
:102120007C02DF91CF910895EA01CE17DF07E8F531
:102130004A815B819E0141155105B1F7E901FB839D
:10214000EA8349915991C40FD51FEC17FD0761F43B
:10215000808191810296840F951FE901998388837C
:10216000828193819B838A83F0E0E0E012968D91D7
:102170009C9113970097B9F52D913C911197CD0142
:102180000296820F931F20917C0230917D022817C6
:10219000390739F6309751F510927F0210927E027E
:1021A000B0937D02A0937C02BCCFD383C2834081D5
:1021B0005181840F951FC817D90761F44E5F5F4F97
:1021C00088819981480F591F518340838A819B815F
:1021D000938382832115310509F0B0CFF0937F02FC
:1021E000E0937E029ECFFD01DC01C0CF13821282FC
:1021F000D7CFF894FFCF01000080028000000000DC
:1022000000C8022802550215038602640278020003
:1022100000000069033503D0060F084805CA04080A
:1022200005B404820461042D040C04B60387030D75
:102230000A003D3D3D3D3D484F4C4445443D3D3DFC
:102240003D3D0043757272506F73206973200074B6
:102250006172676574506F736974696F6E203D2099
:102260000064697374616E6365546F474F200000AA
:107E0000112484B714BE81FFF0D085E080938100F7
:107E100082E08093C00088E18093C10086E0809377
:107E2000C20080E18093C4008EE0C9D0259A86E02C
:107E300020E33CEF91E0309385002093840096BBD3
:107E4000B09BFECF1D9AA8958150A9F7CC24DD24C4
:107E500088248394B5E0AB2EA1E19A2EF3E0BF2EE7
:107E6000A2D0813461F49FD0082FAFD0023811F036
:107E7000013811F484E001C083E08DD089C08234E0
:107E800011F484E103C0853419F485E0A6D080C0E4
:107E9000853579F488D0E82EFF2485D0082F10E0AE
:107EA000102F00270E291F29000F111F8ED06801E7
:107EB0006FC0863521F484E090D080E0DECF843638
:107EC00009F040C070D06FD0082F6DD080E0C81688
:107ED00080E7D80618F4F601B7BEE895C0E0D1E017
:107EE00062D089930C17E1F7F0E0CF16F0E7DF06D8
:107EF00018F0F601B7BEE89568D007B600FCFDCFD4
:107F0000A601A0E0B1E02C9130E011968C91119780
:107F100090E0982F8827822B932B1296FA010C0160
:107F200087BEE89511244E5F5F4FF1E0A038BF0790
:107F300051F7F601A7BEE89507B600FCFDCF97BE46
:107F4000E89526C08437B1F42ED02DD0F82E2BD052
:107F50003CD0F601EF2C8F010F5F1F4F84911BD097
:107F6000EA94F801C1F70894C11CD11CFA94CF0C13
:107F7000D11C0EC0853739F428D08EE10CD085E9AC
:107F80000AD08FE07ACF813511F488E018D01DD067
:107F900080E101D065CF982F8091C00085FFFCCF94
:107FA0009093C60008958091C00087FFFCCF809118
:107FB000C00084FD01C0A8958091C6000895E0E648
:107FC000F0E098E1908380830895EDDF803219F02E
:107FD00088E0F5DFFFCF84E1DECF1F93182FE3DFCA
:107FE0001150E9F7F2DF1F91089580E0E8DFEE27F6
:047FF000FF270994CA
:027FFE00040479
:00000001FF
